:020000040800F2
:1000000010E10020810200080F750008CB5800089D
:100010006D740008D90F000877FF00080000000089
:10002000000000000000000000000000A101000826
:100030002532000800000000FD010008B9F10008A9
:100040009B0200089B0200089B0200089B0200081C
:100050009B0200089B020008593200086F3200081A
:1000600079320008833200088D3200089B020008B4
:100070009B0200089B0200089B0200089B020008EC
:100080009B0200089B0200089B0200089B020008DC
:100090009B0200089B0200089B02000897320008A0
:1000A0009B0200089B0200089B0200089B020008BC
:1000B0009B02000800000000000000009B020008F6
:1000C0009B0200089B0200089B0200089B0200089C
:1000D0009B02000879FE00089B02000889FE0008C8
:1000E000633200089B0200080000000000000000CE
:1000F0000000000000000000000000000000000000
:10010000000000009B020008000000009B020008A5
:1001100000000000000000009B020008A1F300089E
:100120009B0200089B0200089B0200089B0200083B
:100130009B0200080000000000000000000000001A
:100140009B0200089B0200089B0200089B0200081B
:100150009B0200089B0200089B0200089B0200080B
:100160009B0200089B0200089B02000800000000A0
:100170009B0200089B0200089B0200080000000090
:100180009B0200089B0200089B020008DFF80CD0CD
:1001900000F052FC00480047A113010810E10020C4
:1001A0002C4B1968086800F05AB880F30988BFF32F
:1001B0006F8F4FF0000080F311887047000000003F
:1001C00008480068006880F308884FF0000080F35A
:1001D000148862B661B6BFF34F8FBFF36F8F00DF35
:1001E00000BF00BF08ED00E0DFF80C00016841F43B
:1001F00070010160704700BF88ED00E0EFF30980F7
:10020000BFF36F8F134B1A681EF0100F08BF20ED5D
:10021000108A20E9F04F106009B44FF0500080F3CD
:100220001188BFF34F8FBFF36F8F12F0A9FA4FF011
:10023000000080F3118809BC1968086800F014B840
:100240001EF0100F08BF00F014B880F30988BFF348
:100250006F8F70470C020020EFF30580704730C8A5
:10026000B0E8C04FFFF7A1BF30C8B0E8C04FFFF7FC
:10027000E7BFB0EC088AB0EC08CAFFF7E6BF0000A1
:100280000648804706480047FEE7FEE7FEE7FEE730
:10029000FEE7FEE7FEE7FEE7FEE7FEE7A5F2000861
:1002A0008D0100082DE9F05F0546002092469B462F
:1002B00088460646814640241BE02846414647467C
:1002C000224600F0DEFA53465A46C01A914110D336
:1002D00011461846224600F0C5FA2D1A67EB0108B0
:1002E0004F4622460120002100F0BCFA17EB00091E
:1002F0004E41201EA4F10104DFDC484631462A4667
:10030000434600F000B830BCBDE8C09F40EA01039E
:100310009B0703D009E008C9121F08C0042AFAD2BB
:1003200003E011F8013B00F8013B521EF9D270477F
:10033000D2B201E000F8012B491EFBD27047002227
:10034000F6E710B513460A4604461946FFF7F0FFD4
:10035000204610BD10B5044604E00B7800F8013BC0
:1003600003B1491C521EF8D2204610BD421C10F8A1
:10037000011B0029FBD1801A704710B5002200E054
:10038000521C835C8C5CA34201D1002BF8D1D8B203
:10039000E1B2401A10BD30B504460020034600E02B
:1003A0005B1C934203D2E05CCD5C401BF8D030BDB7
:1003B000034611F8012B00F8012B002AF9D1184649
:1003C000704730B505460020034600E05B1C9342B1
:1003D00005D2EC5CC85C201A01D1002CF6D130BDEE
:1003E0002DE9FE4F804681EA0300C00F0C460090C5
:1003F00021F0004123F00045B8EB0200A94105D2ED
:100400004046214690461C460B46024623F00040DB
:10041000104347D0270DC7F30A00C3F30A510290D7
:10042000401A019040286BDAC3F3130040F4801B9C
:100430000098924620B10023D2EB030A63EB0B0B2A
:1004400001985946C0F14002504600F00BFA0646AA
:100450000D4650465946019A00F023FA10EB080069
:100460006141002487EA115284EAE7731A4340D0BD
:10047000009A62B3019A012A4FEA075215DC001B69
:1004800061EB02014FF0004202EA0752CDE900425F
:10049000001C41F5801132462B4600F023FA03B0D0
:1004A00000F045B840462146F9E7001B61EB020128
:1004B000001C41F5801300185B412018A2F50017BD
:1004C00047EB030140EAD570B6196D4111E06D08A4
:1004D0004FEA360645EAC0754FEA0752001B61EB4A
:1004E0000201001C41F5801149084FEA3000001953
:1004F000514132462B4603B000F01CB800F0E3B97E
:100500000098012240000023D0EB020263EBE0736D
:10051000009821464FEAE074B8EB000061EB04015B
:10052000E9E783F000435BE781F0004158E730BC26
:10053000BDE8C08F30BCBDE8C04FFFF7DFBF2DE97D
:10054000FE4F81EA030404F0004421F000410094CE
:100550004FF0000B23F0004350EA01045ED052EA52
:1005600003045BD0C3F30A54C1F30A552C44A4F22C
:10057000F3340194A0FB0254C1F3130141F4801140
:10058000C3F3130343F4801301FB024400FB034E47
:10059000840A970A44EA815447EA8357A4FB076810
:1005A00002958D0A05FB07854FEA932C04FB0C543A
:1005B0002705029D4FEA065847EA1637B5EB0805AE
:1005C0006EEB070C870E920E47EA811742EA831200
:1005D000A7FB0201B6EB0B0164EB00042B0D43EA11
:1005E0000C335E1844EB1C50DA465146E7FB02011F
:1005F000C5F313044FEA0B3343EA14534FEA0432B2
:10060000019C43EA0603A4F10C040294009CCDE98A
:1006100000B400F067F903B000F003B80020014611
:10062000F9E730BCBDE8C08F2DE9F04D81EA030445
:1006300004F0004B21F0004514464FF0000A23F06F
:10064000004150EA050220D054EA01021DD0C5F352
:100650000A570246C5F31303C1F31300C1F30A5648
:1006600040F4801543F48013A7EB0608101BD64610
:1006700008F2FD3873EB050002D308F1010801E030
:1006800092185B41B8F1000F03DA00200146BDE883
:10069000F08D00204FF48011064684460EE0171BB3
:1006A00073EB050705D3121B63EB050306434CEA06
:1006B000010C49084FEA300092185B4150EA0107EB
:1006C000EDD152EA030012D082EA040083EA050168
:1006D000084305D0101BAB4106D20122002306E0DF
:1006E00000224FF0004302E06FF0010253101AEBBA
:1006F00006004CEB085110EB0A0041EB0B01BDE882
:10070000F04D00F0E0B80EB5C10F80EAE07008448B
:10071000CA07002140F233438DE80E000A460B461B
:1007200000F0E0F803B000BD0EB540F23341029195
:100730000021CDE900110A460B4600F0D3F803B0C2
:1007400000BD70B5C1F30A5201F000450024C1F3A9
:10075000130140F2FF3341F480119A4201DA002084
:1007600070BD40F233439A42A2F2334203DC52425C
:1007700000F087F800E090402C43F1D0404270BD7B
:10078000C1F30A5210B5C1F3130140F2FF3341F433
:1007900080119A4201DA002010BD40F233439A42A0
:1007A000A2F2334203DC524200F06BF810BD9040DD
:1007B00010BD00F0004230F000400AD0C10D01F53C
:1007C0006071C0F3160042EA0151C20840071143AC
:1007D000704700200146704730B5041E71F10004D7
:1007E00004DB4FF00044404264EB0101141E73F13E
:1007F000000405DB1C464FF00043524263EB040348
:100800008B4208BF824230BD30B5041E71F1000436
:1008100004DB4FF00044404264EB0101141E73F10D
:10082000000405DB1C464FF00043524263EB040317
:10083000994208BF904230BD30B50B4601460020BA
:100840002022012409E021FA02F59D4205D303FA92
:1008500002F5491B04FA02F52844151EA2F1010213
:10086000F1DC30BD202A04DB203A00FA02F100203E
:1008700070479140C2F1200320FA03F319439040DE
:100880007047202A04DB203A21FA02F00021704749
:1008900021FA02F3D040C2F12002914008431946E8
:1008A0007047202A06DBCB17203A41FA02F043EAD0
:1008B000E07306E041FA02F3D040C2F12002914019
:1008C00008431946704710B5141E73F1000408DA86
:1008D000401C41F1000192185B411A4301D120F004
:1008E000010010BD2DE9F04D92469B4611B1B1FAC1
:1008F00081F202E0B0FA80F220329046FFF7B2FFB8
:1009000004460F4640EA0A0041EA0B0153465A46A4
:10091000084313D0114653EA010019D0C8F1400230
:100920005046FFF7AEFF05460E4650465946424632
:10093000FFF798FF084305D0012004E02046394620
:10094000BDE8F08D0020054346EAE0762C433743AE
:100950000A986305E40AA0EB08000022FD0A44EAB5
:1009600047540A3002D500200146E9E70105101975
:100970006941DDE9084500196941BDE8F04DA2E78C
:100980002DE9F041054621F000400C46284309D0EE
:10099000C4F30A5040F23341884205DD284621461F
:1009A000BDE8F0812846FBE740F2FE31884210DCCA
:1009B0000CDB4FEA043040EA155050EA053105D00F
:1009C000104804F0004101430020E9E700200146FF
:1009D000E6E7A0F233404642C6F1400228462146EF
:1009E000FFF740FF07468846284621463246FFF774
:1009F00048FF43463A46FFF766FF3246BDE8F041FE
:100A0000FFF730BF0000F03FC1F30A52C1F31301FA
:100A100040F2FF3341F480119A4202DA002001468D
:100A2000704740F233439A42A2F2334202DC524210
:100A3000FFF727BFFFF716BF064C074D06E0E0683B
:100A400040F0010394E8070098471034AC42F6D315
:100A5000FFF7A0FBD04F0108F04F010870B58C18CC
:100A600010F8015B15F0070301D110F8013B2A11C2
:100A700006D110F8012B03E010F8016B01F8016BAF
:100A80005B1EF9D12B0705D40023521E0DD401F8AB
:100A9000013BFAE710F8013BCB1A921C03E013F874
:100AA000015B01F8015B521EF9D5A142D8D30020A9
:100AB00070BD30B589B005460C461022002105A84E
:100AC00010F0E3FD224605A905A810F0BEF89DF838
:100AD000140000F08000E8B100BF00200AE005A982
:100AE000095C4A0005AB411C595C42EAE11105AAC8
:100AF0001154401C0F28F2DB9DF823104906090E03
:100B00008DF8231000BF9DF8230080F087008DF83A
:100B1000230016E000BF00200AE005A9095C4A0096
:100B200005AB411C595C42EAE11105AA1154401C75
:100B30000F28F2DB9DF823104906090E8DF82310CB
:100B400000BFD4F8140110280FD100BF002009E025
:100B500004F20111095C05AA125C514004F2011271
:100B60001154401C1028F3DB5DE09DF8140000F0E8
:100B70008000E8B100BF00200AE005A9095C4A0036
:100B800005AB411C595C42EAE11105AA1154401C15
:100B90000F28F2DB9DF823104906090E8DF823106B
:100BA00000BF9DF8230080F087008DF8230016E039
:100BB00000BF00200AE005A9095C4A0005AB411C02
:100BC000595C42EAE11105AA1154401C0F28F2DBDE
:100BD0009DF823104906090E8DF8231000BF8021CF
:100BE00004F20110D4F81421815405E0002104F22C
:100BF0000110D4F814218154D4F81401401CC4F815
:100C000014011028F2D300BF002009E004F2011102
:100C1000095C05AA125C514004F201121154401CF7
:100C20001028F3DB00BF00BF00200AE004F1F1014F
:100C3000095C04F20112125C514004F1F1021154FA
:100C4000401C1028F2DB00BF102204F1F10101A8C2
:100C500010F001FD2246294601A80FF0F6FF1022F0
:100C6000002105A810F011FD09B030BD10B50446F3
:100C70001022002104F1F10010F007FD0020C4F85B
:100C80001401F0220021204610F0FFFC10BD70B5C9
:100C900004460D4622461021284610F003F870BD88
:100CA0002DE9FF4104460F461546D4F814010028EB
:100CB0003BD0D4F81401C0F11000A84204D2D4F8FB
:100CC0001401C0F1100000E028460646B2B204F25A
:100CD0000111D4F814315818394610F0BCFCD4F87E
:100CE00014013044C4F81401D4F81401102801D3BD
:100CF000B54201D100F048B800BF00200AE004F17D
:100D0000F101095C04F20112125C514004F1F1029C
:100D10001154401C1028F2DB00BF224604F1F101FF
:100D200008460FF092FF3744AD1B21E000BF0020C2
:100D300008E004F1F101095C3A5C514004F1F10270
:100D40001154401C1028F4DB00BF102204F1F10103
:100D5000684610F080FC2246694668460FF075FF31
:100D60001022694604F1F10010F075FC1037103DB7
:100D7000102DDBD8AAB2394604F2011010F06BFC3A
:100D8000C4F8145100BFB5E703BCBDE8FC81000006
:100D90002DE9F04104460E4617464FF001086B4816
:100DA0000078C0F18000C5B2A01E092872D2DFE829
:100DB00000F005142B3A5372899AA9006448007810
:100DC000A84209DA624801780078401C604A107035
:100DD000604844544FF00008AFE0681E5C49097851
:100DE000884210DD5A4801780078401C584A10703B
:100DF00058484454104601780078401C10705548FB
:100E000046544FF0000898E051480078A84209DAAB
:100E10004F4801780078401C4D4A10704D484454AA
:100E20004FF0000889E0681E49490978884212DDC0
:100E3000474801780078401C454A107045484454A2
:100E4000104601780078401C1070424846540DF05E
:100E5000EDF84FF0000870E0A81E3D49097888427F
:100E600017DD3B4801780078401C394A107039483A
:100E70004454104601780078401C107035484654A0
:100E8000104601780078401C1070324847544FF0EB
:100E9000000852E04EE0681E2D490978884210DDB6
:100EA0002B4801780078401C294A10702948445486
:100EB000104601780078401C1070264846544FF0C8
:100EC00000083AE022480078A8420BDA204801786E
:100ED0000078401C1E4A10701E4844540DF0A6F8BD
:100EE0004FF0000829E01A480078A84209DA1848AB
:100EF00001780078401C164A1070164844544FF090
:100F000000081AE012480078A84212DA1048017866
:100F10000078401C0E4A10700E4844541046017868
:100F20000078401C10700B4846540DF07FF84FF0CD
:100F3000000802E00220BDE8F08100BFB8F1000F18
:100F400002D10120044908704046F4E7C0020020A5
:100F5000BF020020B6850020BE02002072B6034802
:100F60000078401C01490870704700007D03002094
:100F700004480078401E034908700846007800B90C
:100F800062B670477D030020002070470448006D62
:100F90000349496D48400249496E48407047000086
:100FA0000000F81F1C210A4880F87C1090F87C0093
:100FB00000F00F010120884081B20548A0F87E10A2
:100FC0000449C0F88010012180F8861070470000A5
:100FD000CC8F00200004004800BFFEE770B5054636
:100FE000002007490870002404E0285D02F0FCF8A6
:100FF000601CC4B2042CF8DB0148007870BD00000E
:101000004800002010B52DED048B8AB00020089018
:10101000099054208DF820006948008800128DF84E
:101020002100674800788DF82200664800788DF826
:101030002300644840788DF82400624880788DF859
:1010400025006048C0788DF826005E4800798DF84C
:1010500027009DF827009DF826109DF825209DF873
:101060002430CDE90232CDE904109DF823009DF82B
:101070002210CDE900109DF821309DF82020504825
:10108000018801F54031504810F04CFC4FA010F0A1
:1010900049FC082208A94A48008800F5403010F0B1
:1010A000ABF80FF0BFFF082208A94548008800F5FB
:1010B00040300FF0F3FF9DF827109DF826209DF893
:1010C00025009DF82430CDE90230CDE904219DF8BA
:1010D00023009DF82210CDE900109DF821309DF8E5
:1010E00020203748018801F54031394810F01AFCBA
:1010F00036A010F017FC00243248C07844EA00649F
:101100003048807844EA00442E48407844EA00247D
:101110002C48007804432046FFF706FB41EC190BEE
:101120009FED2C0B53EC102BFFF709FA41EC180B39
:101130009FED2A0B53EC102BFFF776FACDE9060151
:10114000082206A91E48008800F5A01010F054F8E7
:101150000FF068FF082208A91948008800F5A010C0
:101160000FF09CFF9DF827109DF826009DF8252084
:101170009DF82430CDE90232CDE904019DF8230029
:101180009DF82210CDE900109DF821309DF8202017
:101190000B48018801F5A011124810F0C3FB0BA009
:1011A00010F0C0FB9DED060B53EC102B0EA010F0C1
:1011B000B9FB06A010F0B6FB0AB0BDEC048B10BD65
:1011C000A401002058000020484B01080D0A00002F
:1011D000384601089E63E7F71EC2A2402575029AB1
:1011E000081B3E41BC4001083E3E494E464F3A2056
:1011F00041637469766520456E65726779203D208C
:10120000256C662057617474730D0A0D0A00000086
:1012100010B52DED048B8AB00020089009905C2059
:101220008DF820006A48008800128DF82100684877
:1012300000788DF82200674800788DF82300654813
:1012400040788DF82400634880788DF82500614847
:10125000C0788DF826005F4800798DF827009DF84A
:1012600027009DF826209DF825109DF82430CDE913
:101270000231CDE904209DF823009DF82210CDE92C
:1012800000109DF821309DF820205148018801F57B
:10129000E021514810F046FB50A010F043FB08221B
:1012A00008A94B48008800F5E0200FF0A5FF0FF0DB
:1012B000B9FE082208A94648008800F5E0200FF092
:1012C000EDFE9DF827209DF826009DF825109DF83D
:1012D0002430CDE90231CDE904029DF823009DF8C8
:1012E0002210CDE900109DF821309DF820203848CB
:1012F000018801F5E0213A4810F014FB37A010F006
:1013000011FB00243348C07844EA006431488078F7
:1013100044EA00442F48407844EA00242D480078ED
:10132000044324F060442046FFF7FEF941EC190B1A
:101330009FED2C0B53EC102BFFF701F941EC180B30
:101340009FED2A0B53EC102BFFF76EF9CDE9060148
:10135000082206A91E48008800F5C0100FF04CFFB7
:101360000FF060FE082208A91948008800F5C01097
:101370000FF094FE9DF827009DF826109DF825207B
:101380009DF82430CDE90232CDE904109DF8230008
:101390009DF82210CDE900109DF821309DF8202005
:1013A0000B48018801F5C011124810F0BBFA0BA0E0
:1013B00010F0B8FA9DED060B53EC102B0EA010F0B8
:1013C000B1FA06A010F0AEFA0AB0BDEC048B10BD65
:1013D000A40100206C000020D84901080D0A00007B
:1013E000BC4401089E63E7F71EC2A2400000000053
:1013F00026241C42403F01083E3E494E464F3A20BB
:1014000041637469766520506F776572203D2025B1
:101410006C6620576174744872730D0A0D0A0000DF
:1014200010B52DED048B8AB00020089009905A2049
:101430008DF820006948008800128DF82100674867
:1014400000788DF82200664800788DF82300644803
:1014500040788DF82400624880788DF82500604837
:10146000C0788DF826005E4800798DF827009DF839
:1014700027009DF826109DF825209DF82430CDE901
:101480000232CDE904109DF823009DF82210CDE929
:1014900000109DF821309DF820205048018801F56A
:1014A000C021504810F03EFA4FA010F03BFA08223D
:1014B00008A94A48008800F5C0200FF09DFE0FF0F3
:1014C000B1FD082208A94548008800F5C0200FF0AA
:1014D000E5FD9DF827109DF826209DF825009DF834
:1014E0002430CDE90230CDE904219DF823009DF898
:1014F0002210CDE900109DF821309DF820203748BA
:10150000018801F5C021394810F00CFA36A010F01E
:1015100009FA00243248C07844EA006430488078F0
:1015200044EA00442E48407844EA00242C480078DD
:1015300004432046FFF7F8F841EC190B9FED2C0B04
:1015400053EC102BFEF7FBFF41EC180B9FED2A0B21
:1015500053EC102BFFF768F8CDE90601082206A925
:101560001E48008800F5B8100FF046FE0FF05AFD37
:10157000082208A91948008800F5B8100FF08EFD60
:101580009DF827109DF826009DF825209DF8243011
:10159000CDE90232CDE904019DF823009DF8221027
:1015A000CDE900109DF821309DF820200B480188DE
:1015B00001F5B811124810F0B5F90BA010F0B2F90E
:1015C0009DED060B53EC102B0EA010F0ABF906A00E
:1015D00010F0A8F90AB0BDEC048B10BDA4010020E6
:1015E00067000020044C01080D0A0000FC460108B9
:1015F0009E63E7F71EC2A2402575029A081B3E4172
:10160000804101083E3E494E464F3A20417070618C
:1016100072656E7420456E65726779203D20256C79
:10162000662057617474730D0A0D0A0010B52DED14
:10163000048B8AB000200890099062208DF8200069
:101640006A48008800128DF82100684800788DF8FB
:101650002200674800788DF82300654840788DF8AF
:101660002400634880788DF825006148C0788DF8A3
:1016700026005F4800798DF827009DF827009DF827
:1016800026209DF825109DF82430CDE90231CDE9C2
:1016900004209DF823009DF82210CDE900109DF84C
:1016A00021309DF820205148018801F52021514822
:1016B00010F038F950A010F035F9082208A94B486D
:1016C000008800F520200FF097FD0FF0ABFC0822FA
:1016D00008A94648008800F520200FF0DFFC9DF89F
:1016E00027209DF826009DF825109DF82430CDE98F
:1016F0000231CDE904029DF823009DF82210CDE9C6
:1017000000109DF821309DF820203848018801F50F
:1017100020213A4810F006F937A010F003F9002410
:101720003348C07844EA00643148807844EA004491
:101730002F48407844EA00242D480078044324F0E0
:1017400060442046FEF7F0FF41EC190B9FED2C0B97
:1017500053EC102BFEF7F3FE41EC180B9FED2A0B18
:1017600053EC102BFEF760FFCDE90601082206A915
:101770001E48008800F5D8100FF03EFD0FF052FC17
:10178000082208A91948008800F5D8100FF086FC37
:101790009DF827009DF826109DF825209DF82430FF
:1017A000CDE90232CDE904109DF823009DF8221006
:1017B000CDE900109DF821309DF820200B480188CC
:1017C00001F5D811124810F0ADF80BA010F0AAF8EE
:1017D0009DED060B53EC102B0EA010F0A3F806A005
:1017E00010F0A0F80AB0BDEC048B10BDA4010020DD
:1017F0007B000020244901080D0A00000444010870
:101800009E63E7F71EC2A2400000000026241C428F
:10181000843E01083E3E494E464F3A204170706179
:1018200072656E745F524D5320506F776572203D24
:1018300020256C6620576174744872730D0A0D0A76
:101840000000000010B52DED048B8AB00024324852
:10185000407844EAE0143048807844EA40042E4856
:10186000C07844EA402084B22046FEF75DFF41EC98
:10187000190B9FED2A0B53EC102BFEF760FE41EC89
:10188000180B9FED280B53EC102BFEF7CDFECDE986
:101890000801082208A92548008800F590100FF0DB
:1018A000ABFC0FF0BFFB002006900790082206A9B2
:1018B0001E48008800F590100FF0F0FB9DF81F0007
:1018C0009DF81E209DF81D109DF81C30CDE90231B9
:1018D000CDE904209DF81B009DF81A10CDE90010F9
:1018E0009DF819309DF818201048018801F59011D5
:1018F0000F4810F017F80FA010F014F89DED080B2A
:1019000053EC102B0CA010F00DF80AA010F00AF800
:101910000AB0BDEC048B10BD4E000020E17A14AE7D
:1019200047E1F23F158C4AEA04348140A4010020CB
:10193000243D01080D0A00003E3E494E464F3A2024
:1019400043313D20256C6620416D70730D0A000007
:1019500010B52DED048B8AB00020089009902E2040
:101960008DF820007248008800128DF82100704820
:1019700000788DF822006F4800788DF823006D48BC
:1019800040788DF824006B4880788DF825006948F0
:10199000C0788DF82600674800798DF827009DF8FB
:1019A00027109DF826209DF825009DF82430CDE9CC
:1019B0000230CDE904219DF823009DF82210CDE9E5
:1019C00000109DF821309DF82020594801885A4880
:1019D0000FF0A8FF59A00FF0A5FF082208A954484E
:1019E00000880FF009FC0FF01DFB082208A95048E1
:1019F00000880FF053FB9DF827009DF826109DF8F6
:101A000025209DF82430CDE90232CDE904109DF85F
:101A100023009DF82210CDE900109DF821309DF89B
:101A200020204348018846480FF07CFF43A00FF078
:101A300079FF4048407844EA00243E4880780443D7
:101A40002046FEF771FE41EC190B9FED3E0B53EC67
:101A5000102BFEF774FD41EC180B53EC182B9FED87
:101A60003B0B51EC100BFEF7DFFDCDE90601082220
:101A700006A92F48008800F580100FF0BDFB0FF07D
:101A8000D1FA082208A92A48008800F580100FF032
:101A900005FB9DF827009DF826109DF825209DF850
:101AA0002430CDE90232CDE904109DF823009DF8E1
:101AB0002210CDE900109DF821309DF820201C480F
:101AC000018801F5801123480FF02CFF1BA00FF0B7
:101AD00029FF9FED210B53EC102B9DED060B51ECD4
:101AE000100BFEF779FE0AD39FED1D0B53EC102B64
:101AF0009DED060B51EC100BFEF786FE0AD29DED14
:101B0000060B53EC102B18A00FF00CFF0BA00FF0DE
:101B100009FF09E09DED060B53EC102B1CA00FF004
:101B200001FF06A00FF0FEFE0AB0BDEC048B10BD55
:101B3000A401002049000020D03C01080D0A00004B
:101B4000AC4301088DEDB5A0F7C6E03E00000000F3
:101B50000000F03F2C3E01080000000000804640DD
:101B600000000000004050403E3E5741524E494E5A
:101B7000473A204552524F523A20467265712065CD
:101B800072726F723A20256620487A0D0A0D0A009B
:101B90003E3E494E464F3A20467265713A202566D0
:101BA00020487A0D0A0D0A0010B52DED048B8AB07D
:101BB00000200890099056208DF820006948008880
:101BC00000128DF82100674800788DF822006648E1
:101BD00000788DF82300644840788DF8240062482E
:101BE00080788DF825006048C0788DF826005E4822
:101BF00000798DF827009DF827009DF826109DF8A4
:101C000025209DF82430CDE90232CDE904109DF85D
:101C100023009DF82210CDE900109DF821309DF899
:101C200020205048018801F5802150480FF07AFEAD
:101C30004FA00FF077FE082208A94A48008800F557
:101C400080200FF0D9FA0FF0EDF9082208A94548D5
:101C5000008800F580200FF021FA9DF827109DF8EC
:101C600026209DF825009DF82430CDE90230CDE9ED
:101C700004219DF823009DF82210CDE900109DF865
:101C800021309DF820203748018801F5802139480E
:101C90000FF048FE36A00FF045FE00243248C07811
:101CA00044EA00643048807844EA00442E48407892
:101CB00044EA00242C48007804432046FEF734FD13
:101CC00041EC190B9FED2C0B53EC102BFEF737FC5E
:101CD00041EC180B9FED2A0B53EC102BFEF7A4FCE4
:101CE000CDE90601082206A91E48008800F5A810C3
:101CF0000FF082FA0FF096F9082208A91948008817
:101D000000F5A8100FF0CAF99DF827109DF82600DD
:101D10009DF825209DF82430CDE90232CDE904015B
:101D20009DF823009DF82210CDE900109DF8213088
:101D30009DF820200B48018801F5A81112480FF0EA
:101D4000F1FD0BA00FF0EEFD9DED060B53EC102BFB
:101D50000EA00FF0E7FD06A00FF0E4FD0AB0BDEC09
:101D6000048B10BDA40100205D0000208C4A0108F6
:101D70000D0A0000744501089E63E7F71EC2A240E9
:101D80002575029A081B3E41F83F01083E3E494E28
:101D9000464F3A2046756E64616D656E74616C20C5
:101DA000456E65726779203D20256C662057617409
:101DB00074730D0A0D0A000010B52DED048B8AB066
:101DC0000020089009905E208DF820006A48008865
:101DD00000128DF82100684800788DF822006748CD
:101DE00000788DF82300654840788DF8240063481A
:101DF00080788DF825006148C0788DF826005F480E
:101E000000798DF827009DF827009DF826209DF881
:101E100025109DF82430CDE90231CDE904209DF84C
:101E200023009DF82210CDE900109DF821309DF887
:101E300020205148018801F5002151480FF072FD22
:101E400050A00FF06FFD082208A94B48008800F54C
:101E500000200FF0D1F90FF0E5F8082208A9464854
:101E6000008800F500200FF019F99DF827209DF853
:101E700026009DF825109DF82430CDE90231CDE9EA
:101E800004029DF823009DF82210CDE900109DF872
:101E900021309DF820203848018801F500213A487A
:101EA0000FF040FD37A00FF03DFD00243348C0780F
:101EB00044EA00643148807844EA00442F4840787E
:101EC00044EA00242D480078044324F0604420466E
:101ED000FEF72AFC41EC190B9FED2C0B53EC102B59
:101EE000FEF72DFB41EC180B9FED2A0B53EC102B4A
:101EF000FEF79AFBCDE90601082206A91E480088D4
:101F000000F5C8100FF078F90FF08CF8082208A936
:101F10001948008800F5C8100FF0C0F89DF8270098
:101F20009DF826109DF825209DF82430CDE9023239
:101F3000CDE904109DF823009DF82210CDE9001092
:101F40009DF821309DF820200B48018801F5C8112B
:101F500012480FF0E7FC0BA00FF0E4FC9DED060B20
:101F600053EC102B0EA00FF0DDFC06A00FF0DAFCF6
:101F70000AB0BDEC048B10BDA4010020710000204C
:101F8000804901080D0A0000604401089E63E7F7DC
:101F90001EC2A2400000000026241C42E43E0108AC
:101FA0003E3E494E464F3A2046756E64616D656E01
:101FB00074616C20506F776572203D20256C66201F
:101FC000576174744872730D0A0D0A0010B52DED37
:101FD000068B8AB00020089009904E208DF82000D2
:101FE0006A48008800128DF82100684800788DF852
:101FF0002200674800788DF82300654840788DF806
:102000002400634880788DF825006148C0788DF8F9
:1020100026005F4800798DF827009DF827109DF86D
:1020200026209DF825009DF82430CDE90230CDE929
:1020300004219DF823009DF82210CDE900109DF8A1
:1020400021309DF820205148018801F50031514888
:102050000FF068FC50A00FF065FC082208A94B485F
:10206000008800F500300FF0C7F80EF0DBFF082203
:1020700008A94648008800F500300FF00FF89DF8D9
:1020800027109DF826209DF825009DF82430CDE9E5
:102090000230CDE904219DF823009DF82210CDE9FE
:1020A00000109DF821309DF820203848018801F566
:1020B00000313A480FF036FC37A00FF033FC3448BB
:1020C000C07844EA002432488078044341F6FE7028
:1020D00004402046FEF728FB41EC1A0B9FED300B25
:1020E00053EC102BFEF7A0FA41EC190B9FED2E0BD1
:1020F00053EC102BFEF723FA41EC180B9FED2C0B41
:1021000053EC102BFEF71BFACDE90601082206A9B5
:102110001E48008800F598100FF06EF80EF082FF50
:10212000082208A91948008800F598100EF0B6FF9B
:102130009DF827109DF826009DF825209DF8243055
:10214000CDE90232CDE904019DF823009DF822106B
:10215000CDE900109DF821309DF820200B48018822
:1021600001F5981114480FF0DDFB0BA00FF0DAFB1E
:102170009DED060B53EC102B10A00FF0D3FB06A027
:102180000FF0D0FB0AB0BDEC068B10BDA4010020FF
:1021900053000020D04801080D0A000054430108F4
:1021A000000000008084FE40000000000000494064
:1021B0000000000000807640D43D01083E3E494EBC
:1021C000464F3A205068617365203D20256C66209B
:1021D000646567726565730D0A0D0A0010B52DED13
:1021E000048B8AB000200890099058208DF82000B8
:1021F0006948008800128DF82100674800788DF842
:102200002200664800788DF82300644840788DF8F5
:102210002400624880788DF825006048C0788DF8E9
:1022200026005E4800798DF827009DF827009DF86C
:1022300026109DF825209DF82430CDE90232CDE905
:1022400004109DF823009DF82210CDE900109DF8A0
:1022500021309DF820205048018801F5A0215048E8
:102260000FF060FB4FA00FF05DFB082208A94A4861
:10227000008800F5A0200EF0BFFF0EF0D3FE08226C
:1022800008A94548008800F5A0200EF007FF9DF83A
:1022900027109DF826209DF825009DF82430CDE9D3
:1022A0000230CDE904219DF823009DF82210CDE9EC
:1022B00000109DF821309DF820203748018801F555
:1022C000A02139480FF02EFB36A00FF02BFB002485
:1022D0003248C07844EA00643048807844EA0044D8
:1022E0002E48407844EA00242C48007804432046D5
:1022F000FEF71AFA41EC190B9FED2C0B53EC102B47
:10230000FEF71DF941EC180B9FED2A0B53EC102B37
:10231000FEF78AF9CDE90601082206A91E480088C1
:1023200000F5B0100EF068FF0EF07CFE082208A940
:102330001948008800F5B0100EF0B0FE9DF8271087
:102340009DF826009DF825209DF82430CDE9023225
:10235000CDE904019DF823009DF82210CDE900107D
:102360009DF821309DF820200B48018801F5B0111F
:1023700012480FF0D7FA0BA00FF0D4FA9DED060B20
:1023800053EC102B0EA00FF0CDFA06A00FF0CAFAF6
:102390000AB0BDEC048B10BDA40100206200002037
:1023A000C04C01080D0A0000B84701089E63E7F71A
:1023B0001EC2A2402575029A081B3E413C420108FC
:1023C0003E3E494E464F3A205265616374697665D8
:1023D00020456E65726779203D20256C6620576127
:1023E0007474730D0A0D0A0010B52DED048B8AB0BC
:1023F00000200890099060208DF820006A4800882D
:1024000000128DF82100684800788DF82200674896
:1024100000788DF82300654840788DF824006348E3
:1024200080788DF825006148C0788DF826005F48D7
:1024300000798DF827009DF827009DF826209DF84B
:1024400025109DF82430CDE90231CDE904209DF816
:1024500023009DF82210CDE900109DF821309DF851
:1024600020205148018801F5102151480FF05AFAF7
:1024700050A00FF057FA082208A94B48008800F531
:1024800010200EF0B9FE0EF0CDFD082208A9464836
:10249000008800F510200EF001FE9DF827209DF821
:1024A00026009DF825109DF82430CDE90231CDE9B4
:1024B00004029DF823009DF82210CDE900109DF83C
:1024C00021309DF820203848018801F510213A4834
:1024D0000FF028FA37A00FF025FA00243348C0780F
:1024E00044EA00643148807844EA00442F48407848
:1024F00044EA00242D480078044324F06044204638
:10250000FEF712F941EC190B9FED2C0B53EC102B3D
:10251000FEF715F841EC180B9FED2A0B53EC102B2E
:10252000FEF782F8CDE90601082206A91E480088B8
:1025300000F5D0100EF060FE0EF074FD082208A920
:102540001948008800F5D0100EF0A8FD9DF827006E
:102550009DF826109DF825209DF82430CDE9023203
:10256000CDE904109DF823009DF82210CDE900105C
:102570009DF821309DF820200B48018801F5D011ED
:1025800012480FF0CFF90BA00FF0CCF99DED060B20
:1025900053EC102B0EA00FF0C5F906A00FF0C2F9F6
:1025A0000AB0BDEC048B10BDA40100207600002011
:1025B000344A01080D0A0000184501089E63E7F738
:1025C0001EC2A2400000000026241C429C3F0108BD
:1025D0003E3E494E464F3A205265616374697665C6
:1025E00020506F776572203D20256C6620576174FE
:1025F000744872730D0A0D0A0000000010B52DED2D
:10260000048B8AB000200890099084208DF8200067
:102610006948008800128DF82100674800788DF81D
:102620002200664800788DF82300644840788DF8D1
:102630002400624880788DF825006048C0788DF8C5
:1026400026005E4800798DF827009DF827009DF848
:1026500026109DF825209DF82430CDE90232CDE9E1
:1026600004109DF823009DF82210CDE900109DF87C
:1026700021309DF820205048018801F53021504834
:102680000FF050F94FA00FF04DF9082208A94A4861
:10269000008800F530200EF0AFFD0EF0C3FC0822DC
:1026A00008A94548008800F530200EF0F7FC9DF899
:1026B00027109DF826209DF825009DF82430CDE9AF
:1026C0000230CDE904219DF823009DF82210CDE9C8
:1026D00000109DF821309DF820203748018801F531
:1026E000302139480FF01EF936A00FF01BF90024F5
:1026F0003248C07844EA00643048807844EA0044B4
:102700002E48407844EA00242C48007804432046B0
:10271000FEF70AF841EC190B9FED2C0B53EC102B34
:10272000FDF70DFF41EC180B9FED2A0B53EC102B1E
:10273000FDF77AFFCDE90601082206A91E480088A8
:1027400000F5E0100EF058FD0EF06CFC082208A910
:102750001948008800F5E0100EF0A0FC9DF8271045
:102760009DF826009DF825209DF82430CDE9023201
:10277000CDE904019DF823009DF82210CDE9001059
:102780009DF821309DF820200B48018801F5E011CB
:1027900012480FF0C7F80BA00FF0C4F89DED060B20
:1027A00053EC102B0EA00FF0BDF806A00FF0BAF8F6
:1027B0000AB0BDEC048B10BDA401002080000020F5
:1027C000A44B01080D0A0000984601089E63E7F734
:1027D0001EC2A2402575029A081B3E411C410108F9
:1027E0003E3E494E464F3A20546F74616C2041631F
:1027F0007469766520456E65726779203D20256C89
:10280000662057617474730D0A0D0A0010B52DED22
:10281000048B8AB00020089009908A208DF820004F
:102820006948008800128DF82100674800788DF80B
:102830002200664800788DF82300644840788DF8BF
:102840002400624880788DF825006048C0788DF8B3
:1028500026005E4800798DF827009DF827009DF836
:1028600026109DF825209DF82430CDE90232CDE9CF
:1028700004109DF823009DF82210CDE900109DF86A
:1028800021309DF820205048018801F560215048F2
:102890000FF048F84FA00FF045F8082208A94A4861
:1028A000008800F560200EF0A7FC0EF0BBFB0822AC
:1028B00008A94548008800F560200EF0EFFB9DF860
:1028C00027109DF826209DF825009DF82430CDE99D
:1028D0000230CDE904219DF823009DF82210CDE9B6
:1028E00000109DF821309DF820203748018801F51F
:1028F000602139480FF016F836A00FF013F80024C5
:102900003248C07844EA00643048807844EA0044A1
:102910002E48407844EA00242C480078044320469E
:10292000FDF702FF41EC190B9FED2C0B53EC102B24
:10293000FDF705FE41EC180B9FED2A0B53EC102B15
:10294000FDF772FECDE90601082206A91E4800889F
:1029500000F5F8100EF050FC0EF064FB082208A9F8
:102960001948008800F5F8100EF098FB9DF8271024
:102970009DF826009DF825209DF82430CDE90232EF
:10298000CDE904019DF823009DF82210CDE9001047
:102990009DF821309DF820200B48018801F5F811A1
:1029A00012480EF0BFFF0BA00EF0BCFF9DED060B12
:1029B00053EC102B0EA00EF0B5FF06A00EF0B2FFE8
:1029C0000AB0BDEC048B10BDA40100208F000020D4
:1029D000604C01080D0A0000584701089E63E7F7A4
:1029E0001EC2A2402575029A081B3E41DC41010827
:1029F0003E3E494E464F3A20546F74616C20417000
:102A0000706172656E7420456E65726779203D2035
:102A1000256C662057617474730D0A0D0A0000005E
:102A200010B52DED048B8AB0002008900990862007
:102A30008DF820006948008800128DF82100674851
:102A400000788DF82200664800788DF823006448ED
:102A500040788DF82400624880788DF82500604821
:102A6000C0788DF826005E4800798DF827009DF823
:102A700027009DF826109DF825209DF82430CDE9EB
:102A80000232CDE904109DF823009DF82210CDE913
:102A900000109DF821309DF820205048018801F554
:102AA000402150480EF03EFF4FA00EF03BFF0822A1
:102AB00008A94A48008800F540200EF09DFB0EF062
:102AC000B1FA082208A94548008800F540200EF018
:102AD000E5FA9DF827109DF826209DF825009DF821
:102AE0002430CDE90230CDE904219DF823009DF882
:102AF0002210CDE900109DF821309DF820203748A4
:102B0000018801F5402139480EF00CFF36A00EF087
:102B100009FF00243248C07844EA006430488078D5
:102B200044EA00442E48407844EA00242C480078C7
:102B300004432046FDF7F8FD41EC190B9FED2C0BEB
:102B400053EC102BFDF7FBFC41EC180B9FED2A0B0F
:102B500053EC102BFDF768FDCDE90601082206A90C
:102B60001E48008800F5E8100EF046FB0EF05AFAF9
:102B7000082208A91948008800F5E8100EF08EFA1E
:102B80009DF827109DF826009DF825209DF82430FB
:102B9000CDE90232CDE904019DF823009DF8221011
:102BA000CDE900109DF821309DF820200B480188C8
:102BB00001F5E81112480EF0B5FE0BA00EF0B2FEC2
:102BC0009DED060B53EC102B0EA00EF0ABFE06A0F5
:102BD0000EF0A8FE0AB0BDEC048B10BDA4010020CD
:102BE00085000020E84A01080D0A0000D4450108CC
:102BF0009E63E7F71EC2A2402575029A081B3E415C
:102C0000584001083E3E494E464F3A20546F746189
:102C10006C2046756E64616D656E74616C20456EE6
:102C200065726779203D20256C6620576174747346
:102C30000D0A0D0A0000000010B52DED048B8AB0BE
:102C400000200890099088208DF8200069480088AD
:102C500000128DF82100674800788DF82200664840
:102C600000788DF82300644840788DF8240062488D
:102C700080788DF825006048C0788DF826005E4881
:102C800000798DF827009DF827009DF826109DF803
:102C900025209DF82430CDE90232CDE904109DF8BD
:102CA00023009DF82210CDE900109DF821309DF8F9
:102CB00020205048018801F5502150480EF032FE86
:102CC0004FA00EF02FFE082208A94A48008800F500
:102CD00050200EF091FA0EF0A5F9082208A94548F7
:102CE000008800F550200EF0D9F99DF827109DF8C6
:102CF00026209DF825009DF82430CDE90230CDE94D
:102D000004219DF823009DF82210CDE900109DF8C4
:102D100021309DF820203748018801F5502139489D
:102D20000EF000FE36A00EF0FDFD00243248C07803
:102D300044EA00643048807844EA00442E484078F1
:102D400044EA00242C48007804432046FDF7ECFCBC
:102D500041EC190B9FED2C0B53EC102BFDF7EFFB07
:102D600041EC180B9FED2A0B53EC102BFDF75CFC8C
:102D7000CDE90601082206A91E48008800F5F010DA
:102D80000EF03AFA0EF04EF9082208A91948008808
:102D900000F5F0100EF082F99DF827109DF826003E
:102DA0009DF825209DF82430CDE90232CDE90401BB
:102DB0009DF823009DF82210CDE900109DF82130E8
:102DC0009DF820200B48018801F5F01112480EF003
:102DD000A9FD0BA00EF0A6FD9DED060B53EC102BEC
:102DE0000EA00EF09FFD06A00EF09CFD0AB0BDECFB
:102DF000048B10BDA40100208A0000201C4D010896
:102E00000D0A0000184801089E63E7F71EC2A240A1
:102E10002575029A081B3E419C4201083E3E494EE0
:102E2000464F3A20546F74616C2052656163746937
:102E3000766520456E65726779203D2025662057AE
:102E4000617474730D0A0D0A0000000010B52DEDB9
:102E5000068B8AB000200890099048208DF8200049
:102E60006A48008800128DF82100684800788DF8C3
:102E70002200674800788DF82300654840788DF877
:102E80002400634880788DF825006148C0788DF86B
:102E900026005F4800798DF827009DF827009DF8EF
:102EA00026109DF825209DF82430CDE90232CDE989
:102EB00004109DF823009DF82210CDE900109DF824
:102EC00021309DF820205148018801F5803151487A
:102ED0000EF028FD50A00EF025FD082208A94B4851
:102EE000008800F580300EF087F90EF09BF808227C
:102EF00008A94648008800F580300EF0CFF89DF80C
:102F000027109DF826009DF825209DF82430CDE956
:102F10000232CDE904019DF823009DF82210CDE98D
:102F200000109DF821309DF820203848018801F5D7
:102F300080313A480EF0F6FC37A00EF0F3FC002486
:102F40003348407844EA0024314800780443C4F30D
:102F50000E042046FDF7E8FB41EC1A0B9FED300B09
:102F600053EC102BFDF7EBFA41EC190B9FED2E0BF8
:102F700053EC102BFDF7E3FA41EC180B9FED2C0BF3
:102F800053EC102BFDF750FBCDE90601082206A9F2
:102F90001E48008800F588100EF02EF90EF042F859
:102FA000082208A91948008800F588100EF076F864
:102FB0009DF827109DF826009DF825209DF82430C7
:102FC000CDE90232CDE904019DF823009DF82210DD
:102FD000CDE900109DF821309DF820200B48018894
:102FE00001F5881114480EF09DFC0BA00EF09AFC20
:102FF0009DED060B53EC102B10A00EF093FC06A0D9
:103000000EF090FC0AB0BDEC068B10BDA4010020B0
:103010004E0000207C4801080D0A00000043010812
:10302000E17A14AE47E1F23FEA3B1BF59DF19A408D
:10303000000000000000EC407C3D01083E3E494E8F
:10304000464F3A2056313D20256C6620566F6C74F1
:10305000730D0A003EB50446124800788DF8000052
:10306000114800788DF802008DF803400F48006881
:103070000CF0ECF901900E48006802900D480078C1
:103080008DF8010069460C48007808F04CF80848B3
:1030900000680A490988484305490968401A0849EF
:1030A00008603EBDB6020020D0020020D4020020FD
:1030B000F0020020D302002084020020C40200207D
:1030C000CC0200202DE9F04104460D4616461F466D
:1030D000DDF818802CB9022D0ED108480CF0B8FA92
:1030E0000AE0012E03D105480CF0B2FA04E047458E
:1030F00002DD02480CF0ACFABDE8F081BC8700208C
:1031000030B50246002300200AE001248440144028
:1031100001258540AC4201D15C1CE3B2441CE0B205
:103120008842F2DB184630BD2DE9F84F0746884645
:10313000164699464FF0000AD3460025002000901D
:1031400047E000243CE0009838F810000121A1403D
:10315000084090B3281900EB400056F8200000B951
:103160002CE0281900EB400006EB800090F90800E5
:103170000211281900EB400006EB8000007A40F3B2
:10318000030178B208F0B0FA00B917E0281900EB93
:10319000400006EB8000407A09EB0010C06820B1C7
:1031A0000BF1010000F0FF0B08E02819C2B25046F5
:1031B000411C01F0FF0A0A990A5400BF601CC4B206
:1031C000102CC0DB05F11000C5B20098401CC0B245
:1031D0000090602DB5DB0B9880F800B0504600F0F1
:1031E00000B818BCBDE8E08F10B5002115E00C4B0D
:1031F0001B7880EA03020A4B1B785B061B0E084C07
:10320000237002F0800323B123461B7883F0070369
:1032100023704306180E4B1CD9B20829E7DB10BDFA
:1032200048000020704710B50446204600F001F821
:1032300010BD10B50446204600F0E6F810BD002190
:1032400007E0002200E0521C44F21A139A42FADB13
:10325000491C8142F5DB704710B5012000F0FEF8F3
:1032600010BD10B54FF4004000F0F8F810BD10B5D7
:10327000022000F0F3F810BD10B5042000F0EEF8C5
:1032800010BD10B5082000F0E9F810BD10B51020F1
:1032900000F0E4F810BD704706E00CF029FE03A032
:1032A0000EF040FB0CF014FEF7E700002121214551
:1032B00072726F722048616E646C65722121210DFB
:1032C0000A00000001460B4850F82100A0F5F43038
:1032D000483840B1A0F5F430483830B1A0F574302A
:1032E000903820B100BF002070470120FCE7022089
:1032F000FAE70000F43701080246002111E00B480C
:1033000050F8310090420AD8084B481C53F830005E
:10331000904204D9184600EBC10000797047481C60
:10332000C1B21529EBD300BFFEE700004838010801
:10333000024600238A4201D1CBB201E0501EC3B243
:1033400058B270472DE9FC4704460D4616461F4605
:10335000DDE90A893B46324629462046CDE9008907
:1033600000F005F800F000B80CBCBDE8F08730B5FF
:10337000DDE9034530BD70B504460D460CB160680B
:1033800000B900BF94F90000401C00B970BDEAB25A
:103390006188606800F054F900BFF7E770B5044633
:1033A0000D4629462046FFF7E6FF70BD70B504467E
:1033B000002594F82500022803D00420E0630125AD
:1033C00020E02068006820F00E0021680860206876
:1033D000006820F001002168086094F8440000F0C3
:1033E0001C0101208840216C4860012084F82500E0
:1033F00000BF002084F8240000BFA06B10B120465D
:10340000A16B8847284670BD70B5044600F01EF9D0
:1034100006462546681C10B104480068054400BFF4
:1034200000F014F9801BA842FAD370BD04020020FA
:1034300070B504460025002C05DD02E06410681C10
:10344000C5B2012CFAD1044850F8250018B1024940
:1034500051F82500804770BDF404002010B50446E3
:1034600004480068204020B1024804602046FFF76D
:10347000DFFF10BD1404014078B503460022CBE005
:10348000012696400D6805EA0604002C72D04D68AE
:10349000012D08D04D68022D05D04D68112D02D0A8
:1034A0004D68122D13D1986856000325B540A843E6
:1034B0005600CD68B540284398605868012595406E
:1034C000A8430D79C5F30015954028435860D86886
:1034D00056000325B540A84356008D68B5402843E3
:1034E000D8604D68022D02D04D68122D13D1D60838
:1034F00003F1200555F826005507EE0E0F25B540BF
:10350000A8435607F60E0D69B5402843D60803F1C7
:10351000200545F82600186856000325B540A84345
:103520000D7905F003055600B540284318604D6835
:1035300005F08055B5F1805F6DD100BF394D2D6E1E
:1035400045F00105374E356635462D6E05F001050F
:10355000009500BF00BF4FEAB635960855F8260023
:1035600095072E0F0F25B540A843B3F1904F02D118
:10357000002515E04FE02C4DAB4201D101250FE0B5
:103580002A4DAB4201D102250AE0294DAB4201D1BF
:10359000032505E0274DAB4201D1042500E00725B6
:1035A0009607360FB5402843234D960845F8260068
:1035B000224D2868A0434D6805F48035B5F5803F5D
:1035C00000D120431D4D28602D1D2868A0434D6863
:1035D00005F40035B5F5003F00D12043174D2D1DF2
:1035E00028602D1D2868A0434D6805F48015B5F5A9
:1035F000801F00D12043114D083528602D1D2868FB
:10360000A0434D6805F40015B5F5001F00D1204317
:103610000A4D0C352860521C0D68D540002D7FF4F2
:103620002FAF78BD00100240000400480008004899
:10363000000C004800100048080001400004014050
:103640000AB1816100E081627047000001480068B2
:1036500070470000FC010020034800680349096826
:103660000844014908607047FC0100200402002062
:1036700010B50024032000F0CFF80F2000F008F868
:1036800008B1012401E000F02FF8204610BD000031
:1036900070B50446002511480068D8B10F4800688D
:1036A0004FF47A71B1FBF0F00D490968B1FBF0F607
:1036B000304601F0DBFC58B9102C07D2002221461D
:1036C000501E00F067F80748046004E0012502E09E
:1036D000012500E00125284670BD000004020020FD
:1036E000080200200002002008B500BF0F48006E4D
:1036F00040F001000D4908660846006E00F0010028
:10370000009000BF00BF00BF0846806D40F08050B1
:1037100088650846806D00F08050009000BF00BFB3
:1037200000220F21901E00F035F808BD0010024065
:1037300010B501460846002817DB00F01F030122E0
:103740009A400B4B440943F8242000BF00BF00BF40
:10375000BFF34F8F00BF00BF00BF00BF00BF00BF5F
:10376000BFF36F8F00BF00BF00BF00BF10BD0000E0
:1037700080E100E001460846002809DB00F01F0355
:1037800001229A4043099B0003F1E023C3F8002182
:1037900000BF70472DE9F05F80460D4616460027B2
:1037A0000CF030FC074639462A46334601F0070044
:1037B000C0F1070ABAF1040F02D94FF0040A01E080
:1037C000C0F1070AD14600F1040ABAF1070F02D28C
:1037D0004FF0000A01E0A0F1030AD4464FF0010ABD
:1037E0000AFA09FAAAF1010A0AEA020A0AFA0CFA22
:1037F0004FF0010B0BFA0CFBABF1010B0BEA030BC7
:103800004AEA0B04214640460CF004FC00F000B8E4
:1038100030BCBDE8C09F000000BF00F00702064BAF
:1038200019684FF6FF031940044B0B4343EA02218A
:10383000014B196000BF70470CED00E00000FA0575
:10384000024611680120C2F86802002082F8600276
:1038500031F8540F40F001000880088840F0020061
:1038600021F854090020704730B585B0044614B9DA
:10387000012005B030BD94F8290228B9002084F851
:103880002802204600F08EF8032084F829022068E0
:103890000CF05AFB142204F110016846FCF736FDC7
:1038A00094E80F000CF034FB20B1022084F82902C8
:1038B0000120DEE7002120680CF05AFB002526E0FD
:1038C000012104F1280000EB4510417004F12800AB
:1038D00000EB4510057004F1280000EB4510C58190
:1038E000002104F1280000EB4510C17004F128000C
:1038F00000EB4510016104F1280000EB4510416127
:1039000004F1280000EB45108161681CC5B26068B5
:10391000A842D5D8002520E0002104F5947000EBE2
:103920004510417004F5947000EB4510057004F5E6
:10393000947000EB4510C17004F5947000EB4510D5
:10394000016104F5947000EB4510416104F5947039
:1039500000EB45108161681CC5B26068A842DBD8E5
:10396000142204F110016846FCF7D0FC94E80F0023
:103970000CF0DBFA20B1022084F82902012078E75C
:10398000002084F82400012084F82902E06901283D
:1039900002D12046FFF754FF20680CF0BDFA00204A
:1039A00067E7000008B5094A016891420DD100BFE0
:1039B0000749896D41F08061054A91651146896D1D
:1039C00001F08061009100BF00BF08BD00680040A9
:1039D000001002400246B2F5007F2AD11D4800685F
:1039E00000F4C060B0F5007F32D01A48006820F4BF
:1039F000C06040F40070174B18601748006832230D
:103A00005843164BB0FBF3F0411C00E0491E11482F
:103A1000406900F48060B0F5806F01D10029F5D1D4
:103A20000C48406900F48060B0F5806F10D103202D
:103A300070470848006800F4C060B0F5806F07D098
:103A40000448006820F4C06040F48060014B1860B6
:103A50000020EDE7007000400802002040420F0007
:103A60000248006800F4C060704700000070004029
:103A70000348006840F48070014908607047000006
:103A8000007000400348006840F0040001490860ED
:103A900070470000001002402DE9F843044600255D
:103AA000A846208800F40060B0F5006F26D1606C55
:103AB00068B1B0F5000F03D0B0F5400F0ED10CE0A7
:103AC000E848C06840F48030E649C86008E000215A
:103AD000201D06F033FC054602E001E0012500BF91
:103AE00000BF55B9DF488830006820F44000616CA1
:103AF0000843DC49C1F8880000E0A846206800F4CB
:103B00000030B0F5003F75D14FF00009D548806D09
:103B1000012121EA107078B100BFD248806D40F0D9
:103B20008050D04988650846806D00F08050009034
:103B300000BF00BF4FF00109CB48006840F480701F
:103B4000C9490860FFF782FD074606E0FFF77EFDE2
:103B5000C01B022801D9032505E0C348006800F412
:103B600080700028F2D000BF7DBBBE489030006856
:103B700000F44076CEB1E06DB04216D0B948903036
:103B8000006820F44076B748D0F8900040F48030C8
:103B9000B449C1F890000846D0F8900020F4803075
:103BA000C1F890000846C0F8906006F00100A8B186
:103BB000FFF74CFD074609E0FFF748FDC01B41F247
:103BC0008831884202D9032507E016E0A5489030E5
:103BD000006800F002000028EED000BF5DB9A148E7
:103BE0009030006820F44070E16D08439D49C1F8B1
:103BF000900003E00CE0A84600E0A846B9F1010FF0
:103C000005D19848806D20F080509649886500BFA6
:103C1000207800F0010048B192488830006820F018
:103C20000300216A08438F49C1F88800207800F01A
:103C30000200022809D18B488830006820F00C006F
:103C4000616A08438749C1F88800207800F00400C1
:103C5000042809D183488830006820F03000A16A28
:103C600008438049C1F88800207800F0200020280F
:103C700009D17C488830006820F44060E16A08433C
:103C80007849C1F88800208800F40070B0F5007F02
:103C900009D174488830006820F44020E16B084363
:103CA0007049C1F88800208800F48060B0F5806F0A
:103CB00009D16C488830006820F44010216C08431A
:103CC0006849C1F88800207800F04000402809D1F8
:103CD00064488830006820F44050216B08436149F3
:103CE000C1F88800207800F08000802809D15D4864
:103CF0008830006820F44040616B08435949C1F89E
:103D00008800208800F48070B0F5807F09D1554884
:103D10008830006820F44030A16B08435149C1F855
:103D20008800208800F40050B0F5005F1FD14D4896
:103D30008830006820F04060A16C08434949883110
:103D40000860A06CB0F1006F06D14648C06840F42E
:103D500080104449C8600AE0A06CB0F1806F06D1C1
:103D60000121201D06F0EAFA054605B1A8462068A3
:103D700000F40020B0F5002F1FD13A4888300068C9
:103D800020F04060E16C0843364988310860E06CFF
:103D9000B0F1006F06D13348C06840F4801031495B
:103DA000C8600AE0E06CB0F1806F06D10121201DEF
:103DB00006F0C4FA054605B1A846206800F4802044
:103DC000B0F5802F1FD127488830006820F0406070
:103DD000216D0843234988310860206DB0F1006FE0
:103DE00006D12048C06840F480101E49C8600AE02F
:103DF000206DB0F1806F06D10121201D06F09EFAE2
:103E0000054605B1A846208800F48040B0F5804FF3
:103E100014D114488830006820F04050616D084388
:103E2000104988310860606DB0F1805F06D10221D1
:103E3000201D06F083FA054605B1A846208800F447
:103E40000040B0F5004F09D106488830006820F0E6
:103E50008040A16D08430349C1F888004046BDE891
:103E6000F883000000100240007000402DE9F0418E
:103E700004460D4614B90120BDE8F081554800689C
:103E800000F00700A8420ED25248006820F0070058
:103E90002843504908600846006800F00700A8421F
:103EA00001D00120E8E7207800F00100002840D090
:103EB0006068032806D14848006800F00070D8B94F
:103EC0000120D9E76068022806D14348006800F461
:103ED000003088B90120CFE7606830B93E480068FB
:103EE00000F0020040B90120C6E73B48006800F43A
:103EF000806008B90120BFE73748806820F00300E0
:103F00006168084334498860FFF7A0FB064608E073
:103F1000FFF79CFB801B41F28831884201D90320C6
:103F2000AAE72D48806800F00C006168B0EB810FB3
:103F3000EED1207800F00200022807D126488068E0
:103F400020F0F000A16808432349886021480068F8
:103F500000F00700A8420ED91E48006820F00700B4
:103F600028431C4908600846006800F00700A84282
:103F700001D0012080E7207800F00400042807D158
:103F80001548806820F4E060E168084312498860C1
:103F9000207800F00800082808D10F48806820F435
:103FA0006050216940EAC1000B49886000F046F882
:103FB00009498968C1F30311084A515C01F01F01E6
:103FC000C8400749086007480068FFF761FB0746DB
:103FD000384651E7002002400010024084370108B3
:103FE000080200200002002001480068704700001D
:103FF0000802002000B5FFF7F7FF05498968C1F303
:104000000221044A515C01F01F01C84000BD0000BC
:10401000001002409437010800B5FFF7E5FF05499D
:104020008968C1F3C221044A515C01F01F01C840F4
:1040300000BD00000010024094370108F0B50023D5
:104040000020DFF8D4C0DCF808C00CF00C01DFF869
:10405000C8C0DCF80CC00CF0030719B10C291ED144
:10406000012F1CD1DFF8B0C0DCF800C00CF0080C48
:10407000BCF1000F06D1DFF8A0C0DCF894C0CCF38F
:10408000032305E0DFF890C0DCF800C0CCF3031395
:10409000DFF888C05CF8233041B9184606E00429EF
:1040A00001D11F4802E0082900D11E480C2932D155
:1040B000DFF864C0DCF80CC00CF00304012C09D05C
:1040C000022C02D0032C04D101E0154A04E0154A69
:1040D00002E000BF1A4600BF00BFDFF83CC0DCF8BA
:1040E0000CC0CCF3021C0CF10106DFF82CC0DCF88C
:1040F0000CC0CCF3062C0CFB02FCBCFBF6F2DFF888
:1041000018C0DCF80CC0CCF3416C0CF1010C4FEA88
:104110004C05B2FBF5F0F0BD001002409C370108E1
:104120000024F40000127A002DE9F843044614B983
:104130000120BDE8F883F948806800F00C06F748D4
:10414000C06800F00307207800F01000102877D135
:104150001EB10C2E76D1012F74D1F048006800F00A
:10416000020018B1A06908B90120E2E7EB48216A12
:10417000006800F0080020B1E848006800F0F00096
:1041800005E0E6489430006800F470600009814260
:104190001FD9206A06F096F908B10120C9E700BFCF
:1041A000DE48006840F00800DC4908600846006806
:1041B00020F0F000216A0843D849086000BF084693
:1041C000406820F47F40E16940EA0120D34948601B
:1041D0001FE000BFD148006840F00800CF490860E8
:1041E0000846006820F0F000216A0843CB490860C7
:1041F00000BF0846406820F47F40E16940EA0120A2
:10420000C64948602EB9206A06F05CF908B1012061
:104210008FE7FFF713FFC1498968C1F30311C04A53
:10422000515C01F01F01C840BE490860BE480068EB
:10423000FFF72EFA8046B8F1000F4ED0404678E7DF
:104240004BE0FFE7A06980B3B448006840F001008C
:10425000B2490860FFF7FAF9054606E0FFF7F6F9FC
:10426000401B022801D9032063E7AC48006800F036
:1042700002000028F2D000BFA848006840F0080003
:10428000A64908600846006820F0F000216A08434B
:10429000A249086000BF0846406820F47F40E169F9
:1042A00040EA01209D49486017E0FFE79B4800680D
:1042B00020F0010099490860FFF7C8F9054606E0BB
:1042C000FFF7C4F9401B022801D9032031E79348C6
:1042D000006800F002000028F2D1207800F0010010
:1042E00000285CD0082E03D00C2E0AD1032F08D151
:1042F0008A48006800F4003088B3606878BB012009
:1043000017E700BF6068B0F5803F06D183480068BA
:1043100040F48030814908601AE06068B0F5A02F51
:104320000BD17E48006840F480207C490860084634
:10433000006840F4803008600AE07848006820F4A3
:104340008030764908600846006820F480200860C4
:1043500000BF606890B1FFF779F9054607E01EE0FD
:10436000FFF774F9401B642801D90320E1E66B488C
:10437000006800F400300028F2D010E0FFF766F982
:10438000054606E0FFF762F9401B642801D90320C7
:10439000CFE66248006800F400300028F2D12078AF
:1043A00000F00200022852D1042E03D00C2E14D1AA
:1043B000022F12D15948006800F4806018B1E068FB
:1043C00008B90120B5E65548406820F0F850217C36
:1043D00040EA01605149486039E0E06800B34F4865
:1043E000006840F480704D490860FFF72FF90546DA
:1043F00006E0FFF72BF9401B022801D9032098E6BD
:104400004648006800F480600028F2D043484068C5
:1044100020F0F850217C40EA01604049486016E0F5
:104420003E48006820F480703C490860FFF70EF9B0
:10443000054606E0FFF70AF9401B022801D90320D0
:1044400077E63648006800F480600028F2D12078D2
:1044500000F00800082836D16069D0B12F489430A8
:10446000006840F001002D49C1F89400FFF7EEF814
:10447000054606E0FFF7EAF8401B022801D90320B1
:1044800057E626489430006800F002000028F1D07A
:1044900019E022489430006820F001001F49C1F85B
:1044A0009400FFF7D3F8054606E0FFF7CFF8401B6E
:1044B000022801D903203CE618489430006800F037
:1044C00002000028F1D1207800F00400042872D105
:1044D0004FF000091148806D00F0805078B900BF9E
:1044E0000E48806D40F080500C4988650846806D0C
:1044F00000F08050009000BF00BF4FF001090B4852
:10450000006800F4807000BB0848006840F48070C8
:1045100006490860FFF79AF8054610E000100240CF
:1045200084370108080200200002002000700040CB
:10453000FFF78CF8401B022801D90320F9E5D04889
:10454000006800F480700028F2D000BFA068012845
:1045500008D1CC48006840F00100CA499039C1F840
:10456000900021E0A06805280FD1C648006840F0FF
:104570000400C4499039C1F890000846D0F8900072
:1045800040F00100C1F890000EE0BE48006820F045
:104590000100BC499039C1F890000846D0F890005D
:1045A00020F00400C1F8900000BFA068A0B1FFF7A0
:1045B0004DF8054609E02EE0FFF748F8401B41F2B0
:1045C0008831884201D90320B3E5AE48006800F085
:1045D00002000028F0D012E0FFF738F8054608E0A6
:1045E000FFF734F8401B41F28831884201D903209B
:1045F0009FE5A448006800F002000028F0D1B9F15E
:10460000010F07D19F489038806D20F080509D4960
:104610009039886500BF207800F02000202838D12C
:10462000606AD8B197480830006840F001009549A9
:104630009039C1F89800FFF709F8054606E0FFF742
:1046400005F8401B022801D9032072E58D48083087
:10465000006800F002000028F1D01AE08948083014
:10466000006820F0010087499039C1F89800FEF7F2
:10467000EDFF054606E0FEF7E9FF401B022801D9E1
:10468000032056E57F480830006800F0020000284B
:10469000F1D1A06A00287DD0A06A02287BD1794898
:1046A0009038C76807F00301E06A814225D107F01E
:1046B0007001206B401EB1EB001F1ED107F4FE41BC
:1046C000606BB1EB002F18D107F078413820005D06
:1046D000B1EBC06F11D107F4C001A08F0122C2EB72
:1046E0005000B1EB405F08D107F0C0614020005D91
:1046F000C2EB5000B1EB406F66D00C2E62D0614827
:104700009038006800F0806008B1012011E55D4834
:104710009038006820F080705A4990390860FEF7A0
:1047200095FF054606E0FEF791FF401B022801D9E0
:104730000320FEE453489038006800F00070002821
:10474000F1D1D4E90B10401E41EA0011606B41EA3F
:104750000021A08F0122C2EB500041EA40514020CD
:10476000005DC2EB500041EA40613820005D41EA43
:10477000C06044499039C968434A114008434149DF
:104780009039C8600846006840F0807008600846AC
:10479000C06801E05BE03DE040F08070C860FEF77B
:1047A00055FF054606E0FEF751FF401B022801D9E0
:1047B0000320BEE433489038006800F00070002801
:1047C000F1D05AE00120B4E42E489038006800F09F
:1047D0000070E0BB2B489038006840F08070294999
:1047E000903908600846C06840F08070C860FEF7E5
:1047F0002DFF054606E0FEF729FF401B022801D9E0
:10480000032096E41F489038006800F000700028EC
:10481000F1D032E00C2E2ED01A489038006820F0EB
:1048200080701849903908600846006800F0006000
:1048300020B90846C06820F00300C86011489038CD
:10484000C068124908400F499039C86000E014E080
:10485000FEF7FCFE054606E0FEF7F8FE401B0228C8
:1048600001D9032065E407489038006800F0007023
:104870000028F1D101E001205BE4002059E40000B0
:1048800000700040901002408C809D01FFFFEEFE02
:1048900070B504460CB9012070BD606A00B900BF54
:1048A0000021A16294F85D0028B9002084F85C0022
:1048B000204600F04DF8022084F85D002068006872
:1048C00020F0400021680860E068B0F5E06F01D991
:1048D000002501E04FF48055E068B0F5706F05D019
:1048E000E068B0F5E06F01D00021A162206B40B913
:1048F000E068B0F5E06F02D90221216301E00121F7
:104900002163D4E90101084321690843616908432F
:10491000218B01F400710843E1690843216A0843CF
:10492000A16A0843216808600421A06901EA1040D7
:10493000616A0843616B0843E168084328432168C2
:10494000486000202066012084F85D000020A3E775
:1049500010B586B00446142101A8FBF7F0FC2F49DE
:104960002068884229D100BF2D48006E40F4805055
:104970002B4908660846006E00F48050009000BF86
:1049800000BF00BF0846C06C40F00200C864084683
:10499000C06C00F00200009000BF00BF3820019002
:1049A000022002900020039003200490052005902F
:1049B00001A91C48FEF760FD2DE01B4920688842D4
:1049C00029D100BF1648806D40F4804014498865A5
:1049D0000846806D00F48040009000BF00BF00BF1B
:1049E0000846C06C40F00200C8640846C06C00F085
:1049F0000200009000BF00BF4FF460400190022011
:104A0000029000200390032004900520059001A946
:104A10000448FEF731FD06B010BD00000030014033
:104A20000010024000040048003800402DE9F8431F
:104A30000446884616461D464FF000096068B0F5EA
:104A4000827F0DD1A06858B9042084F85D003346F8
:104A5000424641462046009500F0A7F9BDE8F8839C
:104A600000BF94F85C00012801D10220F6E7012084
:104A700084F85C0000BFFEF7E9FD074694F85D008E
:104A8000012802D04FF0020993E0B8F1000F00D0E6
:104A900016B94FF001098CE0042084F85D00002075
:104AA0002066C4F84080A4F84460A4F84660A0637F
:104AB000A087E087E0642065E068B0F5E06F06D984
:104AC0002068406820F480502168486005E0206834
:104AD000406840F4805021684860A068B0F5004FFD
:104AE00005D12068006820F48040216808602068B3
:104AF000006800F04000402805D02068006840F0C1
:104B0000400021680860E068B0F5E06F22D81CE042
:104B10002068806800F0010060B12068007B216C93
:104B20000870206C401C2064B4F84600401EA4F8B5
:104B300046000AE0FEF78AFDC01BA84201D3681CAC
:104B400000B915B94FF0030933E0B4F84600002866
:104B5000DED121E01CE02068806800F0010060B137
:104B60002068C068216C0880206C801C2064B4F828
:104B70004600401EA4F846000AE0FEF767FDC01B91
:104B8000A84201D3681C00B915B94FF0030910E021
:104B9000B4F846000028DED13A462946204606F001
:104BA000B9FF08B120202066206E08B14FF001093E
:104BB00000BF012084F85D0000BF002084F85C0085
:104BC00000BF48464AE72DE9F84F04468846164696
:104BD0001D464FF0000A00BF94F85C00012802D186
:104BE000022000F0DFB8012084F85C0000BFFEF76F
:104BF0002DFD0746B14694F85D00012802D04FF024
:104C0000020AC5E0B8F1000F00D016B94FF0010A52
:104C1000BEE0032084F85D0000202066C4F83880E0
:104C2000A687E6872064A4F84400A4F8460020651F
:104C3000E064A068B0F5004F05D12068006840F43A
:104C40008040216808602068006800F0400040282B
:104C500005D02068006840F0400021680860E068E6
:104C6000B0F5E06F2FD9606810B1B9F1010F09D12B
:104C7000A06B00882168C860A06B801CA063E08FD7
:104C8000401EE0871BE02068806800F002000228D8
:104C90000AD1A06B00882168C860A06B801CA0634B
:104CA000E08F401EE0870AE0FEF7D0FCC01BA84260
:104CB00001D3681C00B915B94FF0030A68E0E08F12
:104CC0000028E0D14AE0606810B1B9F1010F17D1B6
:104CD000E08F01280AD9A06B00882168C860A06B0A
:104CE000801CA063E08F801EE08709E0A06B007845
:104CF00021680873A06B401CA063E08F401EE08712
:104D000029E02068806800F00200022818D1E08FB6
:104D100001280AD9A06B00882168C860A06B801C9C
:104D2000A063E08F801EE08715E0A06B007821680B
:104D30000873A06B401CA063E08F401EE0870AE070
:104D4000FEF784FCC01BA84201D3681C00B915B94A
:104D50004FF0030A1CE0E08F0028D2D13A462946E2
:104D6000204606F018FF08B120202066A06850B940
:104D700000BF002000902068C06800902068806814
:104D8000009000BF00BF206E08B14FF0010A00BFC5
:104D9000012084F85D0000BF002084F85C0000BFA3
:104DA00050461EE718BCBDE8E08F2DE9FF5F0446C2
:104DB000894692461D460E9E0120019000200090DB
:104DC00000BF94F85C00012803D1022004B000F079
:104DD0004AB9012084F85C0000BFFEF737FC0746A3
:104DE00094F85D00029060680390A846AB46029874
:104DF00001280BD00398B0F5827F04D1A06810B9C8
:104E00000298042802D00220009022E1B9F1000F9C
:104E100003D0BAF1000F00D015B90120009018E1BD
:104E200094F85D00042802D0052084F85D0000207D
:104E30002066C4F840A0A4F84650A4F84450C4F832
:104E40003890E587A587E0642065E068B0F5E06FFD
:104E500002D8BBF1010F06D92068406820F48050C9
:104E60002168486005E02068406840F4805021686F
:104E700048602068006800F04000402805D02068A5
:104E8000006840F0400021680860E068B0F5E06F1D
:104E90004ED9606810B1B8F1010F09D1A06B00883C
:104EA0002168C860A06B801CA063E08F401EE08773
:104EB00036E02068806800F00200022810D1E08F00
:104EC00070B1019801280BD1A06B00882168C860DF
:104ED000A06B801CA063E08F401EE0870020019043
:104EE0002068806800F0010080B1B4F8460068B125
:104EF0002068C068216C0880206C801C2064B4F895
:104F00004600401EA4F8460001200190FEF79EFBDB
:104F1000C01BB04204D3701C10B10320009098E075
:104F2000E08F0028C5D1B4F846000028C1D185E043
:104F3000606810B1B8F1010F17D1E08F01280AD9CC
:104F4000A06B00882168C860A06B801CA063E08F04
:104F5000801EE08709E0A06B007821680873A06BD1
:104F6000401CA063E08F401EE08760E020688068FE
:104F700000F0020002281ED1E08FE0B10198012864
:104F800019D1E08F01280AD9A06B00882168C86078
:104F9000A06B801CA063E08F801EE08709E0A06BFF
:104FA000007821680873A06B401CA063E08F401E4E
:104FB000E087002001902068806800F0010058B36D
:104FC000B4F8460040B3B4F84600012816D920686A
:104FD000C068216C0880206C801C2064B4F84600F6
:104FE000801EA4F84600B4F84600012812D82068B4
:104FF000406840F48050216848600BE02068007BE6
:10500000216C0870206C401C2064B4F84600401EDF
:10501000A4F8460001200190FEF718FBC01BB04227
:1050200001D3701C00B916B90320009011E0E08F85
:1050300000289BD1B4F84600002897D13A46314663
:10504000204606F0A8FD18B101200090202020661F
:1050500000BF012084F85D0000BF002084F85C00E0
:1050600000BF0098B2E630BCBDE8C09F70B50446F2
:105070002546681EB0F1807F01D301200FE0681E35
:105080004FF0E02148610F214FF0FF300AF0C2FFDE
:1050900000204FF0E021886107200861002070BDEA
:1050A00070477047704710B504460CB9012010BD19
:1050B00094F83D0028B9002084F83C00204600F018
:1050C0000DF8022084F83D00211D20680AF070F9D7
:1050D000012084F83D000020E9E7000038B50446CF
:1050E0000D492068884215D100BF0C48806D40F002
:1050F00020000A4988650846806D00F02000009075
:1051000000BF00BF002205213720FEF743FB3720F8
:10511000FEF730FB38BD00000014004000100240D4
:1051200001460868C06840F001000B68D860086854
:105130008068084B00EA0302062A08D0B2F5803FD7
:1051400005D00868006840F001000B681860002076
:105150007047000007000100704710B50446206842
:105160000069C0F34000D8B12068C068C0F34000B7
:10517000B0B16FF00200216808610120207720683B
:10518000806900F0030018B12046FFF7E5FF05E055
:10519000204600F0BEF8204600F0BCF80020207742
:1051A00020680069C0F38000D8B12068C068C0F3EF
:1051B0008000B0B16FF00400216808610220207700
:1051C0002068806900F4407018B12046FFF7C4FFE2
:1051D00005E0204600F09DF8204600F09BF80020F6
:1051E000207720680069C0F3C000D8B12068C0688B
:1051F000C0F3C000B0B16FF008002168086104205E
:1052000020772068C06900F0030018B12046FFF73E
:10521000A3FF05E0204600F07CF8204600F07AF875
:105220000020207720680069C0F30010D8B1206802
:10523000C068C0F30010B0B16FF0100021680861C1
:10524000082020772068C06900F4407018B120461B
:10525000FFF782FF05E0204600F05BF8204600F0F3
:1052600059F8002020772068006900F0010058B14B
:105270002068C06800F0010030B16FF001002168C3
:105280000861204600F048F820680069C0F3C010AB
:1052900058B12068C068C0F3C01030B16FF0800012
:1052A000216808612046FFF7FCFE20680069C0F312
:1052B000002058B12068C068C0F3C01030B16FF44E
:1052C0008070216808612046FFF7EAFE20680069C7
:1052D000C0F3801058B12068C068C0F3801030B1AE
:1052E0006FF0400021680861204600F027F8206830
:1052F0000069C0F3401058B12068C068C0F3401086
:1053000030B16FF02000216808612046FFF7CAFE27
:1053100010BD70477047000010B50446054920686D
:10532000884206D104480068401C034908600AF01E
:10533000EBF810BD00140040680100207047704772
:10534000704700002DE9F04704462068C5692068D1
:1053500006682068876840F60F0005EA0008B8F183
:10536000000F0CD105F0200048B106F0200030B14C
:10537000206E10B12046216E8847BDE8F087B8F155
:10538000000F7DD007F0010018B906F490700028D6
:10539000F7D005F0010048B106F4807030B101206B
:1053A00021680862E06F40F00100E06705F002004C
:1053B00048B107F0010030B1022021680862E06FB7
:1053C00040F00400E06705F0040048B107F0010078
:1053D00030B1042021680862E06F40F00200E0670D
:1053E00005F0080060B106F0200010B907F00100D8
:1053F00030B1082021680862E06F40F00800E067E3
:1054000005F4006050B106F0806038B14FF40060E0
:1054100021680862E06F40F02000E067E06F80B331
:1054200005F0200038B106F0200020B1206E10B148
:105430002046216E8847D4F87C902068806800F070
:105440004000402802D009F0280030B320460AF07E
:1054500034FA2068806800F04000402819D12068A4
:10546000806820F0400021688860E06E68B12148C3
:10547000E16E8863E06EFDF799FF10B1E06E01E028
:1054800011E00FE0816B88470CE02046FFF758FFE2
:1054900008E02046FFF754FF04E02046FFF750FFE6
:1054A0000020E06769E705F4801050B107F4800040
:1054B00038B14FF48010216808622046FFF73FFFA3
:1054C0005BE705F0800040B106F0800028B1606E17
:1054D00010B12046616E88474FE705F0400030B1BB
:1054E00006F0400018B120460AF0F8F945E700BF81
:1054F00043E70000A3F8000810B504460CB90120EA
:1055000010BDA06900B100E000BF606F28B90020A5
:1055100084F87000204600F029F824206067206895
:10552000006820F001002168086020460AF04EFA69
:10553000012800D1E4E7606A10B120460AF0FEF8C5
:105540002068406820F490402168486020688068A6
:1055500020F02A00216888602068006840F001007F
:105560002168086020460AF065F9C9E710B586B0E1
:105570000446142101A8FAF7E2FE3B49206888425C
:1055800033D100BF3948006E40F480403749086687
:105590000846006E00F48040009000BF00BF00BFCE
:1055A0000846C06C40F00100C8640846C06C00F0BA
:1055B0000100009000BF00BF4FF4C06001900220C6
:1055C000029000200390032004900720059001A979
:1055D0004FF09040FDF750FF002205212520FEF7F7
:1055E000D9F82520FEF7C6F83BE02149206888421B
:1055F00037D100BF1D48806D40F480201B4988656D
:105600000846806D00F48020009000BF00BF00BFFE
:105610000846C06C40F00200C8640846C06C00F048
:105620000200009000BF00BF4FF4406001900220D4
:10563000029000200390032004900720059001A908
:105640000C48FDF719FF002205212720FEF7A2F8DC
:105650002720FEF78FF82420FEF78CF82520FEF790
:1056600089F806B010BD000000380140001002406B
:10567000004800400004004810B50346986F2028F9
:1056800065D101B10AB9012010BD00BF93F87000C7
:10569000012801D10220F7E7012083F8700000BF44
:1056A0005965A3F85820A3F85A200020186600BFB7
:1056B0009868B0F5805F0AD1186920B940F2FF10F0
:1056C000A3F85C0020E0FF20A3F85C001CE09868D1
:1056D00048B9186918B9FF20A3F85C0014E07F20CE
:1056E000A3F85C0010E09868B0F1805F09D11869F8
:1056F00018B97F20A3F85C0006E03F20A3F85C0007
:1057000002E00020A3F85C0000BF0020D867222040
:1057100098671868806840F001001C68A06098686D
:10572000B0F5805F04D1186910B90A48186601E025
:105730000948186600BF002083F8700000BF186891
:10574000006840F490701C68206000209CE70220F4
:105750009AE70000FDF8000867F90008064988424A
:1057600002D10121054A11600549884202D1012177
:10577000044A116070470000040A00206C010020F8
:10578000840A0020CC01002070B504460D46164660
:10579000002300BF0AE0E85C208500BF40212046CE
:1057A00000F08AF80028F9D0581C83B2B342F2DB2B
:1057B00070BD2DE9F84F04460E4617469946606FB6
:1057C00020285DD106B117B9012000F05BB800BFF9
:1057D00094F87000012801D10220F6E7012084F836
:1057E000700000BF0020E06721206067FDF72EFFFA
:1057F0008246A4F85070A4F85270A068B0F5805F9B
:1058000004D1206910B90025B04602E035464FF0BA
:10581000000800BF002084F8700000BF1DE0534660
:10582000002280212046CDF800900AF0CAFA08B183
:105830000320CAE745B9B8F80000C0F308002168A2
:10584000088508F1020803E02878216808856D1CA6
:10585000B4F85200401EA4F85200B4F852000028D8
:10586000DDD15346002240212046CDF800900AF0B9
:10587000A8FA08B10320A8E7202060670020A4E769
:105880000220A2E718BCBDE8E08F0000064988426C
:1058900002D10121054A11600549884202D1012146
:1058A000044A116070470000040A002070010020C3
:1058B000840A0020D00100200246D06908408842B6
:1058C00001D1012070470020FCE702E00120FDF734
:1058D0009BFDFBE70146E02901DD00207047012028
:1058E000FCE7000003480078002801DD0120704734
:1058F0000020FCE7C002002030B5044620468C4260
:1059000001DD254600E00D46284630BD10B5FBF709
:1059100049FB1648164908601648486016488860D2
:105920001648C8601648174908600222104800F05F
:1059300047FA022014490870144800780871084694
:1059400000F0FEFD044607200F4908700120087191
:10595000084600F0F5FD044600200B490870087168
:10596000084600F0EDFD044610BD0000E971000896
:10597000C404002011720008717400080175000849
:10598000890F0008E0000020D4040020F10000206E
:1059900010B52148006858B9FBF7F8FA04460CF036
:1059A00073FC6FF07E4100200CF028FC1A4908605F
:1059B00003201A4908701A484860084600F0C0FDE4
:1059C0001849087004201549087013480068486099
:1059D000084600F0B5FD1349087005200F4908700E
:1059E00011484860084600F0ABFD0E4908700620DB
:1059F0000A4908700D484860084600F0A1FD0949B1
:105A000008700120054908700871084600F098FDEB
:105A10000449087010BD000034010020D4040020A7
:105A20001A5EAA003D010020120100202201002080
:105A300010B590B001208DF8200008A800F0A6FC59
:105A400004461CB14FF0FF3010B010BD9DF824008B
:105A500020B9FFF79DFF4FF0FF30F5E79148007840
:105A600001287CD190480078002879D106900790D1
:105A70000490059002900390009001909FED8B0B95
:105A80008C4880ED000B9FED8C0B8D4880ED000B5A
:105A90009FED8C0B8D4880ED000B9FED8D0B8E489C
:105AA00080ED000B834906A8FAF782FC844904A81C
:105AB000FAF77EFC854902A8FAF77AFC864968461F
:105AC000FAF776FCFF208549087001204870102005
:105AD00088709DF81F00C8709DF81E0008719DF821
