:020000040800F2
:10000000801F0020810200081D23000863200008D3
:1000100019230008B9030008F72E000800000000AB
:10002000000000000000000000000000A101000826
:10003000BD03000800000000FD010008A125000824
:100040009B0200089B0200089B0200089B0200081C
:100050009B0200089B0200089B0200089B0200080C
:100060009B0200089B0200089B0200089B020008FC
:100070009B0200089B0200089B0200089B020008EC
:100080009B0200089B0200089B0200089B020008DC
:100090009B0200089B0200089B0200089B020008CC
:1000A0009B020008FD2600089B0200089B02000836
:1000B0009B02000800000000000000009B020008F6
:1000C0009B0200089B0200089B0200089B0200089C
:1000D0009B020008712E00089B020008812E000878
:1000E0009B0200089B0200080000000000000000C6
:1000F0000000000000000000000000000000000000
:10010000000000009B020008000000009B020008A5
:1001100000000000000000009B0200089B02000895
:100120009B0200089B0200089B0200089B0200083B
:100130009B0200080000000000000000000000001A
:100140009B0200089B0200089B0200089B0200081B
:100150009B0200089B0200089B0200089B0200080B
:100160009B0200089B0200089B02000800000000A0
:100170009B0200089B0200089B0200080000000090
:100180009B0200089B0200089B020008DFF80CD0CD
:1001900000F000F9004800475D2F0008801F002094
:1001A0002C4B1968086800F05AB880F30988BFF32F
:1001B0006F8F4FF0000080F311887047000000003F
:1001C00008480068006880F308884FF0000080F35A
:1001D000148862B661B6BFF34F8FBFF36F8F00DF35
:1001E00000BF00BF08ED00E0DFF80C00016841F43B
:1001F00070010160704700BF88ED00E0EFF30980F7
:10020000BFF36F8F134B1A681EF0100F08BF20ED5D
:10021000108A20E9F04F106009B44FF0500080F3CD
:100220001188BFF34F8FBFF36F8F03F097FB4FF031
:10023000000080F3118809BC1968086800F014B840
:100240001EF0100F08BF00F014B880F30988BFF348
:100250006F8F70473C000020EFF30580704730C877
:10026000B0E8C04FFFF7A1BF30C8B0E8C04FFFF7FC
:10027000E7BFB0EC088AB0EC08CAFFF7E6BF0000A1
:100280000648804706480047FEE7FEE7FEE7FEE730
:10029000FEE7FEE7FEE7FEE7FEE7FEE7AD26000825
:1002A0008D0100082DE9F05F0546002092469B462F
:1002B00088460646814640241BE02846414647467C
:1002C000224600F056F853465A46C01A914110D3C0
:1002D00011461846224600F03DF82D1A67EB01083A
:1002E0004F4622460120002100F034F817EB0009A8
:1002F0004E41201EA4F10104DFDC484631462A4667
:10030000434600F000B830BCBDE8C09F40EA01039E
:100310009B0703D009E008C9121F08C0042AFAD2BB
:1003200003E011F8013B00F8013B521EF9D270477F
:10033000D2B201E000F8012B491EFBD27047002227
:10034000F6E710B513460A4604461946FFF7F0FFD4
:10035000204610BD202A04DB203A00FA02F10020DA
:1003600070479140C2F1200320FA03F319439040F3
:100370007047202A04DB203A21FA02F0002170475E
:1003800021FA02F3D040C2F12002914008431946FD
:1003900070470000064C074D06E0E06840F001039E
:1003A00094E8070098471034AC42F6D3FFF7F2FE0A
:1003B000E43F00080440000800BFFEE770477047B4
:1003C00070B50446002594F82500022803D00420C7
:1003D000E063012520E02068006820F00E0021681D
:1003E00008602068006820F001002168086094F827
:1003F000440000F01C0101208840216C486001206D
:1004000084F8250000BF002084F8240000BFA06B02
:1004100010B12046A16B8847284670BD78B50346C9
:100420000022CBE0012696400D6805EA0604002C68
:1004300072D04D68012D08D04D68022D05D04D6851
:10044000112D02D04D68122D13D198685600032546
:10045000B540A8435600CD68B54028439860586819
:1004600001259540A8430D79C5F300159540284313
:100470005860D86856000325B540A84356008D68DB
:10048000B5402843D8604D68022D02D04D68122D2A
:1004900013D1D60803F1200555F826005507EE0EB6
:1004A0000F25B540A8435607F60E0D69B540284301
:1004B000D60803F1200545F82600186856000325E4
:1004C000B540A8430D7905F003055600B540284313
:1004D00018604D6805F08055B5F1805F6DD100BFA3
:1004E000394D2D6E45F00105374E356635462D6E7A
:1004F00005F00105009500BF00BF4FEAB63596082C
:1005000055F8260095072E0F0F25B540A843B3F1E7
:10051000904F02D1002515E04FE02C4DAB4201D1A8
:1005200001250FE02A4DAB4201D102250AE0294DF9
:10053000AB4201D1032505E0274DAB4201D1042593
:1005400000E007259607360FB5402843234D96084F
:1005500045F82600224D2868A0434D6805F48035F3
:10056000B5F5803F00D120431D4D28602D1D286822
:10057000A0434D6805F40035B5F5003F00D1204398
:10058000174D2D1D28602D1D2868A0434D6805F4CA
:100590008015B5F5801F00D12043114D0835286026
:1005A0002D1D2868A0434D6805F40015B5F5001F02
:1005B00000D120430A4D0C352860521C0D68D540EF
:1005C000002D7FF42FAF78BD0010024000040048DA
:1005D00000080048000C00480010004808000140D6
:1005E000000401400AB1816100E0816270470000AF
:1005F00001480068704700002C0000200348006894
:100600000349096808440149086070472C0000202C
:100610003400002010B50024032000F0C5F80020AD
:1006200000F008F808B1012401E000F047F8204686
:1006300010BD000070B588B00446002500260022D9
:100640002146192000F06EF8192000F05BF800BF79
:100650001648006E40F40060144908660846006EB3
:1006600000F40060019000BF00BF02A903A800F0E1
:1006700083FC00F0BBFC05460D48B5FBF0F0461EC0
:100680000C480D49086040F2E7310B48C1604660F4
:1006900000210161816001F0ECF920B9064801F008
:1006A00003FA08B070BD0120FBE700000010024013
:1006B00040420F00002C0140C806002008B500BFD2
:1006C0000F48006E40F001000D4908660846006EB4
:1006D00000F00100009000BF00BF00BF0846806D21
:1006E00040F0805088650846806D00F08050009092
:1006F00000BF00BF00220F21901E00F013F808BDBC
:100700000010024001460846002809DB00F01F03E4
:1007100001229A4043099B0003F1E023C3F8002122
:1007200000BF70472DE9F05F80460D461646002752
:1007300002F0E4FB074639462A46334601F007003B
:10074000C0F1070ABAF1040F02D94FF0040A01E020
:10075000C0F1070AD14600F1040ABAF1070F02D22C
:100760004FF0000A01E0A0F1030AD4464FF0010A5D
:100770000AFA09FAAAF1010A0AEA020A0AFA0CFAC2
:100780004FF0010B0BFA0CFBABF1010B0BEA030B67
:100790004AEA0B042146404602F0B8FB00F000B8DC
:1007A00030BCBDE8C09F000000BF00F00702064B50
:1007B00019684FF6FF031940044B0B4343EA02212B
:1007C000014B196000BF70470CED00E00000FA0516
:1007D000024611680120C2F86802002082F8600217
:1007E00031F8540F40F001000880088840F0020002
:1007F00021F854090020704730B585B0044614B97B
:10080000012005B030BD94F8290228B9002084F8F1
:100810002802204600F08EF8032084F82902206880
:1008200002F052FB142204F110016846FFF76EFD3E
:1008300094E80F0002F02CFB20B1022084F829027A
:100840000120DEE70021206802F052FB002526E0AF
:10085000012104F1280000EB4510417004F128004B
:1008600000EB4510057004F1280000EB4510C58130
:10087000002104F1280000EB4510C17004F12800AC
:1008800000EB4510016104F1280000EB45104161C7
:1008900004F1280000EB45108161681CC5B2606856
:1008A000A842D5D8002520E0002104F5947000EB83
:1008B0004510417004F5947000EB4510057004F587
:1008C000947000EB4510C17004F5947000EB451076
:1008D000016104F5947000EB4510416104F59470DA
:1008E00000EB45108161681CC5B26068A842DBD886
:1008F000142204F110016846FFF708FD94E80F0088
:1009000002F0D3FA20B1022084F82902012078E70E
:10091000002084F82400012084F82902E0690128DD
:1009200002D12046FFF754FF206802F0B5FA0020FC
:1009300067E7000008B5094A016891420DD100BF80
:100940000749896D41F08061054A91651146896DBD
:1009500001F08061009100BF00BF08BD0068004049
:10096000001002400246B2F5007F2AD11D480068FF
:1009700000F4C060B0F5007F32D01A48006820F45F
:10098000C06040F40070174B1860174800683223AD
:100990005843164BB0FBF3F0411C00E0491E1148D0
:1009A000406900F48060B0F5806F01D10029F5D175
:1009B0000C48406900F48060B0F5806F10D10320CE
:1009C00070470848006800F4C060B0F5806F07D039
:1009D0000448006820F4C06040F48060014B186057
:1009E0000020EDE7007000403800002040420F007A
:1009F0000248006800F4C0607047000000700040CA
:100A00000348006840F480700149086070470000A6
:100A1000007000400348006840F00400014908608D
:100A200070470000001002402DE9F84304460025FD
:100A3000A846208800F40060B0F5006F26D1606CF5
:100A400068B1B0F5000F03D0B0F5400F0ED10CE047
:100A5000E848C06840F48030E649C86008E00021FA
:100A6000201D01F05DFC054602E001E0012500BF0C
:100A700000BF55B9DF488830006820F44000616C41
:100A80000843DC49C1F8880000E0A846206800F46B
:100A90000030B0F5003F75D14FF00009D548806DAA
:100AA000012121EA107078B100BFD248806D40F07A
:100AB0008050D04988650846806D00F080500090D5
:100AC00000BF00BF4FF00109CB48006840F48070C0
:100AD000C9490860FFF78CFD074606E0FFF788FD6F
:100AE000C01B022801D9032505E0C348006800F4B3
:100AF00080700028F2D000BF7DBBBE4890300068F7
:100B000000F44076CEB1E06DB04216D0B9489030D6
:100B1000006820F44076B748D0F8900040F4803068
:100B2000B449C1F890000846D0F8900020F4803015
:100B3000C1F890000846C0F8906006F00100A8B126
:100B4000FFF756FD074609E0FFF752FDC01B41F2D3
:100B50008831884202D9032507E016E0A548903085
:100B6000006800F002000028EED000BF5DB9A14887
:100B70009030006820F44070E16D08439D49C1F851
:100B8000900003E00CE0A84600E0A846B9F1010F90
:100B900005D19848806D20F080509649886500BF47
:100BA000207800F0010048B192488830006820F0B9
:100BB0000300216A08438F49C1F88800207800F0BB
:100BC0000200022809D18B488830006820F00C0010
:100BD000616A08438749C1F88800207800F0040062
:100BE000042809D183488830006820F03000A16AC9
:100BF00008438049C1F88800207800F020002028B0
:100C000009D17C488830006820F44060E16A0843DC
:100C10007849C1F88800208800F40070B0F5007FA2
:100C200009D174488830006820F44020E16B084303
:100C30007049C1F88800208800F48060B0F5806FAA
:100C400009D16C488830006820F44010216C0843BA
:100C50006849C1F88800207800F04000402809D198
:100C600064488830006820F44050216B0843614993
:100C7000C1F88800207800F08000802809D15D4804
:100C80008830006820F44040616B08435949C1F83E
:100C90008800208800F48070B0F5807F09D1554825
:100CA0008830006820F44030A16B08435149C1F8F6
:100CB0008800208800F40050B0F5005F1FD14D4837
:100CC0008830006820F04060A16C084349498831B1
:100CD0000860A06CB0F1006F06D14648C06840F4CF
:100CE00080104449C8600AE0A06CB0F1806F06D162
:100CF0000121201D01F014FB054605B1A84620681E
:100D000000F40020B0F5002F1FD13A488830006869
:100D100020F04060E16C0843364988310860E06C9F
:100D2000B0F1006F06D13348C06840F480103149FB
:100D3000C8600AE0E06CB0F1806F06D10121201D8F
:100D400001F0EEFA054605B1A846206800F48020BF
:100D5000B0F5802F1FD127488830006820F0406010
:100D6000216D0843234988310860206DB0F1006F80
:100D700006D12048C06840F480101E49C8600AE0CF
:100D8000206DB0F1806F06D10121201D01F0C8FA5D
:100D9000054605B1A846208800F48040B0F5804F94
:100DA00014D114488830006820F04050616D084329
:100DB000104988310860606DB0F1805F06D1022172
:100DC000201D01F0ADFA054605B1A846208800F4C3
:100DD0000040B0F5004F09D106488830006820F087
:100DE0008040A16D08430349C1F888004046BDE832
:100DF000F883000000100240007000402DE9F0412F
:100E000004460D4614B90120BDE8F081554800683C
:100E100000F00700A8420ED25248006820F00700F8
:100E20002843504908600846006800F00700A842BF
:100E300001D00120E8E7207800F00100002840D030
:100E40006068032806D14848006800F00070D8B9EF
:100E50000120D9E76068022806D14348006800F401
:100E6000003088B90120CFE7606830B93E4800689B
:100E700000F0020040B90120C6E73B48006800F4DA
:100E8000806008B90120BFE73748806820F0030080
:100E90006168084334498860FFF7AAFB064608E00A
:100EA000FFF7A6FB801B41F28831884201D903205D
:100EB000AAE72D48806800F00C006168B0EB810F54
:100EC000EED1207800F00200022807D12648806881
:100ED00020F0F000A1680843234988602148006899
:100EE00000F00700A8420ED91E48006820F0070055
:100EF00028431C4908600846006800F00700A84223
:100F000001D0012080E7207800F00400042807D1F8
:100F10001548806820F4E060E16808431249886061
:100F2000207800F00800082808D10F48806820F4D5
:100F30006050216940EAC1000B49886000F068F800
:100F400009498968C1F30311084A515C01F01F0186
:100F5000C8400749086007480068FFF76BFB074671
:100F6000384651E70020024000100240703F000860
:100F700038000020300000200F2202600D4A9268E5
:100F800002F0030242600B4A926802F0F0028260B3
:100F9000084A926802F4E062C260064A926802F46B
:100FA0006052D2080261044A126802F007020A6025
:100FB0007047000000100240002002400148006815
:100FC000704700003800002000B5FFF7F7FF054923
:100FD0008968C1F30221044A515C01F01F01C84035
:100FE00000BD000000100240803F000800B5FFF780
:100FF000E5FF05498968C1F3C221044A515C01F04B
:101000001F01C84000BD000000100240803F0008E2
:10101000F0B500230020DFF8D4C0DCF808C00CF0E5
:101020000C01DFF8C8C0DCF80CC00CF0030719B1E4
:101030000C291ED1012F1CD1DFF8B0C0DCF800C094
:101040000CF0080CBCF1000F06D1DFF8A0C0DCF8F2
:1010500094C0CCF3032305E0DFF890C0DCF800C0B7
:10106000CCF30313DFF888C05CF8233041B918468D
:1010700006E0042901D11F4802E0082900D11E48DA
:101080000C2932D1DFF864C0DCF80CC00CF003048A
:10109000012C09D0022C02D0032C04D101E0154A06
:1010A00004E0154A02E000BF1A4600BF00BFDFF8A7
:1010B0003CC0DCF80CC0CCF3021C0CF10106DFF8DC
:1010C0002CC0DCF80CC0CCF3062C0CFB02FCBCFBE7
:1010D000F6F2DFF818C0DCF80CC0CCF3416C0CF170
:1010E000010C4FEA4C05B2FBF5F0F0BD00100240D8
:1010F000883F00080024F40000127A002DE9F8432C
:10110000044614B90120BDE8F883F948806800F06E
:101110000C06F748C06800F00307207800F01000C4
:10112000102877D11EB10C2E76D1012F74D1F04842
:10113000006800F0020018B1A06908B90120E2E7D8
:10114000EB48216A006800F0080020B1E848006818
:1011500000F0F00005E0E6489430006800F47060AC
:10116000000981421FD9206A01F09EF908B10120CF
:10117000C9E700BFDE48006840F00800DC490860AD
:101180000846006820F0F000216A0843D84908604A
:1011900000BF0846406820F47F40E16940EA012032
:1011A000D34948601FE000BFD148006840F0080004
:1011B000CF4908600846006820F0F000216A084323
:1011C000CB49086000BF0846406820F47F40E169D1
:1011D00040EA0120C64948602EB9206A01F064F94E
:1011E00008B101208FE7FFF713FFC1498968C1F3F8
:1011F0000311C04A515C01F01F01C840BE4908609C
:10120000BE480068FFF716FA8046B8F1000F4ED0CE
:10121000404678E74BE0FFE7A06980B3B448006838
:1012200040F00100B2490860FFF7E2F9054606E028
:10123000FFF7DEF9401B022801D9032063E7AC4821
:10124000006800F002000028F2D000BFA848006843
:1012500040F00800A64908600846006820F0F00049
:10126000216A0843A249086000BF0846406820F48C
:101270007F40E16940EA01209D49486017E0FFE7AF
:101280009B48006820F0010099490860FFF7B0F919
:10129000054606E0FFF7ACF9401B022801D9032000
:1012A00031E79348006800F002000028F2D120786E
:1012B00000F0010000285CD0082E03D00C2E0AD1CB
:1012C000032F08D18A48006800F4003088B36068B2
:1012D00078BB012017E700BF6068B0F5803F06D1FA
:1012E0008348006840F48030814908601AE06068F3
:1012F000B0F5A02F0BD17E48006840F480207C49D7
:1013000008600846006840F4803008600AE07848C9
:10131000006820F48030764908600846006820F4B0
:101320008020086000BF606890B1FFF761F9054652
:1013300007E01EE0FFF75CF9401B642801D9032099
:10134000E1E66B48006800F400300028F2D010E0BD
:10135000FFF74EF9054606E0FFF74AF9401B6428FF
:1013600001D90320CFE66248006800F4003000286D
:10137000F2D1207800F00200022852D1042E03D0CE
:101380000C2E14D1022F12D15948006800F480604D
:1013900018B1E06808B90120B5E65548406820F06A
:1013A000F850217C40EA01605149486039E0E0682A
:1013B00000B34F48006840F480704D490860FFF763
:1013C00017F9054606E0FFF713F9401B022801D97B
:1013D000032098E64648006800F480600028F2D0B8
:1013E0004348406820F0F850217C40EA01604049C1
:1013F000486016E03E48006820F480703C49086070
:10140000FFF7F6F8054606E0FFF7F2F8401B022862
:1014100001D9032077E63648006800F48060002890
:10142000F2D1207800F00800082836D16069D0B1E8
:101430002F489430006840F001002D49C1F8940015
:10144000FFF7D6F8054606E0FFF7D2F8401B022862
:1014500001D9032057E626489430006800F00200C6
:101460000028F1D019E022489430006820F00100F3
:101470001F49C1F89400FFF7BBF8054606E0FFF7E7
:10148000B7F8401B022801D903203CE618489430E5
:10149000006800F002000028F1D1207800F004007C
:1014A000042872D14FF000091148806D00F080507F
:1014B00078B900BF0E48806D40F080500C498865B7
:1014C0000846806D00F08050009000BF00BF4FF0D4
:1014D00001090B48006800F4807000BB08480068F0
:1014E00040F4807006490860FFF782F8054610E076
:1014F00000100240703F000838000020300000203B
:1015000000700040FFF774F8401B022801D9032047
:10151000F9E5D048006800F480700028F2D000BFE0
:10152000A068012808D1CC48006840F00100CA49F1
:101530009039C1F8900021E0A06805280FD1C64875
:10154000006840F00400C4499039C1F89000084692
:10155000D0F8900040F00100C1F890000EE0BE48C5
:10156000006820F00100BC499039C1F8900008469D
:10157000D0F8900020F00400C1F8900000BFA068EF
:10158000A0B1FFF735F8054609E02EE0FFF730F887
:10159000401B41F28831884201D90320B3E5AE48AF
:1015A000006800F002000028F0D012E0FFF720F8F9
:1015B000054608E0FFF71CF8401B41F288318842DD
:1015C00001D903209FE5A448006800F0020000282C
:1015D000F0D1B9F1010F07D19F489038806D20F00C
:1015E00080509D499039886500BF207800F0200028
:1015F000202838D1606AD8B197480830006840F098
:10160000010095499039C1F89800FEF7F1FF0546B1
:1016100006E0FEF7EDFF401B022801D9032072E52A
:101620008D480830006800F002000028F1D01AE070
:1016300089480830006820F0010087499039C1F8D6
:101640009800FEF7D5FF054606E0FEF7D1FF401BE8
:10165000022801D9032056E57F480830006800F0D1
:1016600002000028F1D1A06A00287DD0A06A0228DB
:101670007BD179489038C76807F00301E06A81425E
:1016800025D107F07001206B401EB1EB001F1ED169
:1016900007F4FE41606BB1EB002F18D107F07841E1
:1016A0003820005DB1EBC06F11D107F4C001A08FED
:1016B0000122C2EB5000B1EB405F08D107F0C061DE
:1016C0004020005DC2EB5000B1EB406F66D00C2EA5
:1016D00062D061489038006800F0806008B1012055
:1016E00011E55D489038006820F080705A499039C3
:1016F0000860FEF77DFF054606E0FEF779FF401B18
:10170000022801D90320FEE453489038006800F015
:1017100000700028F1D1D4E90B10401E41EA0011FD
:10172000606B41EA0021A08F0122C2EB500041EA28
:1017300040514020005DC2EB500041EA406138203A
:10174000005D41EAC06044499039C968434A11408C
:10175000084341499039C8600846006840F08070ED
:1017600008600846C06801E05BE03DE040F0807042
:10177000C860FEF73DFF054606E0FEF739FF401B57
:10178000022801D90320BEE433489038006800F0F5
:1017900000700028F1D05AE00120B4E42E489038BF
:1017A000006800F00070E0BB2B489038006840F003
:1017B00080702949903908600846C06840F0807000
:1017C000C860FEF715FF054606E0FEF711FF401B57
:1017D000022801D9032096E41F489038006800F0E1
:1017E00000700028F1D032E00C2E2ED01A4890382C
:1017F000006820F080701849903908600846006839
:1018000000F0006020B90846C06820F00300C860FE
:1018100011489038C068124908400F499039C86093
:1018200000E014E0FEF7E4FE054606E0FEF7E0FE09
:10183000401B022801D9032065E40748903800685E
:1018400000F000700028F1D101E001205BE40020ED
:1018500059E4000000700040901002408C809D010F
:10186000FFFFEEFE2DE9F04104460D4616461F46E9
:1018700014B90120BDE8F081606F28B9002084F818
:101880007000204600F030FB24206067206800686C
:1018900020F0010021680860204601F051F801287D
:1018A00000D1E7E7606A10B1204600F069FF2068C8
:1018B000806840F48040216888602068806820F457
:1018C00000402843216888604FEA465848EA0748A4
:1018D000206800680749084040EA0800216808605D
:1018E0002068006840F0010021680860204600F090
:1018F000C3FFBFE7FFFF00FC70B504460CB9012031
:1019000070BD606A00B900BF0021A16294F85D005B
:1019100028B9002084F85C00204600F04DF8022031
:1019200084F85D002068006820F0400021680860AD
:10193000E068B0F5E06F01D9002501E04FF4805573
:10194000E068B0F5706F05D0E068B0F5E06F01D0E9
:101950000021A162206B40B9E068B0F5E06F02D9C8
:101960000221216301E001212163D4E9010108433F
:101970002169084361690843218B01F40071084320
:10198000E1690843216A0843A16A084321680860A5
:101990000421A06901EA1040616A0843616B0843B1
:1019A000E168084328432168486000202066012040
:1019B00084F85D000020A3E710B586B0044614212A
:1019C00001A8FEF7BCFC26492068884245D100BF2B
:1019D0002448006E40F48050224908660846006E94
:1019E00000F48050009000BF00BF00BF0846C06CEC
:1019F00040F00100C8640846C06C00F0010000908F
:101A000000BF00BF00BF0846C06C40F00200C864C1
:101A10000846C06C00F00200009000BF00BF4FF409
:101A200000400190022002900020039003200490C7
:101A30000520059001A94FF09040FEF7EFFC3820FB
:101A400001900220029000200390032004900520C2
:101A5000059001A90448FEF7E1FC06B010BD0000A6
:101A600000300140001002400004004870477047F9
:101A7000704710B504460CB9012010BD94F83D0024
:101A800028B9002084F83C00204600F00CF8022021
:101A900084F83D00211D206800F038FE012084F804
:101AA0003D000020E9E7704701460868C06840F043
:101AB00001000B68D86008688068084B00EA0302E0
:101AC000062A08D0B2F5803F05D00868006840F0CB
:101AD00001000B681860002070470000070001003B
:101AE000704710B5044620680069C0F34000D8B1C3
:101AF0002068C068C0F34000B0B16FF002002168F8
:101B00000861012020772068806900F0030018B187
:101B10002046FFF7E5FF05E0204600F0BEF820462E
:101B200000F0BCF80020207720680069C0F3800036
:101B3000D8B12068C068C0F38000B0B16FF0040075
:101B400021680861022020772068806900F44070D5
:101B500018B12046FFF7C4FF05E0204600F09DF8CD
:101B6000204600F09BF80020207720680069C0F331
:101B7000C000D8B12068C068C0F3C000B0B16FF039
:101B8000080021680861042020772068C06900F0FF
:101B9000030018B12046FFF7A3FF05E0204600F040
:101BA0007CF8204600F07AF8002020772068006951
:101BB000C0F30010D8B12068C068C0F30010B0B105
:101BC0006FF0100021680861082020772068C06944
:101BD00000F4407018B12046FFF782FF05E0204670
:101BE00000F05BF8204600F059F8002020772068CC
:101BF000006900F0010058B12068C06800F00100E1
:101C000030B16FF0010021680861204600F048F80B
:101C100020680069C0F3C01058B12068C068C0F3E4
:101C2000C01030B16FF08000216808612046FFF7D6
:101C30001EFF20680069C0F3002058B12068C0680A
:101C4000C0F3C01030B16FF4807021680861204685
:101C5000FFF70CFF20680069C0F3801058B12068BE
:101C6000C068C0F3801030B16FF040002168086197
:101C7000204600F021F820680069C0F3401058B1F8
:101C80002068C068C0F3401030B16FF020002168B8
:101C900008612046FFF7ECFE10BD7047704700005A
:101CA00010B5044603492068884201D1FEF7A6FC1E
:101CB00010BD0000002C01407047704770470000C5
:101CC0002DE9F04704462068C56920680668206849
:101CD000876840F60F0005EA0008B8F1000F0CD144
:101CE00005F0200048B106F0200030B1206E10B1A0
:101CF0002046216E8847BDE8F087B8F1000F7DD0FF
:101D000007F0010018B906F490700028F7D005F02C
:101D1000010048B106F4807030B1012021680862EA
:101D2000E06F40F00100E06705F0020048B107F005
:101D3000010030B1022021680862E06F40F0040029
:101D4000E06705F0040048B107F0010030B104205D
:101D500021680862E06F40F00200E06705F00800CB
:101D600060B106F0200010B907F0010030B1082082
:101D700021680862E06F40F00800E06705F4006049
:101D800050B106F0806038B14FF4006021680862FD
:101D9000E06F40F02000E067E06F80B305F02000C6
:101DA00038B106F0200020B1206E10B12046216E1F
:101DB0008847D4F87C902068806800F04000402874
:101DC00002D009F0280030B3204600F098FD2068CA
:101DD000806800F04000402819D12068806820F019
:101DE000400021688860E06E68B12148E16E886338
:101DF000E06EFEF7E5FA10B1E06E01E011E00FE0F1
:101E0000816B88470CE02046FFF758FF08E020462A
:101E1000FFF754FF04E02046FFF750FF0020E06783
:101E200069E705F4801050B107F4800038B14FF431
:101E30008010216808622046FFF73FFF5BE705F04E
:101E4000800040B106F0800028B1606E10B12046DD
:101E5000616E88474FE705F0400030B106F0400062
:101E600018B1204600F05CFD45E700BF43E70000E5
:101E7000E728000810B504460CB9012010BDA06980
:101E800000B100E000BF606F28B9002084F8700046
:101E9000204600F029F8242060672068006820F0C0
:101EA000010021680860204600F04AFD012800D1A9
:101EB000E4E7606A10B1204600F062FC20684068E8
:101EC00020F49040216848602068806820F02A0053
:101ED000216888602068006840F00100216808607F
:101EE000204600F0C9FCC9E710B586B004461421AD
:101EF00001A8FEF724FA38492068884233D100BF90
:101F00003648006E40F48040344908660846006E4A
:101F100000F48040009000BF00BF00BF0846C06CC6
:101F200040F00100C8640846C06C00F00100009059
:101F300000BF00BF4FF4C06001900220029000205B
:101F40000390032004900720059001A94FF09040D2
:101F5000FEF764FA002205212520FEF7E3FB252089
:101F6000FEF7D0FB35E01E492068884231D100BF22
:101F70001A48806D40F48020184988650846806DB5
:101F800000F48020009000BF00BF00BF0846C06C76
:101F900040F00200C8640846C06C00F002000090E7
:101FA00000BF00BF40F602400190022002900020D6
:101FB0000390032004900720059001A90948FEF72B
:101FC0002DFA002205212720FEF7ACFB2720FEF783
:101FD00099FB06B010BD000000380140001002401F
:101FE000004800400004004810B50346586F202800
:101FF00030D101B10AB9012010BD00BF93F87000C3
:10200000012801D10220F7E7012083F8700000BF0A
:10201000D964A3F85020A3F8522000205866D8674E
:10202000212058679868B0F5805F04D1186910B90D
:102030000948586601E00948586600BF002083F847
:10204000700000BF1868006840F080001C682060C5
:102050000020D1E70220CFE7372D00087B2D0008B4
:10206000704700BFFEE7000000B5ABB01C2224495A
:1020700024A8FEF74BF9002124A800F0BDFF214958
:1020800008601C221E491C311DA8FEF73FF90021E3
:102090001DA800F0B1FF1C4908601C221849383106
:1020A00016A8FEF733F9002116A800F0A5FF17497E
:1020B00008601C22124954310FA8FEF727F90021AD
:1020C0000FA800F099FF124908601C220C497031DA
:1020D00008A8FEF71BF9002108A800F08DFF0D49A4
:1020E00008601C2206498C3101A8FEF70FF9002177
:1020F00001A800F081FF084908602BB000BD000076
:10210000C83E000814000020180000201C00002019
:1021100020000020240000202800002000B587B007
:10212000142102A8FEF70BF900BF3648C06C40F03E
:1021300004003449C8640846C06C00F004000190F3
:1021400000BF00BF00BF0846C06C40F08000C864FC
:102150000846C06C00F08000019000BF00BF00BFC7
:102160000846C06C40F00100C8640846C06C00F02E
:102170000100019000BF00BF00BF0846C06C40F0E6
:102180000200C8640846C06C00F00200019000BF65
:1021900000BF002260214FF09040FEF723FA012299
:1021A00080214FF09040FEF71DFA0122114616489B
:1021B000FEF718FA002280211348FEF713FAE020F8
:1021C00002900120039004900020059002A94FF096
:1021D0009040FEF723F981200290012003900490A3
:1021E0000020059002A90848FEF718F94020029047
:1021F000002003900120049002A90348FEF70EF985
:1022000007B000BD001002400004004810B511489E
:10221000114908604FF48270486000210E488160C7
:102220004FF44071C1600021016141614FF4802190
:1022300081610021C1610162416281620721C16245
:102240000021016308214163FFF756FB08B1FEF747
:10225000B6F810BD00300140F002002010B50D4866
:102260000D4908604FF41650486000210A4881600B
:10227000C16001610C21416100218161C161016284
:102280000020054948620846FFF7F4FD08B1FEF753
:1022900096F810BD003801405403002010B50F48D7
:1022A0000F4908604FF41650486000210C488160C7
:1022B000C16001610C21416100218161C161016244
:1022C00000200749486200231A4619460448FFF7D0
:1022D000C9FA08B1FEF773F810BD000000480040CD
:1022E000D403002010B50A480A4908600820486055
:1022F0000221084881600161002141618161C16161
:102300000162FEF779FA08B1FEF759F810BD000036
:10231000006800405404002000BFFEE77047000042
:102320002DE9F04104460F4600255B48C06800F0E7
:10233000030090B15848C06800F00300216888424B
:1023400009D1206838B15448C068C0F30210401C5D
:102350006168884233D0012531E02068012804D02B
:10236000022809D003281AD10DE04B48006800F07C
:10237000020000B9012514E04748006800F48060BD
:1023800000B901250DE04448006800F4003028B988
:102390004148006800F4802000B9012501E00125D2
:1023A00000BF00BF5DB9D4E90010401E41EA001033
:1023B0003949C96821F0730108433749C860002DC5
:1023C00067D13548006820F0806033490860FEF727
:1023D0000FF9064606E0FEF70BF9801B022801D92B
:1023E000032505E02C48006800F000600028F2D1C9
:1023F00000BFC5BB67B9A0680002217B40EAC1608D
:1024000025490969254A114008432349086120E00C
:10241000012F0FD1A0680002218A0122C2EB5101D5
:1024200040EA41501C4909691D4A114008431A49B4
:1024300008610EE0A0680002217D0122C2EB51017B
:1024400040EA416014490969164A1140084312499B
:1024500008611148006840F080600F490860FEF78D
:10246000C7F8064607E014E0FEF7C2F8801B022812
:1024700001D9032505E00848006800F00060002845
:10248000F2D000BF2DB904480069A1690843024990
:1024900008612846BDE8F08100100240FF80FF0778
:1024A000FF809FFFFF80FFF9F8B504460026234810
:1024B000806D00F0805018B1FEF79AFA054616E0DC
:1024C00000BF1E48806D40F080501C49886508465A
:1024D000806D00F08050009000BF00BFFEF788FACA
:1024E00005461648806D20F0805014498865B5F582
:1024F000007F07D1802C10D9A02C01D902260CE036
:1025000001260AE0802C01D9032606E0802C01D1A7
:10251000022602E0702C00D101260948006820F054
:1025200007003043064908600846006800F00700CD
:10253000B04201D00120F8BD0020FCE700100240AD
:102540000020024000BF012000F045FDFBE700BF76
:10255000012000F040FDFBE700BF012000F03BFD43
:10256000FBE7000000BF412008490870012208482D
:10257000FFF73AFD08B1FDF722FF00BF0448406FA6
:102580002128FBD0642000F026FDECE7100000209D
:10259000D403002000BF012000F01DFDFBE7000078
:1025A00010B500BF502080F31188BFF34F8FBFF3E9
:1025B0006F8F00BF01F062FB18B14FF080500449EB
:1025C000086000BF002080F3118800BF10BD00002C
:1025D00004ED00E000B5AFB044211EA8FDF7AFFE4A
:1025E000142119A8FDF7ABFE602101A8FDF7A7FE95
:1025F000FEF706FA2C48006820F018002A499039A6
:10260000C1F8900014201E900120209024900020FA
:102610002590602026900220289001211EA8C162EA
:10262000016328214163072181630221C1630164A1
:10263000FEF764FD08B1FDF7C2FE0F2019900320DC
:102640001A9000201B901C901D90042119A8FEF7E1
:10265000D5FB08B1FDF7B3FE42F205000190002062
:1026600009900B904FF0806013900120029001219F
:1026700003911821049107210591022106910791E8
:102680000105089101A8FEF7CFF908B1FDF797FE03
:102690004FF40070FEF766F908B1FDF790FEFEF703
:1026A000B9F92FB000BD000090100240104800683A
:1026B00040F470000E4908600E48006840F00100C8
:1026C0000C49086000208860084600680A490840F4
:1026D000084908608814C8600846006820F4802013
:1026E000086000208861C80301498039086070478C
:1026F00088ED00E000100240FFFFF6EA10B5024846
:10270000FFF7EFF910BD0000C806002010B5026801
:10271000184B984202D0B0F1804F03D122F07002E2
:102720004B681A43134B984208D0B0F1804F05D044
:10273000114B984202D0114B984203D122F44072BF
:10274000CB681A4322F080034C6943EA040202601A
:102750008B68C3620B688362064B984205D0064BB8
:10276000984202D0054B984201D10B6903630123C3
:10277000436110BD002C0140004001400044014075
:1027800090F8241001F0010139B10168496821F481
:102790000031826A11430268516090F8241001F000
:1027A0000201022907D10168496821F48031C26A17
:1027B00011430268516090F8241001F004010429CB
:1027C00007D10168496821F48021026B1143026836
:1027D000516090F8241001F00801082907D1016820
:1027E000496821F40041426B11430268516090F83E
:1027F000241001F01001102907D10168896821F423
:102800008051826B11430268916090F8241001F0AE
:102810002001202907D10168896821F40051C26B89
:1028200011430268916090F8241001F040014029A2
:1028300013D10168496821F48011026C11430268C8
:102840005160016CB1F5801F07D10168496821F41E
:10285000C001426C11430268516090F8241001F0ED
:102860008001802907D10168496821F40021826C28
:10287000114302685160704738B504460020E06794
:10288000FDF7B6FE05462068006800F0080008283D
:102890000CD16FF07E402B4600224FF400110090C7
:1028A000204600F08AFA08B1032038BD206800688D
:1028B00000F0040004280CD16FF07E402B4600226B
:1028C0004FF480010090204600F077FA08B1032011
:1028D000EBE720206067A06700BF002084F870004D
:1028E00000BF00BFE1E770B50546AC6A0020A4F860
:1028F0005A00A4F852002046FFF7E0F970BD0168C5
:10290000096821F49071026811600168896821F0FA
:1029100001010268916020218167002101667047F2
:1029200010B504462068006820F040002168086067
:1029300020206067002060662046FFF791FB10BDF5
:102940002DE9F84F04460027002000908146EF490A
:102950002068884200D100E000BF2169A0680843D8
:1029600061690843E16940EA010820680068E849B4
:10297000084040EA0800216808602068406820F4A8
:102980004050E168084321684860D4F81880DF4966
:102990002068884202D0206A40EA080820688068DF
:1029A00020F4306040EA08002168886000BFD949FF
:1029B0002068884216D1D848006800F0030030B182
:1029C000012808D0022804D0032808D105E00125F9
:1029D00007E0022505E0042503E0082501E01025B5
:1029E00000BF54E0CD492068884216D1CA4800682B
:1029F00000F00C0030B1042808D0082804D00C28BE
:102A000008D105E0002507E0022505E0042503E0E4
:102A1000082501E0102500BF39E0C149206888423F
:102A200016D1BD48006800F0300030B1102808D041
:102A3000202804D0302808D105E0002507E0022531
:102A400005E0042503E0082501E0102500BF1EE095
:102A5000AE492068884219D1AF48006800F4406050
:102A600048B1B0F5806F0AD0B0F5006F05D0B0F571
:102A7000406F08D105E0002507E0022505E00425A8
:102A800003E0082501E0102500BF00E0102500BF8D
:102A90009E49206888426ED135B1022D08D0042DA0
:102AA00009D0082D0ED10AE0FEF78EFA81460CE01F
:102AB000DFF8709209E0FEF7ABFA814605E04FF4CB
:102AC000004902E00120009000BF00BFB9F1000FF3
:102AD0000AD0606800EB4000484503D860680003F6
:102AE000484502D2012000900AE135B1022D1AD0EA
:102AF000042D2AD0082D52D13EE0FEF765FA064695
:102B00004FF48070A6FB0031D4F804E04FEA5E0079
:102B100013EB000B41F10001724600235846FDF70C
:102B2000C1FB07463EE0D4F804E04FEA5E00002116
:102B30007D4B10EB030B41EB010C72460B465846E4
:102B40006146FDF7AFFB07462CE0FEF761FA06464B
:102B50004FF48070A6FB0031D4F804E04FEA5E0029
:102B600013EB000B41F10001724600235846FDF7BC
:102B700099FB074616E022E0D4F804E04FEA5E0035
:102B800000214FF4000310EB030B41EB010C7246E4
:102B90000B4658466146FDF785FB074602E00120DB
:102BA000009000BF00BFB7F5407F05D3B7F5801F89
:102BB00002D22068C760A3E001200090A0E0E06995
:102BC000B0F5004F54D1092D3AD2DFE805F00510D9
:102BD0001B39243939392F00FEF7F6F90646700003
:102BE000616800EB5100B0FBF1F087B22BE0FEF71B
:102BF000FDF906467000616800EB5100B0FBF1F092
:102C000087B220E04949606801EB50006168B0FB81
:102C1000F1F087B217E0FEF7FBF906467000616835
:102C200000EB5100B0FBF1F087B20CE04FF48031C3
:102C3000606801EB50006168B0FBF1F087B202E020
:102C40000120009000BF00BF102F0ED3B7F5803FCA
:102C50000BD24FF6F07007EA000AC7F342004AEAC7
:102C6000000A2068C0F80CA04AE00120009047E06C
:102C7000092D37D2DFE805F0050F19362236363632
:102C80002C00FEF7A1F90646616806EB5100B0FB87
:102C9000F1F087B229E0FEF7A9F90646616806EB74
:102CA0005100B0FBF1F087B21FE01E49606801EBF4
:102CB00050006168B0FBF1F087B216E0FEF7A8F9AA
:102CC0000646616806EB5100B0FBF1F087B20CE0FC
:102CD0004FF40041606801EB50006168B0FBF1F017
:102CE00087B202E00120009000BF00BF102F05D383
:102CF000B7F5803F02D22068C76001E00120009054
:102D0000002020666066009800F012B80080004045
:102D1000F369FFEF00380140881002400044004092
:102D2000004800400024F400000024F40048E801BA
:102D300018BCBDE8E08F426F212A1DD1B0F85220A7
:102D400062B90268126822F0800203681A600268A1
:102D5000126842F0400203681A600DE0C16C0A88F4
:102D6000C2F3080203681A85C26C921CC264B0F8F0
:102D70005220521EA0F852207047416F21291BD1CA
:102D8000B0F8521061B90168096821F08001026849
:102D900011600168096841F04001026811600BE0B0
:102DA000C16C097802681185C16C491CC164B0F816
:102DB0005210491EA0F8521070472DE9F041044608
:102DC0000D4617469846069E45E0701C002842D0E6
:102DD000FDF70EFCA0EB0800B04200D8B6B92068A1
:102DE000006820F4D070216808602068806820F0B6
:102DF00001002168886020206067A06700BF002074
:102E000084F8700000BF0320BDE8F08120680068EE
:102E100000F00400F8B12068C069C0F3C020D0B150
:102E20004FF40060216808622068006820F4D070C8
:102E3000216808602068806820F0010021688860AF
:102E400020206067A067E06700BF002084F8700062
:102E500000BF0320D8E72068C0692840A84201D1FC
:102E6000012000E00020B842AFD00020CCE70000F5
:102E700010B50248FEF724FF10BD000054030020E7
:102E800010B50248FEF71CFF10BD0000D40300205F
:102E900010B50446002010BD0146B1F85800C0F33B
:102EA0000E00A1F858000020704710B5044601201C
:102EB00024F8400F00202080A0802082403C204643
:102EC00000F00CF8002010BD01464BF68072B1F8FE
:102ED00040009043A1F840000020704701464BF6A7
:102EE0008072B1F840001043A1F840000020704704
:102EF00002460020704700BFFEE70000024800685D
:102F0000C0F30220704700000CED00E010B500286F
:102F100004DB0A07130E054A135406E00A07140ED1
:102F2000034A00F00F031B1FD45410BD00E400E05F
:102F300018ED00E002E008C8121F08C1002AFAD10B
:102F400070477047002001E001C1121F002AFBD129
:102F5000704700BF012000F03EF8FBE7FDF75AFB89
:102F6000FFF738FBFFF7DAF8FFF798F9FFF74EF9AC
:102F7000FFF774F9FFF7B6F91048FEF7B5FF002226
:102F800001210F48FDF72EFB012280214FF09040D8
:102F9000FDF728FB05220B490848FFF725F808B183
:102FA000FDF70DFA00BF0548406F2128FBD0FFF761
:102FB0005BF800F01CF800BFFEE70000D40300201F
:102FC000000400480000002001460020842901D0B0
:102FD000CA1C1044704770B5044625460DB12946F9
:102FE00000E00121084600F02BFC002070BD10B568
:102FF00000F054FC002010BD7FB504460D4660690A
:1030000098B1A06988B1B4F90800FFF7DDFF064662
:10301000D4E90510CDE9006102902B462269D4E97C
:10302000001000F0CAFD039013E0B4F90800FFF7A8
:10303000CBFF064603A8CDE90060238A9AB22B464F
:10304000D4E9001000F084FD012802D0002004B073
:1030500070BD0398FBE700002DE9F04105460E46E0
:103060001C4807681C480068001D00F0EDFA50B9C4
:103070001948006890F82C10012088401749096809
:10308000814316480160681C38B936B1124801689E
:10309000091D134800F022FB1AE07C190E48006855
:1030A0004460BC4207D20C480168091D0D48006805
:1030B00000F0FAFA0CE008480168091D0A480068A7
:1030C00000F0F2FA09480068844201D2074804601F
:1030D000BDE8F081500000203C000020540000209A
:1030E000E407002044000020400000206C00002085
:1030F00010B5044600F0FEFA23480068401C22493F
:1031000008602248006840B920480460084600680A
:1031100001280DD100F042F90AE01D48006838B9D5
:103120001A480068C06AE16A884201D817480460FA
:1031300018480068401C1749086094F82C100120BA
:10314000884015490968084313490860E16A01EBA2
:103150008101124A02EB8100211D00F0BFFA00F04C
:10316000F3FA0B48006868B108480068C06AE16A71
:10317000884207D24FF0805009490860BFF34F8F53
:10318000BFF36F8F10BD00004C0000203C000020FA
:10319000580000206800002054000020080700208C
:1031A00004ED00E010B516E000F0A4FA0C48C06889
:1031B000C468201D00F048FA0A480068401E09490A
:1031C000086009480068401E0749086000F0BCFA22
:1031D000204600F00BF8044800680028E4D110BD38
:1031E000D00700204C0000204800002010B5044605
:1031F00094F8510030B9206B00F0C4FA204600F07A
:10320000C1FA1AE094F85100012803D1204600F0D9
:10321000B9FA12E094F85100022801D1012000E02F
:10322000002050B900BF502080F31188BFF34F8FAA
:10323000BFF36F8F00BF00BFFEE710BD30B541F296
:103240008833174800F007042CB1C01D20F0070098
:10325000134C041B1B1B0246124C22600024114D10
:103260006C60D018083820F007000F4C2060002454
:103270000D4D2D686C600C4D2D682C601146441A64
:103280004C60094C24680C60084D4C682C60084D5B
:103290004C682C604FF00044064D2C6030BD00009F
:1032A000F80700207800002080000020880000201F
:1032B000840000208C00002000BFFFF773FF064849
:1032C00000680128F9D94FF0805004490860BFF325
:1032D0004F8FBFF36F8FF0E70807002004ED00E089
:1032E0002DE9FF5F81460E469246DDE90E7B109C7C
:1032F000AAF10100216B01EB800828F0070808F013
:10330000070008B9012000E0002050B900BF50209C
:1033100080F31188BFF34F8FBFF36F8F00BF00BFE3
:10332000FEE786B1002507E0715D04F134004155E8
:10333000705D00B902E06D1C102DF5D300BF0021B7
:103340004320015502E0002084F83400072F00D309
:103350000627E76267640020A064201D00F0A1F941
:1033600004F1180000F09DF92461C7F10700A06185
:1033700064620020E06484F8500049464046039AA5
:1033800000F04CF92060BBF1000F01D0CBF80040F9
:1033900000F000B83FBCBDE8C09F000010B500249D
:1033A00007E004EB84010F4A02EB810000F06CF9A6
:1033B000641C072CF5D30C4800F066F90B4800F0AC
:1033C00063F90B4800F060F90A4800F05DF90A481B
:1033D00000F05AF90448094908600448084908609F
:1033E00010BD00000807002094070020A807002057
:1033F000BC070020D0070020E40700204000002088
:103400004400002010B50146164800E0006803683B
:103410008B42FBD30246436813448B4204D143687A
:103420004C682344436001460A464B6813440468D1
:10343000A34211D10C4C03682468A34208D04B6806
:103440000468646823444B6003681B680B6005E0F4
:10345000054B1B680B6001E003680B60884200D0DD
:10346000016010BD78000020800000200A49096832
:10347000096809B9012100E0002121B14FF0FF31B5
:10348000064A116006E004490968C968C868034A29
:103490004168116070470000400000206C0000206F
:1034A0000E480068401C08B9012000E0002050B917
:1034B00000BF502080F31188BFF34F8FBFF36F8F91
:1034C00000BF00BFFEE700BF502080F31188BFF3AC
:1034D0004F8FBFF36F8F00BF00BFFEE7900000204B
:1034E0002DE9F04104464FF0000800F02FFA46485D
:1034F000006808B9FFF7A2FE444800682040002891
:103500006BD1D4B1083404F00700B0B104F0070067
:10351000C0F10800044404F0070008B9012000E0ED
:10352000002050B900BF502080F31188BFF34F8FA7
:10353000BFF36F8F00BF00BFFEE7002C4DD03448B3
:103540000068844249D8334E3046056801E02E4673
:103550002D686868A04202D228680028F7D12A485E
:103560000068854239D0306800F10808286830606A
:103570006868001B102819D92F1907F0070008B92F
:10358000012000E0002050B900BF502080F31188D6
:10359000BFF34F8FBFF36F8F00BF00BFFEE76868B8
:1035A000001B78606C603846FFF72CFF184968688C
:1035B0000968081A1649086008460068164909682B
:1035C000884203D212480068134908600F496868AE
:1035D0000968084368600020286000F0F3FB08F0E9
:1035E000070008B9012000E0002050B900BF5020BA
:1035F00080F31188BFF34F8FBFF36F8F00BF00BF01
:10360000FEE74046BDE8F081800000208C000020ED
:10361000840000207800002088000020001F4FF068
:1036200080730360001F21F001030360001F054B3E
:10363000036014380260001F6FF00203036020383B
:1036400070470000A134000801460A69D1E9013041
:103650009860D1E9010358605068884201D18868B8
:103660005060002008611068401E106010687047AC
:10367000034B0360034B0B60802313607047000013
:103680009C000020F000002000F1080141604FF094
:10369000FF31816000F10801C1600161002101601A
:1036A000704700210161704710B502460B685C1C31
:1036B0000CB9106907E002F1080000E040684468B6
:1036C00024689C42FAD944684C604C68A1608860C8
:1036D00041600A611468641C146010BD42684A604D
:1036E00093688B60936859609160086103685B1C04
:1036F0000360704700BF502080F31188BFF34F8FE5
:10370000BFF36F8F00BF0E480068401C0C49086073
:1037100008460068012812D10A480068C0B208B9FA
:10372000012000E0002050B900BF502080F3118834
:10373000BFF34F8FBFF36F8F00BF00BFFEE770472F
:103740009000002004ED00E00D48006850B900BF73
:10375000502080F31188BFF34F8FBFF36F8F00BFEE
:1037600000BFFEE706480068401E0549086008469D
:10377000006820B9002080F3118800BF00BF7047A7
:103780009000002070B506463546002E3FD0083D1B
:103790002C461F4960680968084008B1012000E014
:1037A000002050B900BF502080F31188BFF34F8F25
:1037B000BFF36F8F00BF00BFFEE7206808B901208C
:1037C00000E0002050B900BF502080F31188BFF303
:1037D0004F8FBFF36F8F00BF00BFFEE70C496068DB
:1037E0000968084098B1206888B909496068096883
:1037F0008843606000F0AAF80649606809680844D8
:10380000044908602046FFF7FDFD00F0DBFA70BDBB
:103810008C0000208400002000204FF0E02108618F
:103820008861064800684FF47A71B0FBF1F0401EE1
:103830004FF0E02148610720086170473800002000
:1038400070B504460025D4B11248006808B90120BB
:1038500000E0002050B900BF502080F31188BFF372
:103860004F8FBFF36F8F00BF00BFFEE700F06EF811
:1038700000212046FFF7F0FB00F0A4FA05463DB911
:103880004FF0805004490860BFF34F8FBFF36F8F34
:1038900070BD00007400002004ED00E010B586B09B
:1038A00000200590049003AA04A905A8FFF7E0FEF4
:1038B0000022DDE904101346CDE9002102901CA18D
:1038C0001D48039A00F079F91C4908600846006811
:1038D00008B1012400E00024012C15D100BF5020C4
:1038E00080F31188BFF34F8FBFF36F8F00BF4FF08E
:1038F000FF30134908600120124908600020124976
:10390000086000F071F810E0601C08B1012000E0D0
:10391000002050B900BF502080F31188BFF34F8FB3
:10392000BFF36F8F00BF00BFFEE706B010BD000001
:1039300049444C4500000000B932000870000020E6
:103940006C00002058000020500000200248006851
:10395000401C014908607047740000201D48006841
:1039600018B101201C49086032E000201A490860A3
:103970001A480068B0FA80F0C0F11F0101EB810025
:10398000174A52F8200008B1012000E0002050B989
:1039900000BF502080F31188BFF34F8FBFF36F8FAC
:1039A00000BF00BFFEE701EB81020D4B03EB82007D
:1039B00042685268426000F108024368934202D1B3
:1039C0004268526842604268D268064B1A6000BF83
:1039D00070470000740000206000002054000020A8
:1039E000080700203C0000201CB5524800685249DE
:1039F000884201D0012000E0002050B900BF5020D3
:103A000080F31188BFF34F8FBFF36F8F00BF00BFEC
:103A1000FEE7484800684849491E884201D0012015
:103A200000E0002050B900BF502080F31188BFF3A0
:103A30004F8FBFF36F8F00BF00BFFEE73F490846BF
:103A400000780190FF200A46107008460078009028
:103A50009DF8000000F0F0009DF80020904201D198
:103A6000012000E0002050B900BF502080F31188F1
:103A7000BFF34F8FBFF36F8F00BF00BFFEE79DF80E
:103A8000000000F050002E4A107007202D4A1060F0
:103A900009E02C480068401E2A4A10609DF800008A
:103AA0004006000E00909DF8000000F08000802885
:103AB000EFD024480068C0F10700042801D101209C
:103AC00000E0002050B900BF502080F31188BFF300
:103AD0004F8FBFF36F8F00BF00BFFEE7194800682C
:103AE0000002184A10601046008800F4E060106080
:103AF000124A019810700F482030006840F470009E
:103B00000C49203108600846006840F070400860A9
:103B1000FFF782FE00200C490860FCF765FB0B48AC
:103B2000006840F0404009490860FCF749FB00206C
:103B30001CBD000000ED00E071C20F4100E400E098
:103B400094000020980000209000002034EF00E056
:103B50002DE9FF4F85B0804689461746DDE912AB57
:103B6000B800FFF7BDFC064656B15420FFF7B8FC7D
:103B700004460CB1266304E03046FFF703FE00E084
:103B800000248CB1002084F85100CDE900ABCDE9D0
:103B900002403A4649464046089BFFF7A1FB2046B3
:103BA000FFF7A6FA012501E04FF0FF35284609B0DE
:103BB00000F000B830BCBDE8C08F2DE9F04F85B0F3
:103BC0000746884691469A46DDE90EB6109C0EB12E
:103BD000012000E0002050B900BF502080F3118880
:103BE000BFF34F8FBFF36F8F00BF00BFFEE70CB175
:103BF000012000E0002050B900BF502080F3118860
:103C0000BFF34F8FBFF36F8F00BF00BFFEE754209D
:103C100003900398542801D1012000E0002050B9FE
:103C200000BF502080F31188BFF34F8FBFF36F8F19
:103C300000BF00BFFEE700BFB4B1AEB125462C46C1
:103C40002E63022085F85100002004A953464A46FD
:103C5000CDE900B1CDE9025041463846FFF740FBBF
:103C60002846FFF745FA01E000200490049805B0CB
:103C700000F000B830BCBDE8C08F00002DE9F04175
:103C80004FF0000844480068002877D14348006896
:103C9000451C4248056015BB41480068006808B9EA
:103CA000012000E0002050B900BF502080F31188AF
:103CB000BFF34F8FBFF36F8F00BF00BFFEE73848E1
:103CC0000768384800683649086036480760364853
:103CD0000068401C34490860FFF7C8FB00BF334848
:103CE000006885423CD300BF2D480068006808B9D1
:103CF000012000E0002020B14FF0FF302B49086088
:103D00002DE027480068C068C4686668B54202D2E2
:103D10002648066023E0201DFFF796FCA06A18B134
:103D200004F11800FFF790FC94F82C100120884053
:103D30001F49096808431E490860E16A01EB8101D7
:103D40001C4A02EB8100211DFFF7C8FC1A49E06AFA
:103D50000968C96A8842C7D34FF00108C4E700BFA9
:103D600015480068C06A00EB8000124951F8200035
:103D7000012801D94FF0010805E0FFE70F4800686E
:103D8000401C0E4908600E48006808B14FF0010859
:103D90004046BDE8F0810000740000205000002083
:103DA0004000002044000020640000206C0000203F
:103DB00054000020080700203C0000205C00002088
:103DC0006000002070B5002400263648006850B915
:103DD00000BF502080F31188BFF34F8FBFF36F8F68
:103DE00000BF00BFFEE7FFF785FC2E480068401EBD
:103DF0002C4908600846006800284FD12A4800680E
:103E000000284BD024E02948C068C46804F1180099
:103E1000FFF71AFC201DFFF717FC94F82C10012067
:103E2000884023490968084321490860E16A01EB99
:103E30008101204A02EB8100211DFFF74FFC1E4942
:103E4000E06A0968C96A884202D301201B490860F8
:103E50001648006808B9012000E000200028D2D0F0
:103E60000CB1FFF703FB1648056865B100BFFFF70B
:103E700005FF10B10120114908606D1E002DF6D11B
:103E800000200F4908600D48006838B1012630074E
:103E90000C490860BFF34F8FBFF36F8FFFF754FCDF
:103EA000304670BD740000204C000020BC0700208C
:103EB00054000020080700203C0000206000002083
:103EC0005C00002004ED00E0D83F00084525000814
:103ED000FEFF000000000000800000000000000065
:103EE00000000000D03F0008532F0008FDFF000035
:103EF0000000000080000000000000000000000042
:103F0000B83F00084F250008FFFF00000000000038
:103F1000800000000000000000000000BC3F00081E
:103F200059250008FFFF000000000000800000008D
:103F30000000000000000000C43F000865250008E4
:103F400000000000000000008000000000000000F1
:103F500000000000CC3F000895250008FFFF00008E
:103F600000000000800000000000000000000000D1
:103F70000000000000000000010203040607080919
:103F80000000000001020304A0860100400D0300B0
:103F9000801A060000350C0040420F0080841E008D
:103FA00000093D0000127A000024F40000366E0182
:103FB0000048E801006CDC02535031005553415277
:103FC00054310000555341525433000055534200C0
:103FD00049444C450000000064656661756C74548A
:103FE00061736B0004400008000000209C0000008A
:103FF000342F0008A04000089C000020E41E0000B0
:10400000442F000854657374000000000000000095
:1040100000000000000000000000000000000000A0
:104020000000000000000000000000000000000090
:1040300000000000100000000100000000093D0029
:104040000000000000000000000000000000000070
:104050000000000000000000000000000000000060
:104060000000000000000000000000000000000050
:104070000000000000000000000000000000000040
:104080000000000000000000000000000000000030
:1040900000000000AAAAAAAA000000000000000078
:040000050800018D61
:00000001FF
