:020000040800F2
:100000000084002081020008052C00083328000825
:10001000012C000857080008A33B0008000000005E
:10002000000000000000000000000000A101000826
:10003000C108000800000000FD010008C1310008EF
:100040009B0200089B0200089B0200089B0200081C
:100050009B0200089B0200089B0200089B0200080C
:100060009B0200089B0200089B0200089B020008FC
:100070009B0200089B0200089B0200089B020008EC
:100080009B0200089B0200089B0200089B020008DC
:100090009B0200089B0200089B0200089B020008CC
:1000A0009B0200081D3300089B0200089B02000809
:1000B0009B02000800000000000000009B020008F6
:1000C0009B0200089B0200089B0200089B0200089C
:1000D0009B020008DD3A00089B020008ED3A000888
:1000E0009B0200089B0200080000000000000000C6
:1000F0000000000000000000000000000000000000
:10010000000000009B020008000000009B020008A5
:1001100000000000000000009B0200089B02000895
:100120009B0200089B0200089B0200089B0200083B
:100130009B0200080000000000000000000000001A
:100140009B0200089B0200089B0200089B0200081B
:100150009B0200089B0200089B0200089B0200080B
:100160009B0200089B0200089B02000800000000A0
:100170009B0200089B0200089B0200080000000090
:100180009B0200089B0200089B020008DFF80CD0CD
:1001900000F0E0FA004800472545000800840020F0
:1001A0002C4B1968086800F05AB880F30988BFF32F
:1001B0006F8F4FF0000080F311887047000000003F
:1001C00008480068006880F308884FF0000080F35A
:1001D000148862B661B6BFF34F8FBFF36F8F00DF35
:1001E00000BF00BF08ED00E0DFF80C00016841F43B
:1001F00070010160704700BF88ED00E0EFF30980F7
:10020000BFF36F8F134B1A681EF0100F08BF20ED5D
:10021000108A20E9F04F106009B44FF0500080F3CD
:100220001188BFF34F8FBFF36F8F04F0AFFF4FF014
:10023000000080F3118809BC1968086800F014B840
:100240001EF0100F08BF00F014B880F30988BFF348
:100250006F8F704774000020EFF30580704730C83F
:10026000B0E8C04FFFF7A1BF30C8B0E8C04FFFF7FC
:10027000E7BFB0EC088AB0EC08CAFFF7E6BF0000A1
:100280000648804706480047FEE7FEE7FEE7FEE730
:10029000FEE7FEE7FEE7FEE7FEE7FEE7CD320008F9
:1002A0008D0100082DE9F05F0546002092469B462F
:1002B00088460646814640241BE02846414647467C
:1002C000224600F073F853465A46C01A914110D3A3
:1002D00011461846224600F05AF82D1A67EB01081D
:1002E0004F4622460120002100F051F817EB00098B
:1002F0004E41201EA4F10104DFDC484631462A4667
:10030000434600F000B830BCBDE8C09F40EA01039E
:100310009B0703D009E008C9121F08C0042AFAD2BB
:1003200003E011F8013B00F8013B521EF9D270477F
:10033000D2B201E000F8012B491EFBD27047002227
:10034000F6E710B513460A4604461946FFF7F0FFD4
:10035000204610BD421C10F8011B0029FBD1801A59
:10036000704730B50B46014600202022012409E0E9
:1003700021FA02F59D4205D303FA02F5491B04FA5E
:1003800002F52844151EA2F10102F1DC30BD202A3D
:1003900004DB203A00FA02F1002070479140C2F1DC
:1003A000200320FA03F3194390407047202A04DB0E
:1003B000203A21FA02F00021704721FA02F3D040DE
:1003C000C2F1200291400843194670472DE9FE4FC3
:1003D000804681EA0300C00F0C46009021F00041E6
:1003E00023F00045B8EB0200A94105D24046214662
:1003F00090461C460B46024623F00040104347D06F
:10040000270DC7F30A00C3F30A510290401A019066
:1004100040286BDAC3F3130040F4801B0098924627
:1004200020B10023D2EB030A63EB0B0B0198594672
:10043000C0F140025046FFF7AAFF06460D4650465F
:100440005946019A00F098F910EB08006141002428
:1004500087EA115284EAE7731A4340D0009A62B3E4
:10046000019A012A4FEA075215DC001B61EB0201D9
:100470004FF0004202EA0752CDE90042001C41F56C
:10048000801132462B4600F098F903B000F045B8D1
:1004900040462146F9E7001B61EB0201001C41F5D3
:1004A000801300185B412018A2F5001747EB0301E9
:1004B00040EAD570B6196D4111E06D084FEA360675
:1004C00045EAC0754FEA0752001B61EB0201001CB0
:1004D00041F5801149084FEA300000195141324678
:1004E0002B4603B000F01CB800F058B90098012268
:1004F00040000023D0EB020263EBE073009821463A
:100500004FEAE074B8EB000061EB0401E9E783F027
:1005100000435BE781F0004158E730BCBDE8C08F85
:1005200030BCBDE8C04FFFF7DFBF2DE9FE4F81EAC9
:10053000030404F0004421F0004100944FF0000B4C
:1005400023F0004350EA01045ED052EA03045BD07A
:10055000C3F30A54C1F30A552C44A4F2F3340194B2
:10056000A0FB0254C1F3130141F48011C3F3130340
:1005700043F4801301FB024400FB034E840A970AF4
:1005800044EA815447EA8357A4FB076802958D0A21
:1005900005FB07854FEA932C04FB0C542705029DAD
:1005A0004FEA065847EA1637B5EB08056EEB070C1D
:1005B000870E920E47EA811742EA8312A7FB0201D7
:1005C000B6EB0B0164EB00042B0D43EA0C335E1811
:1005D00044EB1C50DA465146E7FB0201C5F3130415
:1005E0004FEA0B3343EA14534FEA0432019C43EAC7
:1005F0000603A4F10C040294009CCDE900B400F0C1
:10060000DCF803B000F003B800200146F9E730BC85
:10061000BDE8C08F2DE9F04D81EA030404F0004BE2
:1006200021F0004514464FF0000A23F0004150EA43
:10063000050220D054EA01021DD0C5F30A57024634
:10064000C5F31303C1F31300C1F30A5640F4801538
:1006500043F48013A7EB0608101BD64608F2FD38BA
:1006600073EB050002D308F1010801E092185B4129
:10067000B8F1000F03DA00200146BDE8F08D00203C
:100680004FF48011064684460EE0171B73EB0507F6
:1006900005D3121B63EB050306434CEA010C490822
:1006A0004FEA300092185B4150EA0107EDD152EA5F
:1006B000030012D082EA040083EA0501084305D052
:1006C000101BAB4106D20122002306E000224FF0AE
:1006D000004302E06FF0010253101AEB06004CEBEE
:1006E000085110EB0A0041EB0B01BDE8F04D00F0A2
:1006F00055B8C1F30A52C1F3130140F2FF3341F47C
:1007000080119A4202DA00200146704740F23343DA
:100710009A42A2F2334202DC5242FFF747BEFFF791
:1007200036BE000030B5041E71F1000404DB4FF04A
:100730000044404264EB0101141E73F1000405DB28
:100740001C464FF00043524263EB0403994208BF3A
:10075000904230BD064C074D06E0E06840F00103D2
:1007600094E8070098471034AC42F6D3FFF712FD27
:10077000085E0008285E0008202A06DBCB17203A16
:1007800041FA02F043EAE07306E041FA02F3D04096
:10079000C2F12002914008431946704710B5141E5B
:1007A00073F1000408DA401C41F1000192185B412A
:1007B0001A4301D120F0010010BD2DE9F04D924601
:1007C0009B4611B1B1FA81F202E0B0FA80F2203218
:1007D0009046FFF7DCFD04460F4640EA0A0041EA76
:1007E0000B0153465A46084313D0114653EA010001
:1007F00019D0C8F140025046FFF7D8FD05460E4615
:10080000504659464246FFF7C2FD084305D0012035
:1008100004E020463946BDE8F08D0020054346EA55
:10082000E0762C4337430A986305E40AA0EB0800FE
:100830000022FD0A44EA47540A3002D5002001464E
:10084000E9E7010510196941DDE908450019694129
:10085000BDE8F04DA2E700BFFEE7000070B5054619
:10086000002007490870002404E0285D00F00AF821
:10087000601CC4B2042CF8DB0148007870BD000095
:100880001C00002010B5002115E00C4B1B7880EAFD
:1008900003020A4B1B785B061B0E084C237002F008
:1008A000800323B123461B7883F00703237043069C
:1008B000180E4B1CD9B20829E7DB10BD1C00002024
:1008C0007047704770B503460C4600201F2100BFDB
:1008D0000D1EA1F1010106D001F01F060125B54052
:1008E0002540002DF4D08AB1082A0BD0102A05D05B
:1008F000182A0CD1072900D301200AE0082900D3C7
:10090000012006E0102900D3012002E001E00120CF
:1009100000BF00BF40B91D686C611D68AD6825F05F
:10092000180515431E68B56070BD000010B504467B
:100930000CB9012010BD607F20B90020207720462F
:1009400000F036F802206077207948B9174821680E
:1009500048612068806820F018002168886007E0FE
:100960002046D4E90212FFF7ADFF08B10120E1E70C
:10097000607920B94FF0FF302168086102E02168FA
:10098000206908612068806820F060006169084380
:10099000216888602068806820F08000A169084391
:1009A00021688860012060770020C3E7B71DC1047B
:1009B00008B5094A016891420DD100BF0749896C09
:1009C00041F48051054A91641146896C01F48051CB
:1009D000009100BF00BF08BD00300240001002407F
:1009E00070B50446002594F82500022803D00420A1
:1009F000E063012520E02068006820F00E002168F7
:100A000008602068006820F001002168086094F800
:100A1000440000F01C0101208840216C4860012046
:100A200084F8250000BF002084F8240000BFA06BDC
:100A300010B12046A16B8847284670BD70B50446AA
:100A400000F0FAF806462546681C10B10448006814
:100A5000054400BF00F0F0F8801BA842FAD370BD37
:100A60006C00002078B503460022CBE001269640BA
:100A70000D6805EA0604002C72D04D68012D08D0DF
:100A80004D68022D05D04D68112D02D04D68122DF4
:100A900013D1986856000325B540A8435600CD6889
:100AA000B54028439860586801259540A8430D79C2
:100AB000C5F30015954028435860D86856000325B3
:100AC000B540A84356008D68B5402843D8604D68AE
:100AD000022D02D04D68122D13D1D60803F1200546
:100AE00055F826005507EE0E0F25B540A8435607CA
:100AF000F60E0D69B5402843D60803F1200545F8E8
:100B00002600186856000325B540A8430D7905F066
:100B100003055600B540284318604D6805F0805520
:100B2000B5F1805F6DD100BF394D2D6E45F00105E7
:100B3000374E356635462D6E05F00105009500BF30
:100B400000BF4FEAB635960855F8260095072E0FD8
:100B50000F25B540A843B3F1904F02D1002515E011
:100B60004FE02C4DAB4201D101250FE02A4DAB42A5
:100B700001D102250AE0294DAB4201D1032505E050
:100B8000274DAB4201D1042500E007259607360F1B
:100B9000B5402843234D960845F82600224D286885
:100BA000A0434D6805F48035B5F5803F00D1204362
:100BB0001D4D28602D1D2868A0434D6805F40035A3
:100BC000B5F5003F00D12043174D2D1D28602D1D88
:100BD0002868A0434D6805F48015B5F5801F00D145
:100BE0002043114D083528602D1D2868A0434D680D
:100BF00005F40015B5F5001F00D120430A4D0C3552
:100C00002860521C0D68D540002D7FF42FAF78BDB1
:100C1000001002400004004800080048000C004892
:100C20000010004808000140000401400AB1816141
:100C300000E08162704700000148006870470000D2
:100C4000640000200348006803490968084401491A
:100C500008607047640000206C00002010B500247C
:100C6000032000F0C5F8002000F008F808B10124C6
:100C700001E000F047F8204610BD000070B588B0D4
:100C800004460025002600222146192000F06EF8B7
:100C9000192000F05BF800BF1648006E40F40060B9
:100CA000144908660846006E00F40060019000BF19
:100CB00000BF02A903A800F083FC00F0BBFC0546BE
:100CC0000D48B5FBF0F0461E0C480D49086040F297
:100CD000E7310B48C160466000210161816001F08D
:100CE000B6F920B9064801F0CDF908B070BD012071
:100CF000FBE700000010024040420F00002C0140C2
:100D00009C09002008B500BF0F48006E40F00100AC
:100D10000D4908660846006E00F00100009000BF13
:100D200000BF00BF0846806D40F0805088650846CF
:100D3000806D00F08050009000BF00BF00220F21A6
:100D4000901E00F013F808BD00100240014608464E
:100D5000002809DB00F01F0301229A4043099B0091
:100D600003F1E023C3F8002100BF70472DE9F05FD5
:100D700080460D461646002702F028FF07463946F2
:100D80002A46334601F00700C0F1070ABAF1040F02
:100D900002D94FF0040A01E0C0F1070AD14600F180
:100DA000040ABAF1070F02D24FF0000A01E0A0F1E5
:100DB000030AD4464FF0010A0AFA09FAAAF1010A15
:100DC0000AEA020A0AFA0CFA4FF0010B0BFA0CFBC2
:100DD000ABF1010B0BEA030B4AEA0B042146404638
:100DE00002F0FCFE00F000B830BCBDE8C09F00007F
:100DF00000BF00F00702064B19684FF6FF031940C9
:100E0000044B0B4343EA0221014B196000BF7047BA
:100E10000CED00E00000FA05024611680120C2F85E
:100E20006802002082F8600231F8540F40F001009F
:100E30000880088840F0020021F85409002070471B
:100E400030B585B0044614B9012005B030BD94F822
:100E5000290228B9002084F82802204600F08EF8E4
:100E6000032084F82902206802F084FE142204F191
:100E700010016846FFF74AFA94E80F0002F05EFEA0
:100E800020B1022084F829020120DEE70021206839
:100E900002F084FE002526E0012104F1280000EB89
:100EA0004510417004F1280000EB4510057004F175
:100EB000280000EB4510C581002104F1280000EB5B
:100EC0004510C17004F1280000EB4510016104F1E8
:100ED000280000EB4510416104F1280000EB4510AB
:100EE0008161681CC5B26068A842D5D8002520E0A1
:100EF000002104F5947000EB4510417004F59470E6
:100F000000EB4510057004F5947000EB4510C170BE
:100F100004F5947000EB4510016104F5947000EB4A
:100F20004510416104F5947000EB45108161681C27
:100F3000C5B26068A842DBD8142204F110016846EB
:100F4000FFF7E4F994E80F0002F005FE20B102205B
:100F500084F82902012078E7002084F82400012089
:100F600084F82902E069012802D12046FFF754FFE6
:100F7000206802F0E7FD002067E7000008B5094A95
:100F8000016891420DD100BF0749896D41F0806130
:100F9000054A91651146896D01F08061009100BF9D
:100FA00000BF08BD00680040001002400246B2F5D4
:100FB000007F2AD11D48006800F4C060B0F5007FB2
:100FC00032D01A48006820F4C06040F40070174B1B
:100FD00018601748006832235843164BB0FBF3F0F3
:100FE000411C00E0491E1148406900F48060B0F5E2
:100FF000806F01D10029F5D10C48406900F4806070
:10100000B0F5806F10D1032070470848006800F4E5
:10101000C060B0F5806F07D00448006820F4C0605D
:1010200040F48060014B18600020EDE70070004044
:101030007000002040420F000248006800F4C060C9
:1010400070470000007000400348006840F4807062
:1010500001490860704700000070004003480068C4
:1010600040F0040001490860704700000010024091
:101070002DE9F84304460025A846208800F40060C6
:10108000B0F5006F26D1606C68B1B0F5000F03D0E9
:10109000B0F5400F0ED10CE0E848C06840F4803055
:1010A000E649C86008E00021201D01F0ADFD0546BD
:1010B00002E001E0012500BF00BF55B9DF488830DC
:1010C000006820F44000616C0843DC49C1F88800E6
:1010D00000E0A846206800F40030B0F5003F75D16C
:1010E0004FF00009D548806D012121EA107078B1D8
:1010F00000BFD248806D40F08050D04988650846D6
:10110000806D00F08050009000BF00BF4FF00109DB
:10111000CB48006840F48070C9490860FFF78CFD37
:10112000074606E0FFF788FDC01B022801D903250A
:1011300005E0C348006800F480700028F2D000BFCA
:101140007DBBBE489030006800F44076CEB1E06DC3
:10115000B04216D0B9489030006820F44076B748C5
:10116000D0F8900040F48030B449C1F890000846AF
:10117000D0F8900020F48030C1F890000846C0F804
:10118000906006F00100A8B1FFF756FD074609E0A0
:10119000FFF752FDC01B41F28831884202D9032576
:1011A00007E016E0A5489030006800F00200002833
:1011B000EED000BF5DB9A1489030006820F44070C7
:1011C000E16D08439D49C1F8900003E00CE0A8469A
:1011D00000E0A846B9F1010F05D19848806D20F0D4
:1011E00080509649886500BF207800F0010048B122
:1011F00092488830006820F00300216A08438F4934
:10120000C1F88800207800F00200022809D18B483C
:101210008830006820F00C00616A08438749C1F8F3
:101220008800207800F00400042809D18348883021
:10123000006820F03000A16A08438049C1F88800A6
:10124000207800F02000202809D17C4888300068F0
:1012500020F44060E16A08437849C1F8880020889A
:1012600000F40070B0F5007F09D174488830006840
:1012700020F44020E16B08437049C1F888002088C1
:1012800000F48060B0F5806F09D16C488830006848
:1012900020F44010216C08436849C1F88800207888
:1012A00000F04000402809D164488830006820F4EC
:1012B0004050216B08436149C1F88800207800F054
:1012C0008000802809D15D488830006820F44040C3
:1012D000616B08435949C1F88800208800F4807088
:1012E000B0F5807F09D155488830006820F440303F
:1012F000A16B08435149C1F88800208800F40050D0
:10130000B0F5005F1FD14D488830006820F0406084
:10131000A16C0843494988310860A06CB0F1006FA6
:1013200006D14648C06840F480104449C8600AE0CD
:10133000A06CB0F1806F06D10121201D01F064FC8A
:10134000054605B1A846206800F40020B0F5002F3E
:101350001FD13A488830006820F04060E16C0843B3
:10136000364988310860E06CB0F1006F06D133482F
:10137000C06840F480103149C8600AE0E06CB0F108
:10138000806F06D10121201D01F03EFC054605B10C
:10139000A846206800F48020B0F5802F1FD1274890
:1013A0008830006820F04060216D0843234988316F
:1013B0000860206DB0F1006F06D12048C06840F48D
:1013C00080101E49C8600AE0206DB0F1806F06D120
:1013D0000121201D01F018FC054605B1A846208812
:1013E00000F48040B0F5804F14D114488830006874
:1013F00020F04050616D0843104988310860606DED
:10140000B0F1805F06D10221201D01F0FDFB0546F1
:1014100005B1A846208800F40040B0F5004F09D17E
:1014200006488830006820F08040A16D08430349D9
:10143000C1F888004046BDE8F88300000010024073
:10144000007000402DE9F04104460D4614B901201A
:10145000BDE8F0815548006800F00700A8420ED2B0
:101460005248006820F007002843504908600846A9
:10147000006800F00700A84201D00120E8E72078CA
:1014800000F00100002840D06068032806D14848D9
:10149000006800F00070D8B90120D9E76068022820
:1014A00006D14348006800F4003088B90120CFE736
:1014B000606830B93E48006800F0020040B9012081
:1014C000C6E73B48006800F4806008B90120BFE728
:1014D0003748806820F00300616808433449886019
:1014E000FFF7AAFB064608E0FFF7A6FB801B41F2C8
:1014F0008831884201D90320AAE72D48806800F08E
:101500000C006168B0EB810FEED1207800F0020092
:10151000022807D12648806820F0F000A16808431F
:10152000234988602148006800F00700A8420ED9CE
:101530001E48006820F0070028431C490860084640
:10154000006800F00700A84201D0012080E7207861
:1015500000F00400042807D11548806820F4E060FA
:10156000E168084312498860207800F008000828E4
:1015700008D10F48806820F46050216940EAC1001A
:101580000B49886000F068F809498968C1F30311C4
:10159000084A515C01F01F01C8400749086007482C
:1015A0000068FFF76BFB0746384651E70020024012
:1015B00000100240485D0008700000206800002014
:1015C0000F2202600D4A926802F0030242600B4A49
:1015D000926802F0F0028260084A926802F4E062C7
:1015E000C260064A926802F46052D2080261044A5C
:1015F000126802F007020A60704700000010024003
:101600000020024001480068704700007000002080
:1016100000B5FFF7F7FF05498968C1F30221044AC5
:10162000515C01F01F01C84000BD000000100240E5
:10163000585D000800B5FFF7E5FF05498968C1F36B
:10164000C221044A515C01F01F01C84000BD0000E6
:1016500000100240585D0008F0B500230020DFF8BC
:10166000D4C0DCF808C00CF00C01DFF8C8C0DCF80E
:101670000CC00CF0030719B10C291ED1012F1CD18D
:10168000DFF8B0C0DCF800C00CF0080CBCF1000FB3
:1016900006D1DFF8A0C0DCF894C0CCF3032305E04A
:1016A000DFF890C0DCF800C0CCF30313DFF888C08B
:1016B0005CF8233041B9184606E0042901D11F48DF
:1016C00002E0082900D11E480C2932D1DFF864C09D
:1016D000DCF80CC00CF00304012C09D0022C02D061
:1016E000032C04D101E0154A04E0154A02E000BFD2
:1016F0001A4600BF00BFDFF83CC0DCF80CC0CCF3DA
:10170000021C0CF10106DFF82CC0DCF80CC0CCF395
:10171000062C0CFB02FCBCFBF6F2DFF818C0DCF870
:101720000CC0CCF3416C0CF1010C4FEA4C05B2FB40
:10173000F5F0F0BD00100240605D00080024F400E8
:1017400000127A002DE9F843044614B90120BDE8DF
:10175000F883F948806800F00C06F748C06800F08C
:101760000307207800F01000102877D11EB10C2E4E
:1017700076D1012F74D1F048006800F0020018B152
:10178000A06908B90120E2E7EB48216A006800F08F
:10179000080020B1E848006800F0F00005E0E648E5
:1017A0009430006800F47060000981421FD9206AFB
:1017B00001F0EEFA08B10120C9E700BFDE48006879
:1017C00040F00800DC4908600846006820F0F0009E
:1017D000216A0843D849086000BF0846406820F4E1
:1017E0007F40E16940EA0120D34948601FE000BF23
:1017F000D148006840F00800CF49086008460068FA
:1018000020F0F000216A0843CB49086000BF084679
:10181000406820F47F40E16940EA0120C649486001
:101820002EB9206A01F0B4FA08B101208FE7FFF762
:1018300013FFC1498968C1F30311C04A515C01F02B
:101840001F01C840BE490860BE480068FFF716FA8D
:101850008046B8F1000F4ED0404678E74BE0FFE7F6
:10186000A06980B3B448006840F00100B249086044
:10187000FFF7E2F9054606E0FFF7DEF9401B022814
:1018800001D9032063E7AC48006800F0020000289B
:10189000F2D000BFA848006840F00800A6490860E0
:1018A0000846006820F0F000216A0843A249086059
:1018B00000BF0846406820F47F40E16940EA01200B
:1018C0009D49486017E0FFE79B48006820F0010051
:1018D00099490860FFF7B0F9054606E0FFF7ACF953
:1018E000401B022801D9032031E79348006800F02B
:1018F00002000028F2D1207800F0010000285CD01E
:10190000082E03D00C2E0AD1032F08D18A48006874
:1019100000F4003088B3606878BB012017E700BF8F
:101920006068B0F5803F06D18348006840F480309D
:10193000814908601AE06068B0F5A02F0BD17E489D
:10194000006840F480207C4908600846006840F444
:10195000803008600AE07848006820F480307649DA
:1019600008600846006820F48020086000BF6068B6
:1019700090B1FFF761F9054607E01EE0FFF75CF95B
:10198000401B642801D90320E1E66B48006800F49D
:1019900000300028F2D010E0FFF74EF9054606E0CF
:1019A000FFF74AF9401B642801D90320CFE66248BB
:1019B000006800F400300028F2D1207800F0020026
:1019C000022852D1042E03D00C2E14D1022F12D192
:1019D0005948006800F4806018B1E06808B9012037
:1019E000B5E65548406820F0F850217C40EA016097
:1019F0005149486039E0E06800B34F48006840F45E
:101A000080704D490860FFF717F9054606E0FFF7BB
:101A100013F9401B022801D9032098E646480068C4
:101A200000F480600028F2D04348406820F0F8506D
:101A3000217C40EA01604049486016E03E48006869
:101A400020F480703C490860FFF7F6F8054606E090
:101A5000FFF7F2F8401B022801D9032077E6364849
:101A6000006800F480600028F2D1207800F00800BF
:101A7000082836D16069D0B12F489430006840F012
:101A800001002D49C1F89400FFF7D6F8054606E09D
:101A9000FFF7D2F8401B022801D9032057E6264859
:101AA0009430006800F002000028F1D019E02248CC
:101AB0009430006820F001001F49C1F89400FFF73E
:101AC000BBF8054606E0FFF7B7F8401B022801D92E
:101AD00003203CE618489430006800F0020000281B
:101AE000F1D1207800F00400042872D14FF00009F1
:101AF0001148806D00F0805078B900BF0E48806DAD
:101B000040F080500C4988650846806D00F0805098
:101B1000009000BF00BF4FF001090B48006800F4BF
:101B2000807000BB0848006840F480700649086077
:101B3000FFF782F8054610E000100240485D0008FB
:101B4000700000206800002000700040FFF774F86B
:101B5000401B022801D90320F9E5D048006800F4B1
:101B600080700028F2D000BFA068012808D1CC48BE
:101B7000006840F00100CA499039C1F8900021E0A6
:101B8000A06805280FD1C648006840F00400C44989
:101B90009039C1F890000846D0F8900040F001005C
:101BA000C1F890000EE0BE48006820F00100BC497A
:101BB0009039C1F890000846D0F8900020F0040059
:101BC000C1F8900000BFA068A0B1FFF735F8054646
:101BD00009E02EE0FFF730F8401B41F288318842DF
:101BE00001D90320B3E5AE48006800F002000028E8
:101BF000F0D012E0FFF720F8054608E0FFF71CF8E8
:101C0000401B41F28831884201D903209FE5A44856
:101C1000006800F002000028F0D1B9F1010F07D1EF
:101C20009F489038806D20F080509D49903988659C
:101C300000BF207800F02000202838D1606AD8B199
:101C400097480830006840F0010095499039C1F884
:101C50009800FEF7F1FF054606E0FEF7EDFF401B9A
:101C6000022801D9032072E58D480830006800F091
:101C700002000028F1D01AE089480830006820F0FE
:101C8000010087499039C1F89800FEF7D5FF054655
:101C900006E0FEF7D1FF401B022801D9032056E5DC
:101CA0007F480830006800F002000028F1D1A06AE7
:101CB00000287DD0A06A02287BD179489038C76877
:101CC00007F00301E06A814225D107F07001206B23
:101CD000401EB1EB001F1ED107F4FE41606BB1EB5B
:101CE000002F18D107F078413820005DB1EBC06FAC
:101CF00011D107F4C001A08F0122C2EB5000B1EB5B
:101D0000405F08D107F0C0614020005DC2EB500089
:101D1000B1EB406F66D00C2E62D0614890380068FD
:101D200000F0806008B1012011E55D48903800683E
:101D300020F080705A4990390860FEF77DFF054613
:101D400006E0FEF779FF401B022801D90320FEE4DC
:101D500053489038006800F000700028F1D1D4E9B1
:101D60000B10401E41EA0011606B41EA0021A08F78
:101D70000122C2EB500041EA40514020005DC2EB1D
:101D8000500041EA40613820005D41EAC0604449AA
:101D90009039C968434A1140084341499039C860A5
:101DA0000846006840F0807008600846C06801E09E
:101DB0005BE03DE040F08070C860FEF73DFF054607
:101DC00006E0FEF739FF401B022801D90320BEE4DC
:101DD00033489038006800F000700028F1D05AE0D5
:101DE0000120B4E42E489038006800F00070E0BB99
:101DF0002B489038006840F080702949903908607D
:101E00000846C06840F08070C860FEF715FF0546C0
:101E100006E0FEF711FF401B022801D9032096E4DB
:101E20001F489038006800F000700028F1D032E0C0
:101E30000C2E2ED01A489038006820F08070184977
:101E4000903908600846006800F0006020B9084634
:101E5000C06820F00300C86011489038C06812497B
:101E600008400F499039C86000E014E0FEF7E4FE36
:101E7000054606E0FEF7E0FE401B022801D90320DC
:101E800065E407489038006800F000700028F1D140
:101E900001E001205BE4002059E4000000700040F4
:101EA000901002408C809D01FFFFEEFE70B504464D
:101EB0000CB9012070BD606A00B900BF0021A162A9
:101EC00094F85D0028B9002084F85C00204600F0FA
:101ED0004DF8022084F85D002068006820F0400082
:101EE00021680860E068B0F5E06F01D9002501E0E5
:101EF0004FF48055E068B0F5706F05D0E068B0F53C
:101F0000E06F01D00021A162206B40B9E068B0F51C
:101F1000E06F02D90221216301E001212163D4E9AC
:101F2000010108432169084361690843218B01F4D9
:101F300000710843E1690843216A0843A16A084324
:101F4000216808600421A06901EA1040616A084321
:101F5000616B0843E168084328432168486000201A
:101F60002066012084F85D000020A3E710B586B04C
:101F70000446142101A8FEF7E2F92F49206888429F
:101F800029D100BF2D48006E40F480502B490866CF
:101F90000846006E00F48050009000BF00BF00BFF4
:101FA0000846C06C40F00200C8640846C06C00F0EF
:101FB0000200009000BF00BF382001900220029074
:101FC00000200390032004900520059001A91C48DF
:101FD000FEF748FD2DE01B492068884229D100BF4B
:101FE0001648806D40F48040144988650846806D2D
:101FF00000F48040009000BF00BF00BF0846C06CE6
:1020000040F00200C8640846C06C00F00200009076
:1020100000BF00BF4FF470400190022002900020EA
:102020000390032004900520059001A90448FEF7C1
:1020300019FD06B010BD0000003001400010024044
:10204000000400480038004070477047704710B5E2
:1020500004460CB9012010BD94F83D0028B90020B9
:1020600084F83C00204600F00CF8022084F83D0083
:10207000211D206801F05AF9012084F83D0000205C
:10208000E9E7704701460868C06840F001000B6846
:10209000D86008688068084B00EA0302062A08D066
:1020A000B2F5803F05D00868006840F001000B6879
:1020B000186000207047000007000100704710B54D
:1020C000044620680069C0F34000D8B12068C068A9
:1020D000C0F34000B0B16FF0020021680861012038
:1020E00020772068806900F0030018B12046FFF7D0
:1020F000E5FF05E0204600F0BEF8204600F0BCF801
:102100000020207720680069C0F38000D8B12068E3
:10211000C068C0F38000B0B16FF0040021680861AE
:10212000022020772068806900F4407018B12046B2
:10213000FFF7C4FF05E0204600F09DF8204600F0C0
:102140009BF80020207720680069C0F3C000D8B158
:102150002068C068C0F3C000B0B16FF0080021680B
:102160000861042020772068C06900F0030018B1DE
:102170002046FFF7A3FF05E0204600F07CF820464C
:1021800000F07AF80020207720680069C0F3001082
:10219000D8B12068C068C0F30010B0B16FF0100073
:1021A00021680861082020772068C06900F4407029
:1021B00018B12046FFF782FF05E0204600F05BF8EB
:1021C000204600F059F8002020772068006900F0D0
:1021D000010058B12068C06800F0010030B16FF014
:1021E000010021680861204600F048F82068006975
:1021F000C0F3C01058B12068C068C0F3C01030B13F
:102200006FF08000216808612046FFF71EFF2068FC
:102210000069C0F3002058B12068C068C0F3C01046
:1022200030B16FF48070216808612046FFF70CFF21
:1022300020680069C0F3801058B12068C068C0F3FE
:10224000801030B16FF0400021680861204600F036
:1022500021F820680069C0F3401058B12068C068B8
:10226000C0F3401030B16FF02000216808612046B3
:10227000FFF7ECFE10BD70477047000010B5044634
:1022800003492068884201D1FEF7DCFC10BD000044
:10229000002C014070477047704700002DE9F0475F
:1022A00004462068C569206806682068876840F68B
:1022B0000F0005EA0008B8F1000F0CD105F020006E
:1022C00048B106F0200030B1206E10B12046216EDA
:1022D0008847BDE8F087B8F1000F7DD007F0010016
:1022E00018B906F490700028F7D005F0010048B145
:1022F00006F4807030B1012021680862E06F40F080
:102300000100E06705F0020048B107F0010030B1BC
:10231000022021680862E06F40F00400E06705F0E9
:10232000040048B107F0010030B1042021680862C0
:10233000E06F40F00200E06705F0080060B106F0D1
:10234000200010B907F0010030B1082021680862B0
:10235000E06F40F00800E06705F4006050B106F05F
:10236000806038B14FF4006021680862E06F40F08F
:102370002000E067E06F80B305F0200038B106F080
:10238000200020B1206E10B12046216E8847D4F87D
:102390007C902068806800F04000402802D009F05E
:1023A000280030B3204601F0BAF82068806800F0B9
:1023B0004000402819D12068806820F04000216842
:1023C0008860E06E68B12148E16E8863E06EFEF7D8
:1023D00007FB10B1E06E01E011E00FE0816B884770
:1023E0000CE02046FFF758FF08E02046FFF754FFB7
:1023F00004E02046FFF750FF0020E06769E705F49E
:10240000801050B107F4800038B14FF4801021687B
:1024100008622046FFF73FFF5BE705F0800040B110
:1024200006F0800028B1606E10B12046616E8847CA
:102430004FE705F0400030B106F0400018B12046EB
:1024400001F07EF845E700BF43E7000007350008CC
:1024500010B504460CB9012010BDA06900B100E020
:1024600000BF606F28B9002084F87000204600F09B
:1024700029F8242060672068006820F001002168A6
:102480000860204601F0D4F8012800D1E4E7606A32
:1024900010B1204600F084FF2068406820F490408E
:1024A000216848602068806820F02A0021688860E0
:1024B0002068006840F0010021680860204600F0B4
:1024C000EBFFC9E710B586B00446142101A8FDF75B
:1024D00036FF38492068884233D100BF3648006E45
:1024E00040F48040344908660846006E00F480409D
:1024F000009000BF00BF00BF0846C06C40F0010064
:10250000C8640846C06C00F00100009000BF00BF26
:102510004FF4C0600190022002900020039003203D
:1025200004900720059001A94FF09040FEF79AFA19
:10253000002205212520FEF719FC2520FEF706FCC8
:1025400035E01E492068884231D100BF1A48806DAD
:1025500040F48020184988650846806D00F480208A
:10256000009000BF00BF00BF0846C06C40F00200F2
:10257000C8640846C06C00F00200009000BF00BFB5
:102580004FF440600190022002900020039003204D
:1025900004900720059001A90948FEF763FA00227C
:1025A00005212720FEF7E2FB2720FEF7CFFB06B030
:1025B00010BD0000003801400010024000480040FB
:1025C0000004004810B50346986F202865D101B17A
:1025D0000AB9012010BD00BF93F87000012801D195
:1025E0000220F7E7012083F8700000BF5965A3F8C7
:1025F0005820A3F85A200020186600BF9868B0F54C
:10260000805F0AD1186920B940F2FF10A3F85C007E
:1026100020E0FF20A3F85C001CE0986848B9186926
:1026200018B9FF20A3F85C0014E07F20A3F85C0039
:1026300010E09868B0F1805F09D1186918B97F205F
:10264000A3F85C0006E03F20A3F85C0002E0002055
:10265000A3F85C0000BF0020D867222098671868A4
:10266000806840F001001C68A0609868B0F5805F49
:1026700004D1186910B90A48186601E009481866BB
:1026800000BF002083F8700000BF1868006840F4A5
:1026900090701C68206000209CE702209AE70000F0
:1026A00061350008CB35000808490968084A91429D
:1026B00002D10121074A116007490968074A91427E
:1026C00002D10121064A1160704700002804002051
:1026D000003801402C000020A804002000480040E1
:1026E0002400002070B504460D461646002300BFA6
:1026F0000AE0E85C208500BF4021204600F090F809
:102700000028F9D0581C83B2B342F2DB70BD2DE92A
:10271000F84F04460E4617469946606F20285DD153
:1027200006B117B9012000F05BB800BF94F8700043
:10273000012801D10220F6E7012084F8700000BFD3
:102740000020E06721206067FEF776FA8246A4F851
:102750005070A4F85270A068B0F5805F04D1206971
:1027600010B90025B04602E035464FF0000800BF22
:10277000002084F8700000BF1DE053460022802135
:102780002046CDF8009001F04EF908B10320CAE7C9
:1027900045B9B8F80000C0F308002168088508F1C1
:1027A000020803E02878216808856D1CB4F85200FF
:1027B000401EA4F85200B4F852000028DDD1534660
:1027C000002240212046CDF8009001F02CF908B1FC
:1027D0000320A8E7202060670020A4E70220A2E7EA
:1027E00018BCBDE8E08F000008490968084A91421A
:1027F00002D10121074A116007490968044A914240
:1028000002D10121054A1160704700002804002010
:102810000038014030000020A804002028000020DB
:102820000246D0690840884201D10120704700204B
:10283000FCE700BFFEE7000010B50A480A4908603F
:102840000020087100210848417141618161012027
:10285000054908620846FEF769F808B1FEF731F845
:1028600010BD000000300240D400002000B5B3B01D
:10287000002031903290012131A801F0E0FE2B4977
:1028800008601C222A492AA8FDF740FD00212AA839
:1028900001F0FAFE274908601C2225491C3123A8B3
:1028A000FDF734FD002123A801F0EEFE2249086067
:1028B0001C221F4938311CA8FDF728FD00211CA847
:1028C00001F0E2FE1D4908601C221949543115A887
:1028D000FDF71CFD002115A801F0D6FE184908607F
:1028E0001C22134970310EA8FDF710FD00210EA81F
:1028F00001F0CAFE134908601C220D498C3107A85B
:10290000FDF704FD002107A801F0BEFE0E49086096
:102910001C220749A8316846FDF7F8FC00216846EB
:1029200001F0B2FE0949086033B000BD600000202C
:10293000845C000844000020480000204C00002077
:102940005000002054000020580000205C000020AF
:1029500000B587B0142102A8FDF7F1FC00BF514873
:10296000C06C40F004004F49C8640846C06C00F0D9
:102970000400019000BF00BF00BF0846C06C40F0DB
:102980008000C8640846C06C00F08000019000BF61
:1029900000BF00BF0846C06C40F00100C864084694
:1029A000C06C00F00100019000BF00BF00BF0846EE
:1029B000C06C40F00200C8640846C06C00F0020021
:1029C000019000BF00BF00224FF400513648FEF7CF
:1029D0002DF90122E0214FF09040FEF727F9012266
:1029E00011463248FEF722F900224FF400414FF021
:1029F0009040FEF71BF900224FF460712B48FEF760
:102A000015F94FF40050029001200390002004902B
:102A1000059002A92448FEF725F840F21F10029005
:102A200000200390049002A94FF09040FEF71AF89E
:102A300048F2E000029001200390049000200590ED
:102A400002A94FF09040FEF70DF88120029001207E
:102A5000039004900020059002A91448FEF702F8A4
:102A60000420029000200390049002A90F48FDF773
:102A7000F9FF40200290002003900120049002A959
:102A80000A48FDF7EFFF4FF44070029001200390D9
:102A900000200490059002A90448FDF7E3FF07B069
:102AA00000BD00000010024000080048000400487B
:102AB00010B51148114908604FF482704860002138
:102AC0000E4881604FF4E061C16000210161416105
:102AD0004FF4007181611821C161002101624162DE
:102AE00081620721C162002101634163FFF7DEF9C2
:102AF00008B1FDF7E6FE10BD003001406003002084
:102B000010B51048104908604FF4827048600021E9
:102B10000D4881604FF4E061C160002101614161B5
:102B200081611821C1610021016241628162072136
:102B3000C162002101634163FFF7B8F908B1FDF7F5
:102B4000C0FE10BD00380040C403002010B50D4881
:102B50000D4908604FF41650486000210A48816012
:102B6000C16001610C21416100218161C16101628B
:102B70000020054948620846FFF76AFC08B1FDF7E6
:102B8000A0FE10BD003801402804002010B50D48FB
:102B90000D4908604FF41650486000210A488160D2
:102BA000C16001610C21416100218161C16101624B
:102BB0000020054948620846FFF74AFC08B1FDF7C6
:102BC00080FE10BD00480040A804002010B50A484F
:102BD0000A490860082048600221084881600161B4
:102BE000002141618161C1610162FEF729F908B1EB
:102BF000FDF767FE10BD00000068004028070020B8
:102C000000BFFEE7704700002DE9F04104460F4683
:102C100000255B48C06800F0030090B15848C068C8
:102C200000F003002168884209D1206838B1544877
:102C3000C068C0F30210401C6168884233D001258F
:102C400031E02068012804D0022809D003281AD1D5
:102C50000DE04B48006800F0020000B9012514E0C7
:102C60004748006800F4806000B901250DE0444841
:102C7000006800F4003028B94148006800F4802062
:102C800000B9012501E0012500BF00BF5DB9D4E90D
:102C90000010401E41EA00103949C96821F0730153
:102CA00008433749C860002D67D13548006820F0D7
:102CB000806033490860FDF7BFFF064606E0FDF778
:102CC000BBFF801B022801D9032505E02C480068C2
:102CD00000F000600028F2D100BFC5BB67B9A06852
:102CE0000002217B40EAC16025490969254A11405B
:102CF00008432349086120E0012F0FD1A06800029A
:102D0000218A0122C2EB510140EA41501C49096964
:102D10001D4A114008431A4908610EE0A0680002EC
:102D2000217D0122C2EB510140EA41601449096949
:102D3000164A11400843124908611148006840F0E2
:102D400080600F490860FDF777FF064607E014E052
:102D5000FDF772FF801B022801D9032505E0084812
:102D6000006800F000600028F2D000BF2DB90448D0
:102D70000069A1690843024908612846BDE8F0815D
:102D800000100240FF80FF07FF809FFFFF80FFF9D8
:102D9000F8B5044600262348806D00F0805018B135
:102DA000FEF74AF9054616E000BF1E48806D40F068
:102DB00080501C4988650846806D00F08050009066
:102DC00000BF00BFFEF738F905461648806D20F0B9
:102DD000805014498865B5F5007F07D1802C10D943
:102DE000A02C01D902260CE001260AE0802C01D992
:102DF000032606E0802C01D1022602E0702C00D1CF
:102E000001260948006820F00700304306490860A1
:102E10000846006800F00700B04201D00120F8BD6C
:102E20000020FCE700100240002002407FB504466D
:102E30000D4600200290039000900190E0B28DF8C2
:102E40000800FF208DF809008DF80A008DF80B00AE
:102E50009DF8080001F04BFB8DF800009DF809007B
:102E600001F045FB8DF801009DF80A0001F03FFBE1
:102E70008DF802009DF80B0001F039FB8DF803007E
:102E80006846FDF7EBFC064601F031FB8DF80C00BF
:102E90004FF6FF73052202A90548FFF738FC05220B
:102EA00029460348FFF78EFB012004B070BD0000E7
:102EB000280400200EB5012280214848FDF7B6FE07
:102EC00040F6B830FDF7BAFD002280214348FDF7F7
:102ED000ADFE002240214FF09040FDF7A7FE0022FA
:102EE00020214FF09040FDF7A1FE6420FDF7A6FDE4
:102EF000012240214FF09040FDF798FE0122202151
:102F00004FF09040FDF792FE6420FDF797FD0122FF
:102F100080213248FDF78AFE2320FDF78FFD002235
:102F200040214FF09040FDF781FE0020FDF786FD27
:102F3000012240214FF09040FDF778FE0020FDF780
:102F40007DFD002240214FF09040FDF76FFE0020F4
:102F5000FDF774FD012240214FF09040FDF766FE21
:102F60000020FDF76BFD002240214FF09040FDF75F
:102F70005DFE0020FDF762FD012240214FF09040F0
:102F8000FDF754FE0120FDF759FD002220214FF0EE
:102F90009040FDF74BFE0020FDF750FD012220215F
:102FA0004FF09040FDF742FE00200290009001900B
:102FB000CD208DF80800AB208DF8090002AB05226A
:102FC0006946042000F012F800F0A8FD04A001F00A
:102FD00009FB00F093FD01200EBD00000004004835
:102FE000494E495420646F6E650D0A002DE9FF417A
:102FF00005460F4616461C4600200290039000909E
:103000000190E8B28DF80800F0B28DF80900207840
:103010008DF80A0060788DF80B009DF8080001F02B
:1030200066FA8DF800009DF8090001F060FA8DF84D
:1030300001009DF80A0001F05AFA8DF802009DF88F
:103040000B0001F054FA8DF803006846FDF706FC0A
:10305000804601F04CFA8DF80C004FF6FF73052204
:1030600002A90848FFF753FB00F058FD06A001F045
:10307000B9FA0CA001F0B6FA00F040FD012004B04E
:10308000BDE8F08128040020496E697420726567EC
:10309000697374657220636F6E66696775726564C3
:1030A000000000000D0A000000BF012001F0B6FA88
:1030B000FBE700BF012001F0B1FAFBE700BF0120F0
:1030C00001F0ACFAFBE700000EB500BF1B4800782A
:1030D000282802DD0020194908701949174800788E
:1030E000FFF7A4FE17480068012807D10020154902
:1030F000086012480078801C104908701248006867
:10310000012817D100201049086000F007FD0C4885
:1031100000790B49C9780A4A9278CDE900210290DA
:1031200007484378027805480178084801F05AFAC0
:1031300000F0E4FC012001F071FAC7E74100002033
:103140003C000020300000202C000020905D000892
:1031500000BF00F0D3FC08220F491048FFF732FAF5
:103160000F480068012813D100200D49086000F0C5
:10317000D5FC0CA001F036FA4FF6FF730822064981
:103180000648FFF7C4FA0AA001F02CFA00F0B6FCDA
:10319000012001F043FADCE7F8000020A804002039
:1031A000240000205553415254333A2000000000BF
:1031B0000D0A000000BF012001F030FAFBE700001B
:1031C00010B500BF502080F31188BFF34F8FBFF3BD
:1031D0006F8F00BF02F080FB18B14FF080500449A0
:1031E000086000BF002080F3118800BF10BD000000
:1031F00004ED00E000B5AFB044211EA8FDF79FF834
:10320000142119A8FDF79BF8602101A8FDF797F894
:10321000FDF71AFF2C48006820F018002A49903961
:10322000C1F8900014201E900120209024900020CE
:103230002590602026900220289001211EA8C162BE
:10324000016328214163072181630221C163016475
:10325000FEF778FA08B1FDF734FB0F201990032030
:103260001A9000201B901C901D90042119A8FEF7B5
:10327000E9F808B1FDF725FB42F2050001900020B6
:1032800009900B904FF08060139001200290012173
:1032900003911821049107210591022106910791BC
:1032A0000105089101A8FDF7E3FE08B1FDF709FB50
:1032B0004FF40070FDF77AFE08B1FDF702FBFDF751
:1032C000CDFE2FB000BD00009010024010480068F5
:1032D00040F470000E4908600E48006840F001009C
:1032E0000C49086000208860084600680A490840C8
:1032F000084908608814C8600846006820F48020E7
:10330000086000208861C80301498039086070475F
:1033100088ED00E000100240FFFFF6EA10B5024819
:10332000FEF7CDFE10BD00009C09002010B502681C
:10333000184B984202D0B0F1804F03D122F07002B6
:103340004B681A43134B984208D0B0F1804F05D018
:10335000114B984202D0114B984203D122F4407293
:10336000CB681A4322F080034C6943EA04020260EE
:103370008B68C3620B688362064B984205D0064B8C
:10338000984202D0054B984201D10B690363012397
:10339000436110BD002C0140004001400044014049
:1033A00090F8241001F0010139B10168496821F455
:1033B0000031826A11430268516090F8241001F0D4
:1033C0000201022907D10168496821F48031C26AEB
:1033D00011430268516090F8241001F0040104299F
:1033E00007D10168496821F48021026B114302680A
:1033F000516090F8241001F00801082907D10168F4
:10340000496821F40041426B11430268516090F811
:10341000241001F01001102907D10168896821F4F6
:103420008051826B11430268916090F8241001F082
:103430002001202907D10168896821F40051C26B5D
:1034400011430268916090F8241001F04001402976
:1034500013D10168496821F48011026C114302689C
:103460005160016CB1F5801F07D10168496821F4F2
:10347000C001426C11430268516090F8241001F0C1
:103480008001802907D10168496821F40021826CFC
:10349000114302685160704738B504460020E06768
:1034A000FDF7CAFB05462068006800F00800082800
:1034B0000CD16FF07E402B4600224FF4001100909B
:1034C000204600F0B0FA08B1032038BD206800683B
:1034D00000F0040004280CD16FF07E402B4600223F
:1034E0004FF480010090204600F09DFA08B10320BF
:1034F000EBE720206067A06700BF002084F8700021
:1035000000BF00BFE1E770B50546AC6A0020A4F833
:103510005A00A4F852002046FEF7BEFE70BD0168B6
:10352000096821F49071026811600168896821F0CE
:1035300001010268916020218167002101667047C6
:1035400010B504462068006820F04000216808603B
:1035500020206067002060662046FFF745F910BD17
:103560002DE9F0410446B4F85C70A06F222824D104
:103570002068868C656D06EA07002880606D801CD7
:103580006065B4F85A00401EA4F85A00B4F85A0016
:10359000C8B92068006820F490702168086020682D
:1035A000806820F00100216888602020A06700204A
:1035B00020662046FFF778F805E02068008B40F091
:1035C000080021680883BDE8F08170B50446B4F8AE
:1035D0005C60A06F222824D12068858CF0B228403E
:1035E000616D0870606D401C6065B4F85A00401E43
:1035F000A4F85A00B4F85A00C8B92068006820F44A
:103600009070216808602068806820F001002168BF
:1036100088602020A067002020662046FFF744F83D
:1036200005E02068008B40F008002168088370BD29
:103630002DE9F84F04460027002000908146EF490D
:103640002068884200D100E000BF2169A0680843DB
:1036500061690843E16940EA010820680068E849B7
:10366000084040EA0800216808602068406820F4AB
:103670004050E168084321684860D4F81880DF4969
:103680002068884202D0206A40EA080820688068E2
:1036900020F4306040EA08002168886000BFD94902
:1036A0002068884216D1D848006800F0030030B185
:1036B000012808D0022804D0032808D105E00125FC
:1036C00007E0022505E0042503E0082501E01025B8
:1036D00000BF54E0CD492068884216D1CA4800682E
:1036E00000F00C0030B1042808D0082804D00C28C1
:1036F00008D105E0002507E0022505E0042503E0E8
:10370000082501E0102500BF39E0C1492068884242
:1037100016D1BD48006800F0300030B1102808D044
:10372000202804D0302808D105E0002507E0022534
:1037300005E0042503E0082501E0102500BF1EE098
:10374000AE492068884219D1AF48006800F4406053
:1037500048B1B0F5806F0AD0B0F5006F05D0B0F574
:10376000406F08D105E0002507E0022505E00425AB
:1037700003E0082501E0102500BF00E0102500BF90
:103780009E49206888426ED135B1022D08D0042DA3
:1037900009D0082D0ED10AE0FDF73AFF81460CE072
:1037A000DFF8709209E0FDF757FF814605E04FF41E
:1037B000004902E00120009000BF00BFB9F1000FF6
:1037C0000AD0606800EB4000484503D860680003F9
:1037D000484502D2012000900AE135B1022D1AD0ED
:1037E000042D2AD0082D52D13EE0FDF711FF0646E8
:1037F0004FF48070A6FB0031D4F804E04FEA5E007D
:1038000013EB000B41F10001724600235846FCF710
:1038100049FD07463EE0D4F804E04FEA5E0000218F
:103820007D4B10EB030B41EB010C72460B465846E7
:103830006146FCF737FD07462CE0FDF70DFF064615
:103840004FF48070A6FB0031D4F804E04FEA5E002C
:1038500013EB000B41F10001724600235846FCF7C0
:1038600021FD074616E022E0D4F804E04FEA5E00AE
:1038700000214FF4000310EB030B41EB010C7246E7
:103880000B4658466146FCF70DFD074602E0012055
:10389000009000BF00BFB7F5407F05D3B7F5801F8C
:1038A00002D22068C760A3E001200090A0E0E06998
:1038B000B0F5004F54D1092D3AD2DFE805F00510DC
:1038C0001B39243939392F00FDF7A2FE0646700056
:1038D000616800EB5100B0FBF1F087B22BE0FDF71F
:1038E000A9FE06467000616800EB5100B0FBF1F0E4
:1038F00087B220E04949606801EB50006168B0FB85
:10390000F1F087B217E0FDF7A7FE06467000616888
:1039100000EB5100B0FBF1F087B20CE04FF48031C6
:10392000606801EB50006168B0FBF1F087B202E023
:103930000120009000BF00BF102F0ED3B7F5803FCD
:103940000BD24FF6F07007EA000AC7F342004AEACA
:10395000000A2068C0F80CA04AE00120009047E06F
:10396000092D37D2DFE805F0050F19362236363635
:103970002C00FDF74DFE0646616806EB5100B0FBDA
:10398000F1F087B229E0FDF755FE0646616806EBC7
:103990005100B0FBF1F087B21FE01E49606801EBF7
:1039A00050006168B0FBF1F087B216E0FDF754FEFD
:1039B0000646616806EB5100B0FBF1F087B20CE0FF
:1039C0004FF40041606801EB50006168B0FBF1F01A
:1039D00087B202E00120009000BF00BF102F05D386
:1039E000B7F5803F02D22068C76001E00120009057
:1039F000002020666066009800F012B80080004049
:103A0000F369FFEF00380140881002400044004095
:103A1000004800400024F400000024F40048E801BD
:103A200018BCBDE8E08F2DE9F04104460D4617466D
:103A30009846069E45E0701C002842D0FDF7FCF831
:103A4000A0EB0800B04200D8B6B92068006820F4A6
:103A5000D070216808602068806820F0010021682B
:103A6000886020206067A06700BF002084F8700095
:103A700000BF0320BDE8F0812068006800F004006A
:103A8000F8B12068C069C0F3C020D0B14FF4006025
:103A9000216808622068006820F4D07021680860FE
:103AA0002068806820F0010021688860202060671D
:103AB000A067E06700BF002084F8700000BF03200B
:103AC000D8E72068C0692840A84201D1012000E061
:103AD0000020B842AFD00020CCE7000010B502486B
:103AE000FEF7DCFB10BD00002804002010B50248E2
:103AF000FEF7D4FB10BD0000A804002010B5002282
:103B000001210548FDF792F8002280214FF09040F6
:103B1000FDF78CF810BD00000004004810B501222C
:103B200011460548FDF782F8012280214FF09040B0
:103B3000FDF77CF810BD00000004004810B50446F5
:103B4000002010BD0146B1F85800C0F30E00A1F8E6
:103B500058000020704710B50446012024F8400F9B
:103B600000202080A0802082403C204600F00CF8FD
:103B7000002010BD01464BF68072B1F84000904322
:103B8000A1F840000020704701464BF68072B1F862
:103B900040001043A1F8400000207047024600207A
:103BA000704700BFFEE7000037B514460846064BD5
:103BB0006A46214600F0FCF804466946002000F001
:103BC00091FC20463EBD0000E54400080248006824
:103BD000C0F30220704700000CED00E010B5002893
:103BE00004DB0A07130E054A135406E00A07140EF5
:103BF000034A00F00F031B1FD45410BD00E400E083
:103C000018ED00E002E008C8121F08C1002AFAD12E
:103C100070477047002001E001C1121F002AFBD14C
:103C2000704700002DE9FF5F82B00021DDE904301C
:103C3000020DDDF840B0034318D044F61050A2F254
:103C4000FF3242431514119801281FD0A5EB0B0039
:103C5000401C5FEA000A4FF000064E4FDFF8389133
:103C6000B046504615D5CAF1000413E0119801245E
:103C70004AA3012801D16FEA0B010298119AC0E909
:103C80000031C0E9024206B000F08EB8CBF100006E
:103C9000DFE704460021404A491842EB0450CDE9D1
:103CA000001012E0E00707D032463B464046494646
:103CB000FCF73BFC8046894632463B461046194697
:103CC000FCF733FC06460F466410002CEAD1DDE910
:103CD0000401DDE90023BAF1000F06DAFCF725FC48
:103CE00042464B46FCF721FC05E0FCF793FC4246BC
:103CF0004B46FCF78FFC04460E460022284BFCF78F
:103D000011FD03D84FF0FF30014607E00022254B9C
:103D100020463146FCF75AFBFCF7EBFC102409E087
:103D2000002C0ADB0A220023FCF7BCFA039B30328A
:103D30001A55641E50EA0102F2D1641C039AC4F1C0
:103D400011031444119A012A03D0012208430DD112
:103D50000AE0084304D000204FF0110B119072E7E5
:103D6000A3EB0B056D1E0DE05B4504DD4FF000027B
:103D700005F1010504E003DA4FF00002A5F10105A9
:103D8000002AECD002981199C0E90231C0E900453F
:103D900079E70000000014400000F03F3000000010
:103DA0000000F0430000E03F30BCBDE8C09F0000D1
:103DB0002DE9FF4F95B09B468946064600250FE248
:103DC000252877D100242746F84A0121059400E0F0
:103DD000044316F8013F203B01FA03F01042F7D1EB
:103DE00030782A2811D06FF02F033078A0F13002FC
:103DF000092A16D8059A44F0020402EB820203EB6A
:103E000042021044761C0590EFE759F8042B059206
:103E1000002A03DA504244F40054059044F00204AE
:103E2000761C30782E2816D116F8010F44F00404C1
:103E30002A280DD06FF02F023078A0F13003092B23
:103E400009D807EB870302EB4303C718761CF3E797
:103E500059F8047B761C30786C280FD006DC4C288F
:103E600017D068280DD06A2814D104E0742810D027
:103E70007A280FD10DE044F400140AE044F48014D1
:103E800001E044F440147278824202D104F58014B7
:103E9000761C761C307866280BD013DC582877D037
:103EA00009DC002875D04528F6D04628F4D04728EC
:103EB0001AD19DE118E0632835D0642879D06528AF
:103EC00012D195E1702873D008DC6728F1D06928F9
:103ED0006FD06E280DD06F2806D1B5E073282CD096
:103EE000752875D0782874D05A46179990476D1C5C
:103EF00075E1C4F30250022809D003280DD0D9F887
:103F0000001004280DD00D6009F1040967E1D9F80B
:103F10000010EA17C1E90052F6E7D9F800100D8049
:103F2000F2E70D70F0E719F8041B8DF8001000207F
:103F30008DF80100EA46012003E059F804AB4FF088
:103F4000FF3061074FF0000102D40DE008F10101DC
:103F50008846B9420FDA8045F8DB1AF808100029C4
:103F6000F4D108E008F1010188468142FADB1AF831
:103F700008100029F6D105985B46A0EB08072146FA
:103F80003846179A00F097FA284400EB080507E036
:103F90004DE029E10DE01AF8010B5A4617999047B8
:103FA000B8F10108F7D25B4621463846179A13E16B
:103FB00042E00A220092C4F302524FF0000A022AA1
:103FC00008D059F804CB032A4FEAEC710AD00DE06F
:103FD00029E02AE009F1070121F00702F2E802C115
:103FE000914609E00FFA8CFC4FEAEC71042A03D1E8
:103FF0004FFA8CFC4FEAEC71002907DA0A460021DF
:10400000DCF1000C61EB02012D2202E0220504D557
:104010002B228DF80420012203E0E20701D02022A8
:10402000F7E7904659E00A2102E010220DE0102146
:104030004FF0000A00910BE010224FF0000A44F00C
:1040400004040827009203E008224FF0000A0092BF
:10405000C4F30252022A05D059F804CB0021032AE6
:1040600008D009E009F1070121F00702F2E802C1D6
:10407000914605E01FFA8CFC042A01D10CF0FF0CDC
:104080004FF00008220728D5702806D0009B83F047
:10409000100353EA0A0305D00EE040228DF80420F5
:1040A000012208E05CEA010206D030228DF80420EB
:1040B0008DF8050002229046009B83F0080353EA26
:1040C0000A030AD15CEA010201D1620705D5302258
:1040D0008DF804204FF001087F1E582804D034A02A
:1040E00003900EA802900DE036A0F9E75346604613
:1040F000009AFCF7D7F884460398825C0298401E29
:10410000029002705CEA0100F0D1029806A9081A38
:1041100000F1200A600702D524F4803400E0012772
:10412000574502DDA7EB0A0000E0002000EB0A0182
:10413000009005984144401A0590E00306D45B4680
:104140002146179A059800F0B6F90544002706E0C5
:1041500001A85A46C05D179990476D1C7F1C4745C2
:10416000F6DBE0030CD55B462146179A059800F074
:10417000A2F9054404E030205A46179990476D1C77
:104180000099481E00900029F5DC08E00298029989
:104190005A460078491C0291179990476D1CBAF154
:1041A0000001AAF1010AF1DC65E100000928010023
:1041B000303132333435363738396162636465669D
:1041C000000000003031323334353637383941425F
:1041D000434445460000000000F05BF90544761CAE
:1041E000307800287FF4ECAD19B0284600F04EB9C5
:1041F000620700D4062709F1070222F0070CFCE849
:104200000223E14603F000485FEA080C02D00FF2F7
:10421000702C0DE05FEA045C02D50FF2682C07E019
:104220005FEAC47C02D00FF2602C01E0AFF2700CA8
:104230004FF0FF3823F00043CDF850C065280CD074
:1042400006DC452809D046281DD047283DD13DE051
:10425000662818D067287ED138E00021112F01DBB5
:10426000112000E0781CCDE9000106A90EA8FFF797
:10427000D9FCDDE90F010E9A03910021009207F1AC
:10428000010A04914DE04FF000400097CDE9011084
:1042900006A90EA8FFF7C6FCDDE90F0203920E9BEC
:1042A00011990022DDF80CA00093049211B9791C39
:1042B00000EB010AB7EB0A0004D4C0F1FF3007F1AC
:1042C000010A0490AAEB0700019044E0012F00DAF4
:1042D00001270021112F01DD112000E03846CDE932
:1042E000000106A90EA8FFF79DFCDDE90F010E9A5B
:1042F0000391002104910092BA4621070CD403993E
:10430000514500DA8A46BAF1010F05DD009AAAF19B
:104310000101515C302908D0B84202DA10F1040FD3
:1043200006DA0121CDE9011015E0AAF10101E9E762
:10433000002805DC049901440491AAEB000102E085
:10434000411C514500DD8A460499401A401C0190E9
:104350004FF000400290200704D40198504501DB43
:10436000CDF8048000208DF84F0002980DF14F0722
:10437000B0F1004F25D02B200E9002984FF002088C
:1043800000280CDA404202902D200E9007E00A210E
:104390000298FBF7E6FF3031029007F8011DB8F1F3
:1043A0000001A8F10108F2DC02980028EFD1791E83
:1043B0000E980870307800F0200040F0450007F8B3
:1043C000020D12A8C01B00F107081498007800B174
:1043D000012000EB0A01019801EBE07105984144CE
:1043E000401A401E0590E00306D45B462146179A0A
:1043F000059800F060F805441498007818B15A4602
:10440000179990476D1CE00324D55B462146179A07
:10441000059800F050F805441CE00498002807DBDC
:10442000DDE90301884203DD0098405C179901E053
:10443000179930205A469047049805F10105401C11
:1044400004900198401E019004D12E205A461799DD
:1044500090476D1CBAF10001AAF1010ADDDC05E00C
:1044600017F8010B5A46179990476D1CB8F10001D7
:10447000A8F10108F4DC5B462146179A0598ABE6E3
:104480002D0000002B0000002000000030BCBDE823
:10449000C08F2DE9F041044600251E4617468804CA
:1044A00004D405E039462020B0476D1C641EF9D5C0
:1044B0002846BDE8F0812DE9F041044600251E465E
:1044C0009046C80301D5302700E02027880404D592
:1044D00005E041463846B0476D1C641EF9D52846B4
:1044E000BDE8F0810A68531C0B60107070475521BD
:1044F00001EA6001AA2202EA400241EA02003321F5
:1045000001EAA001CC2202EA800241EA0200F02185
:1045100001EA001141EA1010704700BF012000F0CD
:104520007DF8FBE7FCF79AFBFEF764FEFEF710FA56
:10453000FEF72CFBFEF7BCFAFEF708FBFEF746FB86
:10454000FEF7DEFAFEF778F91348FDF70FFD134882
:10455000FDF70CFD1248FCF711FD1248FDF7B2FF04
:104560001148FDF7AFFFFFF7D9FA10A000F03AF8B5
:10457000FFF7C4FAFEF79EFCFFF7D0FA0DA000F09B
:1045800031F80BA000F02EF8FFF7B8FAFEF76EF93D
:1045900000F050F800BFFEE760030020C4030020D5
:1045A0002807002028040020A80400205465737404
:1045B0000D0A00005374617274696E67204672655B
:1045C0006552544F432053797374656D2E2E2E0D12
:1045D0000A00000001460020842901D0CA1C1044B2
:1045E000704700000FB438B505A800900948009A3C
:1045F0000499FFF7D9FA002000900648FBF7AAFEBD
:1046000084B20549224608680249FEF76BF838BCB7
:104610005DF814FB28050020A804002070B50446AE
:1046200025460DB1294600E00121084600F0F2FCC4
:10463000002070BD10B500F049FD002010BDF8B598
:1046400004460D46606860B1012D08D1032000903A
:10465000002211460120636800F0C2FEF8BD002070
:10466000FCE7012D0ED103220021012000F088FE7D
:1046700006462EB100231A461946304600F06CFF5C
:104680003046EBE70020E9E77FB504460D46606958
:1046900098B1A06988B1B4F90800FFF79BFF0646FE
:1046A000D4E90510CDE9006102902B462269D4E9D6
:1046B000001001F0A0F8039013E0B4F90800FFF730
:1046C00089FF064603A8CDE90060238A9AB22B46EB
:1046D000D4E9001001F05AF8012802D0002004B0FB
:1046E00070BD0398FBE700002DE9F04105460E463A
:1046F0001C4807681C480068001D00F08FFB50B97B
:104700001948006890F82C10012088401749096862
:10471000814316480160681C38B936B112480168F7
:10472000091D134800F0C4FB1AE07C190E4800680C
:104730004460BC4207D20C480168091D0D4800685E
:1047400000F09CFB0CE008480168091D0A4800685D
:1047500000F094FB09480068844201D207480460D5
:10476000BDE8F08188000020740000208C0000204B
:10477000B80A00207C00002078000020A40000205F
:1047800010B5044600F0A0FB23480068401C2249F5
:1047900008602248006840B9204804600846006864
:1047A00001280DD100F094F90AE01D48006838B9DD
:1047B0001A480068C06AE16A884201D81748046054
:1047C00018480068401C1749086094F82C10012014
:1047D000884015490968084313490860E16A01EBFC
:1047E0008101124A02EB8100211D00F061FB00F003
:1047F00095FB0B48006868B108480068C06AE16A28
:10480000884207D24FF0805009490860BFF34F8FAC
:10481000BFF36F8F10BD00008400002074000020E3
:1048200090000020A00000208C000020DC09002067
:1048300004ED00E010B516E000F046FB0C48C0683F
:10484000C468201D00F0EAFA0A480068401E0949C1
:10485000086009480068401E0749086000F05EFBD8
:10486000204600F04AF8044800680028E4D110BD52
:10487000A40A002084000020800000202DE9F041DF
:1048800004460F4615464FF00008A66B206C48B949
:10489000206800282CD1A06801F0C2F880460020D2
:1048A000A06025E07DB93946226C6068FBF72EFDDB
:1048B000216C606808446060D4E90101884217D324
:1048C0002068606014E03946226CE068FBF71EFD4A
:1048D000216CE068411AE1602168E068884203D2F7
:1048E000216CA068411AE160022D01D106B1761E4B
:1048F000701CA0634046BDE8F08110B5044694F8F2
:10490000510030B9206B00F027FB204600F024FB5B
:104910001AE094F85100012803D1204600F01CFB56
:1049200012E094F85100022801D1012000E000209B
:1049300050B900BF502080F31188BFF34F8FBFF3F1
:104940006F8F00BF00BFFEE710BD000030B547F21B
:104950003053174800F007042CB1C01D20F00700A9
:10496000134C041B1B1B0246124C22600024114DE9
:104970006C60D018083820F007000F4C206000242D
:104980000D4D2D686C600C4D2D682C601146441A3D
:104990004C60094C24680C60084D4C682C60084D34
:1049A0004C682C604FF00044064D2C6030BD000078
:1049B000CC0A0020B0000020B8000020C000002079
:1049C000BC000020C400002000BFFFF733FF0648F2
:1049D00000680128F9D94FF0805004490860BFF3FE
:1049E0004F8FBFF36F8FF0E7DC09002004ED00E08C
:1049F0002DE9F04106460D4617469846069C0DB92E
:104A0000246000E02760E66325640121204600F071
:104A100057FDBDE8F0812DE9FF5F81460E469246C5
:104A2000DDE90E7B109CAAF10100216B01EB8008EF
:104A300028F0070808F0070008B9012000E000206E
:104A400050B900BF502080F31188BFF34F8FBFF3E0
:104A50006F8F00BF00BFFEE786B1002507E0715DE4
:104A600004F134004155705D00B902E06D1C102D59
:104A7000F5D300BF00214320015502E0002084F857
:104A80003400072F00D30627E76267640020A06484
:104A9000201D00F0F0F904F1180000F0ECF9246199
:104AA000C7F10700A06164620020E06484F8500050
:104AB00049464046039A00F09BF92060BBF1000F85
:104AC00001D0CBF8004000F000B83FBCBDE8C09F6B
:104AD00010B5002407E004EB84010F4A02EB8100CB
:104AE00000F0BCF9641C072CF5D30C4800F0B6F9B3
:104AF0000B4800F0B3F90B4800F0B0F90A4800F099
:104B0000ADF90A4800F0AAF90448094908600448C8
:104B10000849086010BD0000DC090020680A002078
:104B20007C0A0020900A0020A40A0020B80A002075
:104B3000780000207C00002010B50146164800E0F7
:104B4000006803688B42FBD30246436813448B42E0
:104B500004D143684C682344436001460A464B68CD
:104B600013440468A34211D10C4C03682468A34287
:104B700008D04B680468646823444B6003681B6872
:104B80000B6005E0054B1B680B6001E003680B60E0
:104B9000884200D0016010BDB0000020B8000020A5
:104BA00070B5054600F090F9A86BE96B884201D119
:104BB000012400E0002400F0B1F9204670BD00009F
:104BC0000A490968096809B9012100E0002121B1F9
:104BD0004FF0FF31064A116006E004490968C968D0
:104BE000C868034A416811607047000078000020DF
:104BF000A40000200E480068401C08B9012000E015
:104C0000002050B900BF502080F31188BFF34F8FB0
:104C1000BFF36F8F00BF00BFFEE700BF502080F3DF
:104C20001188BFF34F8FBFF36F8F00BF00BFFEE748
:104C3000C800002070B5044600F046F994F94550CC
:104C400010E0606A08B9012000E0002038B904F1E2
:104C5000240000F049FF18B100F016FA00E003E06C
:104C6000681E45B2002DECDC00BFFF2084F8450033
:104C700000F054F900F028F994F9445010E020694C
:104C800008B9012000E0002048B904F1100000F04C
:104C90002BFF08B100F0F8F9681E45B200E001E012
:104CA000002DECDC00BFFF2084F8440000F036F952
:104CB00070BD00002DE9F04104464FF0000800F0FF
:104CC0005DFA4648006808B9FFF740FE44480068AE
:104CD000204000286BD1D4B1083404F00700B0B1F3
:104CE00004F00700C0F10800044404F0070008B90C
:104CF000012000E0002050B900BF502080F311884F
:104D0000BFF34F8FBFF36F8F00BF00BFFEE7002CD4
:104D10004DD034480068844249D8334E3046056847
:104D200001E02E462D686868A04202D2286800285B
:104D3000F7D12A480068854239D0306800F1080868
:104D4000286830606868001B102819D92F1907F0EF
:104D5000070008B9012000E0002050B900BF502032
:104D600080F31188BFF34F8FBFF36F8F00BF00BF79
:104D7000FEE76868001B78606C603846FFF7DCFE71
:104D8000184968680968081A1649086008460068E2
:104D900016490968884203D212480068134908601E
:104DA0000F4968680968084368600020286000F0BF
:104DB000E7FE08F0070008B9012000E0002050B924
:104DC00000BF502080F31188BFF34F8FBFF36F8F68
:104DD00000BF00BFFEE74046BDE8F081B8000020FC
:104DE000C4000020BC000020B0000020C000002053
:104DF000001F4FF080730360001F21F00103036068
:104E0000001F054B036014380260001F6FF002039F
:104E10000360203870470000F54B000801460A691E
:104E2000D1E901309860D1E90103586050688842A7
:104E300001D188685060002008611068401E106031
:104E400010687047034B0360034B0B6080231360B3
:104E5000704700000C0100206001002000F10801F3
:104E600041604FF0FF31816000F10801C1600161D4
:104E700000210160704700210161704710B50246B2
:104E80000B685C1C0CB9106907E002F1080000E037
:104E90004068446824689C42FAD944684C604C6875
:104EA000A160886041600A611468641C146010BDD0
:104EB00042684A6093688B609368596091600861AA
:104EC00003685B1C0360704700BF502080F31188AB
:104ED000BFF34F8FBFF36F8F00BF0E480068401CB9
:104EE0000C49086008460068012812D10A48006889
:104EF000C0B208B9012000E0002050B900BF502026
:104F000080F31188BFF34F8FBFF36F8F00BF00BFD7
:104F1000FEE77047C800002004ED00E00D4800687F
:104F200050B900BF502080F31188BFF34F8FBFF3FB
:104F30006F8F00BF00BFFEE706480068401E0549AE
:104F400008600846006820B9002080F3118800BF7F
:104F500000BF7047C800002070B506463546002ED9
:104F60003FD0083D2C461F4960680968084008B1D9
:104F7000012000E0002050B900BF502080F31188CC
:104F8000BFF34F8FBFF36F8F00BF00BFFEE72068F6
:104F900008B9012000E0002050B900BF502080F384
:104FA0001188BFF34F8FBFF36F8F00BF00BFFEE7C5
:104FB0000C4960680968084098B1206888B90949B7
:104FC000606809688843606000F0D8F80649606846
:104FD00009680844044908602046FFF7ADFD00F069
:104FE000CFFD70BDC4000020BC00002000204FF0A9
:104FF000E02108618861064800684FF47A71B0FBCF
:10500000F1F0401E4FF0E021486107200861704731
:105010007000002070B504460025D4B11248006825
:1050200008B9012000E0002050B900BF502080F3F3
:105030001188BFF34F8FBFF36F8F00BF00BFFEE734
:1050400000F09CF800212046FFF74EFB00F098FD91
:1050500005463DB94FF0805004490860BFF34F8FBB
:10506000BFF36F8F70BD0000AC00002004ED00E0C6
:1050700003490968016003490968416070470000FD
:105080009C00002088000020012001490860704732
:105090009800002070B504460D4654B900BF50205A
:1050A00080F31188BFF34F8FBFF36F8F00BF00BF36
:1050B000FEE70548016818312046FFF7DFFE0121B1
:1050C0002846FFF711FB70BD7400002010B586B0B4
:1050D00000200590049003AA04A905A8FFF7B2FEDA
:1050E0000022DDE904101346CDE9002102901CA145
:1050F0001D48039A00F07FFB1C49086008460068C1
:1051000008B1012400E00024012C15D100BF50207B
:1051100080F31188BFF34F8FBFF36F8F00BF4FF045
:10512000FF3013490860012012490860002012492D
:10513000086000F071F810E0601C08B1012000E088
:10514000002050B900BF502080F31188BFF34F8F6B
:10515000BFF36F8F00BF00BFFEE706B010BD0000B9
:1051600049444C4500000000C9490008A80000203F
:10517000A400002090000020880000200248006861
:10518000401C014908607047AC0000201D480068C1
:1051900018B101201C49086032E000201A4908605B
:1051A0001A480068B0FA80F0C0F11F0101EB8100DD
:1051B000174A52F8200008B1012000E0002050B941
:1051C00000BF502080F31188BFF34F8FBFF36F8F64
:1051D00000BF00BFFEE701EB81020D4B03EB820035
:1051E00042685268426000F108024368934202D16B
:1051F0004268526842604268D268064B1A6000BF3B
:1052000070470000AC000020980000208C000020B7
:10521000DC090020740000201CB552480068524987
:10522000884201D0012000E0002050B900BF50208A
:1052300080F31188BFF34F8FBFF36F8F00BF00BFA4
:10524000FEE7484800684849491E884201D00120CD
:1052500000E0002050B900BF502080F31188BFF358
:105260004F8FBFF36F8F00BF00BFFEE73F49084677
:1052700000780190FF200A461070084600780090E0
:105280009DF8000000F0F0009DF80020904201D150
:10529000012000E0002050B900BF502080F31188A9
:1052A000BFF34F8FBFF36F8F00BF00BFFEE79DF8C6
:1052B000000000F050002E4A107007202D4A1060A8
:1052C00009E02C480068401E2A4A10609DF8000042
:1052D0004006000E00909DF8000000F0800080283D
:1052E000EFD024480068C0F10700042801D1012054
:1052F00000E0002050B900BF502080F31188BFF3B8
:105300004F8FBFF36F8F00BF00BFFEE719480068E3
:105310000002184A10601046008800F4E060106037
:10532000124A019810700F482030006840F4700055
:105330000C49203108600846006840F07040086061
:10534000FFF754FE00200C490860FAF74DFF0B48A8
:10535000006840F0404009490860FAF731FF00203A
:105360001CBD000000ED00E071C20F4100E400E050
:10537000CC000020D0000020C800002034EF00E066
:105380002DE9F84305460E4690460DB1012000E098
:10539000002050B900BF502080F31188BFF34F8F19
:1053A000BFF36F8F00BF00BFFEE70EB9002701E01B
:1053B00005FB06F707F14800FFF77CFC044664B1E3
:1053C000A14609F14809002084F8460043464A46B0
:1053D000314628460094FFF70BFB2046BDE8F883D2
:1053E0002DE9F84380460E4617461D46DDF820900D
:1053F000B8F1000F01D0012000E0002050B900BF3B
:10540000502080F31188BFF34F8FBFF36F8F00BF21
:1054100000BFFEE70DB1012000E0002050B900BF41
:10542000502080F31188BFF34F8FBFF36F8F00BF01
:1054300000BFFEE707B10EB1012000E0002050B927
:1054400000BF502080F31188BFF34F8FBFF36F8FE1
:1054500000BF00BFFEE707B90EB9012000E0002041
:1054600050B900BF502080F31188BFF34F8FBFF3B6
:105470006F8F00BF00BFFEE74820009000984828CB
:1054800001D1012000E0002050B900BF502080F37E
:105490001188BFF34F8FBFF36F8F00BF00BFFEE7D0
:1054A00000BF2C464CB1012084F846004B463A46DA
:1054B000314640460094FFF79BFA2046BDE8F8834A
:1054C00070B505460E462C4654B900BF502080F3F7
:1054D0001188BFF34F8FBFF36F8F00BF00BFFEE790
:1054E000FFF7F2FCD4E90F12206801FB0200A06074
:1054F0000020A06320686060E06B401E226C216881
:1055000000FB0211E160FF2084F8440084F84500AC
:105510009EB9206908B9012000E00020A8B904F173
:10552000100000F0E1FA80B14FF0805009490860A6
:10553000BFF34F8FBFF36F8F07E004F11000FFF749
:105540008DFC04F12400FFF789FCFFF7E7FC012044
:1055500070BD000004ED00E02DE9FF4383B0064676
:1055600088461D464FF00009344654B900BF50200C
:1055700080F31188BFF34F8FBFF36F8F00BF00BF61
:10558000FEE7B8F1000F01D1206C08B9012000E05E
:10559000002050B900BF502080F31188BFF34F8F17
:1055A000BFF36F8F00BF00BFFEE7022D02D1E06B9B
:1055B000012801D1012000E0002050B900BF502097
:1055C00080F31188BFF34F8FBFF36F8F00BF00BF11
:1055D000FEE700F071F908B9059808B9012000E06C
:1055E000002050B900BF502080F31188BFF34F8FC7
:1055F000BFF36F8F00BF00BFFEE700BFFFF764FC83
:10560000A06BE16B884201D3022D28D12A46414686
:105610002046FFF733F90746606A08B9012000E029
:10562000002068B904F1240000F05EFA88B14FF060
:10563000805032490860BFF34F8FBFF36F8F08E08F
:105640003FB14FF080502D490860BFF34F8FBFF33B
:105650006F8FFFF763FC012007B0BDE8F08305986A
:1056600018B9FFF75BFC0020F6E7B9F1000F04D191
:1056700001A8FFF7FDFC4FF00109FFF74FFCFFF712
:105680007DFDFFF721FC94F94400401C10B9002077
:1056900084F8440094F94500401C10B9002084F8B7
:1056A0004500FFF73BFC05A901A800F029F8F0B977
:1056B0002046FFF775FAA0B104F110000599FFF735
:1056C000E9FC2046FFF7B6FA00F05AFA002895D117
:1056D0004FF0805009490860BFF34F8FBFF36F8FC1
:1056E0008CE72046FFF7A6FA00F04AFA86E7204644
:1056F000FFF7A0FA00F044FA0020ADE704ED00E067
:1057000070B505460C4655B900BF502080F311888E
:10571000BFF34F8FBFF36F8F00BF00BFFEE754B9D9
:1057200000BF502080F31188BFF34F8FBFF36F8FFE
:1057300000BF00BFFEE7FFF7C7FB124802686868BA
:10574000131A2068401C08B9002617E00E49286883
:105750000968884204D06868904201D801260DE0AB
:105760002068984207D92068C01A20602846FFF7B1
:105770007FFC002602E0002020600126FFF7CEFB20
:10578000304670BD880000209C0000202DE9FF4FAE
:1057900085B0804689461746DDE912ABB800FFF7B1
:1057A00089FA064656B15420FFF784FA04460CB134
:1057B000266304E03046FFF7CFFB00E000248CB105
:1057C000002084F85100CDE900ABCDE902403A4613
:1057D00049464046089BFFF71EF92046FEF7D0FFDA
:1057E000012501E04FF0FF35284609B000F000B870
:1057F00030BCBDE8C08F2DE9F04F85B00746884624
:1058000091469A46DDE90EB6109C0EB1012000E0EB
:10581000002050B900BF502080F31188BFF34F8F94
:10582000BFF36F8F00BF00BFFEE70CB1012000E0A7
:10583000002050B900BF502080F31188BFF34F8F74
:10584000BFF36F8F00BF00BFFEE7542003900398A3
:10585000542801D1012000E0002050B900BF5020A1
:1058600080F31188BFF34F8FBFF36F8F00BF00BF6E
:10587000FEE700BFB4B1AEB125462C462E63022030
:1058800085F85100002004A953464A46CDE900B1ED
:10589000CDE9025041463846FFF7BDF82846FEF7ED
:1058A0006FFF01E000200490049805B000F000B8FC
:1058B00030BCBDE8C08F00000549096809B9012066
:1058C00005E00449096809B9022000E0002070479A
:1058D00090000020AC0000202DE9F0414FF00008BE
:1058E00044480068002877D143480068451C424876
:1058F000056015BB41480068006808B9012000E058
:10590000002050B900BF502080F31188BFF34F8FA3
:10591000BFF36F8F00BF00BFFEE738480768384805
:105920000068364908603648076036480068401C01
:1059300034490860FFF744F900BF334800688542E6
:105940003CD300BF2D480068006808B9012000E082
:10595000002020B14FF0FF302B4908602DE0274890
:105960000068C068C4686668B54202D2264806600E
:1059700023E0201DFFF752FAA06A18B104F11800C5
:10598000FFF74CFA94F82C10012088401F49096851
:1059900008431E490860E16A01EB81011C4A02EBE1
:1059A0008100211DFFF784FA1A49E06A0968C96A73
:1059B0008842C7D34FF00108C4E700BF154800680C
:1059C000C06A00EB8000124951F82000012801D97B
:1059D0004FF0010805E0FFE70F480068401C0E4942
:1059E00008600E48006808B14FF001084046BDE865
:1059F000F0810000AC00002088000020780000202A
:105A00007C0000209C000020A40000208C000020CE
:105A1000DC09002074000020940000209800002081
:105A200070B505462C460026002D55D02B48006841
:105A3000844201D1012000E0002050B900BF502075
:105A400080F31188BFF34F8FBFF36F8F00BF00BF8C
:105A5000FEE7A06C50B900BF502080F31188BFF35F
:105A60004F8FBFF36F8F00BF00BFFEE7A06C401EDB
:105A7000A064616CE06A88422ED0A06C60BB201DDF
:105A8000FFF7CCF978B9E06A00EB8000144951F8CF
:105A9000200040B994F82C10012088401149096871
:105AA000814310480160606CE062E06AC0F1070069
:105AB000A06194F82C10012088400A490968084325
:105AC00008490860E16A01EB8101054A02EB8100A7
:105AD000211DFFF7EDF90126304670BD740000204E
