:020000040800F2
:10000000D0E0002081020008D75400080D38000815
:1000100035540008750F00087BBE00080000000082
:10002000000000000000000000000000A101000826
:100030007111000800000000FD01000875B1000802
:100040009B0200089B0200089B0200089B0200081C
:100050009B0200089B020008A5110008BB110008C4
:10006000C5110008CF110008D91100089B02000833
:100070009B0200089B0200089B0200089B020008EC
:100080009B0200089B0200089B0200089B020008DC
:100090009B0200089B0200089B020008E311000875
:1000A0009B0200089B0200089B0200089B020008BC
:1000B0009B02000800000000000000009B020008F6
:1000C0009B0200089B0200089B0200089B0200089C
:1000D0009B020008B5BD00089B020008C5BD0008D2
:1000E000AF1100089B0200080000000000000000A3
:1000F0000000000000000000000000000000000000
:10010000000000009B020008000000009B020008A5
:1001100000000000000000009B020008DDB20008A3
:100120009B0200089B0200089B0200089B0200083B
:100130009B0200080000000000000000000000001A
:100140009B0200089B0200089B0200089B0200081B
:100150009B0200089B0200089B0200089B0200080B
:100160009B0200089B0200089B02000800000000A0
:100170009B0200089B0200089B0200080000000090
:100180009B0200089B0200089B020008DFF80CD0CD
:1001900000F020FC0048004715D00008D0E0002007
:1001A0002C4B1968086800F05AB880F30988BFF32F
:1001B0006F8F4FF0000080F311887047000000003F
:1001C00008480068006880F308884FF0000080F35A
:1001D000148862B661B6BFF34F8FBFF36F8F00DF35
:1001E00000BF00BF08ED00E0DFF80C00016841F43B
:1001F00070010160704700BF88ED00E0EFF30980F7
:10020000BFF36F8F134B1A681EF0100F08BF20ED5D
:10021000108A20E9F04F106009B44FF0500080F3CD
:100220001188BFF34F8FBFF36F8F0DF0F5FF4FF0C5
:10023000000080F3118809BC1968086800F014B840
:100240001EF0100F08BF00F014B880F30988BFF348
:100250006F8F704738020020EFF30580704730C879
:10026000B0E8C04FFFF7A1BF30C8B0E8C04FFFF7FC
:10027000E7BFB0EC088AB0EC08CAFFF7E6BF0000A1
:100280000648804706480047FEE7FEE7FEE7FEE730
:10029000FEE7FEE7FEE7FEE7FEE7FEE761B20008E5
:1002A0008D0100082DE9F05F0546002092469B462F
:1002B00088460646814640241BE02846414647467C
:1002C000224600F0ACFA53465A46C01A914110D368
:1002D00011461846224600F093FA2D1A67EB0108E2
:1002E0004F4622460120002100F08AFA17EB000950
:1002F0004E41201EA4F10104DFDC484631462A4667
:10030000434600F000B830BCBDE8C09F40EA01039E
:100310009B0703D009E008C9121F08C0042AFAD2BB
:1003200003E011F8013B00F8013B521EF9D270477F
:10033000D2B201E000F8012B491EFBD27047002227
:10034000F6E710B513460A4604461946FFF7F0FFD4
:10035000204610BD421C10F8011B0029FBD1801A59
:10036000704730B504460020034600E05B1C934212
:1003700003D2E05CCD5C401BF8D030BD2DE9FE4FD0
:10038000804681EA0300C00F0C46009021F0004136
:1003900023F00045B8EB0200A94105D240462146B2
:1003A00090461C460B46024623F00040104347D0BF
:1003B000270DC7F30A00C3F30A510290401A0190B7
:1003C00040286BDAC3F3130040F4801B0098924678
:1003D00020B10023D2EB030A63EB0B0B01985946C3
:1003E000C0F14002504600F00BFA06460D4650465A
:1003F0005946019A00F023FA10EB080061410024ED
:1004000087EA115284EAE7731A4340D0009A62B334
:10041000019A012A4FEA075215DC001B61EB020129
:100420004FF0004202EA0752CDE90042001C41F5BC
:10043000801132462B4600F023FA03B000F045B895
:1004400040462146F9E7001B61EB0201001C41F523
:10045000801300185B412018A2F5001747EB030139
:1004600040EAD570B6196D4111E06D084FEA3606C5
:1004700045EAC0754FEA0752001B61EB0201001C00
:1004800041F5801149084FEA3000001951413246C8
:100490002B4603B000F01CB800F0E3B9009801222D
:1004A00040000023D0EB020263EBE073009821468A
:1004B0004FEAE074B8EB000061EB0401E9E783F078
:1004C00000435BE781F0004158E730BCBDE8C08FD6
:1004D00030BCBDE8C04FFFF7DFBF2DE9FE4F81EA1A
:1004E000030404F0004421F0004100944FF0000B9D
:1004F00023F0004350EA01045ED052EA03045BD0CB
:10050000C3F30A54C1F30A552C44A4F2F334019402
:10051000A0FB0254C1F3130141F48011C3F3130390
:1005200043F4801301FB024400FB034E840A970A44
:1005300044EA815447EA8357A4FB076802958D0A71
:1005400005FB07854FEA932C04FB0C542705029DFD
:100550004FEA065847EA1637B5EB08056EEB070C6D
:10056000870E920E47EA811742EA8312A7FB020127
:10057000B6EB0B0164EB00042B0D43EA0C335E1861
:1005800044EB1C50DA465146E7FB0201C5F3130465
:100590004FEA0B3343EA14534FEA0432019C43EA17
:1005A0000603A4F10C040294009CCDE900B400F011
:1005B00067F903B000F003B800200146F9E730BC4A
:1005C000BDE8C08F2DE9F04D81EA030404F0004B33
:1005D00021F0004514464FF0000A23F0004150EA94
:1005E000050220D054EA01021DD0C5F30A57024685
:1005F000C5F31303C1F31300C1F30A5640F4801589
:1006000043F48013A7EB0608101BD64608F2FD380A
:1006100073EB050002D308F1010801E092185B4179
:10062000B8F1000F03DA00200146BDE8F08D00208C
:100630004FF48011064684460EE0171B73EB050746
:1006400005D3121B63EB050306434CEA010C490872
:100650004FEA300092185B4150EA0107EDD152EAAF
:10066000030012D082EA040083EA0501084305D0A2
:10067000101BAB4106D20122002306E000224FF0FE
:10068000004302E06FF0010253101AEB06004CEB3E
:10069000085110EB0A0041EB0B01BDE8F04D00F0F2
:1006A000E0B80EB5C10F80EAE0700844CA07002127
:1006B00040F233438DE80E000A460B4600F0E0F8A6
:1006C00003B000BD0EB540F2334102910021CDE9E7
:1006D00000110A460B4600F0D3F803B000BD70B518
:1006E000C1F30A5201F000450024C1F3130140F2A6
:1006F000FF3341F480119A4201DA002070BD40F2CC
:1007000033439A42A2F2334203DC524200F087F8AC
:1007100000E090402C43F1D0404270BDC1F30A523A
:1007200010B5C1F3130140F2FF3341F480119A4236
:1007300001DA002010BD40F233439A42A2F2334264
:1007400003DC524200F06BF810BD904010BD00F089
:10075000004230F000400AD0C10D01F56071C0F3D5
:10076000160042EA0151C2084007114370470020B9
:100770000146704730B5041E71F1000404DB4FF0F0
:100780000044404264EB0101141E73F1000405DBD8
:100790001C464FF00043524263EB04038B4208BFF8
:1007A000824230BD30B5041E71F1000404DB4FF00D
:1007B0000044404264EB0101141E73F1000405DBA8
:1007C0001C464FF00043524263EB0403994208BFBA
:1007D000904230BD30B50B46014600202022012456
:1007E00009E021FA02F59D4205D303FA02F5491BFF
:1007F00004FA02F52844151EA2F10102F1DC30BD15
:10080000202A04DB203A00FA02F1002070479140D0
:10081000C2F1200320FA03F3194390407047202AC5
:1008200004DB203A21FA02F00021704721FA02F39A
:10083000D040C2F120029140084319467047202A57
:1008400006DBCB17203A41FA02F043EAE07306E0F8
:1008500041FA02F3D040C2F1200291400843194608
:10086000704710B5141E73F1000408DA401C41F102
:10087000000192185B411A4301D120F0010010BD24
:100880002DE9F04D92469B4611B1B1FA81F202E09A
:10089000B0FA80F220329046FFF7B2FF04460F46CE
:1008A00040EA0A0041EA0B0153465A46084313D076
:1008B000114653EA010019D0C8F140025046FFF733
:1008C000AEFF05460E46504659464246FFF798FF92
:1008D000084305D0012004E020463946BDE8F08DEC
:1008E0000020054346EAE0762C4337430A98630527
:1008F000E40AA0EB08000022FD0A44EA47540A304B
:1009000002D500200146E9E7010510196941DDE93A
:10091000084500196941BDE8F04DA2E72DE9F04115
:10092000054621F000400C46284309D0C4F30A5084
:1009300040F23341884205DD28462146BDE8F0817A
:100940002846FBE740F2FE31884210DC0CDB4FEA20
:10095000043040EA155050EA053105D0104804F043
:10096000004101430020E9E700200146E6E7A0F24C
:1009700033404642C6F1400228462146FFF740FF79
:1009800007468846284621463246FFF748FF434639
:100990003A46FFF766FF3246BDE8F041FFF730BF49
:1009A0000000F03FC1F30A52C1F3130140F2FF33DC
:1009B00041F480119A4202DA00200146704740F269
:1009C00033439A42A2F2334202DC5242FFF727BF7E
:1009D000FFF716BF064C074D06E0E06840F0010344
:1009E00094E8070098471034AC42F6D3FFF7D2FBE7
:1009F00010F7000830F7000870B58C1810F8015B8C
:100A000015F0070301D110F8013B2A1106D110F8A7
:100A1000012B03E010F8016B01F8016B5B1EF9D1AB
:100A20002B0705D40023521E0DD401F8013BFAE731
:100A300010F8013BCB1A921C03E013F8015B01F89C
:100A4000015B521EF9D5A142D8D3002070BD30B54C
:100A500089B005460C461022002105A80CF033FC95
:100A6000224605A905A80CF070F89DF8140000F0C6
:100A70008000E8B100BF00200AE005A9095C4A0037
:100A800005AB411C595C42EAE11105AA1154401C16
:100A90000F28F2DB9DF823104906090E8DF823106C
:100AA00000BF9DF8230080F087008DF8230016E03A
:100AB00000BF00200AE005A9095C4A0005AB411C03
:100AC000595C42EAE11105AA1154401C0F28F2DBDF
:100AD0009DF823104906090E8DF8231000BFD4F8A5
:100AE000140110280FD100BF002009E004F2011109
:100AF000095C05AA125C514004F201121154401C19
:100B00001028F3DB5DE09DF8140000F08000E8B1F0
:100B100000BF00200AE005A9095C4A0005AB411CA2
:100B2000595C42EAE11105AA1154401C0F28F2DB7E
:100B30009DF823104906090E8DF8231000BF9DF87B
:100B4000230080F087008DF8230016E000BF00200E
:100B50000AE005A9095C4A0005AB411C595C42EA60
:100B6000E11105AA1154401C0F28F2DB9DF8231057
:100B70004906090E8DF8231000BF802104F20110F0
:100B8000D4F81421815405E0002104F20110D4F8B6
:100B900014218154D4F81401401CC4F81401102805
:100BA000F2D300BF002009E004F20111095C05AA9C
:100BB000125C514004F201121154401C1028F3DB66
:100BC00000BF00BF00200AE004F1F101095C04F25B
:100BD0000112125C514004F1F1021154401C102822
:100BE000F2DB00BF102204F1F10101A80CF051FB6F
:100BF0002246294601A80BF0A8FF1022002105A8D3
:100C00000CF061FB09B030BD10B504461022002184
:100C100004F1F1000CF057FB0020C4F81401F0229D
:100C2000002120460CF04FFB10BD70B504460D4668
:100C30002246102128460BF0B5FF70BD2DE9FF417B
:100C400004460F461546D4F8140100283BD0D4F8CA
:100C50001401C0F11000A84204D2D4F81401C0F16C
:100C6000100000E028460646B2B204F20111D4F8A2
:100C70001431581839460CF00CFBD4F814013044E8
:100C8000C4F81401D4F81401102801D3B54201D1DD
:100C900000F048B800BF00200AE004F1F101095C4F
:100CA00004F20112125C514004F1F1021154401C93
:100CB0001028F2DB00BF224604F1F10108460BF0D8
:100CC00044FF3744AD1B21E000BF002008E004F1E1
:100CD000F101095C3A5C514004F1F1021154401CED
:100CE0001028F4DB00BF102204F1F10168460CF07B
:100CF000D0FA2246694668460BF027FF1022694663
:100D000004F1F1000CF0C5FA1037103D102DDBD8BE
:100D1000AAB2394604F201100CF0BBFAC4F814511F
:100D200000BFB5E703BCBDE8FC8100002DE9F04140
:100D300004460E4617464FF001086B480078C0F194
:100D40008000C5B2A01E092872D2DFE800F00514A9
:100D50002B3A5372899AA90064480078A84209DAAC
:100D6000624801780078401C604A10706048445422
:100D70004FF00008AFE0681E5C490978884210DD3A
:100D80005A4801780078401C584A1070584844541A
:100D9000104601780078401C1070554846544FF0BA
:100DA000000898E051480078A84209DA4F480178D5
:100DB0000078401C4D4A10704D4844544FF00008D4
:100DC00089E0681E49490978884212DD4748017860
:100DD0000078401C454A107045484454104601783C
:100DE0000078401C10704248465409F0ADFD4FF0A9
:100DF000000870E0A81E3D490978884217DD3B488D
:100E000001780078401C394A107039484454104623
:100E100001780078401C107035484654104601781F
:100E20000078401C1070324847544FF0000852E0E0
:100E30004EE0681E2D490978884210DD2B48017864
:100E40000078401C294A1070294844541046017803
:100E50000078401C1070264846544FF000083AE0D5
:100E600022480078A8420BDA204801780078401C1C
:100E70001E4A10701E48445409F066FD4FF00008E9
:100E800029E01A480078A84209DA18480178007861
:100E9000401C164A1070164844544FF000081AE0DF
:100EA00012480078A84212DA104801780078401CF5
:100EB0000E4A10700E484454104601780078401CC9
:100EC00010700B48465409F03FFD4FF0000802E057
:100ED0000220BDE8F08100BFB8F1000F02D101206F
:100EE000044908704046F4E7F0020020EF020020B9
:100EF00076850020EE02002072B603480078401C80
:100F00000149087070470000B503002004480078CC
:100F1000401E034908700846007800B962B6704761
:100F2000B5030020002070470448006D0349496D57
:100F300048400249496E4840704700000000F81FD1
:100F40001C210A4880F87C1090F87C0000F00F010A
:100F50000120884081B20548A0F87E100449C0F8FD
:100F60008010012180F88610704700008C8F0020CF
:100F70000004004800BFFEE770B5054600200749A1
:100F80000870002404E0285D00F0D4F8601CC4B2AE
:100F9000042CF8DB0148007870BD000050000020F0
:100FA0003EB50446124800788DF8000011480078DC
:100FB0008DF802008DF803400F4800680AF0E4F94C
:100FC00001900E48006802900D4800788DF80100ED
:100FD00069460C48007806F0FEFC084800680A499B
:100FE0000988484305490968401A084908603EBD18
:100FF000E60200200003002004030020200300205C
:1010000003030020B4020020F4020020FC020020B0
:101010002DE9F04104460D4616461F46DDF81880BE
:101020002CB9022D0ED108480AF0B0FA0AE0012EC0
:1010300003D105480AF0AAFA04E0474502DD024858
:101040000AF0A4FABDE8F0817C87002030B50246A2
:10105000002300200AE0012484401440012585403B
:10106000AC4201D15C1CE3B2441CE0B28842F2DB2A
:10107000184630BD2DE9F84F074688461646994672
:101080004FF0000AD34600250020009047E00024DE
:101090003CE0009838F810000121A140084090B3CE
:1010A000281900EB400056F8200000B92CE0281960
:1010B00000EB400006EB800090F9080002112819AF
:1010C00000EB400006EB8000007A40F3030178B2A9
:1010D00006F062FF00B917E0281900EB400006EBAC
:1010E0008000407A09EB0010C06820B10BF10100CC
:1010F00000F0FF0B08E02819C2B25046411C01F075
:10110000FF0A0A990A5400BF601CC4B2102CC0DB4D
:1011100005F11000C5B20098401CC0B20090602DCF
:10112000B5DB0B9880F800B0504600F000B818BC52
:10113000BDE8E08F10B5002115E00C4B1B7880EA6C
:1011400003020A4B1B785B061B0E084C237002F04F
:10115000800323B123461B7883F0070323704306E3
:10116000180E4B1CD9B20829E7DB10BD5000002037
:10117000704710B50446204600F001F810BD10B5C8
:101180000446204600F0E6F810BD002107E00022EA
:1011900000E0521C44F21A139A42FADB491C8142C5
:1011A000F5DB704710B5012000F0FEF810BD10B55A
:1011B0004FF4004000F0F8F810BD10B5022000F028
:1011C000F3F810BD10B5042000F0EEF810BD10B516
:1011D000082000F0E9F810BD10B5102000F0E4F888
:1011E00010BD704706E00AF005FE03A00CF0B8F948
:1011F0000AF0F0FDF7E700002121214572726F72BD
:101200002048616E646C65722121210D0A00000086
:1012100001460B4850F82100A0F5F430483840B1A1
:10122000A0F5F430483830B1A0F57430903820B1D2
:1012300000BF002070470120FCE70220FAE7000011
:1012400068EF00080246002111E00B4850F8310019
:1012500090420AD8084B481C53F83000904204D9F9
:10126000184600EBC10000797047481CC1B215292F
:10127000EBD300BFFEE70000BCEF000802460023EE
:101280008A4201D1CBB201E0501EC3B258B27047BE
:101290002DE9FC4704460D4616461F46DDE90A893E
:1012A0003B46324629462046CDE9008900F005F844
:1012B00000F000B80CBCBDE8F08730B5DDE90345AF
:1012C00030BD70B504460D460CB1606800B900BF72
:1012D00094F90000401C00B970BDEAB261886068F2
:1012E00000F054F900BFF7E770B504460D462946F3
:1012F0002046FFF7E6FF70BD70B50446002594F860
:101300002500022803D00420E063012520E02068A6
:10131000006820F00E00216808602068006820F056
:1013200001002168086094F8440000F01C010120CD
:101330008840216C4860012084F8250000BF00200F
:1013400084F8240000BFA06B10B12046A16B884731
:10135000284670BD70B5044600F01EF906462546C5
:10136000681C10B104480068054400BF00F014F97F
:10137000801BA842FAD370BD3002002070B504462D
:101380000025002C05DD02E06410681CC5B2012CAC
:10139000FAD1044850F8250018B1024951F8250047
:1013A000804770BD3405002010B50446044800682D
:1013B000204020B1024804602046FFF7DFFF10BD47
:1013C0001404014078B503460022CBE00126964084
:1013D0000D6805EA0604002C72D04D68012D08D076
:1013E0004D68022D05D04D68112D02D04D68122D8B
:1013F00013D1986856000325B540A8435600CD6820
:10140000B54028439860586801259540A8430D7958
:10141000C5F30015954028435860D8685600032549
:10142000B540A84356008D68B5402843D8604D6844
:10143000022D02D04D68122D13D1D60803F12005DC
:1014400055F826005507EE0E0F25B540A843560760
:10145000F60E0D69B5402843D60803F1200545F87E
:101460002600186856000325B540A8430D7905F0FD
:1014700003055600B540284318604D6805F08055B7
:10148000B5F1805F6DD100BF394D2D6E45F001057E
:10149000374E356635462D6E05F00105009500BFC7
:1014A00000BF4FEAB635960855F8260095072E0F6F
:1014B0000F25B540A843B3F1904F02D1002515E0A8
:1014C0004FE02C4DAB4201D101250FE02A4DAB423C
:1014D00001D102250AE0294DAB4201D1032505E0E7
:1014E000274DAB4201D1042500E007259607360FB2
:1014F000B5402843234D960845F82600224D28681C
:10150000A0434D6805F48035B5F5803F00D12043F8
:101510001D4D28602D1D2868A0434D6805F4003539
:10152000B5F5003F00D12043174D2D1D28602D1D1E
:101530002868A0434D6805F48015B5F5801F00D1DB
:101540002043114D083528602D1D2868A0434D68A3
:1015500005F40015B5F5001F00D120430A4D0C35E8
:101560002860521C0D68D540002D7FF42FAF78BD48
:10157000001002400004004800080048000C004829
:101580000010004808000140000401400AB18161D8
:1015900000E0816270470000014800687047000069
:1015A00028020020034800680349096808440149EB
:1015B00008607047280200203002002010B5002487
:1015C000032000F0CFF80F2000F008F808B1012444
:1015D00001E000F02FF8204610BD000070B5044671
:1015E000002511480068D8B10F4800684FF47A719F
:1015F000B1FBF0F00D490968B1FBF0F6304601F09F
:10160000DBFC58B9102C07D200222146501E00F0F6
:1016100067F80748046004E0012502E0012500E0C6
:101620000125284670BD0000300200203402002051
:101630002C02002008B500BF0F48006E40F00100EA
:101640000D4908660846006E00F00100009000BFDA
:1016500000BF00BF0846806D40F080508865084696
:10166000806D00F08050009000BF00BF00220F216D
:10167000901E00F035F808BD0010024010B501467C
:101680000846002817DB00F01F0301229A400B4B8D
:10169000440943F8242000BF00BF00BFBFF34F8FB1
:1016A00000BF00BF00BF00BF00BF00BFBFF36F8F10
:1016B00000BF00BF00BF00BF10BD000080E100E020
:1016C00001460846002809DB00F01F0301229A406A
:1016D00043099B0003F1E023C3F8002100BF7047DA
:1016E0002DE9F05F80460D46164600270AF00CFCF7
:1016F000074639462A46334601F00700C0F1070A7B
:10170000BAF1040F02D94FF0040A01E0C0F1070A50
:10171000D14600F1040ABAF1070F02D24FF0000AD5
:1017200001E0A0F1030AD4464FF0010A0AFA09FACF
:10173000AAF1010A0AEA020A0AFA0CFA4FF0010BAE
:101740000BFA0CFBABF1010B0BEA030B4AEA0B049F
:10175000214640460AF0E0FB00F000B830BCBDE88E
:10176000C09F000000BF00F00702064B19684FF64B
:10177000FF031940044B0B4343EA0221014B19605C
:1017800000BF70470CED00E00000FA05024611684A
:101790000120C2F86802002082F8600231F8540F7C
:1017A00040F001000880088840F0020021F8540948
:1017B0000020704730B585B0044614B9012005B04B
:1017C00030BD94F8290228B9002084F82802204668
:1017D00000F08EF8032084F8290220680AF036FB16
:1017E000142204F110016846FEF790FD94E80F0002
:1017F0000AF010FB20B1022084F829020120DEE764
:10180000002120680AF036FB002526E0012104F1C2
:10181000280000EB4510417004F1280000EB451052
:10182000057004F1280000EB4510C581002104F18A
:10183000280000EB4510C17004F1280000EB4510B2
:10184000016104F1280000EB4510416104F128001A
:1018500000EB45108161681CC5B26068A842D5D80C
:10186000002520E0002104F5947000EB4510417044
:1018700004F5947000EB4510057004F5947000EBCE
:101880004510C17004F5947000EB4510016104F53A
:10189000947000EB4510416104F5947000EB451025
:1018A0008161681CC5B26068A842DBD8142204F1CB
:1018B00010016846FEF72AFD94E80F000AF0B7FA17
:1018C00020B1022084F82902012078E7002084F862
:1018D0002400012084F82902E069012802D1204671
:1018E000FFF754FF20680AF099FA002067E700002C
:1018F00008B5094A016891420DD100BF0749896DB9
:1019000041F08061054A91651146896D01F0806161
:10191000009100BF00BF08BD0068004000100240F9
:101920000246B2F5007F2AD11D48006800F4C0606D
:10193000B0F5007F32D01A48006820F4C06040F44F
:101940000070174B18601748006832235843164B35
:10195000B0FBF3F0411C00E0491E1148406900F45F
:101960008060B0F5806F01D10029F5D10C48406945
:1019700000F48060B0F5806F10D1032070470848F4
:10198000006800F4C060B0F5806F07D004480068BC
:1019900020F4C06040F48060014B18600020EDE747
:1019A000007000403402002040420F0002480068EE
:1019B00000F4C060704700000070004003480068F9
:1019C00040F48070014908607047000000700040DA
:1019D0000348006840F004000149086070470000B7
:1019E000001002402DE9F84304460025A84620884F
:1019F00000F40060B0F5006F26D1606C68B1B0F5FE
:101A0000000F03D0B0F5400F0ED10CE0E848C068DD
:101A100040F48030E649C86008E00021201D05F050
:101A200017FA054602E001E0012500BF00BF55B9E5
:101A3000DF488830006820F44000616C0843DC49CE
:101A4000C1F8880000E0A846206800F40030B0F536
:101A5000003F75D14FF00009D548806D012121EA82
:101A6000107078B100BFD248806D40F08050D049EE
:101A700088650846806D00F08050009000BF00BF70
:101A80004FF00109CB48006840F48070C9490860F4
:101A9000FFF782FD074606E0FFF77EFDC01B022828
:101AA00001D9032505E0C348006800F480700028D0
:101AB000F2D000BF7DBBBE489030006800F4407695
:101AC000CEB1E06DB04216D0B9489030006820F435
:101AD0004076B748D0F8900040F48030B449C1F85F
:101AE00090000846D0F8900020F48030C1F89000B3
:101AF0000846C0F8906006F00100A8B1FFF74CFD61
:101B0000074609E0FFF748FDC01B41F288318842D3
:101B100002D9032507E016E0A5489030006800F0E0
:101B200002000028EED000BF5DB9A14890300068E7
:101B300020F44070E16D08439D49C1F8900003E036
:101B40000CE0A84600E0A846B9F1010F05D198487D
:101B5000806D20F080509649886500BF207800F0A5
:101B6000010048B192488830006820F00300216AE3
:101B700008438F49C1F88800207800F0020002284D
:101B800009D18B488830006820F00C00616A084356
:101B90008749C1F88800207800F00400042809D1A2
:101BA00083488830006820F03000A16A08438049EB
:101BB000C1F88800207800F02000202809D17C4856
:101BC0008830006820F44060E16A08437849C1F831
:101BD0008800208800F40070B0F5007F09D17448B7
:101BE0008830006820F44020E16B08437049C1F858
:101BF0008800208800F48060B0F5806F09D16C48BF
:101C00008830006820F44010216C08436849C1F80E
:101C10008800207800F04000402809D164488830CE
:101C2000006820F44050216B08436149C1F88800E6
:101C3000207800F08000802809D15D488830006855
:101C400020F44040616B08435949C1F8880020885E
:101C500000F48070B0F5807F09D155488830006865
:101C600020F44030A16B08435149C1F88800208816
:101C700000F40050B0F5005F1FD14D488830006877
:101C800020F04060A16C0843494988310860A06C8D
:101C9000B0F1006F06D14648C06840F48010444956
:101CA000C8600AE0A06CB0F1806F06D10121201D50
:101CB00005F0CEF8054605B1A846206800F40020DE
:101CC000B0F5002F1FD13A488830006820F04060FE
:101CD000E16C0843364988310860E06CB0F1006F70
:101CE00006D13348C06840F480103149C8600AE02A
:101CF000E06CB0F1806F06D10121201D05F0A8F83D
:101D0000054605B1A846206800F48020B0F5802F74
:101D10001FD127488830006820F04060216D0843BB
:101D2000234988310860206DB0F1006F06D120484A
:101D3000C06840F480101E49C8600AE0206DB0F110
:101D4000806F06D10121201D05F082F8054605B1FE
:101D5000A846208800F48040B0F5804F14D1144884
:101D60008830006820F04050616D08431049883188
:101D70000860606DB0F1805F06D10221201D05F082
:101D800067F8054605B1A846208800F40040B0F584
:101D9000004F09D106488830006820F08040A16DCE
:101DA00008430349C1F888004046BDE8F8830000B5
:101DB00000100240007000402DE9F04104460D463D
:101DC00014B90120BDE8F0815548006800F0070013
:101DD000A8420ED25248006820F00700284350491C
:101DE00008600846006800F00700A84201D0012002
:101DF000E8E7207800F00100002840D06068032860
:101E000006D14848006800F00070D8B90120D9E731
:101E10006068022806D14348006800F4003088B9A1
:101E20000120CFE7606830B93E48006800F002004A
:101E300040B90120C6E73B48006800F4806008B95B
:101E40000120BFE73748806820F00300616808433D
:101E500034498860FFF7A0FB064608E0FFF79CFBCB
:101E6000801B41F28831884201D90320AAE72D481E
:101E7000806800F00C006168B0EB810FEED1207833
:101E800000F00200022807D12648806820F0F00008
:101E9000A1680843234988602148006800F00700D2
:101EA000A8420ED91E48006820F0070028431C49AC
:101EB00008600846006800F00700A84201D0012031
:101EC00080E7207800F00400042807D115488068D6
:101ED00020F4E060E168084312498860207800F04F
:101EE0000800082808D10F48806820F46050216954
:101EF00040EAC1000B49886000F046F8094989684A
:101F0000C1F30311084A515C01F01F01C8400749A1
:101F1000086007480068FFF761FB0746384651E74D
:101F20000020024000100240F8EE000834020020B9
:101F30002C02002001480068704700003402002095
:101F400000B5FFF7F7FF05498968C1F30221044A8C
:101F5000515C01F01F01C84000BD000000100240AC
:101F600008EF000800B5FFF7E5FF05498968C1F3F0
:101F7000C221044A515C01F01F01C84000BD0000AD
:101F80000010024008EF0008F0B500230020DFF841
:101F9000D4C0DCF808C00CF00C01DFF8C8C0DCF8D5
:101FA0000CC00CF0030719B10C291ED1012F1CD154
:101FB000DFF8B0C0DCF800C00CF0080CBCF1000F7A
:101FC00006D1DFF8A0C0DCF894C0CCF3032305E011
:101FD000DFF890C0DCF800C0CCF30313DFF888C052
:101FE0005CF8233041B9184606E0042901D11F48A6
:101FF00002E0082900D11E480C2932D1DFF864C064
:10200000DCF80CC00CF00304012C09D0022C02D027
:10201000032C04D101E0154A04E0154A02E000BF98
:102020001A4600BF00BFDFF83CC0DCF80CC0CCF3A0
:10203000021C0CF10106DFF82CC0DCF80CC0CCF35C
:10204000062C0CFB02FCBCFBF6F2DFF818C0DCF837
:102050000CC0CCF3416C0CF1010C4FEA4C05B2FB07
:10206000F5F0F0BD0010024010EF00080024F4006D
:1020700000127A002DE9F843044614B90120BDE8A6
:10208000F883F948806800F00C06F748C06800F053
:102090000307207800F01000102877D11EB10C2E15
:1020A00076D1012F74D1F048006800F0020018B119
:1020B000A06908B90120E2E7EB48216A006800F056
:1020C000080020B1E848006800F0F00005E0E648AC
:1020D0009430006800F47060000981421FD9206AC2
:1020E00004F07AFF08B10120C9E700BFDE480068AC
:1020F00040F00800DC4908600846006820F0F00065
:10210000216A0843D849086000BF0846406820F4A7
:102110007F40E16940EA0120D34948601FE000BFE9
:10212000D148006840F00800CF49086008460068C0
:1021300020F0F000216A0843CB49086000BF084640
:10214000406820F47F40E16940EA0120C6494860C8
:102150002EB9206A04F040FF08B101208FE7FFF795
:1021600013FFC1498968C1F30311C04A515C01F0F2
:102170001F01C840BE490860BE480068FFF72EFA3C
:102180008046B8F1000F4ED0404678E74BE0FFE7BD
:10219000A06980B3B448006840F00100B24908600B
:1021A000FFF7FAF9054606E0FFF7F6F9401B0228AB
:1021B00001D9032063E7AC48006800F00200002862
:1021C000F2D000BFA848006840F00800A6490860A7
:1021D0000846006820F0F000216A0843A249086020
:1021E00000BF0846406820F47F40E16940EA0120D2
:1021F0009D49486017E0FFE79B48006820F0010018
:1022000099490860FFF7C8F9054606E0FFF7C4F9E9
:10221000401B022801D9032031E79348006800F0F1
:1022200002000028F2D1207800F0010000285CD0E4
:10223000082E03D00C2E0AD1032F08D18A4800683B
:1022400000F4003088B3606878BB012017E700BF56
:102250006068B0F5803F06D18348006840F4803064
:10226000814908601AE06068B0F5A02F0BD17E4864
:10227000006840F480207C4908600846006840F40B
:10228000803008600AE07848006820F480307649A1
:1022900008600846006820F48020086000BF60687D
:1022A00090B1FFF779F9054607E01EE0FFF774F9F2
:1022B000401B642801D90320E1E66B48006800F464
:1022C00000300028F2D010E0FFF766F9054606E07E
:1022D000FFF762F9401B642801D90320CFE662486A
:1022E000006800F400300028F2D1207800F00200ED
:1022F000022852D1042E03D00C2E14D1022F12D159
:102300005948006800F4806018B1E06808B90120FD
:10231000B5E65548406820F0F850217C40EA01605D
:102320005149486039E0E06800B34F48006840F424
:1023300080704D490860FFF72FF9054606E0FFF76A
:102340002BF9401B022801D9032098E64648006873
:1023500000F480600028F2D04348406820F0F85034
:10236000217C40EA01604049486016E03E48006830
:1023700020F480703C490860FFF70EF9054606E03E
:10238000FFF70AF9401B022801D9032077E63648F7
:10239000006800F480600028F2D1207800F0080086
:1023A000082836D16069D0B12F489430006840F0D9
:1023B00001002D49C1F89400FFF7EEF8054606E04C
:1023C000FFF7EAF8401B022801D9032057E6264808
:1023D0009430006800F002000028F1D019E0224893
:1023E0009430006820F001001F49C1F89400FFF705
:1023F000D3F8054606E0FFF7CFF8401B022801D9C5
:1024000003203CE618489430006800F002000028E1
:10241000F1D1207800F00400042872D14FF00009B7
:102420001148806D00F0805078B900BF0E48806D73
:1024300040F080500C4988650846806D00F080505F
:10244000009000BF00BF4FF001090B48006800F486
:10245000807000BB0848006840F48070064908603E
:10246000FFF79AF8054610E000100240F8EE000869
:10247000340200202C02002000700040FFF78CF88E
:10248000401B022801D90320F9E5D048006800F478
:1024900080700028F2D000BFA068012808D1CC4885
:1024A000006840F00100CA499039C1F8900021E06D
:1024B000A06805280FD1C648006840F00400C44950
:1024C0009039C1F890000846D0F8900040F0010023
:1024D000C1F890000EE0BE48006820F00100BC4941
:1024E0009039C1F890000846D0F8900020F0040020
:1024F000C1F8900000BFA068A0B1FFF74DF80546F5
:1025000009E02EE0FFF748F8401B41F2883188428D
:1025100001D90320B3E5AE48006800F002000028AE
:10252000F0D012E0FFF738F8054608E0FFF734F87E
:10253000401B41F28831884201D903209FE5A4481D
:10254000006800F002000028F0D1B9F1010F07D1B6
:102550009F489038806D20F080509D499039886563
:1025600000BF207800F02000202838D1606AD8B160
:1025700097480830006840F0010095499039C1F84B
:102580009800FFF709F8054606E0FFF705F8401B3D
:10259000022801D9032072E58D480830006800F058
:1025A00002000028F1D01AE089480830006820F0C5
:1025B000010087499039C1F89800FEF7EDFF054604
:1025C00006E0FEF7E9FF401B022801D9032056E58B
:1025D0007F480830006800F002000028F1D1A06AAE
:1025E00000287DD0A06A02287BD179489038C7683E
:1025F00007F00301E06A814225D107F07001206BEA
:10260000401EB1EB001F1ED107F4FE41606BB1EB21
:10261000002F18D107F078413820005DB1EBC06F72
:1026200011D107F4C001A08F0122C2EB5000B1EB21
:10263000405F08D107F0C0614020005DC2EB500050
:10264000B1EB406F66D00C2E62D0614890380068C4
:1026500000F0806008B1012011E55D489038006805
:1026600020F080705A4990390860FEF795FF0546C2
:1026700006E0FEF791FF401B022801D90320FEE48B
:1026800053489038006800F000700028F1D1D4E978
:102690000B10401E41EA0011606B41EA0021A08F3F
:1026A0000122C2EB500041EA40514020005DC2EBE4
:1026B000500041EA40613820005D41EAC060444971
:1026C0009039C968434A1140084341499039C8606C
:1026D0000846006840F0807008600846C06801E065
:1026E0005BE03DE040F08070C860FEF755FF0546B6
:1026F00006E0FEF751FF401B022801D90320BEE48B
:1027000033489038006800F000700028F1D05AE09B
:102710000120B4E42E489038006800F00070E0BB5F
:102720002B489038006840F0807029499039086043
:102730000846C06840F08070C860FEF72DFF05466F
:1027400006E0FEF729FF401B022801D9032096E48A
:102750001F489038006800F000700028F1D032E087
:102760000C2E2ED01A489038006820F0807018493E
:10277000903908600846006800F0006020B90846FB
:10278000C06820F00300C86011489038C068124942
:1027900008400F499039C86000E014E0FEF7FCFEE5
:1027A000054606E0FEF7F8FE401B022801D903208B
:1027B00065E407489038006800F000700028F1D107
:1027C00001E001205BE4002059E4000000700040BB
:1027D000901002408C809D01FFFFEEFE70B5044614
:1027E0000CB9012070BD606A00B900BF0021A16270
:1027F00094F85D0028B9002084F85C00204600F0C1
:102800004DF8022084F85D002068006820F0400048
:1028100021680860E068B0F5E06F01D9002501E0AB
:102820004FF48055E068B0F5706F05D0E068B0F502
:10283000E06F01D00021A162206B40B9E068B0F5E3
:10284000E06F02D90221216301E001212163D4E973
:10285000010108432169084361690843218B01F4A0
:1028600000710843E1690843216A0843A16A0843EB
:10287000216808600421A06901EA1040616A0843E8
:10288000616B0843E16808432843216848600020E1
:102890002066012084F85D000020A3E710B586B013
:1028A0000446142101A8FDF74AFD2F4920688842FB
:1028B00029D100BF2D48006E40F480502B49086696
:1028C0000846006E00F48050009000BF00BF00BFBB
:1028D0000846C06C40F00200C8640846C06C00F0B6
:1028E0000200009000BF00BF38200190022002903B
:1028F00000200390032004900520059001A91C48A6
:10290000FEF760FD2DE01B492068884229D100BFF9
:102910001648806D40F48040144988650846806DF3
:1029200000F48040009000BF00BF00BF0846C06CAC
:1029300040F00200C8640846C06C00F0020000903D
:1029400000BF00BF4FF460400190022002900020C1
:102950000390032004900520059001A90448FEF788
:1029600031FD06B010BD00000030014000100240F3
:1029700000040048003800402DE9F843044688462A
:1029800016461D464FF000096068B0F5827F0DD1F4
:10299000A06858B9042084F85D0033464246414699
:1029A0002046009500F0A7F9BDE8F88300BF94F831
:1029B0005C00012801D10220F6E7012084F85C00C8
:1029C00000BFFEF7E9FD074694F85D00012802D03C
:1029D0004FF0020993E0B8F1000F00D016B94FF0A4
:1029E00001098CE0042084F85D0000202066C4F812
:1029F0004080A4F84460A4F84660A063A087E08704
:102A0000E0642065E068B0F5E06F06D920684068B2
:102A100020F480502168486005E02068406840F458
:102A2000805021684860A068B0F5004F05D120684B
:102A3000006820F48040216808602068006800F089
:102A40004000402805D02068006840F04000216820
:102A50000860E068B0F5E06F22D81CE0206880686C
:102A600000F0010060B12068007B216C0870206CD0
:102A7000401C2064B4F84600401EA4F846000AE05A
:102A8000FEF78AFDC01BA84201D3681C00B915B926
:102A90004FF0030933E0B4F846000028DED121E00E
:102AA0001CE02068806800F0010060B12068C06808
:102AB000216C0880206C801C2064B4F84600401E05
:102AC000A4F846000AE0FEF767FDC01BA84201D348
:102AD000681C00B915B94FF0030910E0B4F84600BE
:102AE0000028DED13A462946204605F06BFC08B1A5
:102AF00020202066206E08B14FF0010900BF0120A0
:102B000084F85D0000BF002084F85C0000BF4846E8
:102B10004AE72DE9F84F0446884616461D464FF011
:102B2000000A00BF94F85C00012802D1022000F0E6
:102B3000DFB8012084F85C0000BFFEF72DFD0746DA
:102B4000B14694F85D00012802D04FF0020AC5E0BA
:102B5000B8F1000F00D016B94FF0010ABEE0032013
:102B600084F85D0000202066C4F83880A687E687D8
:102B70002064A4F84400A4F846002065E064A0683E
:102B8000B0F5004F05D12068006840F4804021680E
:102B900008602068006800F04000402805D02068E8
:102BA000006840F0400021680860E068B0F5E06F20
:102BB0002FD9606810B1B9F1010F09D1A06B00885D
:102BC0002168C860A06B801CA063E08F401EE08776
:102BD0001BE02068806800F0020002280AD1A06B88
:102BE00000882168C860A06B801CA063E08F401E35
:102BF000E0870AE0FEF7D0FCC01BA84201D3681CA6
:102C000000B915B94FF0030A68E0E08F0028E0D161
:102C10004AE0606810B1B9F1010F17D1E08F0128C7
:102C20000AD9A06B00882168C860A06B801CA063D3
:102C3000E08F801EE08709E0A06B007821680873B0
:102C4000A06B401CA063E08F401EE08729E0206855
:102C5000806800F00200022818D1E08F01280AD90C
:102C6000A06B00882168C860A06B801CA063E08F07
:102C7000801EE08715E0A06B007821680873A06BC8
:102C8000401CA063E08F401EE0870AE0FEF784FC52
:102C9000C01BA84201D3681C00B915B94FF0030A44
:102CA0001CE0E08F0028D2D13A462946204605F0A4
:102CB000CAFB08B120202066A06850B900BF0020E0
:102CC00000902068C068009020688068009000BF75
:102CD00000BF206E08B14FF0010A00BF012084F848
:102CE0005D0000BF002084F85C0000BF50461EE776
:102CF00018BCBDE8E08F2DE9FF5F04468946924687
:102D00001D460E9E012001900020009000BF94F807
:102D10005C00012803D1022004B000F04AB9012070
:102D200084F85C0000BFFEF737FC074694F85D00AE
:102D3000029060680390A846AB46029801280BD029
:102D40000398B0F5827F04D1A06810B902980428D6
:102D500002D00220009022E1B9F1000F03D0BAF1B5
:102D6000000F00D015B90120009018E194F85D0023
:102D7000042802D0052084F85D0000202066C4F8F5
:102D800040A0A4F84650A4F84450C4F83890E58711
:102D9000A587E0642065E068B0F5E06F02D8BBF17C
:102DA000010F06D92068406820F4805021684860EF
:102DB00005E02068406840F4805021684860206841
:102DC000006800F04000402805D02068006840F00E
:102DD000400021680860E068B0F5E06F4ED9606897
:102DE00010B1B8F1010F09D1A06B00882168C8604B
:102DF000A06B801CA063E08F401EE08736E0206857
:102E0000806800F00200022810D1E08F70B10198B4
:102E100001280BD1A06B00882168C860A06B801CC2
:102E2000A063E08F401EE08700200190206880684A
:102E300000F0010080B1B4F8460068B12068C068B5
:102E4000216C0880206C801C2064B4F84600401E71
:102E5000A4F8460001200190FEF79EFBC01BB04283
:102E600004D3701C10B10320009098E0E08F00287C
:102E7000C5D1B4F846000028C1D185E0606810B122
:102E8000B8F1010F17D1E08F01280AD9A06B008893
:102E90002168C860A06B801CA063E08F801EE08763
:102EA00009E0A06B007821680873A06B401CA06348
:102EB000E08F401EE08760E02068806800F002003C
:102EC00002281ED1E08FE0B10198012819D1E08FCE
:102ED00001280AD9A06B00882168C860A06B801CFB
:102EE000A063E08F801EE08709E0A06B0078216876
:102EF0000873A06B401CA063E08F401EE087002099
:102F000001902068806800F0010058B3B4F84600D2
:102F100040B3B4F84600012816D92068C068216C77
:102F20000880206C801C2064B4F84600801EA4F841
:102F30004600B4F84600012812D82068406840F4E2
:102F40008050216848600BE02068007B216C08708D
:102F5000206C401C2064B4F84600401EA4F84600D3
:102F600001200190FEF718FBC01BB04201D3701C7A
:102F700000B916B90320009011E0E08F00289BD122
:102F8000B4F84600002897D13A463146204605F06D
:102F90005AFA18B1012000902020206600BF0120BD
:102FA00084F85D0000BF002084F85C0000BF00983A
:102FB000B2E630BCBDE8C09F70B504462546681E29
:102FC000B0F1807F01D301200FE0681E4FF0E021B7
:102FD00048610F214FF0FF3008F09EFF00204FF0B6
:102FE000E021886107200861002070BD70477047AC
:102FF000704710B504460CB9012010BD94F83D008F
:1030000028B9002084F83C00204600F00DF802208A
:1030100084F83D00211D206808F068F9012084F83B
:103020003D000020E9E7000038B504460D4920685E
:10303000884215D100BF0C48806D40F020000A493D
:1030400088650846806D00F02000009000BF00BF3A
:10305000002205213720FEF743FB3720FEF730FB27
:1030600038BD00000014004000100240014608680E
:10307000C06840F001000B68D86008688068084BA1
:1030800000EA0302062A08D0B2F5803F05D008689E
:10309000006840F001000B681860002070470000D5
:1030A00007000100704710B5044620680069C0F3AE
:1030B0004000D8B12068C068C0F34000B0B16FF0E4
:1030C000020021680861012020772068806900F0F3
:1030D000030018B12046FFF7E5FF05E0204600F0A9
:1030E000BEF8204600F0BCF8002020772068006978
:1030F000C0F38000D8B12068C068C0F38000B0B1D0
:103100006FF0040021680861022020772068806940
:1031100000F4407018B12046FFF7C4FF05E02046D8
:1031200000F09DF8204600F09BF8002020772068F2
:103130000069C0F3C000D8B12068C068C0F3C00007
:10314000B0B16FF008002168086104202077206882
:10315000C06900F0030018B12046FFF7A3FF05E0A7
:10316000204600F07CF8204600F07AF80020207716
:1031700020680069C0F30010D8B12068C068C0F3AF
:103180000010B0B16FF010002168086108202077AE
:103190002068C06900F4407018B12046FFF782FF34
:1031A00005E0204600F05BF8204600F059F80020CA
:1031B00020772068006900F0010058B12068C068DD
:1031C00000F0010030B16FF0010021680861204675
:1031D00000F048F820680069C0F3C01058B12068BA
:1031E000C068C0F3C01030B16FF080002168086182
:1031F0002046FFF7FCFE20680069C0F3002058B1AC
:103200002068C068C0F3C01030B16FF480702168CE
:1032100008612046FFF7EAFE20680069C0F38010CD
:1032200058B12068C068C0F3801030B16FF0400022
:1032300021680861204600F027F820680069C0F383
:10324000401058B12068C068C0F3401030B16FF032
:103250002000216808612046FFF7CAFE10BD7047B4
:103260007047000010B5044605492068884206D121
:1032700004480068401C0349086008F0E3F810BDEA
:103280000014004094010020704770477047000010
:103290002DE9F04704462068C56920680668206863
:1032A000876840F60F0005EA0008B8F1000F0CD15E
:1032B00005F0200048B106F0200030B1206E10B1BA
:1032C0002046216E8847BDE8F087B8F1000F7DD019
:1032D00007F0010018B906F490700028F7D005F047
:1032E000010048B106F4807030B101202168086205
:1032F000E06F40F00100E06705F0020048B107F020
:10330000010030B1022021680862E06F40F0040043
:10331000E06705F0040048B107F0010030B1042077
:1033200021680862E06F40F00200E06705F00800E5
:1033300060B106F0200010B907F0010030B108209C
:1033400021680862E06F40F00800E06705F4006063
:1033500050B106F0806038B14FF400602168086217
:10336000E06F40F02000E067E06F80B305F02000E0
:1033700038B106F0200020B1206E10B12046216E39
:103380008847D4F87C902068806800F0400040288E
:1033900002D009F0280030B3204608F02CFA20684B
:1033A000806800F04000402819D12068806820F033
:1033B000400021688860E06E68B12148E16E886352
:1033C000E06EFDF799FF10B1E06E01E011E00FE053
:1033D000816B88470CE02046FFF758FF08E0204645
:1033E000FFF754FF04E02046FFF750FF0020E0679E
:1033F00069E705F4801050B107F4800038B14FF44C
:103400008010216808622046FFF73FFF5BE705F068
:10341000800040B106F0800028B1606E10B12046F7
:10342000616E88474FE705F0400030B106F040007C
:1034300018B1204608F0F0F945E700BF43E7000067
:10344000DFB7000810B504460CB9012010BDA06913
:1034500000B100E000BF606F28B9002084F8700060
:10346000204600F029F8242060672068006820F0DA
:10347000010021680860204608F046FA012800D1C2
:10348000E4E7606A10B1204608F0F6F8206840686A
:1034900020F49040216848602068806820F02A006D
:1034A000216888602068006840F001002168086099
:1034B000204608F05DF9C9E710B586B0044614212E
:1034C00001A8FCF73CFF38492068884233D100BF8F
:1034D0003648006E40F48040344908660846006E65
:1034E00000F48040009000BF00BF00BF0846C06CE1
:1034F00040F00100C8640846C06C00F00100009074
:1035000000BF00BF4FF4C060019002200290002075
:103510000390032004900720059001A94FF09040EC
:10352000FDF750FF002205212520FEF7D9F82520C0
:10353000FEF7C6F835E01E492068884231D100BF49
:103540001A48806D40F48020184988650846806DCF
:1035500000F48020009000BF00BF00BF0846C06C90
:1035600040F00200C8640846C06C00F00200009001
:1035700000BF00BF4FF44060019002200290002085
:103580000390032004900720059001A90948FDF746
:1035900019FF002205212720FEF7A2F82720FEF7B9
:1035A0008FF806B010BD0000003801400010024046
:1035B000004800400004004810B50346986F2028DA
:1035C00065D101B10AB9012010BD00BF93F87000A8
:1035D000012801D10220F7E7012083F8700000BF25
:1035E0005965A3F85820A3F85A200020186600BF98
:1035F0009868B0F5805F0AD1186920B940F2FF10D1
:10360000A3F85C0020E0FF20A3F85C001CE09868B1
:1036100048B9186918B9FF20A3F85C0014E07F20AE
:10362000A3F85C0010E09868B0F1805F09D11869D8
:1036300018B97F20A3F85C0006E03F20A3F85C00E7
:1036400002E00020A3F85C0000BF0020D867222021
:1036500098671868806840F001001C68A06098684E
:10366000B0F5805F04D1186910B90A48186601E006
:103670000948186600BF002083F8700000BF186872
:10368000006840F490701C68206000209CE70220D5
:103690009AE7000039B80008A3B800080649884234
:1036A00002D10121054A11600549884202D1012158
:1036B000044A116070470000C40900209C010020EA
:1036C000440A0020F801002070B504460D46164655
:1036D000002300BF0AE0E85C208500BF40212046AF
:1036E00000F08AF80028F9D0581C83B2B342F2DB0C
:1036F00070BD2DE9F84F04460E4617469946606F97
:1037000020285DD106B117B9012000F05BB800BFD9
:1037100094F87000012801D10220F6E7012084F816
:10372000700000BF0020E06721206067FDF734FFD4
:103730008246A4F85070A4F85270A068B0F5805F7B
:1037400004D1206910B90025B04602E035464FF09B
:10375000000800BF002084F8700000BF1DE0534641
:10376000002280212046CDF8009008F0C8FA08B168
:103770000320CAE745B9B8F80000C0F30800216883
:10378000088508F1020803E02878216808856D1C87
:10379000B4F85200401EA4F85200B4F852000028B9
:1037A000DDD15346002240212046CDF8009008F09C
:1037B000A6FA08B10320A8E7202060670020A4E74C
:1037C0000220A2E718BCBDE8E08F0000064988424D
:1037D00002D10121054A11600549884202D1012127
:1037E000044A116070470000C4090020A0010020B5
:1037F000440A0020FC0100200246D06908408842AB
:1038000001D1012070470020FCE7000008E005A07E
:1038100009F0A6FE10A009F0A3FE0120FDF79AFD15
:10382000F5E700003E3E3E3E3E3E3E3E3E3E3E3ED4
:103830003E3E3E3E3E3E3E3E3E3E3E3E3E3E3E3EA8
:103840003E3E3E3E44454255473A20486172642020
:103850004661756C740D0A000D0A00000146E029EE
:1038600001DD002070470120FCE7000003480078DC
:10387000002801DD012070470020FCE7F002002055
:1038800030B5044620468C4201DD254600E00D4659
:10389000284630BD10B5FDF753FB154815490860A3
:1038A00015484860154888601548C860154816498D
:1038B000086002220F4800F0D5F902201349087071
:1038C00000200871084600F08DFD044607200F49CE
:1038D000087001200871084600F084FD04460020AD
:1038E0000A4908700871084600F07CFD044610BDC6
:1038F000E95000080405002011510008395400085F
:10390000C9540008250F00080801002014050020F4
:1039100010B52148006858B9FDF706FB04460AF0C7
:10392000ABFA6FF07E4100200AF060FA1A49086095
:1039300003201A4908701A484860084600F052FDF2
:103940001849087004201549087013480068486039
:10395000084600F047FD1349087005200F4908701C
:1039600011484860084600F03DFD0E4908700620E9
:103970000A4908700D484860084600F033FD0949BF
:1039800008700120054908700871084600F02AFDFA
:103990000449087010BD00005C01002014050020DF
:1039A0001A5EAA00650100203901002049010020AB
:1039B00010B588B001208DF80000684600F038FC92
:1039C00004461CB14FF0FF3008B010BD9DF8040054
:1039D00020B9FFF79DFF4FF0FF30F5E7484800782A
:1039E000012873D1FF20474908700120487010203A
:1039F000887045480078C87043484078087142484C
:103A0000807848714048C07888713F480079C87113
:103A10003D48407908723C48807948723A48C079FC
:103A20008872AA20C8720C203849087003A9374848
:103A3000007800F0ADFF48B100208DF810000021A3
:103A40000691ADF81C108DF81E1026E03048007865
:103A500080B900208DF810002E4800788DF81400F1
:103A60002849069129480178ADF81C1000218DF8ED
:103A70001E1012E001208DF81000264800788DF805
:103A800014002049069121480178ADF81C10082146
:103A90008DF81F1000218DF81E1004A800F00AFBFD
:103AA0000446A4B91C4807F071FD07F0CBFC1B4885
:103AB0000068401C194908601948016819A009F0FC
:103AC0004FFD20A009F04CFD00207DE715E0012C02
:103AD00007D11DA009F044FD1AA009F041FDA01E68
:103AE00072E70E482146026826A009F039FD15A0AC
:103AF00009F036FD4FF0FF3066E7012064E7000073
:103B00006401002010040020E90100206101002070
:103B10006301002060010020789000200C0100204B
:103B2000DC0200203E3E494E464F3A204672616D0F
:103B3000652025642053656E742053756363657337
:103B4000730000000D0A00003E3E3E3E3E3E3E3EFB
:103B50003E3E3E3E3E3E3E3E3E3E3E3E3E3E3E3E85
:103B60003E3E3E3E3E3E3E3E44454255473A204C58
:103B70006F52614D414320537461747573204275D7
:103B8000737900003E3E3E3E3E3E3E3E3E3E3E3E61
:103B90003E3E3E3E3E3E3E3E3E3E3E3E3E3E3E3E45
:103BA0003E3E3E3E44454255473A204672616D6571
:103BB000204552524F522028256429282F25752947
:103BC000000000002DE9F04707460E4690461C46CF
:103BD000DDE9095ADDF820901C4880F8059001467F
:103BE0008C71200AC871200C0872200E48728D72E8
:103BF000280AC872280C0873280E4873CE7314481C
:103C0000FDF702F841461248FDF70FF810220F4960
:103C10000F48FDF713F8F2B239460D48FDF70EF8DC
:103C20000B490C48FCF713FF0A48C0780006094905
:103C3000897840EA01400749497840EA012005496E
:103C400009780843CAF80000BDE8F0872703002080
:103C5000DC880020C8870020014800687047000009
:103C6000080300202DE9FC4104460E46154614B910
:103C70000320BDE8FC81206828B1606818B1A06805
:103C800008B1E06808B90320F3E7284604F0C7F953
:103C900008B90A20EDE79F4804609F4806609F48E6
:103CA000057000209E4908709E4908709E49086072
:103CB0009E4908709E4908609E4908600B208DF857
:103CC000040001A99548007804F08FF9009000984D
:103CD00008B1012000E000209749087008208DF805
:103CE000040001A98D48007804F07FF90090009845
:103CF00040B29249087005208DF8040001A9874858
:103D0000007804F072F90090009840B28B49487036
:103D10000C208DF8040001A98048007804F065F9B2
:103D2000009086490098C8600D208DF8040001A914
:103D30007A48007804F059F90090804900980861A9
:103D40000E208DF8040001A97448007804F04DF9A4
:103D500000907A49009848610F208DF8040001A96D
:103D60006E48007804F041F9009074490098886129
:103D700010208DF8040001A96848007804F035F996
:103D800000906E490098C86113208DF8040001A9C5
:103D90006248007804F029F900906849009881F899
:103DA000210014208DF8040001A95C48007804F07B
:103DB0001CF9009061490098486215208DF80400B4
:103DC00001A95648007804F010F900900098C1B29B
:103DD0005A4880F828101A208DF8040001A94F488D
:103DE000007804F002F900905449009881F82C0002
:103DF0001B208DF8040001A94848007804F0F5F86C
:103E000000904E49009881F82D001C208DF8040088
:103E100001A94248007804F0E8F800909DED000AFE
:103E2000464880ED0C0A1D208DF8040001A93B488E
:103E3000007804F0DAF800909DED000A3F4880ED2C
:103E40000D0A00213548007804F0DDF801203B49D7
:103E500081F820000A204860062008720846406861
:103E6000374948603548007A08723448C068C860ED
:103E70003248006908613148406948612F488069CB
:103E800088612E48C069C8612C4890F8200081F8EC
:103E9000200004F05BF92B492B4807F07FFA4FF420
:103EA0007A71294807F024FB2849294807F076FA57
:103EB0002849294807F072FA2849294807F06EFA7C
:103EC0002849294807F06AFA07F05AFA2749086092
:103ED00027482849086028488860284808612848F9
:103EE00048602848C8602848016822488847264911
:103EF00048698047074609F0BFFF01202349087041
:103F00002148816D2148007888471F49C86A804749
:103F10000020AEE60C03002010030020B4020020B5
:103F200026030020D402002008030020D60200202F
:103F3000F8020020FC02002000030020B0860020D0
:103F40007886002029550008E88600209165000841
:103F500018870020E56300082C870020BD64000856
:103F600040870020D95400087C87002004030020EB
:103F7000ED610008FC860020FD580008156000086F
:103F8000A1630008CD6000086CF30008D502002092
:103F90002DE9F04104460D4616461F461048FCF731
:103FA00033FE31460E48FCF740FEEAB221460C488B
:103FB000FCF744FE0A490B48FCF749FD0948C07864
:103FC00000060849897840EA01400649497840EAF4
:103FD00001200449097808433860BDE8F0810000F9
:103FE000DC880020C88700202DE9FF4184B0074607
:103FF0000C461D46DDF8388006AEF02200211B4835
:1040000009F061F9194A1021384608F0CBFD102259
:104010000021684609F057F901208DF8000020685A
:10402000CDF80100A088ADF805003088ADF8070094
:104030000E4A2946684608F088FD1022002168468D
:1040400009F041F902208DF800002068CDF8010048
:10405000A088ADF805003088ADF80700034A414656
:10406000684608F072FD08B0BDE8F081E8870020DE
:104070002DE9F04107460D4616461C46F022002168
:104080000B4809F020F90A4A1021304608F08AFD51
:10409000074A2146384608F058FD102D06DB044A31
:1040A00004F1100107F1100008F04FFDBDE8F081A8
:1040B000E88700202DE9FF47044602274FF000085B
:1040C0004FF000094FF0000A1CB9032004B0BDE80E
:1040D000F0874E48006808B10120F7E70020019002
:1040E000142200214A4809F0EEF80120484948709E
:1040F00048490870207820B1012814D0032834D111
:1041000023E04FF0010A0120434908709DF80400A4
:1041100020F0E0004030019094F80480A568A68962
:1041200094F90E9022E04FF0010AE07B3A490870C2
:104130009DF8040020F0E0008030019094F80480A5
:10414000A568A68994F90E9010E04FF0010A0120AD
:10415000314908709DF8040020F0E000E030019043
:104160006568268994F90A9000E000BF00BF4046C8
:10417000FFF774FB08B90320A8E701208DF80C00B5
:10418000264890F82C008DF80E0003A924480078EA
:1041900003F02BFF02900298484501D2484600E008
:1041A00002984FFA80F9BAF1010F2DD11D4800781D
:1041B000A0B98DF80090194890F82C008DF80200F5
:1041C000042269461648007803F0B2FF20B19DF83A
:1041D00000001249487001E0032077E733462A4681
:1041E000414601A806F0BAFA074657B920780849AF
:1041F00008700D48007820F00100401C0A49087042
:1042000002E000200949087038465FE708030020F3
:10421000A88700201D0300201C03002078860020B2
:10422000B4020020E702002026030020EC02002058
:104230007CB5044600250CB903207CBD20781F28DE
:1042400070D2DFE800F01014181C2024272A2E3228
:104250003E44564A62676B7074787C8088848C9088
:1042600094989CA0A60050480078207199E04F488F
:104270000078207195E04E480078207191E04D481B
:10428000006860608DE04C480068606089E04B48E1
:10429000606086E04A48606083E04A4800782071A8
:1042A0007FE04948007820717BE019208DF80400F8
:1042B00001A94648007803F098FE009000986060DD
:1042C0006FE04349D1E90901C4E9010169E04149CD
:1042D000D1E90901C4E9010163E017208DF8040068
:1042E00001A93A48007803F080FE009000986060D1
:1042F00057E016208DF8040001A93448007803F037
:1043000074FE0090009860604BE0314890F8200007
:10431000207146E02E48C068606042E02C48006989
:1043200060603EE03BE02A484069606039E0284830
:104330008069606035E02648C069606031E02548EA
:10434000407820712DE022484078207129E02148F2
:104350000078207125E01E480078207121E01E4879
:10436000006860601DE01D480068606019E01C483E
:104370000068606015E016484068606011E014480D
:10438000007A20710DE0124890ED0D0A84ED010ACB
:1043900007E0104890ED0D0A84ED010A01E00225C6
:1043A00000BF00BF284648E7D4020020E6020020F4
:1043B000E7020020C8020020CC0200205883002021
:1043C00068830020D5020020D6020020B40200201D
:1043D00078860020B0860020DC020020E002002069
:1043E000D00200207FB50446002514B9032004B094
:1043F00070BDBA48007800F0010008B10120F6E76E
:1044000020781F287DD2DFE800F010373B3F43477C
:10441000515B647C689BC0B3CDDADEEFF3F7FBEA57
:10442000E9E8E7E67CE5E4E3E2002079AC490870DE
:104430000846007820B1012806D002281AD104E0ED
:10444000A849C86A804715E014E00020A649087012
:10445000A449C86A8047A5480090A5484368027AE5
:1044600090F8280041B2A348007803F09EFD02F0C6
:10447000A1F800BF00BF2EE120799F4908702AE112
:1044800020799E49087026E19D496068086022E114
:104490009C49606808601EE1606828B110229A4853
:1044A0006168FBF733FF00E0032514E1606828B181
:1044B000102296486168FBF729FF00E003250AE116
:1044C0002079934908708748816D91480078884722
:1044D00001E120798F490870FDE0207A40B28DF823
:1044E0000400834890F82D008DF80500062201A9EC
:1044F0008048007803F01CFE00B37D48D4E9011227
:1045000000E0E6E0C0E9091275480078022816D1FB
:1045100079480078012812D17249C86A80477348E7
:10452000009073484368027A90F8280041B27148BD
:10453000007803F03AFD02F03DF800E00325CAE000
:10454000207A40B28DF80400694890F82D008DF86B
:104550000500062201A96748007803F0E9FD28B1AB
:104560006D48D4E90112C0E9091200E00325B2E068
:104570006068029001208DF80C0002A95D48007867
:1045800003F035FA00B90325A5E060680290002029
:104590008DF80C0002A95748007803F028FA00B9FA
:1045A000032598E02079012807DB20790F2804DC17
:1045B00020794F4981F8200000E003258BE04C4929
:1045C0006068C86087E04A496068086183E07AE013
:1045D00073E06CE065E060E05BE038E048E020E03C
:1045E0000EE009E004E0FFE741496068486172E0DD
:1045F0003F49606888616EE03D496068C8616AE073
:1046000020798DF80400052201A93A48007803F0CA
:104610008FFD20B19DF804003F49487000E003255C
:1046200059E020798DF80400314890F82C008DF87D
:104630000600042201A92F48007803F079FD20B17B
:104640009DF804002A49487000E0032543E02079E2
:104650008DF80400082201A92648007803F068FDBF
:1046600020B19DF804002C49087000E0032532E0D9
:1046700020798DF80400072201A91E48007803F074
:1046800057FD20B19DF804001949087000E003258A
:1046900021E02249606808601DE0214960680860E7
:1046A00019E01D49606848601149486013E02079AD
:1046B000194908720E4908720DE094ED010A0C4880
:1046C00080ED0D0A07E094ED010A134880ED0D0A14
:1046D00001E0022500BF00BF284688E6080300204D
:1046E000D40200206CF30008EC0200206887002050
:1046F00078860020B4020020E6020020E7020020B5
:10470000C8020020CC0200205883002068830020CB
:10471000D5020020D6020020B0860020DC02002056
:10472000E002002038B5044602250CB9032038BD4C
:104730004848006808B10120F9E70C2200214648EA
:1047400008F0C1FD012044494870207830B10128AB
:1047500040D002284FD003286DD15BE03D4800785F
:1047600000F01000102801D10120E0E7606818B1C6
:10477000A06808B1E06808B90320D8E703F0E6FCB8
:104780003648007820F00800083034490870207856
:10479000314908703249606808603249A068086091
:1047A0003149E0680860207C41B23048007802F06E
:1047B00075FC2F494870002000909DF8000020F003
:1047C000E000009000231A461946684605F0C6FF2F
:1047D000054631E02148007820F0080008301F49E4
:1047E000087020781C490870002211460220FCF74E
:1047F0009DFA054620E02078174908701748007890
:1048000020F00800083015490870A08806F0ACF8C0
:10481000054611E02078104908701048007820F013
:10482000080008300D490870227BA088A16806F0B6
:10483000D5F8054600E000BF00BF45B100200D4996
:1048400008700648007820F00800044908702846DF
:104850006DE7000008030020BC870020260300202D
:10486000B8020020BC020020C0020020B4020020D8
:1048700078860020EC0200202DE9FE4F04460D460C
:1048800016461F46DDE90D9ADDF830803B4632467C
:10489000294620468DE8000700F006F800F000B831
:1048A0001EBCBDE8E08F00002DE9F05F81460D469B
:1048B00093461E46DDF82C8000274FF0010AF022B7
:1048C00000212E4808F0FFFC2C4A1021584608F021
:1048D00069F92B490A9848718E71300AC871300CF9
:1048E0000872300E487281F80A804FEA1820C872A8
:1048F0004FEA184008734FEA1860487320E02049D7
:1049000081F80FA00AF101001FFA80FA1B4A1D4925
:104910001B4808F01AF900240AE0381919F80000B9
:104920001849095D48403A190C998854601C84B2B2
:10493000102CF2DBA5F1100085B207F11000C7B210
:10494000102DDCDA002D16DD0D4981F80FA00B4A81
:104950000C490B4808F0F9F800240AE0381919F856
:1049600000000849095D48403A190C998854601CB8
:1049700084B2AC42F2DB00F007B80000E887002008
:1049800037030020D887002030BCBDE8C09F00005E
:1049900070B588B006460C463248407802903148DF
:1049A0000078019030480078304909780844C5B251
:1049B00014B9032008B070BD00208DF814002C48F5
:1049C00000788DF815002B48006806902A4840783A
:1049D0008DF81C00284800788DF81D00264890F8B6
:1049E0002C008DF81E00234801AB02AA05A90090F7
:1049F0002248007802F03EFB1F4890F82C008DF80A
:104A000012009DF908008DF8110009208DF81000A2
:104A10001B480078012802D10A208DF8100004A953
:104A20001648007803F0E1FA03900398607060780C
:104A3000A84203DB6078401B207007E0607820709C
:104A40000025002008490870084908702A469DF989
:104A50000810304607F014FA08B90820AAE7002029
:104A6000A8E70000B0860020EF020020F00200203E
:104A7000E7020020E802002078860020B40200202F
:104A8000D602002000B5FFF7E7F808B9012000BD05
:104A90000020FCE710B5012251021848FCF776FD12
:104AA000012211031548FCF771FD0022042113486F
:104AB000FCF76CFD6420FCF74DFC012204210F483B
:104AC000FCF764FD00F0CEF808B9FCF78BFB002082
:104AD00000F056F8802000F045F8012000F050F872
:104AE0000021402000F090F80021412000F08CF8D7
:104AF000034800F053F8012010BD000000040048F6
:104B00006035081C1CB5044600949DF8000000F0B8
:104B10007F00009000224FF480511048FCF736FDD2
:104B20000120FCF717FC0523012269460C48FDF71C
:104B3000F0FF08B1FCF756FB0523012201A9084844
:104B4000FDF71AFF08B1FCF74DFB012211030348E2
:104B5000FCF71CFD9DF804001CBD0000000400488B
:104B6000D805002070B505460120FFF7CBFF0446AD
:104B700004F07F042C432146012000F045F870BD6D
:104B800070B505460120FFF7BDFF044604F0F804A8
:104B90002C432146012000F037F870BD30B52DEDD3
:104BA000048B81B005462846FBF78CFD41EC190BC0
:104BB0009FED130B53EC102BFBF704FD41EC180B8E
:104BC000FBF7ACFD0446200C8DF80000200A8DF8A0
:104BD0000100E0B28DF802009DF80010062000F000
:104BE00013F89DF80110072000F00EF89DF8021050
:104BF000082000F009F801B0BDEC048B30BD0000C6
:104C00000000000080844E4013B582B00446019439
:104C10009DF8040040F08000019000224FF4805184
:104C20000E48FCF7B3FC0120FCF794FB052301229E
:104C300001A90B48FDF76DFF08B1FCF7D3FA052376
:104C4000012203A90648FDF764FF08B1FCF7CAFA80
:104C5000012211030148FCF799FC1FBD0004004824
:104C6000D80500201CB5002400200190009000BF52
:104C7000154808F075FC15A008F072FC42208DF86C
:104C800000009DF80000FFF73DFF8DF804009DF83F
:104C900005209DF804100EA008F062FC0BA008F09F
:104CA0005FFC641C9DF80400122801D0032CDFDB9C
:104CB000032C01DA01201CBD13A008F051FC03A055
:104CC00008F04EFC0020F6E79CF400080D0A0000F6
:104CD0003E3E3E3E3E3E3E3E3E3E3E3E3E3E3E3EF4
:104CE0003E3E3E3E3E3E3E3E3E3E3E3E3E3E3E3EE4
:104CF00044454255473A20535049322049443A20CE
:104D000025782025782000003E3E5741524E494EDE
:104D1000473A204C6F5261206973206E6F74206493
:104D2000657465637465642E2E2E000000B5A5B011
:104D3000002023902490012123A808F044FC1F495F
:104D400008601C221E491CA8FBF7E0FA00211CA8E1
:104D500008F05EFC1B4908601C2219491C3115A88B
:104D6000FBF7D4FA002115A808F052FC1649086098
:104D70001C22134938310EA8FBF7C8FA00210EA8EF
:104D800008F046FC114908601C220D49543107A85F
:104D9000FBF7BCFA002107A808F03AFC0C490860B0
:104DA0001C22074970316846FBF7B0FA00216846BB
:104DB00008F02EFC0749086025B000BD2402002041
:104DC0006CEE0008100200201402002018020020DF
:104DD0001C0200202002002000B587B0142102A888
:104DE000FBF7ADFA00BF5148C06C40F004004F49DA
:104DF000C8640846C06C00F00400019000BF00BF0A
:104E000000BF0846C06C40F08000C8640846C06C13
:104E100000F08000019000BF00BF00BF0846C06CDA
:104E200040F00100C8640846C06C00F00100019029
:104E300000BF00BF00BF0846C06C40F00200C8645D
:104E40000846C06C00F00200019000BF00BF0022C5
:104E50004FF400513648FCF799FB0122E0214FF056
:104E60009040FCF793FB012211463248FCF78EFB81
:104E700000224FF49C512F48FCF788FB00224FF48E
:104E800000414FF09040FCF781FB4FF4005002903E
:104E90000120039000200490059002A92448FCF70B
:104EA00091FA40F21F10029000200390049002A992
:104EB0004FF09040FCF786FA48F2E00002900120A3
:104EC000039004900020059002A94FF09040FCF759
:104ED00079FA81200290012003900490002005902F
:104EE00002A91448FCF76EFA0420029000200390F7
:104EF000049002A90F48FCF765FA4FF4985002900D
:104F00000120039000200490059002A90948FCF7B5
:104F100059FA40200290002003900120049002A939
:104F20000448FCF74FFA07B000BD00000010024033
:104F3000000800480004004810B5114811490860F5
:104F40004FF48270486000210E4881604FF4E061A8
:104F5000C1600021016141614FF40071816118213C
:104F6000C16100210162416281620721C1620021A9
:104F700001634163FDF732FC08B1FCF733F910BD62
:104F8000003001407405002010B511481149086037
:104F90004FF48270486000210E4881604FF4E06158
:104FA000C1600021016141614FF4007181611821EC
:104FB000C16100210162416281620721C162002159
:104FC00001634163FDF70AFC08B1FCF70BF910BD62
:104FD00000380040D805002010B513481349086078
:104FE0000720486042F20F711048C1600021016142
:104FF00081608161FDF7FDFF08B1FCF7F3F80B4814
:10500000FEF712F800200A490860801E0749096867
:10501000086100200549096848620448FEF726F83F
:1050200008B1FCF7DFF810BD00140040840900202F
:105030009401002010B50D480D4908604FF416503A
:10504000486000210A488160C16001610C21416112
:1050500000218161C1610162002005494862084662
:10506000FEF7F0F908B1FCF7BDF810BD00380140BB
:10507000C409002010B50D480D4908604FF41650C2
:10508000486000210A488160C16001610C214161D2
:1050900000218161C1610162002005494862084622
:1050A000FEF7D0F908B1FCF79DF810BD00480040AC
:1050B000440A002010B50A480A49086008204860E0
:1050C0000221084881600161002141618161C16163
:1050D0000162FCF76FFB08B1FCF784F810BD00001B
:1050E00000680040C40A0020417859B9017821B114
:1050F000012903D0032903D101E002E001E000E02F
:1051000000BF00BF0121014A1170704764010020F7
:1051100010B58CB00446607808B10CB010BD207892
:1051200030B1012805D0022805D0032804D101E0C0
:1051300003E002E001E000E000BF00BF8648007825
:10514000012804D184488089401C83498881607B80
:10515000012869D1207B002866D0E0787F4908705B
:1051600008460078E02824DA7D49A0680860207BA2
:105170007C490870084601787B4808F0F1F97BA06B
:1051800008F0EEF976480068C0780090744800682E
:1051900083787348006842787148006801787448E1
:1051A00008F0DEF971A008F0DBF901207149086010
:1051B000CFE06A480078E028FAD16748007890BBD1
:1051C000207B0428F4D1A06800780128F0D1A068E1
:1051D00040780128ECD1A06880780128E8D1A06847
:1051E000C0780128E4D1002063490870E0206349B9
:1051F00008706348007863490870022060490870AD
:105200000020554988818873C8730874012008708C
:10521000487002208DF8240001208DF8280009A88C
:10522000FFF7E0F895E000E086E057A008F098F975
:105230004EA008F095F9A0680078474948700846E4
:105240004078072876D2DFE800F0041C20262D479E
:105250004E0000204849087002204849087049481B
:1052600000784749087000203B4988810870022077
:105270008DF8240000208DF8280009A8FFF7B2F867
:1052800059E002203E49087055E001203A49087073
:10529000314948704FE000203749087001202E49FD
:1052A000487048E0207B3649087004204649087061
:1052B000012006E0A168095C491C434A1154411CC5
:1052C000C8B22F490978F22902DA2D49097800E09D
:1052D000F2218142EEDC2EE001208DF8100004A8BE
:1052E000FFF720FA27E00020234908700220234915
:1052F00008702448007822490870002016498881E7
:10530000087002208DF8040000208DF8080001A824
:10531000FFF768F800208DF810002C4805902C4904
:1053200006912C490791002104A80174FFF7FAF9AE
:1053300001E0FFE700BF0CE027A008F011F90BA087
:1053400008F00EF9217B2DA008F00AF907A008F05B
:1053500007F900BFE1E60000200500201801002049
:10536000140100201001002034F500080D0A00008F
:10537000E0F40008E4010020630100206001002047
:1053800061010020620100203E3E3E3E3E3E3E3E28
:105390003E3E3E3E3E3E3E3E3E3E3E3E3E3E3E3E2D
:1053A0003E3E3E3E3E3E3E3E44454255473A204309
:1053B0006F6D706C69616E6365546573742072758E
:1053C0006E6E696E67000000100400201901002055
:1053D00021010020290100203E3E494E464F3A203F
:1053E0004E6F206E6577206D65737361676520660B
:1053F000726F6D204C6F526157414E003E3E3E3EF3
:105400003E3E3E3E3E3E3E3E3E3E3E3E3E3E3E3EBC
:105410003E3E3E3E3E3E3E3E3E3E3E3E4445425584
:10542000473A204275666665722053697A65203D69
:105430002025640000BFFEE710B586B00446207842
:1054400010B101282CD11EE0607818B9022018494B
:10545000087017E000208DF80400164802901649E5
:1054600003911649049100218DF8141001A8FFF74B
:1054700059F918B904200E49087002E003200C49BC
:10548000087000BF0DE0607848B90D480078012829
:1054900005D10B498873207AC873607A087400E0DC
:1054A00000BF00BF01200749087006B010BD000012
:1054B0000401002019010020210100202901002001
:1054C00020050020640100200178042900D100E0BB
:1054D00000BF00BF7047704710B50D4806F056F882
:1054E0000C480078012807D10B4908700B48006868
:1054F00020F004000949086009480078022806D114
:105500000848007820F0200020300649087010BDBF
:105510007C870020EC0200201E03002008030020EE
:10552000D4020020260300201CB5DE4806F02EF829
:105530000024DD480078C0F3401000287ED0DB480E
:1055400008F00EF8DAA008F00BF8DA48007800F05E
:10555000400040280AD1D748006820F04000D549D3
:1055600008600846006820F001000860CE48007816
:10557000C0F3C00020B9CC48007800F00100C0B1F1
:10558000CD484078022803D0CC484078022810D17A
:10559000C848006820F00100C64908600020C849DA
:1055A0000870C8480078C4494871002008718860B4
:1055B0000124C5480078002858D1002C56D1BA489B
:1055C0000078C0F3C00028B9B748007800F00100A7
:1055D00000284BD0B4480078C0F3C00088B1B74869
:1055E000007870B9B548407820B90020B749086004
:1055F000B7490870AF48006820F00100AD49086065
:1056000034E0B44890F82000B1490978884204DDBC
:10561000A5480078C0F3400000B3A3480078C0F369
:10562000400038B90020A6490870AB480068401C0B
:10563000A94908600020A649087000E07FE0A7485B
:10564000007820B9A1480068401CA049086099482A
:10565000006820F001009749086007E09248007850
:1056600020F020009049087000F092FF8E480078EA
:10567000C0F3400000B390480079012805D091485C
:10568000007897490978884216DD0020954908700E
:105690008D4908709148007820B98C480068401CFA
:1056A0008A490860874800788349487181480068C2
:1056B00020F001007F4908608A48007801287CD1E9
:1056C0007C48007800F01000002876D185490870E9
:1056D0007C48007882490978884251DA7948007814
:1056E00008284DDC77480078401C76490870087817
:1056F00000EBD0714910A0EB4101012915D11E200A
:105700008DF80400734890F82C008DF8060071485D
:1057100040788DF8050001A97348007802F065FC17
:105720000090009840B26B494870012004F054FF8B
:1057300030B95D48007820F020005B4908703CE0FB
:1057400009205D49487000205D490870594800688B
:1057500020F001005749086000205B490870564955
:1057600008715848007848715A48407888705B48FA
:10577000007810BB55480068401C544908601CE084
:1057800001215948007802F03EFC4A48006820F0A8
:105790000100484908600020494908704A490870DA
:1057A000454908714748007848714C48007820B94D
:1057B00046480068401C454908603E48007800F0B3
:1057C0000200022805D13B48006820F00200394958
:1057D00008603848006858BB3348007800F0010082
:1057E00050B13148007820F001002F4908703F483F
:1057F00000680168304888472B480078C0F3C00033
:1058000050B12948007820F008002749087037482F
:105810000068816829488847FEF728F808B105F034
:1058200093F82148007820F020001F49087007E015
:105830004FF47A711B4805F05BFE1A4805F062FED2
:1058400019480078C0F34000D8B11748007820F01C
:1058500002001549087026480078022801D100F09E
:10586000A9FE11480078C0F3800020B91F480068E5
:105870004168204888470C48007820F004000A4915
:10588000087009480078C0F3001050B1064800784D
:1058900020F010000449087014480068C1681648D8
:1058A00088471CBDE88600202603002040F600083B
:1058B0000D0A000008030020A8870020BC870020F4
:1058C000EF0200201D030020EC020020DC0200207B
:1058D000F102002078860020E8020020E402002087
:1058E0001C0300201E030020B40200200C03002033
:1058F000D402002090870020240300202DE9FF4FD0
:1059000095B005460C46F2A007F02AFEFEA007F06F
:1059100027FE4FF00008C346C246FF200E9000202D
:105920000D900C9000270B900A900990002681465C
:10593000F6480890F6480790002006900590F54933
:105940000871F5491798C88118980874F3480078C9
:1059500048740020C8708870487188600873487364
:10596000887448610870EE49C86A8047ED4805F0C0
:105970000DFE414608F10108685C14909DF8500046
:105980004009012806D003287ED005287DD00728AD
:105990007CD1DDE2E4480078012806D1DE49487078
:1059A00001F066F819B000F031BB601E81B2DF4B28
:1059B000DF480268681CFEF75BFB9DF85000DB497E
:1059C000491E0870201F81B20CABD9480268D74825
:1059D000401EFEF7DDFA201FD449491E085C07432C
:1059E000E01E085C47EA0027A01E085C47EA004763
:1059F000601E085C47EA00670C9887427CD1C44867
:105A0000C24B0090CB480288491CC9480068FEF789
:105A1000EBFAC648401E0079C7490860C348401EDB
:105A20004079096841EA0020C3490860BF48401E28
:105A30008079096841EA0040BF490860BB48401EC0
:105A4000C079BE490860B948401E007A096841EA39
:105A50000020BA490860B548401E407A096841EA0A
:105A60000040B6490860B148401E807A096841EAA2
:105A70000060B2490860AD48401EC07AC0F3021011
:105A8000AF4981F8210002E03BE039E078E2A74825
:105A9000401EC07A00F00F01A94880F82810A348E2
:105AA000401E007B00F00F00A54908610846006910
:105AB00008B901200861A24800694FF47A7148438F
:105AC0009F4908610846006900F57A704861974867
:105AD0000C301190A4F11100C0B28DF8480011A94A
