:020000040800F2
:10000000E0E0002081020008FF4C00080B380008E7
:100010005D4C0008AD0F0008FFB5000800000000AF
:10002000000000000000000000000000A101000826
:10003000A911000800000000FD010008C1A8000887
:100040009B0200089B0200089B0200089B0200081C
:100050009B0200089B020008DD110008F311000854
:10006000FD11000807120008111200089B02000889
:100070009B0200089B0200089B0200089B020008EC
:100080009B0200089B0200089B0200089B020008DC
:100090009B0200089B0200089B0200081B1200083C
:1000A0009B0200089B0200089B0200089B020008BC
:1000B0009B02000800000000000000009B020008F6
:1000C0009B0200089B0200089B0200089B0200089C
:1000D0009B02000801B500089B02000811B500084A
:1000E000E71100089B02000800000000000000006B
:1000F0000000000000000000000000000000000000
:10010000000000009B020008000000009B020008A5
:1001100000000000000000009B02000829AA00085F
:100120009B0200089B0200089B0200089B0200083B
:100130009B0200080000000000000000000000001A
:100140009B0200089B0200089B0200089B0200081B
:100150009B0200089B0200089B0200089B0200080B
:100160009B0200089B0200089B02000800000000A0
:100170009B0200089B0200089B0200080000000090
:100180009B0200089B0200089B020008DFF80CD0CD
:1001900000F03CFC0048004741C70008E0E00020B8
:1001A0002C4B1968086800F05AB880F30988BFF32F
:1001B0006F8F4FF0000080F311887047000000003F
:1001C00008480068006880F308884FF0000080F35A
:1001D000148862B661B6BFF34F8FBFF36F8F00DF35
:1001E00000BF00BF08ED00E0DFF80C00016841F43B
:1001F00070010160704700BF88ED00E0EFF30980F7
:10020000BFF36F8F134B1A681EF0100F08BF20ED5D
:10021000108A20E9F04F106009B44FF0500080F3CD
:100220001188BFF34F8FBFF36F8F0DF093FB4FF02B
:10023000000080F3118809BC1968086800F014B840
:100240001EF0100F08BF00F014B880F30988BFF348
:100250006F8F7047DC010020EFF30580704730C8D6
:10026000B0E8C04FFFF7A1BF30C8B0E8C04FFFF7FC
:10027000E7BFB0EC088AB0EC08CAFFF7E6BF0000A1
:100280000648804706480047FEE7FEE7FEE7FEE730
:10029000FEE7FEE7FEE7FEE7FEE7FEE7ADA90008A2
:1002A0008D0100082DE9F05F0546002092469B462F
:1002B00088460646814640241BE02846414647467C
:1002C000224600F0C8FA53465A46C01A914110D34C
:1002D00011461846224600F0AFFA2D1A67EB0108C6
:1002E0004F4622460120002100F0A6FA17EB000934
:1002F0004E41201EA4F10104DFDC484631462A4667
:10030000434600F000B830BCBDE8C09F40EA01039E
:100310009B0703D009E008C9121F08C0042AFAD2BB
:1003200003E011F8013B00F8013B521EF9D270477F
:10033000D2B201E000F8012B491EFBD27047002227
:10034000F6E710B513460A4604461946FFF7F0FFD4
:10035000204610BD10B5044604E00B7800F8013BC0
:1003600003B1491C521EF8D2204610BD421C10F8A1
:10037000011B0029FBD1801A704730B504460020CC
:10038000034600E05B1C934203D2E05CCD5C401B63
:10039000F8D030BD30B505460020034600E05B1CB8
:1003A000934205D2EC5CC85C201A01D1002CF6D136
:1003B00030BD2DE9FE4F804681EA0300C00F0C4698
:1003C000009021F0004123F00045B8EB0200A94164
:1003D00005D24046214690461C460B46024623F075
:1003E0000040104347D0270DC7F30A00C3F30A515A
:1003F0000290401A019040286BDAC3F3130040F4D6
:10040000801B0098924620B10023D2EB030A63EBD5
:100410000B0B01985946C0F14002504600F00CFA0F
:1004200006460D4650465946019A00F024FA10EB54
:1004300008006141002487EA115284EAE7731A43F5
:1004400040D0009A62B3019A012A4FEA075215DCA4
:10045000001B61EB02014FF0004202EA0752CDE9B6
:100460000042001C41F5801132462B4600F024FA70
:1004700003B000F045B840462146F9E7001B61EBA8
:100480000201001C41F5801300185B412018A2F501
:10049000001747EB030140EAD570B6196D4111E032
:1004A0006D084FEA360645EAC0754FEA0752001B51
:1004B00061EB0201001C41F5801149084FEA300050
:1004C0000019514132462B4603B000F01CB800F031
:1004D000E4B90098012240000023D0EB020263EB54
:1004E000E073009821464FEAE074B8EB000061EB3E
:1004F0000401E9E783F000435BE781F0004158E73E
:1005000030BCBDE8C08F30BCBDE8C04FFFF7DFBFD7
:100510002DE9FE4F81EA030404F0004421F000417C
:1005200000944FF0000B23F0004350EA01045ED02A
:1005300052EA03045BD0C3F30A54C1F30A552C44B6
:10054000A4F2F3340194A0FB0254C1F3130141F46B
:100550008011C3F3130343F4801301FB024400FB37
:10056000034E840A970A44EA815447EA8357A4FB5E
:10057000076802958D0A05FB07854FEA932C04FB5B
:100580000C542705029D4FEA065847EA1637B5EB8B
:1005900008056EEB070C870E920E47EA811742EAB8
:1005A0008312A7FB0201B6EB0B0164EB00042B0DD9
:1005B00043EA0C335E1844EB1C50DA465146E7FB25
:1005C0000201C5F313044FEA0B3343EA14534FEA15
:1005D0000432019C43EA0603A4F10C040294009C3B
:1005E000CDE900B400F068F903B000F003B80020D2
:1005F0000146F9E730BCBDE8C08F2DE9F04D81EA36
:10060000030404F0004B21F0004514464FF0000AAB
:1006100023F0004150EA050220D054EA01021DD027
:10062000C5F30A570246C5F31303C1F31300C1F320
:100630000A5640F4801543F48013A7EB0608101BFC
:10064000D64608F2FD3873EB050002D308F1010825
:1006500001E092185B41B8F1000F03DA0020014677
:10066000BDE8F08D00204FF48011064684460EE070
:10067000171B73EB050705D3121B63EB050306433A
:100680004CEA010C49084FEA300092185B4150EAED
:100690000107EDD152EA030012D082EA040083EA96
:1006A0000501084305D0101BAB4106D201220023EF
:1006B00006E000224FF0004302E06FF00102531009
:1006C0001AEB06004CEB085110EB0A0041EB0B0152
:1006D000BDE8F04D00F0E1B80EB5C10F80EAE07062
:1006E0000844CA07002140F233438DE80E000A4651
:1006F0000B4600F0E1F803B000BD0EB540F2334107
:1007000002910021CDE900110A460B4600F0D4F811
:1007100003B000BD70B5C1F30A5201F000450024DA
:10072000C1F3130140F2FF3341F480119A4201DA20
:10073000002070BD40F233439A42A2F2334203DC00
:10074000524200F088F800E090402C43F1D0404243
:1007500070BDC1F30A5210B5C1F3130140F2FF336B
:1007600041F480119A4201DA002010BD40F2334377
:100770009A42A2F2334203DC524200F06CF810BD00
:10078000904010BD00F0004230F000400AD0C10D92
:1007900001F56071C0F3160042EA0151C20840073A
:1007A00011437047002001467047000030B5041E19
:1007B00071F1000404DB4FF00044404264EB01019E
:1007C000141E73F1000405DB1C464FF00043524237
:1007D00063EB04038B4208BF824230BD30B5041E78
:1007E00071F1000404DB4FF00044404264EB01016E
:1007F000141E73F1000405DB1C464FF00043524207
:1008000063EB0403994208BF904230BD30B50B46FC
:10081000014600202022012409E021FA02F59D4230
:1008200005D303FA02F5491B04FA02F52844151E04
:10083000A2F10102F1DC30BD202A04DB203A00FAEB
:1008400002F1002070479140C2F1200320FA03F327
:10085000194390407047202A04DB203A21FA02F025
:100860000021704721FA02F3D040C2F120029140EA
:10087000084319467047202A06DBCB17203A41FA75
:1008800002F043EAE07306E041FA02F3D040C2F11D
:100890002002914008431946704710B5141E73F1A9
:1008A000000408DA401C41F1000192185B411A4330
:1008B00001D120F0010010BD2DE9F04D92469B467C
:1008C00011B1B1FA81F202E0B0FA80F22032904622
:1008D000FFF7B2FF04460F4640EA0A0041EA0B0167
:1008E00053465A46084313D0114653EA010019D023
:1008F000C8F140025046FFF7AEFF05460E4650468F
:1009000059464246FFF798FF084305D0012004E00E
:1009100020463946BDE8F08D0020054346EAE076E2
:100920002C4337430A986305E40AA0EB0800002231
:10093000FD0A44EA47540A3002D500200146E9E79F
:10094000010510196941DDE9084500196941BDE853
:10095000F04DA2E72DE9F041054621F000400C469C
:10096000284309D0C4F30A5040F23341884205DDE0
:1009700028462146BDE8F0812846FBE740F2FE31DB
:10098000884210DC0CDB4FEA043040EA155050EA94
:10099000053105D0104804F0004101430020E9E78B
:1009A00000200146E6E7A0F233404642C6F140028D
:1009B00028462146FFF740FF07468846284621463D
:1009C0003246FFF748FF43463A46FFF766FF324696
:1009D000BDE8F041FFF730BF0000F03FC1F30A521D
:1009E000C1F3130140F2FF3341F480119A4202DA5D
:1009F00000200146704740F233439A42A2F233424C
:100A000002DC5242FFF727BFFFF716BF064C074D27
:100A100006E0E06840F0010394E8070098471034CE
:100A2000AC42F6D3FFF7B6FBACEB0008CCEB00080A
:100A300070B58C1810F8015B15F0070301D110F8A0
:100A4000013B2A1106D110F8012B03E010F8016BCD
:100A500001F8016B5B1EF9D12B0705D40023521E50
:100A60000DD401F8013BFAE710F8013BCB1A921CB8
:100A700003E013F8015B01F8015B521EF9D5A142B6
:100A8000D8D3002070BD30B589B005460C46102281
:100A9000002105A80BF08DFF224605A905A80BF043
:100AA00018FC9DF8140000F08000E8B100BF0020A1
:100AB0000AE005A9095C4A0005AB411C595C42EA01
:100AC000E11105AA1154401C0F28F2DB9DF82310F8
:100AD0004906090E8DF8231000BF9DF8230080F011
:100AE00087008DF8230016E000BF00200AE005A96A
:100AF000095C4A0005AB411C595C42EAE11105AAB8
:100B00001154401C0F28F2DB9DF823104906090EF2
:100B10008DF8231000BFD4F8140110280FD100BFA6
:100B2000002009E004F20111095C05AA125C5140A1
:100B300004F201121154401C1028F3DB5DE09DF813
:100B4000140000F08000E8B100BF00200AE005A911
:100B5000095C4A0005AB411C595C42EAE11105AA57
:100B60001154401C0F28F2DB9DF823104906090E92
:100B70008DF8231000BF9DF8230080F087008DF8CA
:100B8000230016E000BF00200AE005A9095C4A0026
:100B900005AB411C595C42EAE11105AA1154401C05
:100BA0000F28F2DB9DF823104906090E8DF823105B
:100BB00000BF802104F20110D4F81421815405E013
:100BC000002104F20110D4F814218154D4F8140146
:100BD000401CC4F814011028F2D300BF002009E023
:100BE00004F20111095C05AA125C514004F20112E1
:100BF0001154401C1028F3DB00BF00BF00200AE0A6
:100C000004F1F101095C04F20112125C514004F19B
:100C1000F1021154401C1028F2DB00BF102204F135
:100C2000F10101A80BF0ABFE2246294601A80BF00A
:100C300050FB1022002105A80BF0BBFE09B030BD0F
:100C400010B504461022002104F1F1000BF0B1FEB2
:100C50000020C4F81401F022002120460BF0A9FE68
:100C600010BD70B504460D462246102128460BF0F3
:100C70005DFB70BD2DE9FF4104460F461546D4F8D3
:100C8000140100283BD0D4F81401C0F11000A84290
:100C900004D2D4F81401C0F1100000E02846064642
:100CA000B2B204F20111D4F81431581839460BF0DD
:100CB00066FED4F814013044C4F81401D4F81401C9
:100CC000102801D3B54201D100F048B800BF002080
:100CD0000AE004F1F101095C04F20112125C5140D6
:100CE00004F1F1021154401C1028F2DB00BF22462F
:100CF00004F1F10108460BF0ECFA3744AD1B21E09A
:100D000000BF002008E004F1F101095C3A5C5140A9
:100D100004F1F1021154401C1028F4DB00BF102232
:100D200004F1F10168460BF02AFE22466946684646
:100D30000BF0CFFA1022694604F1F1000BF01FFE10
:100D40001037103D102DDBD8AAB2394604F201103D
:100D50000BF015FEC4F8145100BFB5E703BCBDE8A5
:100D6000FC8100002DE9F04104460E4617464FF085
:100D700001086B480078C0F18000C5B2A01E0928A8
:100D800072D2DFE800F005142B3A5372899AA90059
:100D900064480078A84209DA624801780078401C6B
:100DA000604A1070604844544FF00008AFE0681E7D
:100DB0005C490978884210DD5A4801780078401C67
:100DC000584A107058484454104601780078401C26
:100DD0001070554846544FF0000898E0514800788C
:100DE000A84209DA4F4801780078401C4D4A10703B
:100DF0004D4844544FF0000889E0681E494909787D
:100E0000884212DD474801780078401C454A10703E
:100E100045484454104601780078401C1070424800
:100E2000465409F09FF84FF0000870E0A81E3D49B5
:100E30000978884217DD3B4801780078401C394A20
:100E4000107039484454104601780078401C1070E6
:100E500035484654104601780078401C10703248DE
:100E600047544FF0000852E04EE0681E2D490978C3
:100E7000884210DD2B4801780078401C294A107008
:100E800029484454104601780078401C10702648C8
:100E900046544FF000083AE022480078A8420BDAA6
:100EA000204801780078401C1E4A10701E484454A7
:100EB00009F058F84FF0000829E01A480078A842D5
:100EC00009DA184801780078401C164A1070164854
:100ED00044544FF000081AE012480078A84212DA91
:100EE000104801780078401C0E4A10700E48445497
:100EF000104601780078401C10700B48465409F0E9
:100F000031F84FF0000802E00220BDE8F08100BF98
:100F1000B8F1000F02D10120044908704046F4E7FF
:100F2000900200208F020020868500208E02002083
:100F300072B603480078401C0149087070470000F1
:100F40004D03002004480078401E034908700846FD
:100F5000007800B962B670474D030020002070474A
:100F60000448006D0349496D48400249496E4840B4
:100F7000704700000000F81F1C210A4880F87C1010
:100F800090F87C0000F00F010120884081B20548F4
:100F9000A0F87E100449C0F88010012180F8861066
:100FA000704700009C8F00200004004800BFFEE74F
:100FB00070B50546002007490870002404E0285D4C
:100FC00000F0D4F8601CC4B2042CF8DB01480078AF
:100FD00070BD0000480000203EB50446124800786D
:100FE0008DF80000114800788DF802008DF803405C
:100FF0000F48006809F06EFD01900E4800680290ED
:101000000D4800788DF8010069460C48007806F01C
:1010100026F8084800680A490988484305490968CC
:10102000401A084908603EBD86020020A002002048
:10103000A4020020C0020020A302002054020020CD
:10104000940200209C0200202DE9F04104460D4648
:1010500016461F46DDF818802CB9022D0ED108481F
:1010600009F03AFE0AE0012E03D1054809F034FEEA
:1010700004E0474502DD024809F02EFEBDE8F0819C
:101080008C87002030B50246002300200AE00124AE
:101090008440144001258540AC4201D15C1CE3B280
:1010A000441CE0B28842F2DB184630BD2DE9F84F0F
:1010B00007468846164699464FF0000AD346002553
:1010C0000020009047E000243CE0009838F8100031
:1010D0000121A140084090B3281900EB400056F8C8
:1010E000200000B92CE0281900EB400006EB80003E
:1010F00090F908000211281900EB400006EB80006F
:10110000007A40F3030178B206F08AFA00B917E0DA
:10111000281900EB400006EB8000407A09EB001034
:10112000C06820B10BF1010000F0FF0B08E02819A6
:10113000C2B25046411C01F0FF0A0A990A5400BF8E
:10114000601CC4B2102CC0DB05F11000C5B20098C1
:10115000401CC0B20090602DB5DB0B9880F800B049
:10116000504600F000B818BCBDE8E08F10B5002173
:1011700015E00C4B1B7880EA03020A4B1B785B06D8
:101180001B0E084C237002F0800323B123461B780A
:1011900083F0070323704306180E4B1CD9B20829AD
:1011A000E7DB10BD48000020704710B5044620461C
:1011B00000F001F810BD10B50446204600F0E6F836
:1011C00010BD002107E0002200E0521C44F21A1377
:1011D0009A42FADB491C8142F5DB704710B50120C9
:1011E00000F0FEF810BD10B54FF4004000F0F8F824
:1011F00010BD10B5022000F0F3F810BD10B50420AA
:1012000000F0EEF810BD10B5082000F0E9F810BDB0
:1012100010B5102000F0E4F810BD704706E00AF0A9
:10122000ABF903A00BF012FD0AF096F9F7E7000006
:101230002121214572726F722048616E646C657263
:101240002121210D0A00000001460B4850F8210021
:10125000A0F5F430483840B1A0F5F430483830B14A
:10126000A0F57430903820B100BF002070470120F5
:10127000FCE70220FAE70000A4E60008024600218D
:1012800011E00B4850F8310090420AD8084B481C36
:1012900053F83000904204D9184600EBC1000079A1
:1012A0007047481CC1B21529EBD300BFFEE7000010
:1012B000F8E60008024600238A4201D1CBB201E0E1
:1012C000501EC3B258B270472DE9FC4704460D4684
:1012D00016461F46DDE90A893B4632462946204626
:1012E000CDE9008900F005F800F000B80CBCBDE8BD
:1012F000F08730B5DDE9034530BD70B504460D46D5
:101300000CB1606800B900BF94F90000401C00B93E
:1013100070BDEAB26188606800F054F900BFF7E779
:1013200070B504460D4629462046FFF7E6FF70BD1E
:1013300070B50446002594F82500022803D0042047
:10134000E063012520E02068006820F00E0021689D
:1013500008602068006820F001002168086094F8A7
:10136000440000F01C0101208840216C48600120ED
:1013700084F8250000BF002084F8240000BFA06B83
:1013800010B12046A16B8847284670BD70B5044651
:1013900000F01EF906462546681C10B10448006896
:1013A000054400BF00F014F9801BA842FAD370BDB9
:1013B000D401002070B504460025002C05DD02E0B4
:1013C0006410681CC5B2012CFAD1044850F82500FD
:1013D00018B1024951F82500804770BDC4040020AF
:1013E00010B5044604480068204020B1024804605B
:1013F0002046FFF7DFFF10BD1404014078B5034617
:101400000022CBE0012696400D6805EA0604002C78
:1014100072D04D68012D08D04D68022D05D04D6861
:10142000112D02D04D68122D13D198685600032556
:10143000B540A8435600CD68B54028439860586829
:1014400001259540A8430D79C5F300159540284323
:101450005860D86856000325B540A84356008D68EB
:10146000B5402843D8604D68022D02D04D68122D3A
:1014700013D1D60803F1200555F826005507EE0EC6
:101480000F25B540A8435607F60E0D69B540284311
:10149000D60803F1200545F82600186856000325F4
:1014A000B540A8430D7905F003055600B540284323
:1014B00018604D6805F08055B5F1805F6DD100BFB3
:1014C000394D2D6E45F00105374E356635462D6E8A
:1014D00005F00105009500BF00BF4FEAB63596083C
:1014E00055F8260095072E0F0F25B540A843B3F1F8
:1014F000904F02D1002515E04FE02C4DAB4201D1B9
:1015000001250FE02A4DAB4201D102250AE0294D09
:10151000AB4201D1032505E0274DAB4201D10425A3
:1015200000E007259607360FB5402843234D96085F
:1015300045F82600224D2868A0434D6805F4803503
:10154000B5F5803F00D120431D4D28602D1D286832
:10155000A0434D6805F40035B5F5003F00D12043A8
:10156000174D2D1D28602D1D2868A0434D6805F4DA
:101570008015B5F5801F00D12043114D0835286036
:101580002D1D2868A0434D6805F40015B5F5001F12
:1015900000D120430A4D0C352860521C0D68D540FF
:1015A000002D7FF42FAF78BD0010024000040048EA
:1015B00000080048000C00480010004808000140E6
:1015C000000401400AB1816100E0816270470000BF
:1015D0000148006870470000CC0100200348006803
:1015E000034909680844014908607047CC0100209C
:1015F000D401002010B50024032000F0ADF80F2026
:1016000000F008F808B1012401E000F02FF82046AE
:1016100010BD000070B50446002511480068D8B11F
:101620000F4800684FF47A71B1FBF0F00D4909687A
:10163000B1FBF0F6304601F0B9FC58B9102C07D2D6
:1016400000222146501E00F045F80748046004E0DF
:10165000012502E0012500E00125284670BD0000BB
:10166000D4010020D8010020D001002008B500BF1F
:101670000F48006E40F001000D4908660846006EF4
:1016800000F00100009000BF00BF00BF0846806D61
:1016900040F0805088650846806D00F080500090D2
:1016A00000BF00BF00220F21901E00F013F808BDFC
:1016B0000010024001460846002809DB00F01F0325
:1016C00001229A4043099B0003F1E023C3F8002163
:1016D00000BF70472DE9F05F80460D461646002793
:1016E00009F0D4FF074639462A46334601F0070081
:1016F000C0F1070ABAF1040F02D94FF0040A01E061
:10170000C0F1070AD14600F1040ABAF1070F02D26C
:101710004FF0000A01E0A0F1030AD4464FF0010A9D
:101720000AFA09FAAAF1010A0AEA020A0AFA0CFA02
:101730004FF0010B0BFA0CFBABF1010B0BEA030BA7
:101740004AEA0B042146404609F0A8FF00F000B821
:1017500030BCBDE8C09F000000BF00F00702064B90
:1017600019684FF6FF031940044B0B4343EA02216B
:10177000014B196000BF70470CED00E00000FA0556
:10178000024611680120C2F86802002082F8600257
:1017900031F8540F40F001000880088840F0020042
:1017A00021F854090020704730B585B0044614B9BB
:1017B000012005B030BD94F8290228B9002084F832
:1017C0002802204600F08EF8032084F829022068C1
:1017D00009F0FEFE142204F110016846FEF796FDA2
:1017E00094E80F0009F0D8FE20B1022084F8290205
:1017F0000120DEE70021206809F0FEFE002526E03A
:10180000012104F1280000EB4510417004F128008B
:1018100000EB4510057004F1280000EB4510C58170
:10182000002104F1280000EB4510C17004F12800EC
:1018300000EB4510016104F1280000EB4510416107
:1018400004F1280000EB45108161681CC5B2606896
:10185000A842D5D8002520E0002104F5947000EBC3
:101860004510417004F5947000EB4510057004F5C7
:10187000947000EB4510C17004F5947000EB4510B6
:10188000016104F5947000EB4510416104F594701A
:1018900000EB45108161681CC5B26068A842DBD8C6
:1018A000142204F110016846FEF730FD94E80F00A1
:1018B00009F07FFE20B1022084F82902012078E798
:1018C000002084F82400012084F82902E06901281E
:1018D00002D12046FFF754FF206809F061FE002086
:1018E00067E7000008B5094A016891420DD100BFC1
:1018F0000749896D41F08061054A91651146896DFE
:1019000001F08061009100BF00BF08BD0068004089
:10191000001002400246B2F5007F2AD11D4800683F
:1019200000F4C060B0F5007F32D01A48006820F49F
:10193000C06040F40070174B1860174800683223ED
:101940005843164BB0FBF3F0411C00E0491E114810
:10195000406900F48060B0F5806F01D10029F5D1B5
:101960000C48406900F48060B0F5806F10D103200E
:1019700070470848006800F4C060B0F5806F07D079
:101980000448006820F4C06040F48060014B186097
:101990000020EDE700700040D801002040420F0019
:1019A0000248006800F4C06070470000007000400A
:1019B0000348006840F480700149086070470000E7
:1019C000007000400348006840F0040001490860CE
:1019D00070470000001002402DE9F843044600253E
:1019E000A846208800F40060B0F5006F26D1606C36
:1019F00068B1B0F5000F03D0B0F5400F0ED10CE088
:101A0000E848C06840F48030E649C86008E000213A
:101A1000201D04F061FD054602E001E0012500BF44
:101A200000BF55B9DF488830006820F44000616C81
:101A30000843DC49C1F8880000E0A846206800F4AB
:101A40000030B0F5003F75D14FF00009D548806DEA
:101A5000012121EA107078B100BFD248806D40F0BA
:101A60008050D04988650846806D00F08050009015
:101A700000BF00BF4FF00109CB48006840F4807000
:101A8000C9490860FFF7A4FD074606E0FFF7A0FD7F
:101A9000C01B022801D9032505E0C348006800F4F3
:101AA00080700028F2D000BF7DBBBE489030006837
:101AB00000F44076CEB1E06DB04216D0B948903017
:101AC000006820F44076B748D0F8900040F48030A9
:101AD000B449C1F890000846D0F8900020F4803056
:101AE000C1F890000846C0F8906006F00100A8B167
:101AF000FFF76EFD074609E0FFF76AFDC01B41F2E4
:101B00008831884202D9032507E016E0A5489030C5
:101B1000006800F002000028EED000BF5DB9A148C7
:101B20009030006820F44070E16D08439D49C1F891
:101B3000900003E00CE0A84600E0A846B9F1010FD0
:101B400005D19848806D20F080509649886500BF87
:101B5000207800F0010048B192488830006820F0F9
:101B60000300216A08438F49C1F88800207800F0FB
:101B70000200022809D18B488830006820F00C0050
:101B8000616A08438749C1F88800207800F00400A2
:101B9000042809D183488830006820F03000A16A09
:101BA00008438049C1F88800207800F020002028F0
:101BB00009D17C488830006820F44060E16A08431D
:101BC0007849C1F88800208800F40070B0F5007FE3
:101BD00009D174488830006820F44020E16B084344
:101BE0007049C1F88800208800F48060B0F5806FEB
:101BF00009D16C488830006820F44010216C0843FB
:101C00006849C1F88800207800F04000402809D1D8
:101C100064488830006820F44050216B08436149D3
:101C2000C1F88800207800F08000802809D15D4844
:101C30008830006820F44040616B08435949C1F87E
:101C40008800208800F48070B0F5807F09D1554865
:101C50008830006820F44030A16B08435149C1F836
:101C60008800208800F40050B0F5005F1FD14D4877
:101C70008830006820F04060A16C084349498831F1
:101C80000860A06CB0F1006F06D14648C06840F40F
:101C900080104449C8600AE0A06CB0F1806F06D1A2
:101CA0000121201D04F018FC054605B1A846206856
:101CB00000F40020B0F5002F1FD13A4888300068AA
:101CC00020F04060E16C0843364988310860E06CE0
:101CD000B0F1006F06D13348C06840F4801031493C
:101CE000C8600AE0E06CB0F1806F06D10121201DD0
:101CF00004F0F2FB054605B1A846206800F48020F8
:101D0000B0F5802F1FD127488830006820F0406050
:101D1000216D0843234988310860206DB0F1006FC0
:101D200006D12048C06840F480101E49C8600AE00F
:101D3000206DB0F1806F06D10121201D04F0CCFB95
:101D4000054605B1A846208800F48040B0F5804FD4
:101D500014D114488830006820F04050616D084369
:101D6000104988310860606DB0F1805F06D10221B2
:101D7000201D04F0B1FB054605B1A846208800F4FB
:101D80000040B0F5004F09D106488830006820F0C7
:101D90008040A16D08430349C1F888004046BDE872
:101DA000F883000000100240007000402DE9F0416F
:101DB00004460D4614B90120BDE8F081554800687D
:101DC00000F00700A8420ED25248006820F0070039
:101DD0002843504908600846006800F00700A84200
:101DE00001D00120E8E7207800F00100002840D071
:101DF0006068032806D14848006800F00070D8B930
:101E00000120D9E76068022806D14348006800F441
:101E1000003088B90120CFE7606830B93E480068DB
:101E200000F0020040B90120C6E73B48006800F41A
:101E3000806008B90120BFE73748806820F00300C0
:101E40006168084334498860FFF7C2FB064608E032
:101E5000FFF7BEFB801B41F28831884201D9032085
:101E6000AAE72D48806800F00C006168B0EB810F94
:101E7000EED1207800F00200022807D126488068C1
:101E800020F0F000A16808432349886021480068D9
:101E900000F00700A8420ED91E48006820F0070095
:101EA00028431C4908600846006800F00700A84263
:101EB00001D0012080E7207800F00400042807D139
:101EC0001548806820F4E060E168084312498860A2
:101ED000207800F00800082808D10F48806820F416
:101EE0006050216940EAC1000B49886000F046F863
:101EF00009498968C1F30311084A515C01F01F01C7
:101F0000C8400749086007480068FFF783FB074699
:101F1000384651E7002002400010024034E6000835
:101F2000D8010020D001002001480068704700005F
:101F3000D801002000B5FFF7F7FF05498968C1F314
:101F40000221044A515C01F01F01C84000BD00009D
:101F50000010024044E6000800B5FFF7E5FF054920
:101F60008968C1F3C221044A515C01F01F01C840D5
:101F700000BD00000010024044E60008F0B5002358
:101F80000020DFF8D4C0DCF808C00CF00C01DFF84A
:101F9000C8C0DCF80CC00CF0030719B10C291ED125
:101FA000012F1CD1DFF8B0C0DCF800C00CF0080C29
:101FB000BCF1000F06D1DFF8A0C0DCF894C0CCF370
:101FC000032305E0DFF890C0DCF800C0CCF3031376
:101FD000DFF888C05CF8233041B9184606E00429D0
:101FE00001D11F4802E0082900D11E480C2932D136
:101FF000DFF864C0DCF80CC00CF00304012C09D03D
:10200000022C02D0032C04D101E0154A04E0154A49
:1020100002E000BF1A4600BF00BFDFF83CC0DCF89A
:102020000CC0CCF3021C0CF10106DFF82CC0DCF86C
:102030000CC0CCF3062C0CFB02FCBCFBF6F2DFF868
:1020400018C0DCF80CC0CCF3416C0CF1010C4FEA69
:102050004C05B2FBF5F0F0BD001002404CE6000864
:102060000024F40000127A002DE9F843044614B964
:102070000120BDE8F883F948806800F00C06F748B5
:10208000C06800F00307207800F01000102877D116
:102090001EB10C2E76D1012F74D1F048006800F0EB
:1020A000020018B1A06908B90120E2E7EB48216AF3
:1020B000006800F0080020B1E848006800F0F00077
:1020C00005E0E6489430006800F470600009814241
:1020D0001FD9206A04F0C4FA08B10120C9E700BF83
:1020E000DE48006840F00800DC49086008460068E7
:1020F00020F0F000216A0843D849086000BF084674
:10210000406820F47F40E16940EA0120D3494860FB
:102110001FE000BFD148006840F00800CF490860C8
:102120000846006820F0F000216A0843CB490860A7
:1021300000BF0846406820F47F40E16940EA012082
:10214000C64948602EB9206A04F08AFA08B1012015
:102150008FE7FFF713FFC1498968C1F30311C04A34
:10216000515C01F01F01C840BE490860BE480068CC
:10217000FFF750FA8046B8F1000F4ED0404678E79E
:102180004BE0FFE7A06980B3B448006840F001006D
:10219000B2490860FFF71CFA054606E0FFF718FA97
:1021A000401B022801D9032063E7AC48006800F017
:1021B00002000028F2D000BFA848006840F00800E4
:1021C000A64908600846006820F0F000216A08432C
:1021D000A249086000BF0846406820F47F40E169DA
:1021E00040EA01209D49486017E0FFE79B480068EE
:1021F00020F0010099490860FFF7EAF9054606E07A
:10220000FFF7E6F9401B022801D9032031E7934884
:10221000006800F002000028F2D1207800F00100F0
:1022200000285CD0082E03D00C2E0AD1032F08D131
:102230008A48006800F4003088B3606878BB0120E9
:1022400017E700BF6068B0F5803F06D1834800689B
:1022500040F48030814908601AE06068B0F5A02F32
:102260000BD17E48006840F480207C490860084615
:10227000006840F4803008600AE07848006820F484
:102280008030764908600846006820F480200860A5
:1022900000BF606890B1FFF79BF9054607E01EE0BC
:1022A000FFF796F9401B642801D90320E1E66B484B
:1022B000006800F400300028F2D010E0FFF788F941
:1022C000054606E0FFF784F9401B642801D9032086
:1022D000CFE66248006800F400300028F2D1207890
:1022E00000F00200022852D1042E03D00C2E14D18B
:1022F000022F12D15948006800F4806018B1E068DC
:1023000008B90120B5E65548406820F0F850217C16
:1023100040EA01605149486039E0E06800B34F4845
:10232000006840F480704D490860FFF751F9054698
:1023300006E0FFF74DF9401B022801D9032098E67B
:102340004648006800F480600028F2D043484068A6
:1023500020F0F850217C40EA01604049486016E0D6
:102360003E48006820F480703C490860FFF730F96F
:10237000054606E0FFF72CF9401B022801D903208F
:1023800077E63648006800F480600028F2D12078B3
:1023900000F00800082836D16069D0B12F48943089
:1023A000006840F001002D49C1F89400FFF710F9D2
:1023B000054606E0FFF70CF9401B022801D903206F
:1023C00057E626489430006800F002000028F1D05B
:1023D00019E022489430006820F001001F49C1F83C
:1023E0009400FFF7F5F8054606E0FFF7F1F8401B0B
:1023F000022801D903203CE618489430006800F018
:1024000002000028F1D1207800F00400042872D1E5
:102410004FF000091148806D00F0805078B900BF7E
:102420000E48806D40F080500C4988650846806DEC
:1024300000F08050009000BF00BF4FF001090B4832
:10244000006800F4807000BB0848006840F48070A9
:1024500006490860FFF7BCF8054610E0001002408E
:1024600034E60008D8010020D001002000700040B0
:10247000FFF7AEF8401B022801D90320F9E5D04848
:10248000006800F480700028F2D000BFA068012826
:1024900008D1CC48006840F00100CA499039C1F821
:1024A000900021E0A06805280FD1C648006840F0E0
:1024B0000400C4499039C1F890000846D0F8900053
:1024C00040F00100C1F890000EE0BE48006820F026
:1024D0000100BC499039C1F890000846D0F890003E
:1024E00020F00400C1F8900000BFA068A0B1FFF781
:1024F0006FF8054609E02EE0FFF76AF8401B41F24D
:102500008831884201D90320B3E5AE48006800F065
:1025100002000028F0D012E0FFF75AF8054608E064
:10252000FFF756F8401B41F28831884201D9032059
:102530009FE5A448006800F002000028F0D1B9F13E
:10254000010F07D19F489038806D20F080509D4941
:102550009039886500BF207800F02000202838D10D
:10256000606AD8B197480830006840F0010095498A
:102570009039C1F89800FFF72BF8054606E0FFF701
:1025800027F8401B022801D9032072E58D48083046
:10259000006800F002000028F1D01AE089480830F5
:1025A000006820F0010087499039C1F89800FFF7D2
:1025B0000FF8054606E0FFF70BF8401B022801D98B
:1025C000032056E57F480830006800F0020000282C
:1025D000F1D1A06A00287DD0A06A02287BD1794879
:1025E0009038C76807F00301E06A814225D107F0FF
:1025F0007001206B401EB1EB001F1ED107F4FE419D
:10260000606BB1EB002F18D107F078413820005DE6
:10261000B1EBC06F11D107F4C001A08F0122C2EB52
:102620005000B1EB405F08D107F0C0614020005D71
:10263000C2EB5000B1EB406F66D00C2E62D0614807
:102640009038006800F0806008B1012011E55D4815
:102650009038006820F080705A4990390860FEF781
:10266000B7FF054606E0FEF7B3FF401B022801D97D
:102670000320FEE453489038006800F00070002802
:10268000F1D1D4E90B10401E41EA0011606B41EA20
:102690000021A08F0122C2EB500041EA40514020AE
:1026A000005DC2EB500041EA40613820005D41EA24
:1026B000C06044499039C968434A114008434149C0
:1026C0009039C8600846006840F08070086008468D
:1026D000C06801E05BE03DE040F08070C860FEF75C
:1026E00077FF054606E0FEF773FF401B022801D97D
:1026F0000320BEE433489038006800F000700028E2
:10270000F1D05AE00120B4E42E489038006800F07F
:102710000070E0BB2B489038006840F08070294979
:10272000903908600846C06840F08070C860FEF7C5
:102730004FFF054606E0FEF74BFF401B022801D97C
:10274000032096E41F489038006800F000700028CD
:10275000F1D032E00C2E2ED01A489038006820F0CC
:1027600080701849903908600846006800F00060E1
:1027700020B90846C06820F00300C86011489038AE
:10278000C068124908400F499039C86000E014E061
:10279000FEF71EFF054606E0FEF71AFF401B022863
:1027A00001D9032065E407489038006800F0007004
:1027B0000028F1D101E001205BE4002059E4000091
:1027C00000700040901002408C809D01FFFFEEFEE3
:1027D00070B504460CB9012070BD606A00B900BF35
:1027E0000021A16294F85D0028B9002084F85C0003
:1027F000204600F04DF8022084F85D002068006853
:1028000020F0400021680860E068B0F5E06F01D971
:10281000002501E04FF48055E068B0F5706F05D0F9
:10282000E068B0F5E06F01D00021A162206B40B9F3
:10283000E068B0F5E06F02D90221216301E00121D7
:102840002163D4E901010843216908436169084310
:10285000218B01F400710843E1690843216A0843B0
:10286000A16A0843216808600421A06901EA1040B8
:10287000616A0843616B0843E168084328432168A3
:10288000486000202066012084F85D000020A3E756
:1028900010B586B00446142101A8FDF750FD2F495C
:1028A0002068884229D100BF2D48006E40F4805036
:1028B0002B4908660846006E00F48050009000BF67
:1028C00000BF00BF0846C06C40F00200C864084664
:1028D000C06C00F00200009000BF00BF38200190E3
:1028E0000220029000200390032004900520059010
:1028F00001A91C48FEF782FD2DE01B492068884293
:1029000029D100BF1648806D40F480401449886585
:102910000846806D00F48040009000BF00BF00BFFB
:102920000846C06C40F00200C8640846C06C00F065
:102930000200009000BF00BF4FF4604001900220F1
:10294000029000200390032004900520059001A927
:102950000448FEF753FD06B010BD000000300140F2
:102960000010024000040048003800402DE9F84300
:102970000446884616461D464FF000096068B0F5CB
:10298000827F0DD1A06858B9042084F85D003346D9
:10299000424641462046009500F0A7F9BDE8F8837D
:1029A00000BF94F85C00012801D10220F6E7012065
:1029B00084F85C0000BFFEF70BFE074694F85D004C
:1029C000012802D04FF0020993E0B8F1000F00D0C7
:1029D00016B94FF001098CE0042084F85D00002056
:1029E0002066C4F84080A4F84460A4F84660A06360
:1029F000A087E087E0642065E068B0F5E06F06D965
:102A00002068406820F480502168486005E0206814
:102A1000406840F4805021684860A068B0F5004FDD
:102A200005D12068006820F4804021680860206893
:102A3000006800F04000402805D02068006840F0A1
:102A4000400021680860E068B0F5E06F22D81CE023
:102A50002068806800F0010060B12068007B216C74
:102A60000870206C401C2064B4F84600401EA4F896
:102A700046000AE0FEF7ACFDC01BA84201D3681C6B
:102A800000B915B94FF0030933E0B4F84600002847
:102A9000DED121E01CE02068806800F0010060B118
:102AA0002068C068216C0880206C801C2064B4F809
:102AB0004600401EA4F846000AE0FEF789FDC01B50
:102AC000A84201D3681C00B915B94FF0030910E002
:102AD000B4F846000028DED13A462946204604F0E4
:102AE000B5FF08B120202066206E08B14FF0010923
:102AF00000BF012084F85D0000BF002084F85C0066
:102B000000BF48464AE72DE9F84F04468846164676
:102B10001D464FF0000A00BF94F85C00012802D166
:102B2000022000F0DFB8012084F85C0000BFFEF74F
:102B30004FFD0746B14694F85D00012802D04FF0E2
:102B4000020AC5E0B8F1000F00D016B94FF0010A33
:102B5000BEE0032084F85D0000202066C4F83880C1
:102B6000A687E6872064A4F84400A4F84600206500
:102B7000E064A068B0F5004F05D12068006840F41B
:102B80008040216808602068006800F0400040280C
:102B900005D02068006840F0400021680860E068C7
:102BA000B0F5E06F2FD9606810B1B9F1010F09D10C
:102BB000A06B00882168C860A06B801CA063E08FB8
:102BC000401EE0871BE02068806800F002000228B9
:102BD0000AD1A06B00882168C860A06B801CA0632C
:102BE000E08F401EE0870AE0FEF7F2FCC01BA8421F
:102BF00001D3681C00B915B94FF0030A68E0E08FF3
:102C00000028E0D14AE0606810B1B9F1010F17D196
:102C1000E08F01280AD9A06B00882168C860A06BEA
:102C2000801CA063E08F801EE08709E0A06B007825
:102C300021680873A06B401CA063E08F401EE087F2
:102C400029E02068806800F00200022818D1E08F97
:102C500001280AD9A06B00882168C860A06B801C7D
:102C6000A063E08F801EE08715E0A06B00782168EC
:102C70000873A06B401CA063E08F401EE0870AE051
:102C8000FEF7A6FCC01BA84201D3681C00B915B909
:102C90004FF0030A1CE0E08F0028D2D13A462946C3
:102CA000204604F014FF08B120202066A06850B927
:102CB00000BF002000902068C068009020688068F5
:102CC000009000BF00BF206E08B14FF0010A00BFA6
:102CD000012084F85D0000BF002084F85C0000BF84
:102CE00050461EE718BCBDE8E08F2DE9FF5F0446A3
:102CF000894692461D460E9E0120019000200090BC
:102D000000BF94F85C00012803D1022004B000F059
:102D10004AB9012084F85C0000BFFEF759FC074661
:102D200094F85D00029060680390A846AB46029854
:102D300001280BD00398B0F5827F04D1A06810B9A8
:102D40000298042802D00220009022E1B9F1000F7D
:102D500003D0BAF1000F00D015B90120009018E19E
:102D600094F85D00042802D0052084F85D0000205E
:102D70002066C4F840A0A4F84650A4F84450C4F813
:102D80003890E587A587E0642065E068B0F5E06FDE
:102D900002D8BBF1010F06D92068406820F48050AA
:102DA0002168486005E02068406840F48050216850
:102DB00048602068006800F04000402805D0206886
:102DC000006840F0400021680860E068B0F5E06FFE
:102DD0004ED9606810B1B8F1010F09D1A06B00881D
:102DE0002168C860A06B801CA063E08F401EE08754
:102DF00036E02068806800F00200022810D1E08FE1
:102E000070B1019801280BD1A06B00882168C860BF
:102E1000A06B801CA063E08F401EE0870020019023
:102E20002068806800F0010080B1B4F8460068B105
:102E30002068C068216C0880206C801C2064B4F875
:102E40004600401EA4F8460001200190FEF7C0FB9A
:102E5000C01BB04204D3701C10B10320009098E056
:102E6000E08F0028C5D1B4F846000028C1D185E024
:102E7000606810B1B8F1010F17D1E08F01280AD9AD
:102E8000A06B00882168C860A06B801CA063E08FE5
:102E9000801EE08709E0A06B007821680873A06BB2
:102EA000401CA063E08F401EE08760E020688068DF
:102EB00000F0020002281ED1E08FE0B10198012845
:102EC00019D1E08F01280AD9A06B00882168C86059
:102ED000A06B801CA063E08F801EE08709E0A06BE0
:102EE000007821680873A06B401CA063E08F401E2F
:102EF000E087002001902068806800F0010058B34E
:102F0000B4F8460040B3B4F84600012816D920684A
:102F1000C068216C0880206C801C2064B4F84600D6
:102F2000801EA4F84600B4F84600012812D8206894
:102F3000406840F48050216848600BE02068007BC6
:102F4000216C0870206C401C2064B4F84600401EC0
:102F5000A4F8460001200190FEF73AFBC01BB042E6
:102F600001D3701C00B916B90320009011E0E08F66
:102F700000289BD1B4F84600002897D13A46314644
:102F8000204604F0A4FD18B1012000902020206606
:102F900000BF012084F85D0000BF002084F85C00C1
:102FA00000BF0098B2E630BCBDE8C09F70B50446D3
:102FB0002546681EB0F1807F01D301200FE0681E16
:102FC0004FF0E02148610F214FF0FF3008F066FB21
:102FD00000204FF0E021886107200861002070BDCB
:102FE00070477047704710B504460CB9012010BDFA
:102FF00094F83D0028B9002084F83C00204600F0F9
:103000000DF8022084F83D00211D206807F014FD12
:10301000012084F83D000020E9E7000038B50446AF
:103020000D492068884215D100BF0C48806D40F0E2
:1030300020000A4988650846806D00F02000009055
:1030400000BF00BF002205213720FEF743FB3720D9
:10305000FEF730FB38BD00000014004000100240B5
:1030600001460868C06840F001000B68D860086835
:103070008068084B00EA0302062A08D0B2F5803FB8
:1030800005D00868006840F001000B681860002057
:103090007047000007000100704710B50446206823
:1030A0000069C0F34000D8B12068C068C0F3400098
:1030B000B0B16FF00200216808610120207720681C
:1030C000806900F0030018B12046FFF7E5FF05E036
:1030D000204600F0BEF8204600F0BCF80020207723
:1030E00020680069C0F38000D8B12068C068C0F3D0
:1030F0008000B0B16FF004002168086102202077E1
:103100002068806900F4407018B12046FFF7C4FFC2
:1031100005E0204600F09DF8204600F09BF80020D6
:10312000207720680069C0F3C000D8B12068C0686B
:10313000C0F3C000B0B16FF008002168086104203E
:1031400020772068C06900F0030018B12046FFF71F
:10315000A3FF05E0204600F07CF8204600F07AF856
:103160000020207720680069C0F30010D8B12068E3
:10317000C068C0F30010B0B16FF0100021680861A2
:10318000082020772068C06900F4407018B12046FC
:10319000FFF782FF05E0204600F05BF8204600F0D4
:1031A00059F8002020772068006900F0010058B12C
:1031B0002068C06800F0010030B16FF001002168A4
:1031C0000861204600F048F820680069C0F3C0108C
:1031D00058B12068C068C0F3C01030B16FF08000F3
:1031E000216808612046FFF7FCFE20680069C0F3F3
:1031F000002058B12068C068C0F3C01030B16FF42F
:103200008070216808612046FFF7EAFE20680069A7
:10321000C0F3801058B12068C068C0F3801030B18E
:103220006FF0400021680861204600F027F8206810
:103230000069C0F3401058B12068C068C0F3401066
:1032400030B16FF02000216808612046FFF7CAFE08
:1032500010BD70477047000010B50446054920684E
:10326000884206D104480068401C0349086007F002
:103270008FFC10BD001400404401002070477047CF
:10328000704700002DE9F04704462068C5692068B2
:1032900006682068876840F60F0005EA0008B8F164
:1032A000000F0CD105F0200048B106F0200030B12D
:1032B000206E10B12046216E8847BDE8F087B8F136
:1032C000000F7DD007F0010018B906F490700028B7
:1032D000F7D005F0010048B106F4807030B101204C
:1032E00021680862E06F40F00100E06705F002002D
:1032F00048B107F0010030B1022021680862E06F98
:1033000040F00400E06705F0040048B107F0010058
:1033100030B1042021680862E06F40F00200E067ED
:1033200005F0080060B106F0200010B907F00100B8
:1033300030B1082021680862E06F40F00800E067C3
:1033400005F4006050B106F0806038B14FF40060C1
:1033500021680862E06F40F02000E067E06F80B312
:1033600005F0200038B106F0200020B1206E10B129
:103370002046216E8847D4F87C902068806800F051
:103380004000402802D009F0280030B3204607F062
:10339000D8FD2068806800F04000402819D12068DE
:1033A000806820F0400021688860E06E68B12148A4
:1033B000E16E8863E06EFDF7BBFF10B1E06E01E0E7
:1033C00011E00FE0816B88470CE02046FFF758FFC3
:1033D00008E02046FFF754FF04E02046FFF750FFC7
:1033E0000020E06769E705F4801050B107F4800021
:1033F00038B14FF48010216808622046FFF73FFF84
:103400005BE705F0800040B106F0800028B1606EF7
:1034100010B12046616E88474FE705F0400030B19B
:1034200006F0400018B1204607F09CFD45E700BFBC
:1034300043E700002BAF000810B504460CB901208B
:1034400010BDA06900B100E000BF606F28B9002086
:1034500084F87000204600F029F824206067206876
:10346000006820F0010021680860204607F0F2FDA6
:10347000012800D1E4E7606A10B1204607F0A2FC01
:103480002068406820F49040216848602068806887
:1034900020F02A00216888602068006840F0010060
:1034A00021680860204607F009FDC9E710B586B01D
:1034B0000446142101A8FCF742FF3B4920688842DA
:1034C00033D100BF3948006E40F480403749086668
:1034D0000846006E00F48040009000BF00BF00BFAF
:1034E0000846C06C40F00100C8640846C06C00F09B
:1034F0000100009000BF00BF4FF4C06001900220A7
:10350000029000200390032004900720059001A959
:103510004FF09040FDF772FF002205212520FEF7B5
:10352000D9F82520FEF7C6F83BE0214920688842FB
:1035300037D100BF1D48806D40F480201B4988654D
:103540000846806D00F48020009000BF00BF00BFDF
:103550000846C06C40F00200C8640846C06C00F029
:103560000200009000BF00BF4FF4406001900220B5
:10357000029000200390032004900720059001A9E9
:103580000C48FDF73BFF002205212720FEF7A2F89B
:103590002720FEF78FF82420FEF78CF82520FEF771
:1035A00089F806B010BD000000380140001002404C
:1035B000004800400004004810B50346986F2028DA
:1035C00065D101B10AB9012010BD00BF93F87000A8
:1035D000012801D10220F7E7012083F8700000BF25
:1035E0005965A3F85820A3F85A200020186600BF98
:1035F0009868B0F5805F0AD1186920B940F2FF10D1
:10360000A3F85C0020E0FF20A3F85C001CE09868B1
:1036100048B9186918B9FF20A3F85C0014E07F20AE
:10362000A3F85C0010E09868B0F1805F09D11869D8
:1036300018B97F20A3F85C0006E03F20A3F85C00E7
:1036400002E00020A3F85C0000BF0020D867222021
:1036500098671868806840F001001C68A06098684E
:10366000B0F5805F04D1186910B90A48186601E006
:103670000948186600BF002083F8700000BF186872
:10368000006840F490701C68206000209CE70220D5
:103690009AE7000085AF0008EFAF000806498842AE
:1036A00002D10121054A11600549884202D1012158
:1036B000044A116070470000D4090020480100202E
:1036C000540A00209C01002070B504460D461646A1
:1036D000002300BF0AE0E85C208500BF40212046AF
:1036E00000F08AF80028F9D0581C83B2B342F2DB0C
:1036F00070BD2DE9F84F04460E4617469946606F97
:1037000020285DD106B117B9012000F05BB800BFD9
:1037100094F87000012801D10220F6E7012084F816
:10372000700000BF0020E06721206067FDF750FFB8
:103730008246A4F85070A4F85270A068B0F5805F7B
:1037400004D1206910B90025B04602E035464FF09B
:10375000000800BF002084F8700000BF1DE0534641
:10376000002280212046CDF8009007F06EFE08B1BF
:103770000320CAE745B9B8F80000C0F30800216883
:10378000088508F1020803E02878216808856D1C87
:10379000B4F85200401EA4F85200B4F852000028B9
:1037A000DDD15346002240212046CDF8009007F09D
:1037B0004CFE08B10320A8E7202060670020A4E7A2
:1037C0000220A2E718BCBDE8E08F0000064988424D
:1037D00002D10121054A11600549884202D1012127
:1037E000044A116070470000D40900204C010020F9
:1037F000540A0020A00100200246D06908408842F7
:1038000001D1012070470020FCE702E00120FDF714
:10381000BDFDFBE703480078002801DD012070476B
:103820000020FCE79002002030B5044620468C4280
:1038300001DD254600E00D46284630BD10B5FDF7F8
:103840009BFB154815490860154848601548886075
:103850001548C86015481649086002220F4800F054
:10386000C5F802201349087000200871084600F0CE
:10387000E5FA044607200F49087001200871084640
:1038800000F0DCFA044600200A4908700871084676
:1038900000F0D4FA044610BDE14900089404002069
:1038A000094A0008614C0008F14C00085D0F00084F
:1038B000BC000020A404002010B52148006858B9BD
:1038C000FDF74EFB044609F04DFE6FF07E410020EF
:1038D00009F002FE1A49086003201A4908701A48C4
:1038E0004860084600F0AAFA1849087004201549F3
:1038F0000870134800684860084600F09FFA1349B2
:10390000087005200F49087011484860084600F00B
:1039100095FA0E49087006200A4908700D4848605B
:10392000084600F08BFA0949087001200549087023
:103930000871084600F082FA0449087010BD0000C2
:1039400010010020A40400201A5EAA001901002022
:10395000ED000020FD0000202DE9F04707460E464F
:1039600090461C46DDE9095ADDF820901C4880F895
:10397000059001468C71200AC871200C0872200E37
:1039800048728D72280AC872280C0873280E487372
:10399000CE731448FDF754F941461248FDF761F91A
:1039A00010220F490F48FDF765F9F2B239460D486C
:1039B000FDF760F90B490C48FDF765F80A48C07837
:1039C00000060949897840EA01400749497840EAF8
:1039D0000120054909780843CAF80000BDE8F087CE
:1039E000C7020020EC880020D88700202DE9FC4188
:1039F00004460E46154614B90320BDE8FC81206834
:103A000028B1606818B1A06808B1E06808B903205F
:103A1000F3E7284603F047FE08B90A20EDE79F4880
:103A200004609F4806609F48057000209E4908700A
:103A30009E4908709E4908609E4908709E4908602A
:103A40009E4908600B208DF8040001A99548007874
:103A500003F00FFE0090009808B1012000E0002064
:103A60009749087008208DF8040001A98D48007856
:103A700003F0FFFD0090009840B2924908700520C5
:103A80008DF8040001A98748007803F0F2FD00904A
:103A9000009840B28B4948700C208DF8040001A9B1
:103AA0008048007803F0E5FD009086490098C860E2
:103AB0000D208DF8040001A97A48007803F0D9FDA3
:103AC00000908049009808610E208DF8040001A93B
:103AD0007448007803F0CDFD00907A490098486161
:103AE0000F208DF8040001A96E48007803F0C1FD95
:103AF000009074490098886110208DF8040001A995
:103B00006848007803F0B5FD00906E490098C861E0
:103B100013208DF8040001A96248007803F0A9FD84
:103B200000906849009881F8210014208DF8040065
:103B300001A95C48007803F09CFD00906149009861
:103B4000486215208DF8040001A95648007803F05A
:103B500090FD00900098C1B25A4880F828101A20B1
:103B60008DF8040001A94F48007803F082FD009011
:103B70005449009881F82C001B208DF8040001A9FD
:103B80004848007803F075FD00904E49009881F890
:103B90002D001C208DF8040001A94248007803F094
:103BA00068FD00909DED000A464880ED0C0A1D203E
:103BB0008DF8040001A93B48007803F05AFD0090FD
:103BC0009DED000A3F4880ED0D0A00213548007840
:103BD00003F05DFD01203B4981F820000A20486088
:103BE0000620087208464068374948603548007A20
:103BF00008723448C068C8603248006908613148BA
:103C0000406948612F48806988612E48C069C86151
:103C10002C4890F8200081F8200003F0DBFD2B49B0
:103C20002B4806F061FF4FF47A71294807F006F837
:103C30002849294806F058FF2849294806F054FF2A
:103C40002849294806F050FF2849294806F04CFF2A
:103C500006F03CFF274908602748284908602848A3
:103C6000886028480861284848602848C860284873
:103C7000016822488847264948698047074609F075
:103C800071FC0120234908702148816D214800788A
:103C900088471F49C86A80470020AEE6AC02002072
:103CA000B002002054020020C6020020740200204E
:103CB000A802002076020020980200209C0200202A
:103CC000A0020020C086002088860020514D0008F8
:103CD000F8860020195C0008288700200D5B00088A
:103CE0003C870020955B000850870020014D0008AC
:103CF0008C870020A40200205D5900080C8700205A
:103D000011510008E1570008C95A000899580008E5
:103D1000A8EA0008750200202DE9F04104460D468E
:103D200016461F461048FCF78BFF31460E48FCF73D
:103D300098FFEAB221460C48FCF79CFF0A490B4861
:103D4000FCF7A1FE0948C07800060849897840EAD6
:103D500001400649497840EA0120044909780843AE
:103D60003860BDE8F0810000EC880020D887002092
:103D70002DE9FF4184B007460C461D46DDF838802A
:103D800006AEF02200211B4808F013FE194A10214C
:103D9000384608F0CBFA10220021684608F009FEE8
:103DA00001208DF800002068CDF80100A088ADF852
:103DB00005003088ADF807000E4A2946684608F02D
:103DC00088FA10220021684608F0F3FD02208DF8E1
:103DD00000002068CDF80100A088ADF8050030880B
:103DE000ADF80700034A4146684608F072FA08B089
:103DF000BDE8F081F88700202DE9F04107460D4627
:103E000016461C46F02200210B4808F0D2FD0A4A53
:103E10001021304608F08AFA074A2146384608F051
:103E200058FA102D06DB044A04F1100107F11000C6
:103E300008F04FFABDE8F081F88700207FB504460E
:103E4000002514B9032004B070BDBA48007800F012
:103E5000010008B10120F6E720781F287DD2DFE8B5
:103E600000F010373B3F4347515B647C689BC0B315
:103E7000CDDADEEFF3F7FBEAE9E8E7E67CE5E4E339
:103E8000E2002079AC4908700846007820B101288A
:103E900006D002281AD104E0A849C86A804715E074
:103EA00014E00020A6490870A449C86A8047A548C4
:103EB0000090A5484368027A90F8280041B2A348D0
:103EC000007803F0B6FB01F0B9FE00BF00BF2EE1A1
:103ED00020799F4908702AE120799E49087026E1DF
:103EE0009D496068086022E19C49606808601EE1A5
:103EF000606828B110229A486168FCF707FA00E070
:103F0000032514E1606828B1102296486168FCF727
:103F1000FDF900E003250AE12079934908708748FC
:103F2000816D91480078884701E120798F490870B8
:103F3000FDE0207A40B28DF80400834890F82D000F
:103F40008DF80500062201A98048007803F034FCB2
:103F500000B37D48D4E9011200E0E6E0C0E90912AF
:103F600075480078022816D179480078012812D1C6
:103F70007249C86A80477348009073484368027A60
:103F800090F8280041B27148007803F052FB01F02C
:103F900055FE00E00325CAE0207A40B28DF8040007
:103FA000694890F82D008DF80500062201A96748A0
:103FB000007803F001FC28B16D48D4E90112C0E992
:103FC000091200E00325B2E06068029001208DF83C
:103FD0000C0002A95D48007803F04DF800B90325F4
:103FE000A5E06068029000208DF80C0002A95748F7
:103FF000007803F040F800B9032598E02079012803
:1040000007DB20790F2804DC20794F4981F8200054
:1040100000E003258BE04C496068C86087E04A49AE
:104020006068086183E07AE073E06CE065E060E07E
:104030005BE038E048E020E00EE009E004E0FFE764
:1040400041496068486172E03F49606888616EE09C
:104050003D496068C8616AE020798DF80400052256
:1040600001A93A48007803F0A7FB20B19DF80400AD
:104070003F49487000E0032559E020798DF804009D
:10408000314890F82C008DF80600042201A92F4831
:10409000007803F091FB20B19DF804002A49487094
:1040A00000E0032543E020798DF80400082201A9EF
:1040B0002648007803F080FB20B19DF804002C49CD
:1040C000087000E0032532E020798DF80400072213
:1040D00001A91E48007803F06FFB20B19DF8040091
:1040E0001949087000E0032521E022496068086052
:1040F0001DE021496068086019E01D49606848605A
:104100001149486013E02079194908720E49087274
:104110000DE094ED010A0C4880ED0D0A07E094EDE6
:10412000010A134880ED0D0A01E0022500BF00BF1F
:10413000284688E6A802002074020020A8EA0008A9
:104140008C020020788700208886002054020020FE
:104150008602002087020020680200206C020020F6
:1041600068830020788300207502002076020020FA
:10417000C08600207C0200208002002038B5044662
:1041800002250CB9032038BD4848006808B1012059
:10419000F9E70C220021464808F00BFC01204449B5
:1041A0004870207830B1012840D002284FD0032831
:1041B0006DD15BE03D48007800F01000102801D17F
:1041C0000120E0E7606818B1A06808B1E06808B9AC
:1041D0000320D8E703F0FEFA3648007820F0080004
:1041E00008303449087020783149087032496068D5
:1041F00008603249A06808603149E0680860207CA6
:1042000041B23048007802F08DFA2F494870002002
:1042100000909DF8000020F0E000009000231A4676
:104220001946684605F0A8FD054631E021480078AA
:1042300020F0080008301F49087020781C490870D9
:10424000002211460220FCF78DFD054620E0207873
:10425000174908701748007820F008000830154901
:104260000870A08805F08EFE054611E02078104900
:1042700008701048007820F0080008300D490870D8
:10428000227BA088A16805F0B7FE054600E000BFCC
:1042900000BF45B100200D4908700648007820F0A5
:1042A00008000449087028466DE70000A8020020B5
:1042B000CC870020C6020020580200205C020020AB
:1042C0006002002054020020888600208C0200201A
:1042D0002DE9FE4F04460D4616461F46DDE90D9AB0
:1042E000DDF830803B463246294620468DE80007FF
:1042F00000F006F800F000B81EBCBDE8E08F00003A
:104300002DE9F05F81460D4693461E46DDF82C8070
:1043100000274FF0010AF02200212E4808F049FB47
:104320002C4A1021584608F001F82B490A98487188
:104330008E71300AC871300C0872300E487281F8E4
:104340000A804FEA1820C8724FEA184008734FEAF3
:104350001860487320E0204981F80FA00AF101009D
:104360001FFA80FA1B4A1D491B4807F0B2FF0024C0
:104370000AE0381919F800001849095D48403A194F
:104380000C998854601C84B2102CF2DBA5F110004B
:1043900085B207F11000C7B2102DDCDA002D16DD52
:1043A0000D4981F80FA00B4A0C490B4807F091FF0B
:1043B00000240AE0381919F800000849095D48404E
:1043C0003A190C998854601C84B2AC42F2DB00F0BC
:1043D00007B80000F8870020D7020020E8870020F7
:1043E00030BCBDE8C09F000010B501225102184842
:1043F000FDF7E8F8012211031548FDF7E3F8002264
:1044000004211348FDF7DEF86420FCF7BFFF01220A
:1044100004210F48FDF7D6F800F0CEF808B9FCF7F4
:10442000FDFE002000F056F8802000F045F8012045
:1044300000F050F80021402000F090F800214120C9
:1044400000F08CF8034800F053F8012010BD000084
:10445000000400486035081C1CB5044600949DF813
:10446000000000F07F00009000224FF480511048BF
:10447000FDF7A8F80120FCF789FF05230122694612
:104480000C48FEF740FB08B1FCF7C8FE05230122EB
:1044900001A90848FEF76AFA08B1FCF7BFFE01223D
:1044A00011030348FDF78EF89DF804001CBD0000C1
:1044B000000400486805002070B505460120FFF79C
:1044C000CBFF044604F07F042C432146012000F07A
:1044D00045F870BD70B505460120FFF7BDFF0446E5
:1044E00004F0F8042C432146012000F037F870BD99
:1044F00030B52DED048B81B005462846FCF7FDF85C
:1045000041EC190B9FED130B53EC102BFCF775F8D6
:1045100041EC180BFCF71DF90446200C8DF8000047
:10452000200A8DF80100E0B28DF802009DF800101D
:10453000062000F013F89DF80110072000F00EF897
:104540009DF80210082000F009F801B0BDEC048BC2
:1045500030BD00000000000080844E4013B582B0E2
:10456000044601949DF8040040F080000190002270
:104570004FF480510E48FDF725F80120FCF706FFA7
:104580000523012201A90B48FEF7BDFA08B1FCF78B
:1045900045FE0523012203A90648FEF7B4FA08B137
:1045A000FCF73CFE012211030148FDF70BF81FBD8B
:1045B00000040048680500201CB50024002001907C
:1045C000009000BF42208DF800009DF80000FFF72A
:1045D00043FF8DF80400641C9DF80400122801D0EC
:1045E000032CEFDB032C01DA01201CBD03A008F033
:1045F0002DFB0BA008F02AFB0020F6E73E3E5741BA
:10460000524E494E473A204C6F5261206973206EDA
:104610006F742064657465637465642E2E2E0000CB
:104620000D0A000000B5A5B00020239024900121C0
:1046300023A808F03EFB1F4908601C221E491CA845
:10464000FBF764FE00211CA808F058FB1B4908601A
:104650001C2219491C3115A8FBF758FE002115A88A
:1046600008F04CFB164908601C22134938310EA88B
:10467000FBF74CFE00210EA808F040FB1149086032
:104680001C220D49543107A8FBF740FE002107A862
:1046900008F034FB0C4908601C2207497031684659
:1046A000FBF734FE0021684608F028FB0749086044
:1046B00025B000BDC8010020A8E50008B401002015
:1046C000B8010020BC010020C0010020C40100206E
:1046D00000B587B0142102A8FBF731FE00BF514896
:1046E000C06C40F004004F49C8640846C06C00F03C
:1046F0000400019000BF00BF00BF0846C06C40F03E
:104700008000C8640846C06C00F08000019000BFC3
:1047100000BF00BF0846C06C40F00100C8640846F6
:10472000C06C00F00100019000BF00BF00BF084650
:10473000C06C40F00200C8640846C06C00F0020083
:10474000019000BF00BF00224FF400513648FCF733
:1047500039FF0122E0214FF09040FCF733FF0122A6
:1047600011463248FCF72EFF00224FF49C512F488F
:10477000FCF728FF00224FF400414FF09040FCF777
:1047800021FF4FF40050029001200390002004907C
:10479000059002A92448FCF731FE40F21F10029058
:1047A00000200390049002A94FF09040FCF726FEF1
:1047B00048F2E00002900120039004900020059050
:1047C00002A94FF09040FCF719FE812002900120D1
:1047D000039004900020059002A91448FCF70EFEF7
:1047E0000420029000200390049002A90F48FCF7D7
:1047F00005FE4FF498500290012003900020049091
:10480000059002A90948FCF7F9FD4020029000201C
:1048100003900120049002A90448FCF7EFFD07B0C3
:1048200000BD0000001002400008004800040048DD
:1048300010B51148114908604FF48270486000219A
:104840000E4881604FF4E061C16000210161416167
:104850004FF4007181611821C16100210162416240
:1048600081620721C162002101634163FDF7B0FF4E
:1048700008B1FCF7D3FC10BD003001400405002056
:1048800010B51148114908604FF48270486000214A
:104890000E4881604FF4E061C16000210161416117
:1048A0004FF4007181611821C161002101624162F0
:1048B00081620721C162002101634163FDF788FF26
:1048C00008B1FCF7ABFC10BD0038004068050020C3
:1048D00010B51348134908600720486042F20F7171
:1048E0001048C1600021016181608161FEF77BFB9E
:1048F00008B1FCF793FC0B48FEF790FB00200A4937
:104900000860801E07490968086100200549096898
:1049100048620448FEF7A4FB08B1FCF77FFC10BD19
:1049200000140040940900204401002010B50D48F7
:104930000D4908604FF41650486000210A48816014
:10494000C16001610C21416100218161C16101628D
:104950000020054948620846FEF76EFD08B1FCF7E5
:104960005DFC10BD00380140D409002010B50D4891
:104970000D4908604FF41650486000210A488160D4
:10498000C16001610C21416100218161C16101624D
:104990000020054948620846FEF74EFD08B1FCF7C5
:1049A0003DFC10BD00480040540A002010B50A48E4
:1049B0000A490860082048600221084881600161B6
:1049C000002141618161C1610162FCF7EDFE08B126
:1049D000FCF724FC10BD000000680040D40A002051
:1049E000417859B9017821B1012903D0032903D1B4
:1049F00001E002E001E000E000BF00BF0121014A48
:104A0000117070471801002010B58CB00446607812
:104A100008B10CB010BD207830B1012805D00228B3
:104A200005D0032804D101E003E002E001E000E04A
:104A300000BF00BF72480078012804D17048808907
:104A4000401C6F498881607B012874D1207B00283D
:104A500071D0E0786B49087008460078E02809DAE0
:104A60006949A0680860207B68490870012068498E
:104A70000860C2E063480078E028FAD16048007816
:104A800090BB207B0428F4D1A06800780128F0D1E5
:104A9000A06840780128ECD1A06880780128E8D18E
:104AA000A068C0780128E4D100205A490870E020AD
:104AB00059490870594800785949087002205749E7
:104AC000087000204E4988818873C87308740120DB
:104AD0000870487002208DF8240001208DF828000D
:104AE00009A8FFF7ABF988E0FFE7A0680078444920
:104AF000487008464078072877D2DFE800F0041DA8
:104B000021272E484F0000204249087002204249C8
:104B1000087043480078414908700020384988816E
:104B2000087002208DF8240000208DF8280009A8C4
:104B3000FFF784F95AE05AE002203849087055E03E
:104B40000120344908702E4948704FE00020314957
:104B5000087001202A49487048E0207B2F490870DE
:104B6000042030490870012006E0A168095C491C56
:104B70002C4A1154411CC8B228490978F22902DA9A
:104B80002649097800E0F2218142EEDC2EE0012086
:104B90008DF8100004A8FFF7F1FA27E000201D4966
:104BA000087002201C4908701D4800781B490870D5
:104BB000002013498881087002208DF8040000202D
:104BC0008DF8080001A8FFF739F900208DF81000D2
:104BD000154805901549069115490791002104A82B
:104BE0000174FFF7CBFA01E0FFE700BF05E011A079
:104BF00008F02CF818A008F029F800BF09E7000019
:104C0000B0040020CC000020C8000020C400002018
:104C10008801002017010020140100201501002048
:104C200016010020A0030020CD000020D5000020A8
:104C3000DD0000203E3E494E464F3A204E6F206E2A
:104C40006577206D6573736167652066726F6D208F
:104C50004C6F526157414E000D0A000000BFFEE745
:104C600010B586B00446207810B101282CD11EE082
:104C7000607818B902201849087017E000208DF8F4
:104C80000400164802901649039116490491002128
:104C90008DF8141001A8FFF771FA18B904200E4915
:104CA000087002E003200C49087000BF0DE0607836
:104CB00048B90D480078012805D10B498873207A3E
:104CC000C873607A087400E000BF00BF0120074984
:104CD000087006B010BD0000B8000020CD00002014
:104CE000D5000020DD000020B004002018010020C5
:104CF0000178042900D100E000BF00BF7047704771
:104D000010B50D4805F0E8FF0C480078012807D1E0
:104D10000B4908700B48006820F00400094908603E
:104D200009480078022806D10848007820F02000C1
:104D300020300649087010BD8C8700208C020020AE
:104D4000BE020020A802002074020020C60200203B
:104D50001CB5DB4805F0C0FF0024DA480078C0F33A
:104D6000401000287ED0D848007800F0400040284D
:104D70000AD1D548006820F04000D34908600846B1
:104D8000006820F001000860CE480078C0F3C00041
:104D900020B9CC48007800F00100C0B1CB48407881
:104DA000022803D0CA484078022810D1C6480068BB
:104DB00020F00100C44908600020C6490870C648B8
:104DC0000078C24948710020087188600124C348F6
:104DD0000078002858D1002C56D1BA480078C0F38A
:104DE000C00028B9B748007800F0010000284BD077
:104DF000B4480078C0F3C00088B1B548007870B9F5
:104E0000B348407820B90020B5490860B54908701A
:104E1000AD48006820F00100AB49086034E0B248BA
:104E200090F82000AF490978884204DDA548007851
:104E3000C0F3400000B3A3480078C0F3400038B985
:104E40000020A4490870A9480068401CA7490860D0
:104E50000020A4490870A648007830B9A04800682E
:104E6000401C00E079E09E4908609748006820F007
:104E700001009549086007E09248007820F0200082
:104E80009049087000F0C8FE8E480078C0F34000DA
:104E900000B38E480079012805D08F4800789549E5
:104EA0000978884216DD0020934908708B49087004
:104EB0008F48007820B98A480068401C88490860FB
:104EC00085480078814948717F48006820F00100DA
:104ED0007D4908608848007801287CD17A480078AC
:104EE00000F01000002876D1834908707A480078D5
:104EF00080490978884251DA7748007808284DDCE3
:104F000075480078401C74490870087800EBD0712F
:104F10004910A0EB4101012915D11E208DF8040094
:104F2000714890F82C008DF806006F4840788DF895
:104F3000050001A97148007802F09BFB00900098E1
:104F400040B269494870012004F054FE30B95D4810
:104F5000007820F020005B4908703CE009205B49A4
:104F6000487000205B4908705748006820F0010035
:104F7000554908600020594908705449087156483D
:104F8000007848715848407888705948007810BBBC
:104F900053480068401C524908601CE001215748F2
:104FA000007802F074FB4848006820F00100464990
:104FB0000860002047490870484908704349087153
:104FC0004548007848714A48007820B9444800684C
:104FD000401C434908603C48007800F00200022869
:104FE00005D13948006820F002003749086036488A
:104FF000006858BB3348007800F0010050B13148D8
:10500000007820F001002F4908703D4800680168D1
:105010002E4888472B480078C0F3C00050B129487B
:10502000007820F00800274908703548006881683A
:1050300027488847FEF7EEFB08B104F093FF2148AC
:10504000007820F020001F49087007E04FF47A71C3
:105050001B4805F0F3FD1A4805F0FAFD19480078E1
:10506000C0F34000D8B11748007820F0020015497D
:10507000087024480078022801D100F0DFFD1148B3
:105080000078C0F3800020B91D48006841681E48C0
:1050900088470C48007820F004000A490870094845
:1050A0000078C0F3001050B10648007820F01000DE
:1050B0000449087012480068C168144888471CBD3C
:1050C000F8860020C6020020A8020020B887002031
:1050D000CC8700208F020020BD0200208C0200201F
:1050E0007C02002091020020888600208802002097
:1050F00084020020BC020020BE02002054020020D6
:10510000AC02002074020020A0870020C40200200E
:105110002DE9FF4F95B005460C464FF00008C346F9
:10512000C246FF200E9000200D900C9000270B909F
:105130000A90099000268146FE480890FE48079094
:10514000002006900590FD490871FD491798C88117
:1051500018980874FB48007848740020C87088705C
:105160004871886008734873887448610870F6490C
:10517000C86A8047F54805F0AFFD414608F10108CF
:10518000685C14909DF850004009012806D003285F
:105190007ED005287DD007287CD1C4E2EC48007879
:1051A000012806D1E649487000F0A6FF19B000F0CA
:1051B00013BB601E81B2E74BE7480268681CFEF72C
:1051C0001BFE9DF85000E349491E0870201F81B264
:1051D0000CABE1480268DF48401EFEF79DFD201F32
:1051E000DC49491E085C0743E01E085C47EA0027CB
:1051F000A01E085C47EA0047601E085C47EA00679B
:105200000C9887427CD1CC48CA4B0090D348028886
:10521000491CD1480068FEF7ABFDCE48401E00791E
:10522000CF490860CB48401E4079096841EA002018
:10523000CB490860C748401E8079096841EA0040B0
:10524000C7490860C348401EC079C6490860C148C4
:10525000401E007A096841EA0020C2490860BD4842
:10526000401E407A096841EA0040BE490860B948DA
:10527000401E807A096841EA0060BA490860B54872
:10528000401EC07AC0F30210B74981F8210002E045
:105290003BE039E05FE2AF48401EC07A00F00F010A
:1052A000B14880F82810AB48401E007B00F00F008A
:1052B000AD4908610846006908B901200861AA489B
:1052C00000694FF47A714843A749086108460069AC
:1052D00000F57A7048619F480C301190A4F11100DC
:1052E000C0B28DF8480011A9A048007801F025FA55
:1052F00000209F49487001209549087003E0FFE7AE
:1053000007209B4948702CE200BF974890F82D0079
:105310008DF842008A48007940B28DF8410009209A
:105320008DF8400093480078012802D10A208DF8BA
:10533000400010A98D48007802F09BF90F90A4F16D
:105340000D0000B2002801DA002002E0A4F10D00F7
:1053500000B20F99884205D901207949487000F0C0
:10536000CBFE23E74046411C01F0FF0815F800B0D2
:105370004046411C01F0FF08285C4BEA002B4046E8
:10538000411C01F0FF08285C4BEA004B4046411CE1
:1053900001F0FF08285C4BEA006B72480068834507
:1053A0001FD07548D0F800900FE0D9F8000058459C
:1053B00009D10120069009F10400089010300790EF
:1053C000D9F8246004E0D9F82890B9F1000FECD1A5
:1053D00000BF069868B90B205949487000F08CFE50
:1053E000E4E600200690534808905348079063482D
:1053F00006684046411C01F0FF08285C13904046B7
:10540000411C01F0FF08285C0B904046411C01F054
:10541000FF08295C0B9840EA01200B909DF84C0096
:1054200000F00F0000F1080A201F285C0743E01E6F
:10543000285C47EA0027A01E285C47EA0047601E58
:10544000285C47EA0067B0B20A90DDE90A10401A0A
:1054500080B209900998B0F5004F13DA0998064414
:105460000CA80121CDE900160290201F81B25B46F5
:105470002846089AFEF770FA0C9887421CD1012042
:10548000059019E006F58030099909B208440490A6
:105490000CA901220498CDE900200291201F81B2BD
:1054A0005B462846089AFEF757FA0C98874202D1C5
:1054B00001200590049E00BF11208DF8400010A926
:1054C0002A48007802F0D5F80F900F990998814288
:1054D00007D80A201A4948700846466100F00CFEB9
:1054E00064E60598012872D1002015494870069895
:1054F00088709DF84C00C0F300104871002088604F
:1055000008730846466100200C4948701C49086031
:105510001C490870069801283FD1022008490870EC
:10552000D9F82400B04235D1D9F8240060B308205E
:1055300048702AE06883002078830020B887002024
:10554000A0870020C5020020A8EA0008508700209C
:10555000860200208884002060020020640200206F
:10556000680200206C02002088860020540200207F
:10557000CC870020760200207002002080020020EC
:10558000880200209002002004E00846466100F0F6
:10559000B3FD0BE6C9F824602FE09DF8500005210B
:1055A000B1EB501F14D101207E4908707E4908706C
:1055B0007E480068B0421ED17C480068D8B17C4863
:1055C000007820F00400001D7949087013E0A3E082
:1055D0000020744908707449087074480068B0422B
:1055E00009D17248006830B1082048700846466109
:1055F00000F082FDDAE56D4806606E48007801280B
:1056000014D19DF84C00C0F3401090B100206A49BD
:1056100008709DF84C00C0F34010664908719DF871
:105620004C00C0F340106049887402E000206249D9
:105630000870201FA0EB0A00002858DD5046411CCE
:1056400001F0FF0A285C0E90201FA0EB0A00C0B2F8
:105650000D9055490E98C8700E9828BB9DF84C00C7
:1056600000F00F0098B955480121CDE900160290CD
:1056700005EB0A005B46089A0D99FEF729FE18987B
:10568000C3B200214D480D9A00F060FD3CE048484F
:10569000007820F00400001D4549087000204549AD
:1056A0000871414988742FE09DF84C0000F00F000C
:1056B000002808DD1898C3B2AAF10100C2B208217F
:1056C000284600F043FD3D480121CDE90016029037
:1056D00005EB0A005B46079A0D99FEF7F9FD37487E
:1056E000314988600D980873012048730CE09DF8DB
:1056F0004C0000F00F00002806DD1898C3B2524697
:105700000821284600F022FD2948007820F00200F8
:10571000801C2749087005E00C202349487000F0E0
:10572000EBFC43E51DE005EB080122462348FAF7B0
:10573000EDFD03201C490870002048701F48886058
:10574000A4EB080008731A48007820F00200801CBF
:105750001749087005E001201349487000F0CCFC9F
:1057600000BF00BF16480078009012480279154823
:1057700003781548017815480078FBF765FC144854
:10578000007A68B90A48007820F0200020300849E3
:10579000087001210F4805F051FA0E4805F058FA3B
:1057A00000BF03E58D020020A087002080020020BA
:1057B000C6020020B88700208F02002087840020C6
:1057C000BC020020BD020020740200208C020020D8
:1057D0008C870020F886002030BCBDE8C08F000018
:1057E00010B523480078022802D02249C86A8047B1
:1057F0002148007800BB21480078012802D105200B
:105800001F49487005201F49487019480078022830
:1058100027D01D48006805F05DF91C4909688842D9
:105820001FD31B4805F058FA1A48007820F02000D2
:1058300020301849087014E010480078012802D17F
:1058400006200F49487006200E4948700848007825
:10585000022806D00F48007820F0200020300D49A3
:10586000087003480078022801D100F0E7F910BD64
:1058700074020020A8EA0008C50200208C02002063
:10588000B8870020CC87002098020020B8020020B2
:1058900050870020C602002010B526480078022854
:1058A00002D02549C86A80472448007828BB24488C
:1058B0000078012802D103202249487003202249A0
:1058C00048701C48007802282CD02048006805F059
:1058D00001F91F490968884224D31E4805F0FCF9E4
:1058E0001B4801681B4805F0A9F91B48007820F007
:1058F000200020301849087014E011480078012871
:1059000002D104200F49487004200F49487009480B
:105910000078022806D01048007820F020002030BF
:105920000D49087003480078022801D100F086F97B
:1059300010BD000074020020A8EA0008C502002083
:105940008C020020B8870020CC870020980200201D
:10595000B802002050870020C60200201FB505F0C5
:10596000B5F8044645480078022803D04449C86A7F
:10597000804701E000F062F942480078012835D103
:10598000414805F0A9F9414801683F4805F056F93A
:105990003D4805F05DF93948007802280AD03C48B6
:1059A00005F09AF93B480168394805F047F938484D
:1059B00005F04EF931480078022803D036480078C7
:1059C00001282AD112208DF80C0003A93348007851
:1059D00001F04FFE02902F4A029812688118304859
:1059E00005F02CF92E4805F033F916E000202D497A
:1059F000487004202C4948702C48007830B92B4856
:105A0000007820F00100401C2849087027480078E1
:105A100020F0200020302549087024480078C0F389
:105A2000C00030B12048007818B901202049087022
:105A300002E000201E4908701E4800781E490870C8
:105A40001C4800788DF800001C4800788DF8010093
:105A5000019469461148007801F079FE1848046005
:105A60000D48007838B900200E4948701548007874
:105A7000401C14490870FFF76BF91FBD7402002029
:105A8000A8EA0008850200203C870020B40200201C
:105A900050870020B80200208C0200205402002011
:105AA0008C870020B8870020CC870020C602002009
:105AB000A3020020A1020020A202002086020020F2
:105AC000980200209102002010B50B4800780228AF
:105AD00003D00A49C86A804701E000F0AFF802200D
