:020000040800F2
:10000000A088002081020008653D000881390008B1
:10001000613D0008F70800080B58000800000000C8
:10002000000000000000000000000000A101000826
:10003000D914000800000000FD010008294E000846
:100040009B0200089B0200089B0200089B0200081C
:100050009B0200089B0200089B0200089B0200080C
:100060009B0200089B0200089B0200089B020008FC
:100070009B0200089B0200089B0200089B020008EC
:100080009B0200089B0200089B0200089B020008DC
:100090009B0200089B0200089B0200089B020008CC
:1000A0009B020008854F00089B0200089B02000885
:1000B0009B02000800000000000000009B020008F6
:1000C0009B0200089B0200089B0200089B0200089C
:1000D0009B020008455700089B020008555700087E
:1000E0009B0200089B0200080000000000000000C6
:1000F0000000000000000000000000000000000000
:10010000000000009B020008000000009B020008A5
:1001100000000000000000009B0200089B02000895
:100120009B0200089B0200089B0200089B0200083B
:100130009B0200080000000000000000000000001A
:100140009B0200089B0200089B0200089B0200081B
:100150009B0200089B0200089B0200089B0200080B
:100160009B0200089B0200089B02000800000000A0
:100170009B0200089B0200089B0200080000000090
:100180009B0200089B0200089B020008DFF80CD0CD
:1001900000F070FB00480047CD650008A0880020F3
:1001A0002C4B1968086800F05AB880F30988BFF32F
:1001B0006F8F4FF0000080F311887047000000003F
:1001C00008480068006880F308884FF0000080F35A
:1001D000148862B661B6BFF34F8FBFF36F8F00DF35
:1001E00000BF00BF08ED00E0DFF80C00016841F43B
:1001F00070010160704700BF88ED00E0EFF30980F7
:10020000BFF36F8F134B1A681EF0100F08BF20ED5D
:10021000108A20E9F04F106009B44FF0500080F3CD
:100220001188BFF34F8FBFF36F8F07F045F94FF081
:10023000000080F3118809BC1968086800F014B840
:100240001EF0100F08BF00F014B880F30988BFF348
:100250006F8F704750010020EFF30580704730C862
:10026000B0E8C04FFFF7A1BF30C8B0E8C04FFFF7FC
:10027000E7BFB0EC088AB0EC08CAFFF7E6BF0000A1
:100280000648804706480047FEE7FEE7FEE7FEE730
:10029000FEE7FEE7FEE7FEE7FEE7FEE7354F000874
:1002A0008D0100082DE9F05F0546002092469B462F
:1002B00088460646814640241BE02846414647467C
:1002C000224600F0A2F953465A46C01A914110D373
:1002D00011461846224600F089F92D1A67EB0108ED
:1002E0004F4622460120002100F080F917EB00095B
:1002F0004E41201EA4F10104DFDC484631462A4667
:10030000434600F000B830BCBDE8C09F40EA01039E
:100310009B0703D009E008C9121F08C0042AFAD2BB
:1003200003E011F8013B00F8013B521EF9D270477F
:10033000D2B201E000F8012B491EFBD27047002227
:10034000F6E710B513460A4604461946FFF7F0FFD4
:10035000204610BD421C10F8011B0029FBD1801A59
:10036000704730B504460020034600E05B1C934212
:1003700003D2E05CCD5C401BF8D030BD2DE9FE4FD0
:1003800081EA030404F0004421F0004100944FF09E
:10039000000B23F0004350EA01045ED052EA03044C
:1003A0005BD0C3F30A54C1F30A552C44A4F2F334CE
:1003B0000194A0FB0254C1F3130141F48011C3F373
:1003C000130343F4801301FB024400FB034E840A31
:1003D000970A44EA815447EA8357A4FB07680295C9
:1003E0008D0A05FB07854FEA932C04FB0C54270567
:1003F000029D4FEA065847EA1637B5EB08056EEB43
:10040000070C870E920E47EA811742EA8312A7FB78
:100410000201B6EB0B0164EB00042B0D43EA0C3335
:100420005E1844EB1C50DA465146E7FB0201C5F367
:1004300013044FEA0B3343EA14534FEA0432019C8E
:1004400043EA0603A4F10C040294009CCDE900B435
:1004500000F0FAF803B000F003B800200146F9E715
:1004600030BCBDE8C08F2DE9F04D81EA030404F0F3
:10047000004B21F0004514464FF0000A23F00041E4
:1004800050EA050220D054EA01021DD0C5F30A57F4
:100490000246C5F31303C1F31300C1F30A5640F437
:1004A000801543F48013A7EB0608101BD64608F20C
:1004B000FD3873EB050002D308F1010801E0921842
:1004C0005B41B8F1000F03DA00200146BDE8F08D72
:1004D00000204FF48011064684460EE0171B73EB94
:1004E000050705D3121B63EB050306434CEA010C19
:1004F00049084FEA300092185B4150EA0107EDD1FC
:1005000052EA030012D082EA040083EA050108439C
:1005100005D0101BAB4106D20122002306E00022C9
:100520004FF0004302E06FF0010253101AEB060097
:100530004CEB085110EB0A0041EB0B01BDE8F04D0C
:1005400000F073B80EB540F2334102910021CDE9BD
:1005500000110A460B4600F077F803B000BD00001A
:1005600030B5041E71F1000404DB4FF0004440423A
:1005700064EB0101141E73F1000405DB1C464FF00F
:100580000043524263EB04038B4208BF824230BDFA
:1005900030B5041E71F1000404DB4FF0004440420A
:1005A00064EB0101141E73F1000405DB1C464FF0DF
:1005B0000043524263EB0403994208BF904230BDAE
:1005C00030B50B46014600202022012409E021FA23
:1005D00002F59D4205D303FA02F5491B04FA02F520
:1005E0002844151EA2F10102F1DC30BD202A04DBF3
:1005F000203A00FA02F1002070479140C2F1200336
:1006000020FA03F3194390407047202A04DB203A74
:1006100021FA02F00021704721FA02F3D040C2F122
:100620002002914008431946704710B5141E73F11B
:10063000000408DA401C41F1000192185B411A43A2
:1006400001D120F0010010BD2DE9F04D92469B46EE
:1006500011B1B1FA81F202E0B0FA80F22032904694
:10066000FFF7C4FF04460F4640EA0A0041EA0B01C7
:1006700053465A46084313D0114653EA010019D095
:10068000C8F140025046FFF7C0FF05460E465046EF
:1006900059464246FFF7AAFF084305D0012004E06F
:1006A00020463946BDE8F08D0020054346EAE07655
:1006B0002C4337430A986305E40AA0EB08000022A4
:1006C000FD0A44EA47540A3002D500200146E9E712
:1006D000010510196941DDE9084500196941BDE8C6
:1006E000F04DA2E72DE9FE4F804681EA0300C00FDE
:1006F0000C46009021F0004123F00045B8EB0200C9
:10070000A94105D24046214690461C460B4602466A
:1007100023F00040104347D0270DC7F30A00C3F36E
:100720000A510290401A019040286BDAC3F313007B
:1007300040F4801B0098924620B10023D2EB030ABC
:1007400063EB0B0B01985946C0F140025046FFF78E
:100750004DFF06460D4650465946019A00F09CF85A
:1007600010EB08006141002487EA115284EAE77324
:100770001A4340D0009A62B3019A012A4FEA075205
:1007800015DC001B61EB02014FF0004202EA075248
:10079000CDE90042001C41F5801132462B46FFF79F
:1007A00053FF03B000F045B840462146F9E7001B6F
:1007B00061EB0201001C41F5801300185B41201819
:1007C000A2F5001747EB030140EAD570B6196D4159
:1007D00011E06D084FEA360645EAC0754FEA075248
:1007E000001B61EB0201001C41F5801149084FEA32
:1007F00030000019514132462B4603B000F01CB8BE
:10080000FFF713BF0098012240000023D0EB020243
:1008100063EBE073009821464FEAE074B8EB000008
:1008200061EB0401E9E783F000435BE781F00041FD
:1008300058E730BCBDE8C08F30BCBDE8C04FFFF703
:10084000DFBFC1F30A52C1F3130140F2FF3341F499
:1008500080119A4202DA00200146704740F2334389
:100860009A42A2F2334202DC5242FFF7CEBEFFF7B9
:10087000BDBE0000064C074D06E0E06840F00103F5
:1008800094E8070098471034AC42F6D3FFF782FC97
:1008900090840008B0840008202A06DBCB17203A99
:1008A00041FA02F043EAE07306E041FA02F3D04075
:1008B000C2F12002914008431946704730B58C18A8
:1008C00010F8012B12F00F0301D110F8013B1209AF
:1008D00006D110F8012B03E010F8015B01F8015B71
:1008E0005B1EF9D101E001F8013B521EFBD1A14290
:1008F000E6D3002030BD00BFFEE7000070B505461E
:10090000002007490870002404E0285D00F0C6FDBF
:10091000601CC4B2042CF8DB0148007870BD0000F4
:100920005400002010B52DED068B82B00020009001
:10093000019054208DF800002D48008800128DF899
:1009400001002B4800788DF802002A4800788DF8C5
:100950000300284840788DF80400264880788DF8F8
:1009600005002448C0788DF80600224800798DF8EB
:100970000700082269461E48008800F5403005F04F
:1009800019FD05F05DFC00241A48C07804EB0064F2
:100990001848807804EB00441648407804EB0024A3
:1009A0001448007804442046FFF7CCFD41EC1A0BB4
:1009B0009FED110B53EC102BFFF7E0FC41EC190BF2
:1009C0009FED0F0B53EC102BFFF74DFD41EC180B77
:1009D00004F0D8FE53EC182B0BA005F0CDFE04F06C
:1009E000C1FE012000F0BEFD02B0BDEC068B10BDC3
:1009F000B4000020C50000209E63E7F71EC2A2409D
:100A00002575029A081B3E4141637469766520454D
:100A10006E65726779203D20256C6620576174747D
:100A2000730D0A0D0A00000010B52DED068B82B083
:100A30000020009001905C208DF800002E48008876
:100A400000128DF801002C4800788DF802002B4828
:100A500000788DF80300294840788DF80400274875
:100A600080788DF805002548C0788DF80600234869
:100A700000798DF80700082269461F48008800F5B4
:100A8000E02005F097FC05F0DBFB00241B48C07854
:100A900004EB00641948807804EB00441748407860
:100AA00004EB002415480078044424F060442046F8
:100AB000FFF748FD41EC1A0B9FED110B53EC102B87
:100AC000FFF75CFC41EC190B9FED0F0B53EC102B67
:100AD000FFF7C9FC41EC180B04F054FE53EC182B43
:100AE0000BA005F049FE04F03DFE012000F03AFDA8
:100AF00002B0BDEC068B10BDB4000020D900002070
:100B00009E63E7F71EC2A2400000000026241C429C
:100B100041637469766520506F776572203D2025AA
:100B20006C6620576174744872730D0A0D0A0000D8
:100B300010B52DED068B82B00020009001905A2058
:100B40008DF800002D48008800128DF801002B4818
:100B500000788DF802002A4800788DF803002848B4
:100B600040788DF80400264880788DF805002448E8
:100B7000C0788DF80600224800798DF80700082219
:100B800069461E48008800F5C02005F013FC05F0FA
:100B900057FB00241A48C07804EB0064184880789A
:100BA00004EB00441648407804EB00241448007815
:100BB00004442046FFF7C6FC41EC1A0B9FED110BD5
:100BC00053EC102BFFF7DAFB41EC190B9FED0F0BE9
:100BD00053EC102BFFF747FC41EC180B04F0D2FD4F
:100BE00053EC182B0BA005F0C7FD04F0BBFD012052
:100BF00000F0B8FC02B0BDEC068B10BDB4000020C4
:100C0000D40000209E63E7F71EC2A2402575029A19
:100C1000081B3E414170706172656E7420456E65BF
:100C2000726779203D20256C662057617474730DBE
:100C30000A0D0A0010B52DED068B82B00020009041
:100C4000019062208DF800002E48008800128DF877
:100C500001002C4800788DF802002B4800788DF8B0
:100C60000300294840788DF80400274880788DF8E3
:100C700005002548C0788DF80600234800798DF8D6
:100C80000700082269461F48008800F5202005F06B
:100C900091FB05F0D5FA00241B48C07804EB0064F2
:100CA0001948807804EB00441748407804EB00248E
:100CB00015480078044424F060442046FFF742FCC5
:100CC00041EC1A0B9FED110B53EC102BFFF756FB69
:100CD00041EC190B9FED0F0B53EC102BFFF7C3FBEF
:100CE00041EC180B04F04EFD53EC182B0BA005F053
:100CF00043FD04F037FD012000F034FC02B0BDECF0
:100D0000068B10BDB4000020E80000209E63E7F7CA
:100D10001EC2A2400000000026241C4241707061E7
:100D200072656E745F524D5320506F776572203D2F
:100D300020256C6620576174744872730D0A0D0A81
:100D40000000000010B52DED068B82B00020009051
:100D500001902E208DF800003748008800128DF891
:100D60000100354800788DF80200344800788DF88D
:100D70000300324840788DF80400304880788DF8C0
:100D800005002E48C0788DF806002C4800798DF8B3
:100D90000700082269462848008805F00BFB05F08B
:100DA0004FFA26484078040224488078204484B2D0
:100DB0002046FFF7C7FB41EC1A0B9FED210B53ECCC
:100DC000102BFFF7DBFA41EC190B53EC192B9FEDBD
:100DD0001E0B51EC100BFFF746FB41EC180B9FED7F
:100DE0001C0B53EC102B51EC180BFFF7B9FB08D37D
:100DF0009FED190B53EC102B51EC180BFFF7C8FBB0
:100E000009D204F0BFFC53EC182B15A005F0B4FC7C
:100E100004F0A8FC08E004F0B5FC53EC182B17A074
:100E200005F0AAFC04F09EFC012000F09BFB02B040
:100E3000BDEC068B10BD0000B4000020B600002001
:100E40008DEDB5A0F7C6E03E000000000000F03FC9
:100E500000000000008046400000000000405040BC
:100E60004552524F523A2046726571206572726F38
:100E7000723A202566200D0A000000004672657156
:100E80003A20256620487A0D0A0D0A0010B52DED8E
:100E9000088B82B00020009001904E208DF8000059
:100EA0002E48008800128DF801002C4800788DF83B
:100EB00002002B4800788DF80300294840788DF80F
:100EC0000400274880788DF805002548C0788DF803
:100ED0000600234800798DF80700082269461F485C
:100EE000008800F5003005F065FA05F0A9F91C4806
:100EF000C07804021A488078204484B241F6FE701B
:100F000004402046FFF71EFB41EC1B0B9FED150B29
:100F100053EC102BFFF7A7FA41EC1A0B9FED130BC4
:100F200053EC102BFFF72AFA41EC190B9FED110B34
:100F300053EC102BFFF722FA41EC180B04F022FCC3
:100F400053EC182B0DA005F017FC04F00BFC01204E
:100F500000F008FB02B0BDEC088B10BDB40000200F
:100F6000C0000020000000008084FE40000000005F
:100F70000000494000000000008076405068617326
:100F800065203D20256C6620646567726565730D7C
:100F90000A0D0A0030B52DED068B85B000200390B8
:100FA000049048208DF80C005648008800128DF8F7
:100FB0000D00544800788DF80E00534800788DF8E5
:100FC0000F00514840788DF810004F4880788DF818
:100FD00011004D48C0788DF812004B4800798DF80B
:100FE0001300082203A94748008800F5803005F067
:100FF000E1F905F025F9002443484078040242480D
:101000000078204484B2C4F30E042046FFF79AFA15
:1010100041EC1A0B9FED3D0B53EC102BFFF7AEF993
:1010200041EC190B9FED3B0B53EC102BFFF7A6F98E
:1010300041EC180B9FED390B53EC102BFFF713FA13
:10104000384A03C2002530484078C5112E488078C0
:1010500005EB40052C48C07805EB402085B22846BA
:10106000FFF770FA41EC190B9FED280B53EC102B96
:10107000FFF784F941EC180B9FED2B0B53EC102B71
:10108000FFF7F1F92A4A03C29FED2A0B53EC102B0C
:10109000244890ED000B51EC100BFFF761FA0BD3D5
:1010A0009FED260B53EC102B1E4890ED000B51ECDE
:1010B000100BFFF76DFA0CD204F064FB194890EDA9
:1010C000000B53EC102B1FA005F056FB04F04AFB5D
:1010D00010E004F057FB134890ED000B8DED000B72
:1010E000134890ED000B53EC102B1CA005F044FBB3
:1010F00004F038FB012000F035FA05B0BDEC068B9A
:1011000030BD0000B4000020BB000020E17A14AE26
:1011100047E1F23FEA3B1BF59DF19A4000000000D9
:101120000000EC4030010020158C4AEA0434814074
:1011300038010020000000000000694000000000AD
:1011400000E070404552524F523A205631206572AD
:10115000726F723A20256C66200D0A0043313D20E3
:10116000256C6620416D7073207C2056313D202512
:101170006C6620566F6C74730D0A0D0A0000000037
:1011800010B52DED068B82B0002000900190582004
:101190008DF800002D48008800128DF801002B48C2
:1011A00000788DF802002A4800788DF8030028485E
:1011B00040788DF80400264880788DF80500244892
:1011C000C0788DF80600224800798DF807000822C3
:1011D00069461E48008800F5A02005F0EBF805F0F0
:1011E0002FF800241A48C07804EB0064184880786F
:1011F00004EB00441648407804EB002414480078BF
:1012000004442046FFF79EF941EC1A0B9FED110BA9
:1012100053EC102BFFF7B2F841EC190B9FED0F0BBD
:1012200053EC102BFFF71FF941EC180B04F0AAFA4E
:1012300053EC182B0BA005F09FFA04F093FA012051
:1012400000F090F902B0BDEC068B10BDB400002098
:10125000CF0000209E63E7F71EC2A2402575029AC8
:10126000081B3E41526561637469766520456E6571
:10127000726779203D20256C662057617474730D68
:101280000A0D0A0010B52DED068B82B000200090EB
:10129000019060208DF800002E48008800128DF823
:1012A00001002C4800788DF802002B4800788DF85A
:1012B0000300294840788DF80400274880788DF88D
:1012C00005002548C0788DF80600234800798DF880
:1012D0000700082269461F48008800F5102005F025
:1012E00069F804F0ADFF00241B48C07804EB0064EB
:1012F0001948807804EB00441748407804EB002438
:1013000015480078044424F060442046FFF71AF999
:1013100041EC1A0B9FED110B53EC102BFFF72EF83D
:1013200041EC190B9FED0F0B53EC102BFFF79BF8C3
:1013300041EC180B04F026FA53EC182B0BA005F027
:101340001BFA04F00FFA012000F00CF902B0BDEC1A
:10135000068B10BDB4000020E30000209E63E7F779
:101360001EC2A2400000000026241C425265616398
:101370007469766520506F776572203D20256C6614
:1013800020576174744872730D0A0D0A0000000042
:1013900010B52DED068B82B00020009001908A20C0
:1013A0008DF800002D48008800128DF801002B48B0
:1013B00000788DF802002A4800788DF8030028484C
:1013C00040788DF80400264880788DF80500244880
:1013D000C0788DF80600224800798DF807000822B1
:1013E00069461E48008800F5602004F0E3FF04F021
:1013F00027FF00241A48C07804EB0064184880785E
:1014000004EB00441648407804EB002414480078AC
:1014100004442046FFF796F841EC1A0B9FED110BA0
:1014200053EC102BFEF7AAFF41EC190B9FED0F0BAD
:1014300053EC102BFFF717F841EC180B04F0A2F94E
:1014400053EC182B0BA005F097F904F08BF9012051
:1014500000F088F802B0BDEC068B10BDB40000208F
:10146000FC0000209E63E7F71EC2A2402575029A89
:10147000081B3E41546F74616C204170706172654D
:101480006E7420456E65726779203D20256C66205C
:1014900057617474730D0A0D0A00000010B5002125
:1014A00015E00C4B1B7880EA03020A4B1B785B06A5
:1014B0001B0E084C237002F0800323B123461B78D7
:1014C00083F0070323704306180E4B1CD9B208297A
:1014D000E7DB10BD540000207047000006E004F078
:1014E00051F903A005F048F904F03CF9F7E70000D2
:1014F0002121214572726F722048616E646C6572A1
:101500002121210D0A00000070B50446002594F841
:101510002500022803D00420E063012520E0206894
:10152000006820F00E00216808602068006820F044
:1015300001002168086094F8440000F01C010120BB
:101540008840216C4860012084F8250000BF0020FD
:1015500084F8240000BFA06B10B12046A16B88471F
:10156000284670BD70B5044600F0FAF806462546D8
:10157000681C10B104480068054400BF00F0F0F892
:10158000801BA842FAD370BD4801002078B50346FD
:101590000022CBE0012696400D6805EA0604002CE7
:1015A00072D04D68012D08D04D68022D05D04D68D0
:1015B000112D02D04D68122D13D1986856000325C5
:1015C000B540A8435600CD68B54028439860586898
:1015D00001259540A8430D79C5F300159540284392
:1015E0005860D86856000325B540A84356008D685A
:1015F000B5402843D8604D68022D02D04D68122DA9
:1016000013D1D60803F1200555F826005507EE0E34
:101610000F25B540A8435607F60E0D69B54028437F
:10162000D60803F1200545F8260018685600032562
:10163000B540A8430D7905F003055600B540284391
:1016400018604D6805F08055B5F1805F6DD100BF21
:10165000394D2D6E45F00105374E356635462D6EF8
:1016600005F00105009500BF00BF4FEAB6359608AA
:1016700055F8260095072E0F0F25B540A843B3F166
:10168000904F02D1002515E04FE02C4DAB4201D127
:1016900001250FE02A4DAB4201D102250AE0294D78
:1016A000AB4201D1032505E0274DAB4201D1042512
:1016B00000E007259607360FB5402843234D9608CE
:1016C00045F82600224D2868A0434D6805F4803572
:1016D000B5F5803F00D120431D4D28602D1D2868A1
:1016E000A0434D6805F40035B5F5003F00D1204317
:1016F000174D2D1D28602D1D2868A0434D6805F449
:101700008015B5F5801F00D12043114D08352860A4
:101710002D1D2868A0434D6805F40015B5F5001F80
:1017200000D120430A4D0C352860521C0D68D5406D
:10173000002D7FF42FAF78BD001002400004004858
:1017400000080048000C0048001000480800014054
:10175000000401400AB1816100E08162704700002D
:1017600001480068704700004001002003480068FD
:101770000349096808440149086070474001002096
:101780004801002010B50024032000F0C5F8002017
:1017900000F008F808B1012401E000F047F8204605
:1017A00010BD000070B588B0044600250026002258
:1017B0002146192000F06EF8192000F05BF800BFF8
:1017C0001648006E40F40060144908660846006E32
:1017D00000F40060019000BF00BF02A903A800F060
:1017E00083FC00F0BBFC05460D48B5FBF0F0461E3F
:1017F0000C480D49086040F2E7310B48C160466073
:1018000000210161816001F0D6FC20B9064801F099
:10181000EDFC08B070BD0120FBE7000000100240A5
:1018200040420F00002C0140400A002008B500BFD4
:101830000F48006E40F001000D4908660846006E32
:1018400000F00100009000BF00BF00BF0846806D9F
:1018500040F0805088650846806D00F08050009010
:1018600000BF00BF00220F21901E00F013F808BD3A
:101870000010024001460846002809DB00F01F0363
:1018800001229A4043099B0003F1E023C3F80021A1
:1018900000BF70472DE9F05F80460D4616460027D1
:1018A00003F0C8FF074639462A46334601F00700D1
:1018B000C0F1070ABAF1040F02D94FF0040A01E09F
:1018C000C0F1070AD14600F1040ABAF1070F02D2AB
:1018D0004FF0000A01E0A0F1030AD4464FF0010ADC
:1018E0000AFA09FAAAF1010A0AEA020A0AFA0CFA41
:1018F0004FF0010B0BFA0CFBABF1010B0BEA030BE6
:101900004AEA0B042146404603F09CFF00F000B871
:1019100030BCBDE8C09F000000BF00F00702064BCE
:1019200019684FF6FF031940044B0B4343EA0221A9
:10193000014B196000BF70470CED00E00000FA0594
:10194000024611680120C2F86802002082F8600295
:1019500031F8540F40F001000880088840F0020080
:1019600021F854090020704730B585B0044614B9F9
:10197000012005B030BD94F8290228B9002084F870
:101980002802204600F08EF8032084F829022068FF
:1019900003F024FF142204F110016846FEF7B6FCA0
:1019A00094E80F0003F0FEFE20B1022084F8290223
:1019B0000120DEE70021206803F024FF002526E057
:1019C000012104F1280000EB4510417004F12800CA
:1019D00000EB4510057004F1280000EB4510C581AF
:1019E000002104F1280000EB4510C17004F128002B
:1019F00000EB4510016104F1280000EB4510416146
:101A000004F1280000EB45108161681CC5B26068D4
:101A1000A842D5D8002520E0002104F5947000EB01
:101A20004510417004F5947000EB4510057004F505
:101A3000947000EB4510C17004F5947000EB4510F4
:101A4000016104F5947000EB4510416104F5947058
:101A500000EB45108161681CC5B26068A842DBD804
:101A6000142204F110016846FEF750FC94E80F00C0
:101A700003F0A5FE20B1022084F82902012078E7B6
:101A8000002084F82400012084F82902E06901285C
:101A900002D12046FFF754FF206803F087FE0020A4
:101AA00067E7000008B5094A016891420DD100BFFF
:101AB0000749896D41F08061054A91651146896D3C
:101AC00001F08061009100BF00BF08BD00680040C8
:101AD000001002400246B2F5007F2AD11D4800687E
:101AE00000F4C060B0F5007F32D01A48006820F4DE
:101AF000C06040F40070174B18601748006832232C
:101B00005843164BB0FBF3F0411C00E0491E11484E
:101B1000406900F48060B0F5806F01D10029F5D1F3
:101B20000C48406900F48060B0F5806F10D103204C
:101B300070470848006800F4C060B0F5806F07D0B7
:101B40000448006820F4C06040F48060014B1860D5
:101B50000020EDE7007000404C01002040420F00E3
:101B60000248006800F4C060704700000070004048
:101B70000348006840F48070014908607047000025
:101B8000007000400348006840F00400014908600C
:101B900070470000001002402DE9F843044600257C
:101BA000A846208800F40060B0F5006F26D1606C74
:101BB00068B1B0F5000F03D0B0F5400F0ED10CE0C6
:101BC000E848C06840F48030E649C86008E0002179
:101BD000201D02F0C9F8054602E001E0012500BF22
:101BE00000BF55B9DF488830006820F44000616CC0
:101BF0000843DC49C1F8880000E0A846206800F4EA
:101C00000030B0F5003F75D14FF00009D548806D28
:101C1000012121EA107078B100BFD248806D40F0F8
:101C20008050D04988650846806D00F08050009053
:101C300000BF00BF4FF00109CB48006840F480703E
:101C4000C9490860FFF78CFD074606E0FFF788FDED
:101C5000C01B022801D9032505E0C348006800F431
:101C600080700028F2D000BF7DBBBE489030006875
:101C700000F44076CEB1E06DB04216D0B948903055
:101C8000006820F44076B748D0F8900040F48030E7
:101C9000B449C1F890000846D0F8900020F4803094
:101CA000C1F890000846C0F8906006F00100A8B1A5
:101CB000FFF756FD074609E0FFF752FDC01B41F252
:101CC0008831884202D9032507E016E0A548903004
:101CD000006800F002000028EED000BF5DB9A14806
:101CE0009030006820F44070E16D08439D49C1F8D0
:101CF000900003E00CE0A84600E0A846B9F1010F0F
:101D000005D19848806D20F080509649886500BFC5
:101D1000207800F0010048B192488830006820F037
:101D20000300216A08438F49C1F88800207800F039
:101D30000200022809D18B488830006820F00C008E
:101D4000616A08438749C1F88800207800F00400E0
:101D5000042809D183488830006820F03000A16A47
:101D600008438049C1F88800207800F0200020282E
:101D700009D17C488830006820F44060E16A08435B
:101D80007849C1F88800208800F40070B0F5007F21
:101D900009D174488830006820F44020E16B084382
:101DA0007049C1F88800208800F48060B0F5806F29
:101DB00009D16C488830006820F44010216C084339
:101DC0006849C1F88800207800F04000402809D117
:101DD00064488830006820F44050216B0843614912
:101DE000C1F88800207800F08000802809D15D4883
:101DF0008830006820F44040616B08435949C1F8BD
:101E00008800208800F48070B0F5807F09D15548A3
:101E10008830006820F44030A16B08435149C1F874
:101E20008800208800F40050B0F5005F1FD14D48B5
:101E30008830006820F04060A16C0843494988312F
:101E40000860A06CB0F1006F06D14648C06840F44D
:101E500080104449C8600AE0A06CB0F1806F06D1E0
:101E60000121201D01F080FF054605B1A84620682C
:101E700000F40020B0F5002F1FD13A4888300068E8
:101E800020F04060E16C0843364988310860E06C1E
:101E9000B0F1006F06D13348C06840F4801031497A
:101EA000C8600AE0E06CB0F1806F06D10121201D0E
:101EB00001F05AFF054605B1A846206800F48020CD
:101EC000B0F5802F1FD127488830006820F040608F
:101ED000216D0843234988310860206DB0F1006FFF
:101EE00006D12048C06840F480101E49C8600AE04E
:101EF000206DB0F1806F06D10121201D01F034FF6B
:101F0000054605B1A846208800F48040B0F5804F12
:101F100014D114488830006820F04050616D0843A7
:101F2000104988310860606DB0F1805F06D10221F0
:101F3000201D01F019FF054605B1A846208800F4D0
:101F40000040B0F5004F09D106488830006820F005
:101F50008040A16D08430349C1F888004046BDE8B0
:101F6000F883000000100240007000402DE9F041AD
:101F700004460D4614B90120BDE8F08155480068BB
:101F800000F00700A8420ED25248006820F0070077
:101F90002843504908600846006800F00700A8423E
:101FA00001D00120E8E7207800F00100002840D0AF
:101FB0006068032806D14848006800F00070D8B96E
:101FC0000120D9E76068022806D14348006800F480
:101FD000003088B90120CFE7606830B93E4800681A
:101FE00000F0020040B90120C6E73B48006800F459
:101FF000806008B90120BFE73748806820F00300FF
:102000006168084334498860FFF7AAFB064608E088
:10201000FFF7A6FB801B41F28831884201D90320DB
:10202000AAE72D48806800F00C006168B0EB810FD2
:10203000EED1207800F00200022807D126488068FF
:1020400020F0F000A1680843234988602148006817
:1020500000F00700A8420ED91E48006820F00700D3
:1020600028431C4908600846006800F00700A842A1
:1020700001D0012080E7207800F00400042807D177
:102080001548806820F4E060E168084312498860E0
:10209000207800F00800082808D10F48806820F454
:1020A0006050216940EAC1000B49886000F068F87F
:1020B00009498968C1F30311084A515C01F01F0105
:1020C000C8400749086007480068FFF76BFB0746F0
:1020D000384651E70020024000100240F483000817
:1020E0004C010020440100200F2202600D4A92683A
:1020F00002F0030242600B4A926802F0F002826032
:10210000084A926802F4E062C260064A926802F4E9
:102110006052D2080261044A126802F007020A60A3
:102120007047000000100240002002400148006893
:10213000704700004C01002000B5FFF7F7FF05498C
:102140008968C1F30221044A515C01F01F01C840B3
:1021500000BD0000001002400484000800B5FFF735
:10216000E5FF05498968C1F3C221044A515C01F0C9
:102170001F01C84000BD0000001002400484000898
:10218000F0B500230020DFF8D4C0DCF808C00CF064
:102190000C01DFF8C8C0DCF80CC00CF0030719B163
:1021A0000C291ED1012F1CD1DFF8B0C0DCF800C013
:1021B0000CF0080CBCF1000F06D1DFF8A0C0DCF871
:1021C00094C0CCF3032305E0DFF890C0DCF800C036
:1021D000CCF30313DFF888C05CF8233041B918460C
:1021E00006E0042901D11F4802E0082900D11E4859
:1021F0000C2932D1DFF864C0DCF80CC00CF0030409
:10220000012C09D0022C02D0032C04D101E0154A84
:1022100004E0154A02E000BF1A4600BF00BFDFF825
:102220003CC0DCF80CC0CCF3021C0CF10106DFF85A
:102230002CC0DCF80CC0CCF3062C0CFB02FCBCFB65
:10224000F6F2DFF818C0DCF80CC0CCF3416C0CF1EE
:10225000010C4FEA4C05B2FBF5F0F0BD0010024056
:102260000C8400080024F40000127A002DE9F843E1
:10227000044614B90120BDE8F883F948806800F0ED
:102280000C06F748C06800F00307207800F0100043
:10229000102877D11EB10C2E76D1012F74D1F048C1
:1022A000006800F0020018B1A06908B90120E2E757
:1022B000EB48216A006800F0080020B1E848006897
:1022C00000F0F00005E0E6489430006800F470602B
:1022D000000981421FD9206A01F00AFE08B10120DD
:1022E000C9E700BFDE48006840F00800DC4908602C
:1022F0000846006820F0F000216A0843D8490860C9
:1023000000BF0846406820F47F40E16940EA0120B0
:10231000D34948601FE000BFD148006840F0080082
:10232000CF4908600846006820F0F000216A0843A1
:10233000CB49086000BF0846406820F47F40E1694F
:1023400040EA0120C64948602EB9206A01F0D0FD5C
:1023500008B101208FE7FFF713FFC1498968C1F376
:102360000311C04A515C01F01F01C840BE4908601A
:10237000BE480068FFF716FA8046B8F1000F4ED04D
:10238000404678E74BE0FFE7A06980B3B4480068B7
:1023900040F00100B2490860FFF7E2F9054606E0A7
:1023A000FFF7DEF9401B022801D9032063E7AC48A0
:1023B000006800F002000028F2D000BFA8480068C2
:1023C00040F00800A64908600846006820F0F000C8
:1023D000216A0843A249086000BF0846406820F40B
:1023E0007F40E16940EA01209D49486017E0FFE72E
:1023F0009B48006820F0010099490860FFF7B0F998
:10240000054606E0FFF7ACF9401B022801D903207E
:1024100031E79348006800F002000028F2D12078EC
:1024200000F0010000285CD0082E03D00C2E0AD149
:10243000032F08D18A48006800F4003088B3606830
:1024400078BB012017E700BF6068B0F5803F06D178
:102450008348006840F48030814908601AE0606871
:10246000B0F5A02F0BD17E48006840F480207C4955
:1024700008600846006840F4803008600AE0784848
:10248000006820F48030764908600846006820F42F
:102490008020086000BF606890B1FFF761F90546D1
:1024A00007E01EE0FFF75CF9401B642801D9032018
:1024B000E1E66B48006800F400300028F2D010E03C
:1024C000FFF74EF9054606E0FFF74AF9401B64287E
:1024D00001D90320CFE66248006800F400300028EC
:1024E000F2D1207800F00200022852D1042E03D04D
:1024F0000C2E14D1022F12D15948006800F48060CC
:1025000018B1E06808B90120B5E65548406820F0E8
:10251000F850217C40EA01605149486039E0E068A8
:1025200000B34F48006840F480704D490860FFF7E1
:1025300017F9054606E0FFF713F9401B022801D9F9
:10254000032098E64648006800F480600028F2D036
:102550004348406820F0F850217C40EA016040493F
:10256000486016E03E48006820F480703C490860EE
:10257000FFF7F6F8054606E0FFF7F2F8401B0228E1
:1025800001D9032077E63648006800F4806000280F
:10259000F2D1207800F00800082836D16069D0B167
:1025A0002F489430006840F001002D49C1F8940094
:1025B000FFF7D6F8054606E0FFF7D2F8401B0228E1
:1025C00001D9032057E626489430006800F0020045
:1025D0000028F1D019E022489430006820F0010072
:1025E0001F49C1F89400FFF7BBF8054606E0FFF766
:1025F000B7F8401B022801D903203CE61848943064
:10260000006800F002000028F1D1207800F00400FA
:10261000042872D14FF000091148806D00F08050FD
:1026200078B900BF0E48806D40F080500C49886535
:102630000846806D00F08050009000BF00BF4FF052
:1026400001090B48006800F4807000BB084800686E
:1026500040F4807006490860FFF782F8054610E0F4
:1026600000100240F48300084C01002044010020C7
:1026700000700040FFF774F8401B022801D90320C6
:10268000F9E5D048006800F480700028F2D000BF5F
:10269000A068012808D1CC48006840F00100CA4970
:1026A0009039C1F8900021E0A06805280FD1C648F4
:1026B000006840F00400C4499039C1F89000084611
:1026C000D0F8900040F00100C1F890000EE0BE4844
:1026D000006820F00100BC499039C1F8900008461C
:1026E000D0F8900020F00400C1F8900000BFA0686E
:1026F000A0B1FFF735F8054609E02EE0FFF730F806
:10270000401B41F28831884201D90320B3E5AE482D
:10271000006800F002000028F0D012E0FFF720F877
:10272000054608E0FFF71CF8401B41F2883188425B
:1027300001D903209FE5A448006800F002000028AA
:10274000F0D1B9F1010F07D19F489038806D20F08A
:1027500080509D499039886500BF207800F02000A6
:10276000202838D1606AD8B197480830006840F016
:10277000010095499039C1F89800FEF7F1FF054630
:1027800006E0FEF7EDFF401B022801D9032072E5A9
:102790008D480830006800F002000028F1D01AE0EF
:1027A00089480830006820F0010087499039C1F855
:1027B0009800FEF7D5FF054606E0FEF7D1FF401B67
:1027C000022801D9032056E57F480830006800F050
:1027D00002000028F1D1A06A00287DD0A06A02285A
:1027E0007BD179489038C76807F00301E06A8142DD
:1027F00025D107F07001206B401EB1EB001F1ED1E8
:1028000007F4FE41606BB1EB002F18D107F078415F
:102810003820005DB1EBC06F11D107F4C001A08F6B
:102820000122C2EB5000B1EB405F08D107F0C0615C
:102830004020005DC2EB5000B1EB406F66D00C2E23
:1028400062D061489038006800F0806008B10120D3
:1028500011E55D489038006820F080705A49903941
:102860000860FEF77DFF054606E0FEF779FF401B96
:10287000022801D90320FEE453489038006800F094
:1028800000700028F1D1D4E90B10401E41EA00117C
:10289000606B41EA0021A08F0122C2EB500041EAA7
:1028A00040514020005DC2EB500041EA40613820B9
:1028B000005D41EAC06044499039C968434A11400B
:1028C000084341499039C8600846006840F080706C
:1028D00008600846C06801E05BE03DE040F08070C1
:1028E000C860FEF73DFF054606E0FEF739FF401BD6
:1028F000022801D90320BEE433489038006800F074
:1029000000700028F1D05AE00120B4E42E4890383D
:10291000006800F00070E0BB2B489038006840F081
:1029200080702949903908600846C06840F080707E
:10293000C860FEF715FF054606E0FEF711FF401BD5
:10294000022801D9032096E41F489038006800F05F
:1029500000700028F1D032E00C2E2ED01A489038AA
:10296000006820F0807018499039086008460068B7
:1029700000F0006020B90846C06820F00300C8607D
:1029800011489038C068124908400F499039C86012
:1029900000E014E0FEF7E4FE054606E0FEF7E0FE88
:1029A000401B022801D9032065E4074890380068DD
:1029B00000F000700028F1D101E001205BE400206C
:1029C00059E4000000700040901002408C809D018E
:1029D000FFFFEEFE70B504460CB9012070BD606AC1
:1029E00000B900BF0021A16294F85D0028B9002061
:1029F00084F85C00204600F04DF8022084F85D0069
:102A00002068006820F0400021680860E068B0F5A8
:102A1000E06F01D9002501E04FF48055E068B0F582
:102A2000706F05D0E068B0F5E06F01D00021A162C1
:102A3000206B40B9E068B0F5E06F02D90221216354
:102A400001E001212163D4E9010108432169084320
:102A500061690843218B01F400710843E16908436F
:102A6000216A0843A16A0843216808600421A0691B
:102A700001EA1040616A0843616B0843E16808435A
:102A800028432168486000202066012084F85D000A
:102A90000020A3E710B586B00446142101A8FDF775
:102AA0004EFC2F492068884229D100BF2D48006E76
:102AB00040F480502B4908660846006E00F48050B0
:102AC000009000BF00BF00BF0846C06C40F002008D
:102AD000C8640846C06C00F00200009000BF00BF50
:102AE00038200190022002900020039003200490DF
:102AF0000520059001A91C48FEF748FD2DE01B4963
:102B00002068884229D100BF1648806D40F480407B
:102B1000144988650846806D00F48040009000BF2D
:102B200000BF00BF0846C06C40F00200C864084601
:102B3000C06C00F00200009000BF00BF4FF4704076
:102B400001900220029000200390032004900520B1
:102B5000059001A90448FEF719FD06B010BD00005C
:102B600000300140001002400004004800380040DE
:102B70002DE9F8430446884616461D464FF00009E5
:102B80006068B0F5827F0DD1A06858B9042084F840
:102B90005D003346424641462046009500F0A7F9C5
:102BA000BDE8F88300BF94F85C00012801D1022041
:102BB000F6E7012084F85C0000BFFEF7D1FD074670
:102BC00094F85D00012802D04FF0020993E0B8F1BB
:102BD000000F00D016B94FF001098CE0042084F8F2
:102BE0005D0000202066C4F84080A4F84460A4F88A
:102BF0004660A063A087E087E0642065E068B0F5E8
:102C0000E06F06D92068406820F480502168486051
:102C100005E02068406840F4805021684860A06862
:102C2000B0F5004F05D12068006820F4804021688D
:102C300008602068006800F04000402805D0206847
:102C4000006840F0400021680860E068B0F5E06F7F
:102C500022D81CE02068806800F0010060B1206884
:102C6000007B216C0870206C401C2064B4F8460086
:102C7000401EA4F846000AE0FEF772FDC01BA84201
:102C800001D3681C00B915B94FF0030933E0B4F85B
:102C900046000028DED121E01CE02068806800F0BA
:102CA000010060B12068C068216C0880206C801C25
:102CB0002064B4F84600401EA4F846000AE0FEF77F
:102CC0004FFDC01BA84201D3681C00B915B94FF0D5
:102CD000030910E0B4F846000028DED13A46294640
:102CE000204601F09FF908B120202066206E08B12F
:102CF0004FF0010900BF012084F85D0000BF0020F3
:102D000084F85C0000BF48464AE72DE9F84F0446C6
:102D1000884616461D464FF0000A00BF94F85C0036
:102D2000012802D1022000F0DFB8012084F85C0005
:102D300000BFFEF715FD0746B14694F85D00012877
:102D400002D04FF0020AC5E0B8F1000F00D016B96A
:102D50004FF0010ABEE0032084F85D0000202066E9
:102D6000C4F83880A687E6872064A4F84400A4F855
:102D700046002065E064A068B0F5004F05D12068EA
:102D8000006840F48040216808602068006800F016
:102D90004000402805D02068006840F040002168CD
:102DA0000860E068B0F5E06F2FD9606810B1B9F144
:102DB000010F09D1A06B00882168C860A06B801C3E
:102DC000A063E08F401EE0871BE02068806800F071
:102DD000020002280AD1A06B00882168C860A06B9D
:102DE000801CA063E08F401EE0870AE0FEF7B8FC7D
:102DF000C01BA84201D3681C00B915B94FF0030AE3
:102E000068E0E08F0028E0D14AE0606810B1B9F1D5
:102E1000010F17D1E08F01280AD9A06B0088216823
:102E2000C860A06B801CA063E08F801EE08709E073
:102E3000A06B007821680873A06B401CA063E08F32
:102E4000401EE08729E02068806800F00200022828
:102E500018D1E08F01280AD9A06B00882168C860CA
:102E6000A06B801CA063E08F801EE08715E0A06B44
:102E7000007821680873A06B401CA063E08F401E9F
:102E8000E0870AE0FEF76CFCC01BA84201D3681C77
:102E900000B915B94FF0030A1CE0E08F0028D2D129
:102EA0003A462946204601F0FEF808B12020206667
:102EB000A06850B900BF002000902068C068009052
:102EC00020688068009000BF00BF206E08B14FF0FE
:102ED000010A00BF012084F85D0000BF002084F8D3
:102EE0005C0000BF50461EE718BCBDE8E08F2DE92E
:102EF000FF5F0446894692461D460E9E01200190C2
:102F00000020009000BF94F85C00012803D102204B
:102F100004B000F04AB9012084F85C0000BFFEF75D
:102F20001FFC074694F85D00029060680390A84675
:102F3000AB46029801280BD00398B0F5827F04D1EC
:102F4000A06810B90298042802D00220009022E163
:102F5000B9F1000F03D0BAF1000F00D015B901206C
:102F6000009018E194F85D00042802D0052084F850
:102F70005D0000202066C4F840A0A4F84650A4F8E4
:102F80004450C4F83890E587A587E0642065E06880
:102F9000B0F5E06F02D8BBF1010F06D92068406898
:102FA00020F480502168486005E02068406840F4C3
:102FB0008050216848602068006800F04000402888
:102FC00005D02068006840F0400021680860E06893
:102FD000B0F5E06F4ED9606810B1B8F1010F09D1BA
:102FE000A06B00882168C860A06B801CA063E08F84
:102FF000401EE08736E02068806800F0020002286A
:1030000010D1E08F70B1019801280BD1A06B00881E
:103010002168C860A06B801CA063E08F401EE08721
:10302000002001902068806800F0010080B1B4F8B1
:10303000460068B12068C068216C0880206C801C44
:103040002064B4F84600401EA4F846000120019018
:10305000FEF786FBC01BB04204D3701C10B10320E6
:10306000009098E0E08F0028C5D1B4F84600002811
:10307000C1D185E0606810B1B8F1010F17D1E08FC0
:1030800001280AD9A06B00882168C860A06B801C49
:10309000A063E08F801EE08709E0A06B00782168C4
:1030A0000873A06B401CA063E08F401EE08760E0C7
:1030B0002068806800F0020002281ED1E08FE0B195
:1030C0000198012819D1E08F01280AD9A06B008846
:1030D0002168C860A06B801CA063E08F801EE08721
:1030E00009E0A06B007821680873A06B401CA06306
:1030F000E08F401EE087002001902068806800F08B
:10310000010058B3B4F8460040B3B4F846000128B3
:1031100016D92068C068216C0880206C801C20644F
:10312000B4F84600801EA4F84600B4F84600012812
:1031300012D82068406840F48050216848600BE055
:103140002068007B216C0870206C401C2064B4F85F
:103150004600401EA4F8460001200190FEF700FB47
:10316000C01BB04201D3701C00B916B903200090F7
:1031700011E0E08F00289BD1B4F84600002897D1D9
:103180003A463146204600F08EFF18B101200090EB
:103190002020206600BF012084F85D0000BF0020D1
:1031A00084F85C0000BF0098B2E630BCBDE8C09F68
:1031B00070477047704710B504460CB9012010BD28
:1031C00094F83D0028B9002084F83C00204600F027
:1031D0000CF8022084F83D00211D206801F0DAFE81
:1031E000012084F83D000020E9E7704701460868A7
:1031F000C06840F001000B68D86008688068084B20
:1032000000EA0302062A08D0B2F5803F05D008681C
:10321000006840F001000B68186000207047000053
:1032200007000100704710B5044620680069C0F32C
:103230004000D8B12068C068C0F34000B0B16FF062
:10324000020021680861012020772068806900F071
:10325000030018B12046FFF7E5FF05E0204600F027
:10326000BEF8204600F0BCF80020207720680069F6
:10327000C0F38000D8B12068C068C0F38000B0B14E
:103280006FF00400216808610220207720688069BF
:1032900000F4407018B12046FFF7C4FF05E0204657
:1032A00000F09DF8204600F09BF800202077206871
:1032B0000069C0F3C000D8B12068C068C0F3C00086
:1032C000B0B16FF008002168086104202077206801
:1032D000C06900F0030018B12046FFF7A3FF05E026
:1032E000204600F07CF8204600F07AF80020207795
:1032F00020680069C0F30010D8B12068C068C0F32E
:103300000010B0B16FF0100021680861082020772C
:103310002068C06900F4407018B12046FFF782FFB2
:1033200005E0204600F05BF8204600F059F8002048
:1033300020772068006900F0010058B12068C0685B
:1033400000F0010030B16FF00100216808612046F3
:1033500000F048F820680069C0F3C01058B1206838
:10336000C068C0F3C01030B16FF080002168086100
:103370002046FFF71EFF20680069C0F3002058B107
:103380002068C068C0F3C01030B16FF4807021684D
:1033900008612046FFF70CFF20680069C0F3801029
:1033A00058B12068C068C0F3801030B16FF04000A1
:1033B00021680861204600F021F820680069C0F308
:1033C000401058B12068C068C0F3401030B16FF0B1
:1033D0002000216808612046FFF7ECFE10BD704711
:1033E0007047000010B5044603492068884201D1A7
:1033F000FEF7BCF910BD0000002C0140704770477B
:10340000704700002DE9F04704462068C569206830
:1034100006682068876840F60F0005EA0008B8F1E2
:10342000000F0CD105F0200048B106F0200030B1AB
:10343000206E10B12046216E8847BDE8F087B8F1B4
:10344000000F7DD007F0010018B906F49070002835
:10345000F7D005F0010048B106F4807030B10120CA
:1034600021680862E06F40F00100E06705F00200AB
:1034700048B107F0010030B1022021680862E06F16
:1034800040F00400E06705F0040048B107F00100D7
:1034900030B1042021680862E06F40F00200E0676C
:1034A00005F0080060B106F0200010B907F0010037
:1034B00030B1082021680862E06F40F00800E06742
:1034C00005F4006050B106F0806038B14FF4006040
:1034D00021680862E06F40F02000E067E06F80B391
:1034E00005F0200038B106F0200020B1206E10B1A8
:1034F0002046216E8847D4F87C902068806800F0D0
:103500004000402802D009F0280030B3204601F0E6
:103510003AFE2068806800F04000402819D12068F9
:10352000806820F0400021688860E06E68B1214822
:10353000E16E8863E06EFDF7E7FF10B1E06E01E039
:1035400011E00FE0816B88470CE02046FFF758FF41
:1035500008E02046FFF754FF04E02046FFF750FF45
:103560000020E06769E705F4801050B107F480009F
:1035700038B14FF48010216808622046FFF73FFF02
:103580005BE705F0800040B106F0800028B1606E76
:1035900010B12046616E88474FE705F0400030B11A
:1035A00006F0400018B1204601F0FEFD45E700BFDF
:1035B00043E700006F51000810B504460CB9012024
:1035C00010BDA06900B100E000BF606F28B9002005
:1035D00084F87000204600F029F8242060672068F5
:1035E000006820F0010021680860204601F054FEC8
:1035F000012800D1E4E7606A10B1204601F004FD23
:103600002068406820F49040216848602068806805
:1036100020F02A00216888602068006840F00100DE
:1036200021680860204601F06BFDC9E710B586B03F
:103630000446142101A8FCF782FE3849206888421C
:1036400033D100BF3648006E40F4804034490866EC
:103650000846006E00F48040009000BF00BF00BF2D
:103660000846C06C40F00100C8640846C06C00F019
:103670000100009000BF00BF4FF4C0600190022025
:10368000029000200390032004900720059001A9D8
:103690004FF09040FDF77AFF002205212520FEF72C
:1036A000F9F82520FEF7E6F835E01E492068884243
:1036B00031D100BF1A48806D40F4802018498865D8
:1036C0000846806D00F48020009000BF00BF00BF5E
:1036D0000846C06C40F00200C8640846C06C00F0A8
:1036E0000200009000BF00BF4FF440600190022034
:1036F000029000200390032004900720059001A968
:103700000948FDF743FF002205212720FEF7C2F8F4
:103710002720FEF7AFF806B010BD000000380140CA
:1037200000100240004800400004004810B5034665
:10373000986F202865D101B10AB9012010BD00BFE2
:1037400093F87000012801D10220F7E7012083F8E7
:10375000700000BF5965A3F85820A3F85A20002034
:10376000186600BF9868B0F5805F0AD1186920B963
:1037700040F2FF10A3F85C0020E0FF20A3F85C00FB
:103780001CE0986848B9186918B9FF20A3F85C00D4
:1037900014E07F20A3F85C0010E09868B0F1805F2F
:1037A00009D1186918B97F20A3F85C0006E03F2012
:1037B000A3F85C0002E00020A3F85C0000BF00203A
:1037C000D867222098671868806840F001001C685C
:1037D000A0609868B0F5805F04D1186910B90A48F4
:1037E000186601E00948186600BF002083F87000E1
:1037F00000BF1868006840F490701C6820600020CA
:103800009CE702209AE70000C951000833520008E3
:103810000649884202D10121054A116005498842C2
:1038200002D10121044A116070470000CC0400203D
:10383000840000204C0500208C00002070B5044658
:103840000D461646002300BF0AE0E85C208500BF55
:103850004021204600F08AF80028F9D0581C83B295
:10386000B342F2DB70BD2DE9F84F04460E46174611
:103870009946606F20285DD106B117B9012000F08C
:103880005BB800BF94F87000012801D10220F6E770
:10389000012084F8700000BF0020E06721206067ED
:1038A000FDF75EFF8246A4F85070A4F85270A0683D
:1038B000B0F5805F04D1206910B90025B04602E060
:1038C00035464FF0000800BF002084F8700000BFAC
:1038D0001DE05346002280212046CDF8009001F0E3
:1038E000D6FE08B10320CAE745B9B8F80000C0F316
:1038F00008002168088508F1020803E0287821689B
:1039000008856D1CB4F85200401EA4F85200B4F8AB
:1039100052000028DDD15346002240212046CDF838
:10392000009001F0B4FE08B10320A8E720206067F2
:103930000020A4E70220A2E718BCBDE8E08F000049
:103940000649884202D10121054A11600549884291
:1039500002D10121044A116070470000CC0400200C
:10396000880000204C050020900000200246D0690D
:103970000840884201D1012070470020FCE7000088
:1039800009E001F0FFFE04A002F0F6FE01F0EAFEFD
:103990006420FDF7E7FDF4E721212148415244204E
:1039A0004641554C542121210D0A0D0A000000000A
:1039B00010B542200C4908704FF6FF7301220B48E6
:1039C000FFF7A3F94FF6FF73012209490748FFF7F4
:1039D000CFF801F0D7FE064906A002F0CDFE01F0B7
:1039E000C1FE012010BD00007D0000206804002001
:1039F0007C000020535049322049443A2025782049
:103A00000D0A000000B5A5B00020239024900121EC
:103A100023A802F0DEFE1F4908601C221E491CA8D4
:103A2000FCF774FC00211CA802F0F8FE1B4908609A
:103A30001C2219491C3115A8FCF768FC002115A8A7
:103A400002F0ECFE164908601C22134938310EA81A
:103A5000FCF75CFC00210EA802F0E0FE11490860B2
:103A60001C220D49543107A8FCF750FC002107A87F
:103A700002F0D4FE0C4908601C22074970316846E8
:103A8000FCF744FC0021684602F0C8FE07490860C4
:103A900025B000BD28010020688300081401002023
:103AA000180100201C01002020010020240100201A
:103AB00000B587B0142102A8FCF741FC00BF5148B3
:103AC000C06C40F004004F49C8640846C06C00F068
:103AD0000400019000BF00BF00BF0846C06C40F06A
:103AE0008000C8640846C06C00F08000019000BFF0
:103AF00000BF00BF0846C06C40F00100C864084623
:103B0000C06C00F00100019000BF00BF00BF08467C
:103B1000C06C40F00200C8640846C06C00F00200AF
:103B2000019000BF00BF00224FF400513648FDF75E
:103B300011FE0122E0214FF09040FDF70BFE012223
:103B400011463248FDF706FE00224FF400414FF0C7
:103B50009040FDF7FFFD00224FF460712B48FDF708
:103B6000F9FD4FF4005002900120039000200490D2
:103B7000059002A92448FDF709FD40F21F100290AC
:103B800000200390049002A94FF09040FDF7FEFC46
:103B900048F2E0000290012003900490002005907C
:103BA00002A94FF09040FDF7F1FC81200290012026
:103BB000039004900020059002A91448FDF7E6FC4C
:103BC0000420029000200390049002A90F48FDF702
:103BD000DDFC40200290002003900120049002A907
:103BE0000A48FDF7D3FC4FF4407002900120039087
:103BF00000200490059002A90448FDF7C7FC07B017
:103C000000BD000000100240000800480004004809
:103C100010B51148114908604FF4827048600021C6
:103C20000E4881604FF4E061C16000210161416193
:103C30004FF4007181611821C1610021016241626C
:103C400081620721C162002101634163FEF7C2FE68
:103C500008B1FDF743FC10BD003001400404002012
:103C600010B51048104908604FF482704860002178
:103C70000D4881604FF4E061C16000210161416144
:103C800081611821C16100210162416281620721C5
:103C9000C162002101634163FEF79CFE08B1FDF79C
:103CA0001DFC10BD003800406804002010B50D4810
:103CB0000D4908604FF41650486000210A488160A1
:103CC000C16001610C21416100218161C16101621A
:103CD0000020054948620846FFF76EFC08B1FDF771
:103CE000FDFB10BD00380140CC04002010B50D488C
:103CF0000D4908604FF41650486000210A48816061
:103D0000C16001610C21416100218161C1610162D9
:103D10000020054948620846FFF74EFC08B1FDF750
:103D2000DDFB10BD004800404C05002010B50A48DE
:103D30000A49086008204860022108488160016142
:103D4000002141618161C1610162FDF70DFE08B191
:103D5000FDF7C4FB10BD000000680040CC07002048
:103D600000BFFEE7704700002DE9F04104460F4612
:103D700000255B48C06800F0030090B15848C06857
:103D800000F003002168884209D1206838B1544806
:103D9000C068C0F30210401C6168884233D001251E
:103DA00031E02068012804D0022809D003281AD164
:103DB0000DE04B48006800F0020000B9012514E056
:103DC0004748006800F4806000B901250DE04448D0
:103DD000006800F4003028B94148006800F48020F1
:103DE00000B9012501E0012500BF00BF5DB9D4E99C
:103DF0000010401E41EA00103949C96821F07301E2
:103E000008433749C860002D67D13548006820F065
:103E1000806033490860FDF7A3FC064606E0FDF725
:103E20009FFC801B022801D9032505E02C4800686F
:103E300000F000600028F2D100BFC5BB67B9A068E0
:103E40000002217B40EAC16025490969254A1140E9
:103E500008432349086120E0012F0FD1A068000228
:103E6000218A0122C2EB510140EA41501C490969F3
:103E70001D4A114008431A4908610EE0A06800027B
:103E8000217D0122C2EB510140EA416014490969D8
:103E9000164A11400843124908611148006840F071
:103EA00080600F490860FDF75BFC064607E014E000
:103EB000FDF756FC801B022801D9032505E00848C0
:103EC000006800F000600028F2D000BF2DB904485F
:103ED0000069A1690843024908612846BDE8F081EC
:103EE00000100240FF80FF07FF809FFFFF80FFF967
:103EF000F8B5044600262348806D00F0805018B1C4
:103F0000FDF72EFE054616E000BF1E48806D40F00E
:103F100080501C4988650846806D00F080500090F4
:103F200000BF00BFFDF71CFE05461648806D20F05F
:103F3000805014498865B5F5007F07D1802C10D9D1
:103F4000A02C01D902260CE001260AE0802C01D920
:103F5000032606E0802C01D1022602E0702C00D15D
:103F600001260948006820F0070030430649086030
:103F70000846006800F00700B04201D00120F8BDFB
:103F80000020FCE700100240002002407FB50446FC
:103F90000D4600200290039000900190E0B28DF851
:103FA0000800FF208DF809008DF80A008DF80B003D
:103FB0009DF8080002F0CFF88DF800009DF8090088
:103FC00002F0C9F88DF801009DF80A0002F0C3F86C
:103FD0008DF802009DF80B0002F0BDF88DF803008B
:103FE0006846FCF78BFC064602F0B5F88DF80C002D
:103FF0000A48006820B9052229460948FFF796FBC0
:104000004FF6FF73052202A90548FFF72CFC01209B
:10401000FDF7A8FA012004B070BD000034000020B4
:10402000CC040020F8B504460E4615466068B0F58D
:10403000827F0DD1A068B0F5004F03D0A068B0F525
:10404000806F05D12068006820F04000216808607A
:104050003346002280212046009500F0ABF828B1BD
:10406000206E40F0200020660320F8BD6068B0F5A7
:10407000827F16D1A068B0F5004F03D0A068B0F5DC
:10408000806F0ED1334600224FF4C0612046009568
:1040900000F03BF828B1206E40F02000206603209D
:1040A000E3E70020E1E7F8B504460E46154633463F
:1040B00000224FF4C0512046009500F026F828B1A8
:1040C000206E40F0200020660320F8BD3346002219
:1040D00080212046009500F06DF828B1206E40F058
:1040E000200020660320F0E7334600224FF4C06131
:1040F0002046009500F009F828B1206E40F020001D
:1041000020660320E1E70020DFE72DE9F0410446C7
:104110000E4617461D46DDF8188044E0B6F5C06F20
:1041200002D10FB92068007B681CD8B3FDF718FBDB
:10413000A0EB0800A84200D2A5BB2068406820F090
:10414000E000216848606068B0F5827F0DD1A0680A
:10415000B0F5004F03D0A068B0F5806F05D120689E
:10416000006820F0400021680860A06AB0F5005F98
:104170000DD100BF2068006820F40050216808605D
:104180002068006840F400502168086000BF0120EA
:1041900084F85D0000BF002084F85C0000BF0320AD
:1041A000BDE8F081FFE7206880683040B842B5D1B3
:1041B0000020F5E72DE9F04104460E4617461D465E
:1041C000DDF818803EE0681CD8B3FDF7C9FAA0EB13
:1041D0000800A84200D2A5BB2068406820F0E0009B
:1041E000216848606068B0F5827F0DD1A068B0F5A5
:1041F000004F03D0A068B0F5806F05D1206800683B
:1042000020F0400021680860A06AB0F5005F0DD181
:1042100000BF2068006820F4005021680860206812
:10422000006840F400502168086000BF012084F855
:104230005D0000BF002084F85C0000BF0320BDE8E3
:10424000F081FFE7206880683040B04201D1012052
:1042500000E00020B842B6D10020F0E708B5012206
:1042600080214648FDF776FA40F6B830FDF77AF936
:10427000002280214148FDF76DFA002240214FF0D5
:104280009040FDF767FA002220214FF09040FDF7A3
:1042900061FA6420FDF766F9012240214FF0904059
:1042A000FDF758FA012220214FF09040FDF752FA15
:1042B0006420FDF757F9012280213048FDF74AFAC2
:1042C0002320FDF74FF9002240214FF09040FDF7E9
:1042D00041FA0020FDF746F9012240214FF09040BD
:1042E000FDF738FA0020FDF73DF9002240214FF09C
:1042F0009040FDF72FFA0020FDF734F9012240210C
:104300004FF09040FDF726FA0020FDF72BF9002230
:1043100040214FF09040FDF71DFA0020FDF722F9F3
:10432000012240214FF09040FDF714FA0120FDF7E3
:1043300019F9002220214FF09040FDF70BFA0020E0
:10434000FDF710F9012220214FF09040FDF702FA0D
:104350000020009003208DF8000080208DF80100DF
:104360006946052000F012F801F00CFA04A002F0F2
:1043700003FA01F0F7F9012008BD0000000400482D
:10438000494E495420646F6E650D0A0070B586B0C1
:1043900005460C4600200490059002900390009082
:1043A00001908DF80800E8B28DF8090060788DF86A
:1043B0000A0020788DF80B009DF8080001F0CBFE74
:1043C0008DF800009DF8090001F0C5FE8DF8010090
:1043D0009DF80A0001F0BFFE8DF802009DF80B0069
:1043E00001F0B9FE8DF803006846FCF787FA06462F
:1043F00001F0B1FE8DF80C000A48006820B90522D2
:1044000004A90948FFF792F94FF6FF73052202A9A4
:104410000548FFF728FA0120FDF7A4F8012006B0AF
:1044200070BD000034000020CC04002000BF01203B
:1044300002F0BEF9FBE70000002002F00DFE094982
:10444000086000BF01F09EF907A002F095F901F0A5
:1044500089F9FFF7ADFA6420FDF784F8012002F036
:10446000A7F9EFE710010020414100000EB5002040
:1044700002F0F2FDA449086000BFA44800788A2831
:1044800012DD2E20A1490870A14800880830A049FB
:10449000088001F077F99FA002F06EF901F062F94F
:1044A00040F6B83002F0D2FE99480088B0F5803F5F
:1044B0000CDB00209649088001F064F99DA002F011
:1044C0005BF9A1A002F058F901F04CF9A748006887
:1044D000012871D1A6480078A6490870A448407800
:1044E0004870A34880788870A148C078C870A048F8
:1044F0000079087101F046F99E4800799D49C97814
:104500009C4A9278CDE9002102909A48437802783B
:104510007E48017898A002F02FF901F023F9A24813
:104520000068022876D1794800782E280AD19FA009
:1045300002F022F905228F49A14802F06FFDFCF735
:1045400001FCC8E0714800784E280AD19DA002F015
:1045500013F905228749A04802F060FDFCF796FC9C
:10456000B9E06A48007848280AD19CA002F004F912
:10457000052280499E4802F051FDFCF70BFDAAE0A0
:104580006248007854280AD19AA002F0F5F8052272
:1045900078499F4802F042FDFCF7C4F99BE05B4874
:1045A0000078562809D19BA002F0E6F8052271494F
:1045B000A14802F033FD8EE09DE054480078582871
:1045C0000AD19EA002F0D8F805226A49A34802F059
:1045D00025FDFCF7D5FD7EE04C4800785A280AD12D
:1045E0009FA002F0C9F805226249A54802F016FD15
:1045F000FCF79EFA6FE0454800785C280BD1A1A03B
:1046000002F0BAF805225B49A54802F007FDFCF765
:104610000BFA60E067E03D4800785E2808D1A1A071
:1046200002F0AAF805225349A64802F0F7FC52E02E
:104630003648007860280AD1A3A002F09DF8052230
:104640004C49A94802F0EAFCFCF71CFE43E02F4865
:10465000007862280AD1A5A002F08EF8052245490B
:10466000AB4802F0DBFCFCF7E5FA34E027480078C1
:10467000842808D1A7A002F07FF805223D49AD4863
:1046800002F0CCFC27E021480078862808D1AAA0B7
:1046900002F072F805223749B04802F0BFFC1AE078
:1046A0001A480078882808D1ADA002F065F80522E4
:1046B0003049B34802F0B2FC0DE0144800788A2873
:1046C00009D1B0A002F058F805222A49B54802F0F5
:1046D000A5FCFCF75DFE0D480078801C0B490870B6
:1046E00000203149086030480068401C2E490860AD
:1046F00000201E490860054908781D49FFF746FC5F
:10470000012002F055F8B8E604010020AE000020B8
:10471000B4000020426C6F636B696E672055534193
:1047200052543120666F722033207365636F6E645C
:10473000730D0A00212121466C6173682046756C57
:104740006C2121210D0A00002E2E2E4F76657277E6
:10475000726974696E672050726576696F7573202F
:10476000496E666F2E2E2E0D0A0000008400002078
:10477000A4000020A90000204164647265737320C6
:104780003A20257820446174613A202578207C20E5
:104790002578207C202578207C202578207C2025E9
:1047A00078200D0A0D0A0000B0000020436F7079D8
:1047B000696E672050485F506572696F640D0A002A
:1047C000B6000020436F7079696E672043315F50F7
:1047D00048410D0A00000000C0000020436F7079BE
:1047E000696E67204348315F524D530D0A00000047
:1047F000BB000020436F7079696E67205048315FBD
:104800004163746976655F456E657267790D0A006C
:10481000C5000020436F7079696E67205048315F92
:1048200046756E64616D656E74616C5F456E657230
:1048300067790D0A00000000CA000020436F7079FC
:10484000696E67205048315F5265616374697665AF
:104850005F456E657267790D0A000000CF00002089
:10486000436F7079696E67205048315F41707061A5
:1048700072656E745F456E657267790D0A0000009F
:10488000D4000020436F7079696E67205048315F13
:104890004163746976655F506F7765720D0A000039
:1048A000D9000020436F7079696E67205048315FEE
:1048B00046756E64616D656E74616C5F506F77658F
:1048C000720D0A00DE000020436F7079696E672068
:1048D0005048315F52656163746976655F506F77E8
:1048E00065720D0A00000000E3000020436F70793C
:1048F000696E67205048315F4170706172656E74F7
:104900005F524D535F506F7765720D0A00000000D3
:10491000E8000020436F7079696E6720546F7461FE
:104920006C5F4163746976655F456E657267790D8A
:104930000A000000ED000020436F7079696E672067
:10494000546F74616C5F46756E64616D656E746101
:104950006C5F456E657267790D0A0000F2000020F9
:10496000436F7079696E6720546F74616C5F526534
:104970006163746976655F456E657267790D0A00DB
:10498000F7000020436F7079696E6720546F74617F
:104990006C5F4170706172656E745F456E657267C1
:1049A000790D0A00FC0000201FB5002002F054FB26
:1049B0009649086000BF012202A99548FEF7B6FE9D
:1049C0009448006801287DD100F0DCFE9DF80800C5
:1049D000482810D190A001F0CFFE94480079934967
:1049E000C978CDE90010914883784278017890A089
:1049F00001F0C2FE00E19DF80800542810D193A0F8
:104A000001F0BAFE994800799849C978CDE90010BB
:104A1000964883784278017885A001F0ADFEEBE0FE
:104A20009DF80800562810D191A001F0A5FE9948E4
:104A300000799849C978CDE9001096488378427882
:104A400001787BA001F098FED6E09DF80800582878
:104A500010D191A001F090FE974800799649C9784D
:104A6000CDE90010944883784278017870A001F075
:104A700083FEC1E09DF808005A2810D18FA001F0F4
:104A80007BFE964800799549C978CDE90010934896
:104A900083784278017866A001F06EFEACE09DF864
:104AA00008005C2812D18EA001F066FE93480079C0
:104AB0009249C978CDE9001090488378427801780E
:104AC0005BA000E09DE001F057FE95E09DF8080036
:104AD0005E2810D18AA001F04FFE924800799149DA
:104AE000C978CDE900108F4883784278017850A0CA
:104AF00001F042FE80E09DF80800602810D18AA0F5
:104B000001F03AFE904800798F49C978CDE900104C
:104B10008D4883784278017845A001F02DFE6BE046
:104B20009DF80800622810D188A001F025FE904869
:104B300000798F49C978CDE900108D488378427893
:104B400001783BA001F018FE56E09DF8080084288B
:104B500010D188A001F010FE8E4800798D49C978E7
:104B6000CDE900108B4883784278017830A001F0BD
:104B700003FE41E09DF80800862810D186A001F0D0
:104B8000FBFD8E4800798D49C978CDE900108B482E
:104B900083784278017826A001F0EEFD2CE09DF8A4
:104BA0000800882810D186A001F0E6FD8D48007924
:104BB0008C49C978CDE900108A4883784278017819
:104BC0001BA001F0D9FD17E09DF808008A2810D13C
:104BD00085A001F0D1FD8D4800798C49C978CDE9D7
:104BE00000108A4883784278017811A001F0C4FD52
:104BF00002E087A001F0C0FD00F0B4FD00200549EF
:104C00000860012001F0D4FDD5E600000801002075
:104C10004C0500208C00002052656164696E673A83
:104C2000204348315F524D530D0A0000BB00002065
:104C30002578207C202578207C202578207C202544
:104C400078207C202578200D0A00000052656164E0
:104C5000696E673A205048315F4163746976655FD9
:104C6000456E657267790D0A00000000C5000020DE
:104C700052656164696E673A205048315F46756ECF
:104C800064616D656E74616C5F456E657267790D08
:104C90000A000000CA00002052656164696E673A2C
:104CA000205048315F52656163746976655F456E77
:104CB000657267790D0A0000CF00002052656164BB
:104CC000696E673A205048315F4170706172656E5D
:104CD000745F456E657267790D0A0000D40000208C
:104CE00052656164696E673A205048315F41637470
:104CF0006976655F506F7765720D0A00D9000020F4
:104D000052656164696E673A205048315F46756E3E
:104D100064616D656E74616C5F506F7765720D0ACA
:104D200000000000DE00002052656164696E673A91
:104D3000205048315F52656163746976655F506FDA
:104D40007765720D0A000000E3000020526561647F
:104D5000696E673A205048315F4170706172656ECC
:104D6000745F524D535F506F7765720D0A000000FB
:104D7000E800002052656164696E673A20546F74E0
:104D8000616C5F4163746976655F456E65726779D2
:104D90000D0A0000ED00002052656164696E673AFB
:104DA00020546F74616C5F46756E64616D656E74DE
:104DB000616C5F456E657267790D0A00F200002034
:104DC00052656164696E673A20546F74616C5F521A
:104DD000656163746976655F456E657267790D0A12
:104DE00000000000F700002052656164696E673AB8
:104DF00020546F74616C5F4170706172656E745F96
:104E0000456E657267790D0A00000000FC00002005
:104E1000204E6F7420612076616C69642061646447
:104E200072657373200D0A0010B500BF502080F327
:104E30001188BFF34F8FBFF36F8F00BF03F03AF8B5
:104E400018B14FF080500449086000BF002080F383
:104E5000118800BF10BD000004ED00E000B5AFB048
:104E600044211EA8FBF76BFA142119A8FBF767FA77
:104E7000602101A8FBF763FAFCF77AFE2C48006872
:104E800020F018002A499039C1F8900014201E9093
:104E90000120209024900020259060202690022060
:104EA000289001211EA8C1620163282141630721C6
:104EB00081630221C1630164FDF7D8F908B1FCF7F1
:104EC0000DFB0F20199003201A9000201B901C90BE
:104ED0001D90042119A8FDF749F808B1FCF7FEFA66
:104EE00042F205000190002009900B904FF0806085
:104EF00013900120029001210391182104910721B0
:104F000005910221069107910105089101A8FCF77E
:104F100043FE08B1FCF7E2FA4FF40070FCF7DAFD4B
:104F200008B1FCF7DBFAFCF72DFE2FB000BD000046
:104F3000901002401048006840F470000E4908606C
:104F40000E48006840F001000C49086000208860AD
:104F5000084600680A490840084908608814C86083
:104F60000846006820F48020086000208861C8039B
:104F7000014980390860704788ED00E00010024068
:104F8000FFFFF6EA10B50248FEF74DF910BD00002C
:104F9000400A002010B50268184B984202D0B0F1C8
:104FA000804F03D122F070024B681A43134B984292
:104FB00008D0B0F1804F05D0114B984202D0114B70
:104FC000984203D122F44072CB681A4322F0800346
:104FD0004C6943EA040202608B68C3620B68836217
:104FE000064B984205D0064B984202D0054B98429A
:104FF00001D10B6903630123436110BD002C014003
:10500000004001400044014090F8241001F00101EB
:1050100039B10168496821F40031826A114302689C
:10502000516090F8241001F00201022907D10168B3
:10503000496821F48031C26A11430268516090F8D6
:10504000241001F00401042907D10168496821F402
:105050008021026B11430268516090F8241001F026
:105060000801082907D10168496821F40041426B11
:1050700011430268516090F8241001F010011029CA
:1050800007D10168896821F48051826B114302685D
:10509000916090F8241001F02001202907D10168C7
:1050A000896821F40051C26B11430268916090F845
:1050B000241001F04001402913D10168496821F40E
:1050C0008011026C114302685160016CB1F5801FC0
:1050D00007D10168496821F4C001426C114302689C
:1050E000516090F8241001F08001802907D10168F7
:1050F000496821F40021826C1143026851607047B5
:1051000038B504460020E067FCF72AFB0546206816
:10511000006800F0080008280CD16FF07E402B4694
:1051200000224FF400110090204600F0B0FA08B1C0
:10513000032038BD2068006800F0040004280CD16A
:105140006FF07E402B4600224FF4800100902046F5
:1051500000F09DFA08B10320EBE720206067A0670C
:1051600000BF002084F8700000BF00BFE1E770B509
:105170000546AC6A0020A4F85A00A4F85200204664
:10518000FEF73EF970BD0168096821F4907102686C
:1051900011600168896821F0010102689160202195
:1051A000816700210166704710B5044620680068D9
:1051B00020F04000216808602020606700206066C1
:1051C0002046FEF7BDFB10BD2DE9F0410446B4F8C2
:1051D0005C70A06F222824D12068868C656D06EA59
:1051E00007002880606D801C6065B4F85A00401E7E
:1051F000A4F85A00B4F85A00C8B92068006820F42E
:105200009070216808602068806820F001002168A3
:1052100088602020A067002020662046FEF7F8FA6C
:1052200005E02068008B40F0080021680883BDE895
:10523000F08170B50446B4F85C60A06F222824D1D8
:105240002068858CF0B22840616D0870606D401C4C
:105250006065B4F85A00401EA4F85A00B4F85A0029
:10526000C8B92068006820F4907021680860206840
:10527000806820F00100216888602020A06700205D
:1052800020662046FEF7C4FA05E02068008B40F057
:1052900008002168088370BD2DE9F84F04460027F7
:1052A000002000908146EF492068884200D100E04C
:1052B00000BF2169A068084361690843E16940EAC9
:1052C000010820680068E849084040EA08002168B1
:1052D00008602068406820F44050E1680843216875
:1052E0004860D4F81880DF492068884202D0206ADC
:1052F00040EA08082068806820F4306040EA08002E
:105300002168886000BFD9492068884216D1D848F2
:10531000006800F0030030B1012808D0022804D052
:10532000032808D105E0012507E0022505E0042552
:1053300003E0082501E0102500BF54E0CD492068B6
:10534000884216D1CA48006800F00C0030B1042829
:1053500008D0082804D00C2808D105E0002507E073
:10536000022505E0042503E0082501E0102500BF23
:1053700039E0C1492068884216D1BD48006800F074
:10538000300030B1102808D0202804D0302808D1AF
:1053900005E0002507E0022505E0042503E00825D7
:1053A00001E0102500BF1EE0AE492068884219D1F7
:1053B000AF48006800F4406048B1B0F5806F0AD093
:1053C000B0F5006F05D0B0F5406F08D105E00025BD
:1053D00007E0022505E0042503E0082501E010258B
:1053E00000BF00E0102500BF9E49206888426ED1B2
:1053F00035B1022D08D0042D09D0082D0ED10AE0B8
:10540000FCF79AFE81460CE0DFF8709209E0FCF7A9
:10541000B7FE814605E04FF4004902E0012000900C
:1054200000BF00BFB9F1000F0AD0606800EB400078
:10543000484503D860680003484502D20120009027
:105440000AE135B1022D1AD0042D2AD0082D52D1EF
:105450003EE0FCF771FE06464FF48070A6FB00317B
:10546000D4F804E04FEA5E0013EB000B41F10001B9
:10547000724600235846FAF715FF07463EE0D4F877
:1054800004E04FEA5E0000217D4B10EB030B41EB83
:10549000010C72460B4658466146FAF703FF074671
:1054A0002CE0FCF76DFE06464FF48070A6FB003141
:1054B000D4F804E04FEA5E0013EB000B41F1000169
:1054C000724600235846FAF7EDFE074616E022E042
:1054D000D4F804E04FEA5E0000214FF4000310EB23
:1054E000030B41EB010C72460B4658466146FAF736
:1054F000D9FE074602E00120009000BF00BFB7F5CB
:10550000407F05D3B7F5801F02D22068C760A3E0B3
:1055100001200090A0E0E069B0F5004F54D1092DC2
:105520003AD2DFE805F005101B39243939392F004C
:10553000FCF702FE06467000616800EB5100B0FB0C
:10554000F1F087B22BE0FCF709FE064670006168B7
:1055500000EB5100B0FBF1F087B220E049496068F0
:1055600001EB50006168B0FBF1F087B217E0FCF787
:1055700007FE06467000616800EB5100B0FBF1F0D9
:1055800087B20CE04FF48031606801EB5000616835
:10559000B0FBF1F087B202E00120009000BF00BF35
:1055A000102F0ED3B7F5803F0BD24FF6F07007EAFD
:1055B000000AC7F342004AEA000A2068C0F80CA0BB
:1055C0004AE00120009047E0092D37D2DFE805F0DE
:1055D000050F1936223636362C00FCF7ADFD06468F
:1055E000616806EB5100B0FBF1F087B229E0FCF7EF
:1055F000B5FD0646616806EB5100B0FBF1F087B2DD
:105600001FE01E49606801EB50006168B0FBF1F0DB
:1056100087B216E0FCF7B4FD0646616806EB510060
:10562000B0FBF1F087B20CE04FF40041606801EB91
:1056300050006168B0FBF1F087B202E001200090F9
:1056400000BF00BF102F05D3B7F5803F02D22068FE
:10565000C76001E00120009000202066606600988D
:1056600000F012B800800040F369FFEF00380140FD
:105670008810024000440040004800400024F4002C
:10568000000024F40048E80118BCBDE8E08F2DE9D3
:10569000F04104460D4617469846069E45E0701CAC
:1056A000002842D0FCF75CF8A0EB0800B04200D81C
:1056B000B6B92068006820F4D070216808602068BE
:1056C000806820F001002168886020206067A06762
:1056D00000BF002084F8700000BF0320BDE8F08107
:1056E0002068006800F00400F8B12068C069C0F3C9
:1056F000C020D0B14FF400602168086220680068C3
:1057000020F4D070216808602068806820F00100D3
:105710002168886020206067A067E06700BF0020E4
:1057200084F8700000BF0320D8E72068C0692840D3
:10573000A84201D1012000E00020B842AFD00020F3
:10574000CCE7000010B50248FDF75CFE10BD00007C
:10575000CC04002010B50248FDF754FE10BD000037
:105760004C05002010B5002201210548FBF7F2FF8F
:10577000002280214FF09040FBF7ECFF10BD0000AD
:105780000004004810B5012211460548FBF7E2FF6E
:10579000012280214FF09040FBF7DCFF10BD00009C
:1057A0000004004810B50446002010BD0146B1F8C1
:1057B0005800C0F30E00A1F858000020704710B543
:1057C0000446012024F8400F00202080A080208281
:1057D000403C204600F00CF8002010BD01464BF67E
:1057E0008072B1F840009043A1F84000002070475B
:1057F00001464BF68072B1F840001043A1F840001A
:105800000020704702460020704700BFFEE70000FE
:1058100037B514460846064B6A46214600F0FCF8A8
:1058200004466946002000F091FC20463EBD000081
:105830004D61000802480068C0F302207047000074
:105840000CED00E010B5002804DB0A07130E054A32
:10585000135406E00A07140E034A00F00F031B1F3F
:10586000D45410BD00E400E018ED00E002E008C8E8
:10587000121F08C1002AFAD170477047002001E0CA
:1058800001C1121F002AFBD1704700002DE9FF5F04
:1058900082B00021DDE90430020DDDF840B00343A1
:1058A00018D044F61050A2F2FF324243151411985A
:1058B00001281FD0A5EB0B00401C5FEA000A4FF047
:1058C00000064E4FDFF83891B046504615D5CAF164
:1058D000000413E0119801244AA3012801D16FEAC2
:1058E0000B010298119AC0E90031C0E9024206B0EA
:1058F00000F08EB8CBF10000DFE704460021404AFB
:10590000491842EB0450CDE9001012E0E00707D03F
:1059100032463B4640464946FAF730FD80468946C6
:1059200032463B4610461946FAF728FD06460F4612
:105930006410002CEAD1DDE90401DDE90023BAF1AD
:10594000000F06DAFAF71AFD42464B46FAF716FD43
:1059500005E0FAF788FD42464B46FAF784FD044617
:105960000E460022284BFAF713FE03D84FF0FF3003
:10597000014607E00022254B20463146FAF7B2FEE9
:10598000FAF75FFF102409E0002C0ADB0A2200234B
:10599000FAF788FC039B30321A55641E50EA010264
:1059A000F2D1641C039AC4F111031444119A012A20
:1059B00003D0012208430DD10AE0084304D000209F
:1059C0004FF0110B119072E7A3EB0B056D1E0DE06C
:1059D0005B4504DD4FF0000205F1010504E003DA48
:1059E0004FF00002A5F10105002AECD002981199B0
:1059F000C0E90231C0E9004579E700000000144029
:105A00000000F03F300000000000F0430000E03FE5
:105A100030BCBDE8C09F00002DE9FF4F95B09B460C
:105A20008946064600250FE2252877D1002427461F
:105A3000F84A0121059400E0044316F8013F203B99
:105A400001FA03F01042F7D130782A2811D06FF014
:105A50002F033078A0F13002092A16D8059A44F0B5
:105A6000020402EB820203EB42021044761C059012
:105A7000EFE759F8042B0592002A03DA504244F468
:105A80000054059044F00204761C30782E2816D17C
:105A900016F8010F44F004042A280DD06FF02F02ED
:105AA0003078A0F13003092B09D807EB870302EB0C
:105AB0004303C718761CF3E759F8047B761C30784B
:105AC0006C280FD006DC4C2817D068280DD06A2827
:105AD00014D104E0742810D07A280FD10DE044F4DA
