:020000040800F2
:10000000A0A00020810200087D400008613900089E
:100010007940000827090008135700080000000075
:10002000000000000000000000000000A101000826
:10003000B914000800000000FD010008314D00085F
:100040009B0200089B0200089B0200089B0200081C
:100050009B0200089B0200089B0200089B0200080C
:100060009B0200089B0200089B0200089B020008FC
:100070009B0200089B0200089B0200089B020008EC
:100080009B0200089B0200089B0200089B020008DC
:100090009B0200089B0200089B0200089B020008CC
:1000A0009B0200088D4E00089B0200089B0200087E
:1000B0009B02000800000000000000009B020008F6
:1000C0009B0200089B0200089B0200089B0200089C
:1000D0009B0200084D5600089B0200085D56000870
:1000E0009B0200089B0200080000000000000000C6
:1000F0000000000000000000000000000000000000
:10010000000000009B020008000000009B020008A5
:1001100000000000000000009B0200089B02000895
:100120009B0200089B0200089B0200089B0200083B
:100130009B0200080000000000000000000000001A
:100140009B0200089B0200089B0200089B0200081B
:100150009B0200089B0200089B0200089B0200080B
:100160009B0200089B0200089B02000800000000A0
:100170009B0200089B0200089B0200080000000090
:100180009B0200089B0200089B020008DFF80CD0CD
:1001900000F088FB0048004749650008A0A0002047
:1001A0002C4B1968086800F05AB880F30988BFF32F
:1001B0006F8F4FF0000080F311887047000000003F
:1001C00008480068006880F308884FF0000080F35A
:1001D000148862B661B6BFF34F8FBFF36F8F00DF35
:1001E00000BF00BF08ED00E0DFF80C00016841F43B
:1001F00070010160704700BF88ED00E0EFF30980F7
:10020000BFF36F8F134B1A681EF0100F08BF20ED5D
:10021000108A20E9F04F106009B44FF0500080F3CD
:100220001188BFF34F8FBFF36F8F07F02FF94FF097
:10023000000080F3118809BC1968086800F014B840
:100240001EF0100F08BF00F014B880F30988BFF348
:100250006F8F704750010020EFF30580704730C862
:10026000B0E8C04FFFF7A1BF30C8B0E8C04FFFF7FC
:10027000E7BFB0EC088AB0EC08CAFFF7E6BF0000A1
:100280000648804706480047FEE7FEE7FEE7FEE730
:10029000FEE7FEE7FEE7FEE7FEE7FEE73D4E00086D
:1002A0008D0100082DE9F05F0546002092469B462F
:1002B00088460646814640241BE02846414647467C
:1002C000224600F0BAF953465A46C01A914110D35B
:1002D00011461846224600F0A1F92D1A67EB0108D5
:1002E0004F4622460120002100F098F917EB000943
:1002F0004E41201EA4F10104DFDC484631462A4667
:10030000434600F000B830BCBDE8C09F40EA01039E
:100310009B0703D009E008C9121F08C0042AFAD2BB
:1003200003E011F8013B00F8013B521EF9D270477F
:10033000D2B201E000F8012B491EFBD27047002227
:10034000F6E710B513460A4604461946FFF7F0FFD4
:10035000204610BD421C10F8011B0029FBD1801A59
:10036000704730B504460020034600E05B1C934212
:1003700003D2E05CCD5C401BF8D030BD2DE9FE4FD0
:1003800081EA030404F0004421F0004100944FF09E
:10039000000B23F0004350EA01045ED052EA03044C
:1003A0005BD0C3F30A54C1F30A552C44A4F2F334CE
:1003B0000194A0FB0254C1F3130141F48011C3F373
:1003C000130343F4801301FB024400FB034E840A31
:1003D000970A44EA815447EA8357A4FB07680295C9
:1003E0008D0A05FB07854FEA932C04FB0C54270567
:1003F000029D4FEA065847EA1637B5EB08056EEB43
:10040000070C870E920E47EA811742EA8312A7FB78
:100410000201B6EB0B0164EB00042B0D43EA0C3335
:100420005E1844EB1C50DA465146E7FB0201C5F367
:1004300013044FEA0B3343EA14534FEA0432019C8E
:1004400043EA0603A4F10C040294009CCDE900B435
:1004500000F012F903B000F003B800200146F9E7FC
:1004600030BCBDE8C08F2DE9F04D81EA030404F0F3
:10047000004B21F0004514464FF0000A23F00041E4
:1004800050EA050220D054EA01021DD0C5F30A57F4
:100490000246C5F31303C1F31300C1F30A5640F437
:1004A000801543F48013A7EB0608101BD64608F20C
:1004B000FD3873EB050002D308F1010801E0921842
:1004C0005B41B8F1000F03DA00200146BDE8F08D72
:1004D00000204FF48011064684460EE0171B73EB94
:1004E000050705D3121B63EB050306434CEA010C19
:1004F00049084FEA300092185B4150EA0107EDD1FC
:1005000052EA030012D082EA040083EA050108439C
:1005100005D0101BAB4106D20122002306E00022C9
:100520004FF0004302E06FF0010253101AEB060097
:100530004CEB085110EB0A0041EB0B01BDE8F04D0C
:1005400000F08BB80EB540F2334102910021CDE9A5
:1005500000110A460B4600F08FF803B000BDC1F34E
:100560000A5210B5C1F3130140F2FF3341F4801178
:100570009A4201DA002010BD40F233439A42A2F2BF
:10058000334203DC524200F058F810BD904010BDD9
:1005900030B5041E71F1000404DB4FF0004440420A
:1005A00064EB0101141E73F1000405DB1C464FF0DF
:1005B0000043524263EB04038B4208BF824230BDCA
:1005C00030B5041E71F1000404DB4FF000444042DA
:1005D00064EB0101141E73F1000405DB1C464FF0AF
:1005E0000043524263EB0403994208BF904230BD7E
:1005F00030B50B46014600202022012409E021FAF3
:1006000002F59D4205D303FA02F5491B04FA02F5EF
:100610002844151EA2F10102F1DC30BD202A04DBC2
:10062000203A00FA02F1002070479140C2F1200305
:1006300020FA03F3194390407047202A04DB203A44
:1006400021FA02F00021704721FA02F3D040C2F1F2
:100650002002914008431946704710B5141E73F1EB
:10066000000408DA401C41F1000192185B411A4372
:1006700001D120F0010010BD2DE9F04D92469B46BE
:1006800011B1B1FA81F202E0B0FA80F22032904664
:10069000FFF7C4FF04460F4640EA0A0041EA0B0197
:1006A00053465A46084313D0114653EA010019D065
:1006B000C8F140025046FFF7C0FF05460E465046BF
:1006C00059464246FFF7AAFF084305D0012004E03F
:1006D00020463946BDE8F08D0020054346EAE07625
:1006E0002C4337430A986305E40AA0EB0800002274
:1006F000FD0A44EA47540A3002D500200146E9E7E2
:10070000010510196941DDE9084500196941BDE895
:10071000F04DA2E72DE9FE4F804681EA0300C00FAD
:100720000C46009021F0004123F00045B8EB020098
:10073000A94105D24046214690461C460B4602463A
:1007400023F00040104347D0270DC7F30A00C3F33E
:100750000A510290401A019040286BDAC3F313004B
:1007600040F4801B0098924620B10023D2EB030A8C
:1007700063EB0B0B01985946C0F140025046FFF75E
:100780004DFF06460D4650465946019A00F09CF82A
:1007900010EB08006141002487EA115284EAE773F4
:1007A0001A4340D0009A62B3019A012A4FEA0752D5
:1007B00015DC001B61EB02014FF0004202EA075218
:1007C000CDE90042001C41F5801132462B46FFF76F
:1007D00053FF03B000F045B840462146F9E7001B3F
:1007E00061EB0201001C41F5801300185B412018E9
:1007F000A2F5001747EB030140EAD570B6196D4129
:1008000011E06D084FEA360645EAC0754FEA075217
:10081000001B61EB0201001C41F5801149084FEA01
:1008200030000019514132462B4603B000F01CB88D
:10083000FFF713BF0098012240000023D0EB020213
:1008400063EBE073009821464FEAE074B8EB0000D8
:1008500061EB0401E9E783F000435BE781F00041CD
:1008600058E730BCBDE8C08F30BCBDE8C04FFFF7D3
:10087000DFBFC1F30A52C1F3130140F2FF3341F469
:1008800080119A4202DA00200146704740F2334359
:100890009A42A2F2334202DC5242FFF7CEBEFFF789
:1008A000BDBE0000064C074D06E0E06840F00103C5
:1008B00094E8070098471034AC42F6D3FFF76AFC7F
:1008C0006484000884840008202A06DBCB17203AC1
:1008D00041FA02F043EAE07306E041FA02F3D04045
:1008E000C2F12002914008431946704730B58C1878
:1008F00010F8012B12F00F0301D110F8013B12097F
:1009000006D110F8012B03E010F8015B01F8015B40
:100910005B1EF9D101E001F8013B521EFBD1A1425F
:10092000E6D3002030BD00BFFEE7000070B50546ED
:10093000002007490870002404E0285D00F09EFDB7
:10094000601CC4B2042CF8DB0148007870BD0000C4
:100950005400002010B52DED068B82B000200090D1
:10096000019054208DF800002D48008800128DF869
:1009700001002B4800788DF802002A4800788DF895
:100980000300284840788DF80400264880788DF8C8
:1009900005002448C0788DF80600224800798DF8BB
:1009A0000700082269461E48008800F5403005F01F
:1009B000BFFC05F0C9FB00241A48C07844EA006473
:1009C0001848807844EA00441648407844EA0024F5
:1009D0001448007804432046FFF7B4FD41EC1A0B9D
:1009E0009FED110B53EC102BFFF7C8FC41EC190BDA
:1009F0009FED0F0B53EC102BFFF735FD41EC180B5F
:100A000004F044FE53EC182B0BA005F09FFE04F0FD
:100A10002DFE012000F096FD02B0BDEC068B10BD4E
:100A2000B4000020C50000209E63E7F71EC2A2406C
:100A30002575029A081B3E4141637469766520451D
:100A40006E65726779203D20256C6620576174744D
:100A5000730D0A0D0A00000010B52DED068B82B053
:100A60000020009001905C208DF800002E48008846
:100A700000128DF801002C4800788DF802002B48F8
:100A800000788DF80300294840788DF80400274845
:100A900080788DF805002548C0788DF80600234839
:100AA00000798DF80700082269461F48008800F584
:100AB000E02005F03DFC05F047FB00241B48C07812
:100AC00044EA00641948807844EA004417484078B2
:100AD00044EA002415480078044324F0604420468A
:100AE000FFF730FD41EC1A0B9FED110B53EC102B6F
:100AF000FFF744FC41EC190B9FED0F0B53EC102B4F
:100B0000FFF7B1FC41EC180B04F0C0FD53EC182BBF
:100B10000BA005F01BFE04F0A9FD012000F012FD62
:100B200002B0BDEC068B10BDB4000020D90000203F
:100B30009E63E7F71EC2A2400000000026241C426C
:100B400041637469766520506F776572203D20257A
:100B50006C6620576174744872730D0A0D0A0000A8
:100B600010B52DED068B82B00020009001905A2028
:100B70008DF800002D48008800128DF801002B48E8
:100B800000788DF802002A4800788DF80300284884
:100B900040788DF80400264880788DF805002448B8
:100BA000C0788DF80600224800798DF807000822E9
:100BB00069461E48008800F5C02005F0B9FB05F025
:100BC000C3FA00241A48C07844EA006418488078C0
:100BD00044EA00441648407844EA00241448007867
:100BE00004432046FFF7AEFC41EC1A0B9FED110BBE
:100BF00053EC102BFFF7C2FB41EC190B9FED0F0BD1
:100C000053EC102BFFF72FFC41EC180B04F03EFDCA
:100C100053EC182B0BA005F099FD04F027FD0120E3
:100C200000F090FC02B0BDEC068B10BDB4000020BB
:100C3000D40000209E63E7F71EC2A2402575029AE9
:100C4000081B3E414170706172656E7420456E658F
:100C5000726779203D20256C662057617474730D8E
:100C60000A0D0A0010B52DED068B82B00020009011
:100C7000019062208DF800002E48008800128DF847
:100C800001002C4800788DF802002B4800788DF880
:100C90000300294840788DF80400274880788DF8B3
:100CA00005002548C0788DF80600234800798DF8A6
:100CB0000700082269461F48008800F5202005F03B
:100CC00037FB05F041FA00241B48C07844EA006471
:100CD0001948807844EA00441748407844EA0024E0
:100CE00015480078044324F060442046FFF72AFCAE
:100CF00041EC1A0B9FED110B53EC102BFFF73EFB51
:100D000041EC190B9FED0F0B53EC102BFFF7ABFBD6
:100D100041EC180B04F0BAFC53EC182B0BA005F0B7
:100D200015FD04F0A3FC012000F00CFC02B0BDECAA
:100D3000068B10BDB4000020E80000209E63E7F79A
:100D40001EC2A2400000000026241C4241707061B7
:100D500072656E745F524D5320506F776572203DFF
:100D600020256C6620576174744872730D0A0D0A51
:100D70000000000010B52DED048B002418484078C9
:100D800044EAE0141648807844EA40041448C078E5
:100D900044EA402084B22046FFF7D4FB41EC190B13
:100DA0009FED100B53EC102BFFF7E8FA41EC180BFA
:100DB0009FED0E0B53EC102BFFF755FB0D4A03C2B2
:100DC00004F064FC0B4890ED000B53EC102B0AA0D0
:100DD00005F0BCFC04F04AFCBDEC048B10BD000027
:100DE000BB000020E17A14AE47E1F23F158C4AEADD
:100DF000043481403801002043313D20256C6620B9
:100E0000416D70730D0A000010B52DED068B82B098
:100E10000020009001902E208DF8000037480088B7
:100E200000128DF80100354800788DF80200344832
:100E300000788DF80300324840788DF8040030487F
:100E400080788DF805002E48C0788DF806002C4873
:100E500000798DF80700082269462848008805F0C7
:100E600067FA05F071F92648407844EA00242448DE
:100E7000807804432046FFF765FB41EC1A0B9FED99
:100E8000210B53EC102BFFF779FA41EC190B53ECC3
:100E9000192B9FED1E0B51EC100BFFF7E4FA41EC00
:100EA000180B9FED1C0B53EC102B51EC180BFFF79C
:100EB0006FFB08D39FED190B53EC102B51EC180B63
:100EC000FFF77EFB09D204F0E1FB53EC182B15A0D1
:100ED00005F03CFC04F0CAFB08E004F0D7FB53EC3F
:100EE000182B18A005F032FC04F0C0FB012000F024
:100EF00029FB02B0BDEC068B10BD0000B400002041
:100F0000B60000208DEDB5A0F7C6E03E0000000061
:100F10000000F03F0000000000804640000000009C
:100F2000004050404552524F523A2046726571205F
:100F30006572726F723A20256620487A0D0A0D0A92
:100F400000000000467265713A20256620487A0D3F
:100F50000A0D0A0010B52DED088B82B0002000901C
:100F600001904E208DF800002E48008800128DF868
:100F700001002C4800788DF802002B4800788DF88D
:100F80000300294840788DF80400274880788DF8C0
:100F900005002548C0788DF80600234800798DF8B3
:100FA0000700082269461F48008800F5003005F058
:100FB000BFF905F0C9F81C48C07844EA00241A4873
:100FC0008078044341F6FE7004402046FFF7BAFAE9
:100FD00041EC1B0B9FED150B53EC102BFFF743FA65
:100FE00041EC1A0B9FED130B53EC102BFFF7C6F9D6
:100FF00041EC190B9FED110B53EC102BFFF7BEF9D1
:1010000041EC180B04F042FB53EC182B0DA005F03B
:101010009DFB04F02BFB012000F094FA02B0BDEC24
:10102000088B10BDB4000020C000002000000000AC
:101030008084FE40000000000000494000000000E5
:10104000008076405068617365203D20256C6620E5
:10105000646567726565730D0A0D0A0010B52DEDA4
:10106000068B82B000200090019058208DF800007F
:101070002D48008800128DF801002B4800788DF86B
:1010800002002A4800788DF80300284840788DF83F
:101090000400264880788DF805002448C0788DF833
:1010A0000600224800798DF80700082269461E488C
:1010B000008800F5A02005F03BF905F045F8002474
:1010C0001A48C07844EA00641848807844EA00442A
:1010D0001648407844EA0024144800780443204627
:1010E000FFF730FA41EC1A0B9FED110B53EC102B6C
:1010F000FFF744F941EC190B9FED0F0B53EC102B4C
:10110000FFF7B1F941EC180B04F0C0FA53EC182BBF
:101110000BA005F01BFB04F0A9FA012000F012FA65
:1011200002B0BDEC068B10BDB4000020CF00002043
:101130009E63E7F71EC2A2402575029A081B3E4136
:10114000526561637469766520456E6572677920C2
:101150003D20256C662057617474730D0A0D0A00DA
:1011600010B52DED068B82B000200090019060201C
:101170008DF800002E48008800128DF801002C48E0
:1011800000788DF802002B4800788DF8030029487C
:1011900040788DF80400274880788DF805002548B0
:1011A000C0788DF80600234800798DF807000822E2
:1011B00069461F48008800F5102005F0B9F804F0D2
:1011C000C3FF00241B48C07844EA006419488078B3
:1011D00044EA00441748407844EA0024154800785F
:1011E000044324F060442046FFF7ACF941EC1A0BAD
:1011F0009FED110B53EC102BFFF7C0F841EC190BCE
:101200009FED0F0B53EC102BFFF72DF941EC180B52
:1012100004F03CFA53EC182B0BA005F097FA04F0FD
:1012200025FA012000F08EF902B0BDEC068B10BD4E
:10123000B4000020E30000209E63E7F71EC2A24036
:101240000000000026241C425265616374697665C3
:1012500020506F776572203D20256C6620576174A1
:10126000744872730D0A0D0A0000000010B52DEDD0
:10127000068B82B00020009001908A208DF800003B
:101280002D48008800128DF801002B4800788DF859
:1012900002002A4800788DF80300284840788DF82D
:1012A0000400264880788DF805002448C0788DF821
:1012B0000600224800798DF80700082269461E487A
:1012C000008800F5602005F033F804F03DFF0024AD
:1012D0001A48C07844EA00641848807844EA004418
:1012E0001648407844EA0024144800780443204615
:1012F000FFF728F941EC1A0B9FED110B53EC102B63
:10130000FFF73CF841EC190B9FED0F0B53EC102B42
:10131000FFF7A9F841EC180B04F0B8F953EC182BBF
:101320000BA005F013FA04F0A1F9012000F00AF96E
:1013300002B0BDEC068B10BDB4000020FC00002004
:101340009E63E7F71EC2A2402575029A081B3E4124
:10135000546F74616C204170706172656E742045C9
:101360006E65726779203D20256C66205761747424
:10137000730D0A0D0A00000010B52DED068B82B02A
:1013800000200090019048208DF800002E48008831
:1013900000128DF801002C4800788DF802002B48CF
:1013A00000788DF80300294840788DF8040027481C
:1013B00080788DF805002548C0788DF80600234810
:1013C00000798DF80700082269461F48008800F55B
:1013D000803004F0ADFF04F0B7FE00241B484078D5
:1013E00044EA0024194800780443C4F30E0420465C
:1013F000FFF7A8F841EC1A0B9FED150B53EC102BDF
:10140000FEF7BCFF41EC190B9FED130B53EC102BB7
:10141000FEF7B4FF41EC180B9FED110B53EC102BB2
:10142000FFF721F8104A03C204F030F90E4890ED9E
:10143000000B53EC102B0DA005F088F904F016F901
:1014400002B0BDEC068B10BDB4000020BB00002034
:10145000E17A14AE47E1F23FEA3B1BF59DF19A4079
:10146000000000000000EC403001002056313D201B
:10147000256C6620566F6C74730D0A0010B5002140
:1014800015E00C4B1B7880EA03020A4B1B785B06C5
:101490001B0E084C237002F0800323B123461B78F7
:1014A00083F0070323704306180E4B1CD9B208299A
:1014B000E7DB10BD540000207047000006E004F098
:1014C000E5F803A005F042F904F0D0F8F7E70000D2
:1014D0002121214572726F722048616E646C6572C1
:1014E0002121210D0A00000070B50446002594F862
:1014F0002500022803D00420E063012520E02068B5
:10150000006820F00E00216808602068006820F064
:1015100001002168086094F8440000F01C010120DB
:101520008840216C4860012084F8250000BF00201D
:1015300084F8240000BFA06B10B12046A16B88473F
:10154000284670BD70B5044600F0FAF806462546F8
:10155000681C10B104480068054400BF00F0F0F8B2
:10156000801BA842FAD370BD4801002078B503461D
:101570000022CBE0012696400D6805EA0604002C07
:1015800072D04D68012D08D04D68022D05D04D68F0
:10159000112D02D04D68122D13D1986856000325E5
:1015A000B540A8435600CD68B540284398605868B8
:1015B00001259540A8430D79C5F3001595402843B2
:1015C0005860D86856000325B540A84356008D687A
:1015D000B5402843D8604D68022D02D04D68122DC9
:1015E00013D1D60803F1200555F826005507EE0E55
:1015F0000F25B540A8435607F60E0D69B5402843A0
:10160000D60803F1200545F8260018685600032582
:10161000B540A8430D7905F003055600B5402843B1
:1016200018604D6805F08055B5F1805F6DD100BF41
:10163000394D2D6E45F00105374E356635462D6E18
:1016400005F00105009500BF00BF4FEAB6359608CA
:1016500055F8260095072E0F0F25B540A843B3F186
:10166000904F02D1002515E04FE02C4DAB4201D147
:1016700001250FE02A4DAB4201D102250AE0294D98
:10168000AB4201D1032505E0274DAB4201D1042532
:1016900000E007259607360FB5402843234D9608EE
:1016A00045F82600224D2868A0434D6805F4803592
:1016B000B5F5803F00D120431D4D28602D1D2868C1
:1016C000A0434D6805F40035B5F5003F00D1204337
:1016D000174D2D1D28602D1D2868A0434D6805F469
:1016E0008015B5F5801F00D12043114D08352860C5
:1016F0002D1D2868A0434D6805F40015B5F5001FA1
:1017000000D120430A4D0C352860521C0D68D5408D
:10171000002D7FF42FAF78BD001002400004004878
:1017200000080048000C0048001000480800014074
:10173000000401400AB1816100E08162704700004D
:10174000014800687047000040010020034800681D
:1017500003490968084401490860704740010020B6
:101760004801002010B50024032000F0C5F8002037
:1017700000F008F808B1012401E000F047F8204625
:1017800010BD000070B588B0044600250026002278
:101790002146192000F06EF8192000F05BF800BF18
:1017A0001648006E40F40060144908660846006E52
:1017B00000F40060019000BF00BF02A903A800F080
:1017C00083FC00F0BBFC05460D48B5FBF0F0461E5F
:1017D0000C480D49086040F2E7310B48C160466093
:1017E00000210161816001F0D6FC20B9064801F0BA
:1017F000EDFC08B070BD0120FBE7000000100240C6
:1018000040420F00002C0140400A002008B500BFF4
:101810000F48006E40F001000D4908660846006E52
:1018200000F00100009000BF00BF00BF0846806DBF
:1018300040F0805088650846806D00F08050009030
:1018400000BF00BF00220F21901E00F013F808BD5A
:101850000010024001460846002809DB00F01F0383
:1018600001229A4043099B0003F1E023C3F80021C1
:1018700000BF70472DE9F05F80460D4616460027F1
:1018800003F05CFF074639462A46334601F007005D
:10189000C0F1070ABAF1040F02D94FF0040A01E0BF
:1018A000C0F1070AD14600F1040ABAF1070F02D2CB
:1018B0004FF0000A01E0A0F1030AD4464FF0010AFC
:1018C0000AFA09FAAAF1010A0AEA020A0AFA0CFA61
:1018D0004FF0010B0BFA0CFBABF1010B0BEA030B06
:1018E0004AEA0B042146404603F030FF00F000B8FE
:1018F00030BCBDE8C09F000000BF00F00702064BEF
:1019000019684FF6FF031940044B0B4343EA0221C9
:10191000014B196000BF70470CED00E00000FA05B4
:10192000024611680120C2F86802002082F86002B5
:1019300031F8540F40F001000880088840F00200A0
:1019400021F854090020704730B585B0044614B919
:10195000012005B030BD94F8290228B9002084F890
:101960002802204600F08EF8032084F8290220681F
:1019700003F0B8FE142204F110016846FEF7C6FC1D
:1019800094E80F0003F092FE20B1022084F82902AF
:101990000120DEE70021206803F0B8FE002526E0E4
:1019A000012104F1280000EB4510417004F12800EA
:1019B00000EB4510057004F1280000EB4510C581CF
:1019C000002104F1280000EB4510C17004F128004B
:1019D00000EB4510016104F1280000EB4510416166
:1019E00004F1280000EB45108161681CC5B26068F5
:1019F000A842D5D8002520E0002104F5947000EB22
:101A00004510417004F5947000EB4510057004F525
:101A1000947000EB4510C17004F5947000EB451014
:101A2000016104F5947000EB4510416104F5947078
:101A300000EB45108161681CC5B26068A842DBD824
:101A4000142204F110016846FEF760FC94E80F00D0
:101A500003F039FE20B1022084F82902012078E742
:101A6000002084F82400012084F82902E06901287C
:101A700002D12046FFF754FF206803F01BFE002030
:101A800067E7000008B5094A016891420DD100BF1F
:101A90000749896D41F08061054A91651146896D5C
:101AA00001F08061009100BF00BF08BD00680040E8
:101AB000001002400246B2F5007F2AD11D4800689E
:101AC00000F4C060B0F5007F32D01A48006820F4FE
:101AD000C06040F40070174B18601748006832234C
:101AE0005843164BB0FBF3F0411C00E0491E11486F
:101AF000406900F48060B0F5806F01D10029F5D114
:101B00000C48406900F48060B0F5806F10D103206C
:101B100070470848006800F4C060B0F5806F07D0D7
:101B20000448006820F4C06040F48060014B1860F5
:101B30000020EDE7007000404C01002040420F0003
:101B40000248006800F4C060704700000070004068
:101B50000348006840F48070014908607047000045
:101B6000007000400348006840F00400014908602C
:101B700070470000001002402DE9F843044600259C
:101B8000A846208800F40060B0F5006F26D1606C94
:101B900068B1B0F5000F03D0B0F5400F0ED10CE0E6
:101BA000E848C06840F48030E649C86008E0002199
:101BB000201D02F065FA054602E001E0012500BFA4
:101BC00000BF55B9DF488830006820F44000616CE0
:101BD0000843DC49C1F8880000E0A846206800F40A
:101BE0000030B0F5003F75D14FF00009D548806D49
:101BF000012121EA107078B100BFD248806D40F019
:101C00008050D04988650846806D00F08050009073
:101C100000BF00BF4FF00109CB48006840F480705E
:101C2000C9490860FFF78CFD074606E0FFF788FD0D
:101C3000C01B022801D9032505E0C348006800F451
:101C400080700028F2D000BF7DBBBE489030006895
:101C500000F44076CEB1E06DB04216D0B948903075
:101C6000006820F44076B748D0F8900040F4803007
:101C7000B449C1F890000846D0F8900020F48030B4
:101C8000C1F890000846C0F8906006F00100A8B1C5
:101C9000FFF756FD074609E0FFF752FDC01B41F272
:101CA0008831884202D9032507E016E0A548903024
:101CB000006800F002000028EED000BF5DB9A14826
:101CC0009030006820F44070E16D08439D49C1F8F0
:101CD000900003E00CE0A84600E0A846B9F1010F2F
:101CE00005D19848806D20F080509649886500BFE6
:101CF000207800F0010048B192488830006820F058
:101D00000300216A08438F49C1F88800207800F059
:101D10000200022809D18B488830006820F00C00AE
:101D2000616A08438749C1F88800207800F0040000
:101D3000042809D183488830006820F03000A16A67
:101D400008438049C1F88800207800F0200020284E
:101D500009D17C488830006820F44060E16A08437B
:101D60007849C1F88800208800F40070B0F5007F41
:101D700009D174488830006820F44020E16B0843A2
:101D80007049C1F88800208800F48060B0F5806F49
:101D900009D16C488830006820F44010216C084359
:101DA0006849C1F88800207800F04000402809D137
:101DB00064488830006820F44050216B0843614932
:101DC000C1F88800207800F08000802809D15D48A3
:101DD0008830006820F44040616B08435949C1F8DD
:101DE0008800208800F48070B0F5807F09D15548C4
:101DF0008830006820F44030A16B08435149C1F895
:101E00008800208800F40050B0F5005F1FD14D48D5
:101E10008830006820F04060A16C0843494988314F
:101E20000860A06CB0F1006F06D14648C06840F46D
:101E300080104449C8600AE0A06CB0F1806F06D100
:101E40000121201D02F01CF9054605B1A8462068B5
:101E500000F40020B0F5002F1FD13A488830006808
:101E600020F04060E16C0843364988310860E06C3E
:101E7000B0F1006F06D13348C06840F4801031499A
:101E8000C8600AE0E06CB0F1806F06D10121201D2E
:101E900002F0F6F8054605B1A846206800F4802057
:101EA000B0F5802F1FD127488830006820F04060AF
:101EB000216D0843234988310860206DB0F1006F1F
:101EC00006D12048C06840F480101E49C8600AE06E
:101ED000206DB0F1806F06D10121201D02F0D0F8F5
:101EE000054605B1A846208800F48040B0F5804F33
:101EF00014D114488830006820F04050616D0843C8
:101F0000104988310860606DB0F1805F06D1022110
:101F1000201D02F0B5F8054605B1A846208800F45A
:101F20000040B0F5004F09D106488830006820F025
:101F30008040A16D08430349C1F888004046BDE8D0
:101F4000F883000000100240007000402DE9F041CD
:101F500004460D4614B90120BDE8F08155480068DB
:101F600000F00700A8420ED25248006820F0070097
:101F70002843504908600846006800F00700A8425E
:101F800001D00120E8E7207800F00100002840D0CF
:101F90006068032806D14848006800F00070D8B98E
:101FA0000120D9E76068022806D14348006800F4A0
:101FB000003088B90120CFE7606830B93E4800683A
:101FC00000F0020040B90120C6E73B48006800F479
:101FD000806008B90120BFE73748806820F003001F
:101FE0006168084334498860FFF7AAFB064608E0A9
:101FF000FFF7A6FB801B41F28831884201D90320FC
:10200000AAE72D48806800F00C006168B0EB810FF2
:10201000EED1207800F00200022807D1264880681F
:1020200020F0F000A1680843234988602148006837
:1020300000F00700A8420ED91E48006820F00700F3
:1020400028431C4908600846006800F00700A842C1
:1020500001D0012080E7207800F00400042807D197
:102060001548806820F4E060E16808431249886000
:10207000207800F00800082808D10F48806820F474
:102080006050216940EAC1000B49886000F068F89F
:1020900009498968C1F30311084A515C01F01F0125
:1020A000C8400749086007480068FFF76BFB074610
:1020B000384651E70020024000100240C883000863
:1020C0004C010020440100200F2202600D4A92685A
:1020D00002F0030242600B4A926802F0F002826052
:1020E000084A926802F4E062C260064A926802F40A
:1020F0006052D2080261044A126802F007020A60C4
:1021000070470000001002400020024001480068B3
:10211000704700004C01002000B5FFF7F7FF0549AC
:102120008968C1F30221044A515C01F01F01C840D3
:1021300000BD000000100240D883000800B5FFF782
:10214000E5FF05498968C1F3C221044A515C01F0E9
:102150001F01C84000BD000000100240D8830008E5
:10216000F0B500230020DFF8D4C0DCF808C00CF084
:102170000C01DFF8C8C0DCF80CC00CF0030719B183
:102180000C291ED1012F1CD1DFF8B0C0DCF800C033
:102190000CF0080CBCF1000F06D1DFF8A0C0DCF891
:1021A00094C0CCF3032305E0DFF890C0DCF800C056
:1021B000CCF30313DFF888C05CF8233041B918462C
:1021C00006E0042901D11F4802E0082900D11E4879
:1021D0000C2932D1DFF864C0DCF80CC00CF0030429
:1021E000012C09D0022C02D0032C04D101E0154AA5
:1021F00004E0154A02E000BF1A4600BF00BFDFF846
:102200003CC0DCF80CC0CCF3021C0CF10106DFF87A
:102210002CC0DCF80CC0CCF3062C0CFB02FCBCFB85
:10222000F6F2DFF818C0DCF80CC0CCF3416C0CF10E
:10223000010C4FEA4C05B2FBF5F0F0BD0010024076
:10224000E08300080024F40000127A002DE9F8432E
:10225000044614B90120BDE8F883F948806800F00D
:102260000C06F748C06800F00307207800F0100063
:10227000102877D11EB10C2E76D1012F74D1F048E1
:10228000006800F0020018B1A06908B90120E2E777
:10229000EB48216A006800F0080020B1E8480068B7
:1022A00000F0F00005E0E6489430006800F470604B
:1022B000000981421FD9206A01F0A6FF08B1012060
:1022C000C9E700BFDE48006840F00800DC4908604C
:1022D0000846006820F0F000216A0843D8490860E9
:1022E00000BF0846406820F47F40E16940EA0120D1
:1022F000D34948601FE000BFD148006840F00800A3
:10230000CF4908600846006820F0F000216A0843C1
:10231000CB49086000BF0846406820F47F40E1696F
:1023200040EA0120C64948602EB9206A01F06CFFDE
:1023300008B101208FE7FFF713FFC1498968C1F396
:102340000311C04A515C01F01F01C840BE4908603A
:10235000BE480068FFF716FA8046B8F1000F4ED06D
:10236000404678E74BE0FFE7A06980B3B4480068D7
:1023700040F00100B2490860FFF7E2F9054606E0C7
:10238000FFF7DEF9401B022801D9032063E7AC48C0
:10239000006800F002000028F2D000BFA8480068E2
:1023A00040F00800A64908600846006820F0F000E8
:1023B000216A0843A249086000BF0846406820F42B
:1023C0007F40E16940EA01209D49486017E0FFE74E
:1023D0009B48006820F0010099490860FFF7B0F9B8
:1023E000054606E0FFF7ACF9401B022801D903209F
:1023F00031E79348006800F002000028F2D120780D
:1024000000F0010000285CD0082E03D00C2E0AD169
:10241000032F08D18A48006800F4003088B3606850
:1024200078BB012017E700BF6068B0F5803F06D198
:102430008348006840F48030814908601AE0606891
:10244000B0F5A02F0BD17E48006840F480207C4975
:1024500008600846006840F4803008600AE0784868
:10246000006820F48030764908600846006820F44F
:102470008020086000BF606890B1FFF761F90546F1
:1024800007E01EE0FFF75CF9401B642801D9032038
:10249000E1E66B48006800F400300028F2D010E05C
:1024A000FFF74EF9054606E0FFF74AF9401B64289E
:1024B00001D90320CFE66248006800F4003000280C
:1024C000F2D1207800F00200022852D1042E03D06D
:1024D0000C2E14D1022F12D15948006800F48060EC
:1024E00018B1E06808B90120B5E65548406820F009
:1024F000F850217C40EA01605149486039E0E068C9
:1025000000B34F48006840F480704D490860FFF701
:1025100017F9054606E0FFF713F9401B022801D919
:10252000032098E64648006800F480600028F2D056
:102530004348406820F0F850217C40EA016040495F
:10254000486016E03E48006820F480703C4908600E
:10255000FFF7F6F8054606E0FFF7F2F8401B022801
:1025600001D9032077E63648006800F4806000282F
:10257000F2D1207800F00800082836D16069D0B187
:102580002F489430006840F001002D49C1F89400B4
:10259000FFF7D6F8054606E0FFF7D2F8401B022801
:1025A00001D9032057E626489430006800F0020065
:1025B0000028F1D019E022489430006820F0010092
:1025C0001F49C1F89400FFF7BBF8054606E0FFF786
:1025D000B7F8401B022801D903203CE61848943084
:1025E000006800F002000028F1D1207800F004001B
:1025F000042872D14FF000091148806D00F080501E
:1026000078B900BF0E48806D40F080500C49886555
:102610000846806D00F08050009000BF00BF4FF072
:1026200001090B48006800F4807000BB084800688E
:1026300040F4807006490860FFF782F8054610E014
:1026400000100240C88300084C0100204401002013
:1026500000700040FFF774F8401B022801D90320E6
:10266000F9E5D048006800F480700028F2D000BF7F
:10267000A068012808D1CC48006840F00100CA4990
:102680009039C1F8900021E0A06805280FD1C64814
:10269000006840F00400C4499039C1F89000084631
:1026A000D0F8900040F00100C1F890000EE0BE4864
:1026B000006820F00100BC499039C1F8900008463C
:1026C000D0F8900020F00400C1F8900000BFA0688E
:1026D000A0B1FFF735F8054609E02EE0FFF730F826
:1026E000401B41F28831884201D90320B3E5AE484E
:1026F000006800F002000028F0D012E0FFF720F898
:10270000054608E0FFF71CF8401B41F2883188427B
:1027100001D903209FE5A448006800F002000028CA
:10272000F0D1B9F1010F07D19F489038806D20F0AA
:1027300080509D499039886500BF207800F02000C6
:10274000202838D1606AD8B197480830006840F036
:10275000010095499039C1F89800FEF7F1FF054650
:1027600006E0FEF7EDFF401B022801D9032072E5C9
:102770008D480830006800F002000028F1D01AE00F
:1027800089480830006820F0010087499039C1F875
:102790009800FEF7D5FF054606E0FEF7D1FF401B87
:1027A000022801D9032056E57F480830006800F070
:1027B00002000028F1D1A06A00287DD0A06A02287A
:1027C0007BD179489038C76807F00301E06A8142FD
:1027D00025D107F07001206B401EB1EB001F1ED108
:1027E00007F4FE41606BB1EB002F18D107F0784180
:1027F0003820005DB1EBC06F11D107F4C001A08F8C
:102800000122C2EB5000B1EB405F08D107F0C0617C
:102810004020005DC2EB5000B1EB406F66D00C2E43
:1028200062D061489038006800F0806008B10120F3
:1028300011E55D489038006820F080705A49903961
:102840000860FEF77DFF054606E0FEF779FF401BB6
:10285000022801D90320FEE453489038006800F0B4
:1028600000700028F1D1D4E90B10401E41EA00119C
:10287000606B41EA0021A08F0122C2EB500041EAC7
:1028800040514020005DC2EB500041EA40613820D9
:10289000005D41EAC06044499039C968434A11402B
:1028A000084341499039C8600846006840F080708C
:1028B00008600846C06801E05BE03DE040F08070E1
:1028C000C860FEF73DFF054606E0FEF739FF401BF6
:1028D000022801D90320BEE433489038006800F094
:1028E00000700028F1D05AE00120B4E42E4890385E
:1028F000006800F00070E0BB2B489038006840F0A2
:1029000080702949903908600846C06840F080709E
:10291000C860FEF715FF054606E0FEF711FF401BF5
:10292000022801D9032096E41F489038006800F07F
:1029300000700028F1D032E00C2E2ED01A489038CA
:10294000006820F0807018499039086008460068D7
:1029500000F0006020B90846C06820F00300C8609D
:1029600011489038C068124908400F499039C86032
:1029700000E014E0FEF7E4FE054606E0FEF7E0FEA8
:10298000401B022801D9032065E4074890380068FD
:1029900000F000700028F1D101E001205BE400208C
:1029A00059E4000000700040901002408C809D01AE
:1029B000FFFFEEFE70B504460CB9012070BD606AE1
:1029C00000B900BF0021A16294F85D0028B9002081
:1029D00084F85C00204600F04DF8022084F85D0089
:1029E0002068006820F0400021680860E068B0F5C9
:1029F000E06F01D9002501E04FF48055E068B0F5A3
:102A0000706F05D0E068B0F5E06F01D00021A162E1
:102A1000206B40B9E068B0F5E06F02D90221216374
:102A200001E001212163D4E9010108432169084340
:102A300061690843218B01F400710843E16908438F
:102A4000216A0843A16A0843216808600421A0693B
:102A500001EA1040616A0843616B0843E16808437A
:102A600028432168486000202066012084F85D002A
:102A70000020A3E710B586B00446142101A8FDF795
:102A80005EFC2F492068884229D100BF2D48006E86
:102A900040F480502B4908660846006E00F48050D0
:102AA000009000BF00BF00BF0846C06C40F00200AD
:102AB000C8640846C06C00F00200009000BF00BF70
:102AC00038200190022002900020039003200490FF
:102AD0000520059001A91C48FEF748FD2DE01B4983
:102AE0002068884229D100BF1648806D40F480409C
:102AF000144988650846806D00F48040009000BF4E
:102B000000BF00BF0846C06C40F00200C864084621
:102B1000C06C00F00200009000BF00BF4FF46040A6
:102B200001900220029000200390032004900520D1
:102B3000059001A90448FEF719FD06B010BD00007C
:102B400000300140001002400004004800380040FE
:102B50002DE9F8430446884616461D464FF0000905
:102B60006068B0F5827F0DD1A06858B9042084F860
:102B70005D003346424641462046009500F0A7F9E5
:102B8000BDE8F88300BF94F85C00012801D1022061
:102B9000F6E7012084F85C0000BFFEF7D1FD074690
:102BA00094F85D00012802D04FF0020993E0B8F1DB
:102BB000000F00D016B94FF001098CE0042084F812
:102BC0005D0000202066C4F84080A4F84460A4F8AA
:102BD0004660A063A087E087E0642065E068B0F508
:102BE000E06F06D92068406820F480502168486072
:102BF00005E02068406840F4805021684860A06883
:102C0000B0F5004F05D12068006820F480402168AD
:102C100008602068006800F04000402805D0206867
:102C2000006840F0400021680860E068B0F5E06F9F
:102C300022D81CE02068806800F0010060B12068A4
:102C4000007B216C0870206C401C2064B4F84600A6
:102C5000401EA4F846000AE0FEF772FDC01BA84221
:102C600001D3681C00B915B94FF0030933E0B4F87B
:102C700046000028DED121E01CE02068806800F0DA
:102C8000010060B12068C068216C0880206C801C45
:102C90002064B4F84600401EA4F846000AE0FEF79F
:102CA0004FFDC01BA84201D3681C00B915B94FF0F5
:102CB000030910E0B4F846000028DED13A46294660
:102CC000204601F03BFB08B120202066206E08B1B1
:102CD0004FF0010900BF012084F85D0000BF002013
:102CE00084F85C0000BF48464AE72DE9F84F0446E7
:102CF000884616461D464FF0000A00BF94F85C0057
:102D0000012802D1022000F0DFB8012084F85C0025
:102D100000BFFEF715FD0746B14694F85D00012897
:102D200002D04FF0020AC5E0B8F1000F00D016B98A
:102D30004FF0010ABEE0032084F85D000020206609
:102D4000C4F83880A687E6872064A4F84400A4F875
:102D500046002065E064A068B0F5004F05D120680A
:102D6000006840F48040216808602068006800F036
:102D70004000402805D02068006840F040002168ED
:102D80000860E068B0F5E06F2FD9606810B1B9F164
:102D9000010F09D1A06B00882168C860A06B801C5E
:102DA000A063E08F401EE0871BE02068806800F091
:102DB000020002280AD1A06B00882168C860A06BBD
:102DC000801CA063E08F401EE0870AE0FEF7B8FC9D
:102DD000C01BA84201D3681C00B915B94FF0030A03
:102DE00068E0E08F0028E0D14AE0606810B1B9F1F6
:102DF000010F17D1E08F01280AD9A06B0088216844
:102E0000C860A06B801CA063E08F801EE08709E093
:102E1000A06B007821680873A06B401CA063E08F52
:102E2000401EE08729E02068806800F00200022848
:102E300018D1E08F01280AD9A06B00882168C860EA
:102E4000A06B801CA063E08F801EE08715E0A06B64
:102E5000007821680873A06B401CA063E08F401EBF
:102E6000E0870AE0FEF76CFCC01BA84201D3681C97
:102E700000B915B94FF0030A1CE0E08F0028D2D149
:102E80003A462946204601F09AFA08B120202066E9
:102E9000A06850B900BF002000902068C068009072
:102EA00020688068009000BF00BF206E08B14FF01E
:102EB000010A00BF012084F85D0000BF002084F8F3
:102EC0005C0000BF50461EE718BCBDE8E08F2DE94E
:102ED000FF5F0446894692461D460E9E01200190E2
:102EE0000020009000BF94F85C00012803D102206C
:102EF00004B000F04AB9012084F85C0000BFFEF77E
:102F00001FFC074694F85D00029060680390A84695
:102F1000AB46029801280BD00398B0F5827F04D10C
:102F2000A06810B90298042802D00220009022E183
:102F3000B9F1000F03D0BAF1000F00D015B901208C
:102F4000009018E194F85D00042802D0052084F870
:102F50005D0000202066C4F840A0A4F84650A4F804
:102F60004450C4F83890E587A587E0642065E068A0
:102F7000B0F5E06F02D8BBF1010F06D920684068B8
:102F800020F480502168486005E02068406840F4E3
:102F90008050216848602068006800F040004028A8
:102FA00005D02068006840F0400021680860E068B3
:102FB000B0F5E06F4ED9606810B1B8F1010F09D1DA
:102FC000A06B00882168C860A06B801CA063E08FA4
:102FD000401EE08736E02068806800F0020002288A
:102FE00010D1E08F70B1019801280BD1A06B00883F
:102FF0002168C860A06B801CA063E08F401EE08742
:10300000002001902068806800F0010080B1B4F8D1
:10301000460068B12068C068216C0880206C801C64
:103020002064B4F84600401EA4F846000120019038
:10303000FEF786FBC01BB04204D3701C10B1032006
:10304000009098E0E08F0028C5D1B4F84600002831
:10305000C1D185E0606810B1B8F1010F17D1E08FE0
:1030600001280AD9A06B00882168C860A06B801C69
:10307000A063E08F801EE08709E0A06B00782168E4
:103080000873A06B401CA063E08F401EE08760E0E7
:103090002068806800F0020002281ED1E08FE0B1B5
:1030A0000198012819D1E08F01280AD9A06B008866
:1030B0002168C860A06B801CA063E08F801EE08741
:1030C00009E0A06B007821680873A06B401CA06326
:1030D000E08F401EE087002001902068806800F0AB
:1030E000010058B3B4F8460040B3B4F846000128D4
:1030F00016D92068C068216C0880206C801C206470
:10310000B4F84600801EA4F84600B4F84600012832
:1031100012D82068406840F48050216848600BE075
:103120002068007B216C0870206C401C2064B4F87F
:103130004600401EA4F8460001200190FEF700FB67
:10314000C01BB04201D3701C00B916B90320009017
:1031500011E0E08F00289BD1B4F84600002897D1F9
:103160003A463146204601F02AF918B10120009074
:103170002020206600BF012084F85D0000BF0020F1
:1031800084F85C0000BF0098B2E630BCBDE8C09F88
:1031900070477047704710B504460CB9012010BD48
:1031A00094F83D0028B9002084F83C00204600F047
:1031B0000CF8022084F83D00211D206801F06EFE0D
:1031C000012084F83D000020E9E7704701460868C7
:1031D000C06840F001000B68D86008688068084B40
:1031E00000EA0302062A08D0B2F5803F05D008683D
:1031F000006840F001000B68186000207047000074
:1032000007000100704710B5044620680069C0F34C
:103210004000D8B12068C068C0F34000B0B16FF082
:10322000020021680861012020772068806900F091
:10323000030018B12046FFF7E5FF05E0204600F047
:10324000BEF8204600F0BCF8002020772068006916
:10325000C0F38000D8B12068C068C0F38000B0B16E
:103260006FF00400216808610220207720688069DF
:1032700000F4407018B12046FFF7C4FF05E0204677
:1032800000F09DF8204600F09BF800202077206891
:103290000069C0F3C000D8B12068C068C0F3C000A6
:1032A000B0B16FF008002168086104202077206821
:1032B000C06900F0030018B12046FFF7A3FF05E046
:1032C000204600F07CF8204600F07AF800202077B5
:1032D00020680069C0F30010D8B12068C068C0F34E
:1032E0000010B0B16FF0100021680861082020774D
:1032F0002068C06900F4407018B12046FFF782FFD3
:1033000005E0204600F05BF8204600F059F8002068
:1033100020772068006900F0010058B12068C0687B
:1033200000F0010030B16FF0010021680861204613
:1033300000F048F820680069C0F3C01058B1206858
:10334000C068C0F3C01030B16FF080002168086120
:103350002046FFF71EFF20680069C0F3002058B127
:103360002068C068C0F3C01030B16FF4807021686D
:1033700008612046FFF70CFF20680069C0F3801049
:1033800058B12068C068C0F3801030B16FF04000C1
:1033900021680861204600F021F820680069C0F328
:1033A000401058B12068C068C0F3401030B16FF0D1
:1033B0002000216808612046FFF7ECFE10BD704731
:1033C0007047000010B5044603492068884201D1C7
:1033D000FEF7BCF910BD0000002C0140704770479B
:1033E000704700002DE9F04704462068C569206851
:1033F00006682068876840F60F0005EA0008B8F103
:10340000000F0CD105F0200048B106F0200030B1CB
:10341000206E10B12046216E8847BDE8F087B8F1D4
:10342000000F7DD007F0010018B906F49070002855
:10343000F7D005F0010048B106F4807030B10120EA
:1034400021680862E06F40F00100E06705F00200CB
:1034500048B107F0010030B1022021680862E06F36
:1034600040F00400E06705F0040048B107F00100F7
:1034700030B1042021680862E06F40F00200E0678C
:1034800005F0080060B106F0200010B907F0010057
:1034900030B1082021680862E06F40F00800E06762
:1034A00005F4006050B106F0806038B14FF4006060
:1034B00021680862E06F40F02000E067E06F80B3B1
:1034C00005F0200038B106F0200020B1206E10B1C8
:1034D0002046216E8847D4F87C902068806800F0F0
:1034E0004000402802D009F0280030B3204601F007
:1034F000CEFD2068806800F04000402819D1206887
:10350000806820F0400021688860E06E68B1214842
:10351000E16E8863E06EFDF7E7FF10B1E06E01E059
:1035200011E00FE0816B88470CE02046FFF758FF61
:1035300008E02046FFF754FF04E02046FFF750FF65
:103540000020E06769E705F4801050B107F48000BF
:1035500038B14FF48010216808622046FFF73FFF22
:103560005BE705F0800040B106F0800028B1606E96
:1035700010B12046616E88474FE705F0400030B13A
:1035800006F0400018B1204601F092FD45E700BF6B
:1035900043E700007750000810B504460CB901203D
:1035A00010BDA06900B100E000BF606F28B9002025
:1035B00084F87000204600F029F824206067206815
:1035C000006820F0010021680860204601F0E8FD55
:1035D000012800D1E4E7606A10B1204601F098FCB0
:1035E0002068406820F49040216848602068806826
:1035F00020F02A00216888602068006840F00100FF
:1036000021680860204601F0FFFCC9E710B586B0CC
:103610000446142101A8FCF792FE3849206888422C
:1036200033D100BF3648006E40F48040344908660C
:103630000846006E00F48040009000BF00BF00BF4D
:103640000846C06C40F00100C8640846C06C00F039
:103650000100009000BF00BF4FF4C0600190022045
:10366000029000200390032004900720059001A9F8
:103670004FF09040FDF77AFF002205212520FEF74C
:10368000F9F82520FEF7E6F835E01E492068884263
:1036900031D100BF1A48806D40F4802018498865F8
:1036A0000846806D00F48020009000BF00BF00BF7E
:1036B0000846C06C40F00200C8640846C06C00F0C8
:1036C0000200009000BF00BF4FF440600190022054
:1036D000029000200390032004900720059001A988
:1036E0000948FDF743FF002205212720FEF7C2F815
:1036F0002720FEF7AFF806B010BD000000380140EB
:1037000000100240004800400004004810B5034685
:10371000986F202865D101B10AB9012010BD00BF02
:1037200093F87000012801D10220F7E7012083F807
:10373000700000BF5965A3F85820A3F85A20002054
:10374000186600BF9868B0F5805F0AD1186920B983
:1037500040F2FF10A3F85C0020E0FF20A3F85C001B
:103760001CE0986848B9186918B9FF20A3F85C00F4
:1037700014E07F20A3F85C0010E09868B0F1805F4F
:1037800009D1186918B97F20A3F85C0006E03F2032
:10379000A3F85C0002E00020A3F85C0000BF00205A
:1037A000D867222098671868806840F001001C687C
:1037B000A0609868B0F5805F04D1186910B90A4814
:1037C000186601E00948186600BF002083F8700001
:1037D00000BF1868006840F490701C6820600020EA
:1037E0009CE702209AE70000D15000083B510008F6
:1037F0000649884202D10121054A116005498842E3
:1038000002D10121044A116070470000CC0400205D
:10381000840000204C0500208C00002070B5044678
:103820000D461646002300BF0AE0E85C208500BF75
:103830004021204600F08AF80028F9D0581C83B2B5
:10384000B342F2DB70BD2DE9F84F04460E46174631
:103850009946606F20285DD106B117B9012000F0AC
:103860005BB800BF94F87000012801D10220F6E790
:10387000012084F8700000BF0020E067212060670D
:10388000FDF75EFF8246A4F85070A4F85270A0685D
:10389000B0F5805F04D1206910B90025B04602E080
:1038A00035464FF0000800BF002084F8700000BFCC
:1038B0001DE05346002280212046CDF8009001F003
:1038C0006AFE08B10320CAE745B9B8F80000C0F3A2
:1038D00008002168088508F1020803E028782168BB
:1038E00008856D1CB4F85200401EA4F85200B4F8CC
:1038F00052000028DDD15346002240212046CDF859
:10390000009001F048FE08B10320A8E7202060677E
:103910000020A4E70220A2E718BCBDE8E08F000069
:103920000649884202D10121054A116005498842B1
:1039300002D10121044A116070470000CC0400202C
:10394000880000204C050020900000200246D0692D
:103950000840884201D1012070470020FCE70000A8
:1039600009E001F093FE04A002F0F0FE01F07EFEFB
:103970006420FDF7E7FDF4E721212148415244206E
:103980004641554C542121210D0A0D0A000000002A
:1039900008B5012251022248FDF7CCFE0122110395
:1039A0001F48FDF7C7FE002204211D48FDF7C2FE97
:1039B0006420FDF7C7FD012204211948FDF7BAFE76
:1039C00001F064FE00F06AF908B9FDF777FD002008
:1039D00000F0DAF8802000F0C9F8012000F0D4F8F7
:1039E0000021402000F02CF90021412000F028F9AE
:1039F0000C4800F0D7F80020009001208DF800005E
:103A00008DF801008DF80200AA208DF80300042231
:103A10000021684600F038F801F028FE012008BDBA
:103A2000000400486035081C1CB5044600949DF84D
:103A3000000000F07F00009000224FF480511048F9
:103A4000FDF778FE0120FDF77DFD05230122694683
:103A50000C48FFF74AF908B1FDF730FD05230122B4
:103A600001A90848FFF774F808B1FDF727FD012206
:103A700011030348FDF75EFE9DF804001CBD000025
:103A800000040048680400202DE9F84306460F466C
:103A90001446012000F078F80021242000F0D0F82E
:103AA0004021084600F0CCF80021412000F0C8F881
:103AB000FF21122000F0C4F80821112000F0C0F806
:103AC0002146222000F0BCF800210E2000F0B8F8BA
:103AD00000210D2000F0B4F8002204212048FDF759
:103AE00029FE20A0006800900523012269461E4897
:103AF000FFF7FBF808B1FDF7E1FC00250AE0E81943
:103B00008119052301221848FFF7EFF808B1FDF7E6
:103B1000D5FC6D1CA542F2DB012204211048FDF703
:103B200009FE032000F030F84FF47A780EE01220FE
:103B3000FFF77AFF00F00800082804D100F068F8C9
:103B40000020BDE8F8830320FDF7FCFCB8F100007D
:103B5000A8F10108EBDC00F05BF84FF0FF30F0E774
:103B600000040048800000006804002070B505468D
:103B70000120FFF759FF044604F07F042C4321463F
:103B8000012000F05DF870BD70B505460120FFF71B
:103B90004BFF044604F0F8042C432146012000F0BA
:103BA0004FF870BD30B52DED048B81B00546284629
:103BB000FCF7C8FC41EC190B9FED130B53EC102BD9
:103BC000FCF751FC41EC180BFCF7C9FC0446200C37
:103BD0008DF80000200A8DF80100E0B28DF8020097
:103BE0009DF80010062000F02BF89DF8011007202A
:103BF00000F026F89DF80210082000F021F801B02E
:103C0000BDEC048B30BD00000000000080844E40FD
:103C100010B50120FFF7B8FF0021402000F010F898
:103C20000021412000F00CF8FF21122000F008F8DC
:103C30004021112000F004F80620FFF7A5FF10BD79
:103C400013B582B0044601949DF8040040F0800052
:103C5000019000224FF480510E48FDF76BFD0120CA
:103C6000FDF770FC0523012201A90B48FFF73DF881
:103C700008B1FDF723FC0523012203A90648FFF73D
:103C800034F808B1FDF71AFC012211030148FDF7D1
:103C900051FD1FBD000400486804002010B5002439
:103CA00000BF0FA002F052FD4220144908700878AE
:103CB000FFF7BAFE1249087008464278017811A051
:103CC00002F044FD641C0E480078122801D0032C39
:103CD000E7DB032C01DA012010BD0020FCE7000027
:103CE000436865636B696E67204C6F526120446561
:103CF000766963652049440D0A0D0A007E000020A4
:103D00007C000020535049322049443A2025782035
:103D10002578200D0A0D0A0000B5A5B000202390DB
:103D20002490012123A802F03EFD1F4908601C22B7
:103D30001E491CA8FCF7EAFA00211CA802F058FD55
:103D40001B4908601C2219491C3115A8FCF7DEFA32
:103D5000002115A802F04CFD164908601C221349E9
:103D600038310EA8FCF7D2FA00210EA802F040FD6F
:103D7000114908601C220D49543107A8FCF7C6FA06
:103D8000002107A802F034FD0C4908601C220749F5
:103D900070316846FCF7BAFA0021684602F028FD47
:103DA0000749086025B000BD280100203C830008B9
:103DB00014010020180100201C0100202001002017
:103DC0002401002000B587B0142102A8FCF7B7FA3F
:103DD00000BF5148C06C40F004004F49C864084619
:103DE000C06C00F00400019000BF00BF00BF084697
:103DF000C06C40F08000C8640846C06C00F08000D1
:103E0000019000BF00BF00BF0846C06C40F0010039
:103E1000C8640846C06C00F00100019000BF00BFFC
:103E200000BF0846C06C40F00200C8640846C06C81
:103E300000F00200019000BF00BF00224FF40051CB
:103E40003648FDF777FC0122E0214FF09040FDF766
:103E500071FC012211463248FDF76CFC00224FF440
:103E60009C512F48FDF766FC00224FF400414FF0B3
:103E70009040FDF75FFC4FF400500290012003904A
:103E800000200490059002A92448FDF76FFB40F242
:103E90001F10029000200390049002A94FF0904060
:103EA000FDF764FB48F2E0000290012003900490CB
:103EB0000020059002A94FF09040FDF757FB8120AC
:103EC00002900120039004900020059002A914485C
:103ED000FDF74CFB0420029000200390049002A9FF
:103EE0000F48FDF743FB4FF49850029001200390D8
:103EF00000200490059002A90948FDF737FB4020F7
:103F00000290002003900120049002A90448FDF7CC
:103F10002DFB07B000BD0000001002400008004863
:103F20000004004810B51148114908604FF4827030
:103F3000486000210E4881604FF4E061C1600021BB
:103F4000016141614FF4007181611821C16100215B
:103F50000162416281620721C16200210163416304
:103F6000FEF728FD08B1FDF7A9FA10BD00300140A9
:103F70000404002010B51148114908604FF4827004
:103F8000486000210E4881604FF4E061C16000216B
:103F9000016141614FF4007181611821C16100210B
:103FA0000162416281620721C162002101634163B4
:103FB000FEF700FD08B1FDF781FA10BD00380040A2
:103FC0006804002010B50D480D4908604FF41650E4
:103FD000486000210A488160C16001610C21416193
:103FE00000218161C16101620020054948620846E3
:103FF000FFF7D2FA08B1FDF761FA10BD00380140B1
:10400000CC04002010B50D480D4908604FF416503F
:10401000486000210A488160C16001610C21416152
:1040200000218161C16101620020054948620846A2
:10403000FFF7B2FA08B1FDF741FA10BD00480040A1
:104040004C05002010B50A480A490860082048605D
:104050000221084881600161002141618161C161E3
:104060000162FDF771FC08B1FDF728FA10BD0000F0
:1040700000680040CC07002000BFFEE7704700004A
:104080002DE9F04104460F4600255B48C06800F06A
:10409000030090B15848C06800F0030021688842CE
:1040A00009D1206838B15448C068C0F30210401CE0
:1040B0006168884233D0012531E02068012804D0AE
:1040C000022809D003281AD10DE04B48006800F0FF
:1040D000020000B9012514E04748006800F4806040
:1040E00000B901250DE04448006800F4003028B90B
:1040F0004148006800F4802000B9012501E0012555
:1041000000BF00BF5DB9D4E90010401E41EA0010B5
:104110003949C96821F0730108433749C860002D47
:1041200067D13548006820F0806033490860FDF7AA
:1041300007FB064606E0FDF703FB801B022801D9BA
:10414000032505E02C48006800F000600028F2D14B
:1041500000BFC5BB67B9A0680002217B40EAC1600F
:1041600025490969254A114008432349086120E08F
:10417000012F0FD1A0680002218A0122C2EB510158
:1041800040EA41501C4909691D4A114008431A4937
:1041900008610EE0A0680002217D0122C2EB5101FE
:1041A00040EA416014490969164A1140084312491E
:1041B00008611148006840F080600F490860FDF711
:1041C000BFFA064607E014E0FDF7BAFA801B0228A2
:1041D00001D9032505E00848006800F000600028C8
:1041E000F2D000BF2DB904480069A1690843024913
:1041F00008612846BDE8F08100100240FF80FF07FB
:10420000FF809FFFFF80FFF9F8B504460026234892
:10421000806D00F0805018B1FDF792FC054616E065
:1042200000BF1E48806D40F080501C4988650846DC
:10423000806D00F08050009000BF00BFFDF780FC53
:1042400005461648806D20F0805014498865B5F504
:10425000007F07D1802C10D9A02C01D902260CE0B8
:1042600001260AE0802C01D9032606E0802C01D12A
:10427000022602E0702C00D101260948006820F0D7
:1042800007003043064908600846006800F0070050
:10429000B04201D00120F8BD0020FCE70010024030
:1042A000002002407FB504460D4600200290039096
:1042B00000900190E0B28DF80800FF208DF8090011
:1042C0008DF80A008DF80B009DF8080001F0C7FE7C
:1042D0008DF800009DF8090001F0C1FE8DF8010085
:1042E0009DF80A0001F0BBFE8DF802009DF80B005E
:1042F00001F0B5FE8DF803006846FCF717FB064693
:1043000001F0ADFE8DF80C000A48006820B90522C6
:1043100029460948FFF7FAF94FF6FF73052202A96B
:104320000548FFF790FA0120FDF70CF9012004B0D1
:1043300070BD000034000020CC040020F8B5044615
:104340000E4615466068B0F5827F0DD1A068B0F5C5
:10435000004F03D0A068B0F5806F05D120680068D9
:1043600020F040002168086033460022802120466A
:10437000009500F0ABF828B1206E40F020002066D8
:104380000320F8BD6068B0F5827F16D1A068B0F553
:10439000004F03D0A068B0F5806F0ED133460022E5
:1043A0004FF4C0612046009500F03BF828B1206E24
:1043B00040F0200020660320E3E70020E1E7F8B5A5
:1043C00004460E461546334600224FF4C05120469F
:1043D000009500F026F828B1206E40F020002066FD
:1043E0000320F8BD3346002280212046009500F0CE
:1043F0006DF828B1206E40F0200020660320F0E721
:10440000334600224FF4C0612046009500F009F8C1
:1044100028B1206E40F0200020660320E1E7002054
:10442000DFE72DE9F04104460E4617461D46DDF84C
:10443000188044E0B6F5C06F02D10FB92068007B48
:10444000681CD8B3FDF77CF9A0EB0800A84200D2A5
:10445000A5BB2068406820F0E000216848606068E3
:10446000B0F5827F0DD1A068B0F5004F03D0A068F1
:10447000B0F5806F05D12068006820F04000216809
:104480000860A06AB0F5005F0DD100BF2068006829
:1044900020F40050216808602068006840F4005053
:1044A0002168086000BF012084F85D0000BF002083
:1044B00084F85C0000BF0320BDE8F081FFE72068BE
:1044C00080683040B842B5D10020F5E72DE9F041D1
:1044D00004460E4617461D46DDF818803EE0681C6F
:1044E000D8B3FDF72DF9A0EB0800A84200D2A5BB78
:1044F0002068406820F0E000216848606068B0F5FE
:10450000827F0DD1A068B0F5004F03D0A068B0F550
:10451000806F05D12068006820F0400021680860A5
:10452000A06AB0F5005F0DD100BF2068006820F4DC
:104530000050216808602068006840F4005021683D
:10454000086000BF012084F85D0000BF002084F8EF
:104550005C0000BF0320BDE8F081FFE720688068B1
:104560003040B04201D1012000E00020B842B6D175
:104570000020F0E708B5012280214648FDF7DAF86F
:1045800040F6B830FCF7DEFF002280214148FDF7FD
:10459000D1F8002240214FF09040FDF7CBF80022E7
:1045A00020214FF09040FDF7C5F86420FCF7CAFFCA
:1045B000012240214FF09040FDF7BCF8012220215C
:1045C0004FF09040FDF7B6F86420FCF7BBFF0122E6
:1045D00080213048FDF7AEF82320FCF7B3FF00221E
:1045E00040214FF09040FDF7A5F80020FCF7AAFF0E
:1045F000012240214FF09040FDF79CF80020FCF78D
:10460000A1FF002240214FF09040FDF793F80020D9
:10461000FCF798FF012240214FF09040FDF78AF807
:104620000020FCF78FFF002240214FF09040FDF763
:1046300081F80020FCF786FF012240214FF09040D6
:10464000FDF778F80120FCF77DFF002220214FF0D4
:104650009040FDF76FF80020FCF774FF0122202145
:104660004FF09040FDF766F80020009003208DF891
:10467000000080208DF801006946052000F012F846
:1046800001F004F804A002F061F800F0EFFF01204F
:1046900008BD000000040048494E495420646F6E74
:1046A000650D0A0070B586B005460C4600200490E2
:1046B000059002900390009001908DF80800E8B2F8
:1046C0008DF8090060788DF80A0020788DF80B00CD
:1046D0009DF8080001F0C3FC8DF800009DF809006A
:1046E00001F0BDFC8DF801009DF80A0001F0B7FC57
:1046F0008DF802009DF80B0001F0B1FC8DF803006D
:104700006846FCF713F9064601F0A9FC8DF80C0089
:104710000A48006820B9052204A90948FEF7F6FFF7
:104720004FF6FF73052202A90548FFF78CF8012018
:10473000FCF708FF012006B070BD00003400002027
:10474000CC04002000BF012002F01CF8FBE70000B1
:10475000002002F06BFC0349086000BF012002F05A
:1047600011F8FBE710010020002002F05FFC9B49DC
:10477000086000BF9A4800788A2812DD2E209849E8
:1047800008709848008808309649088000F07EFF3D
:1047900095A001F0DBFF00F069FF40F6B83002F0B1
:1047A0003FFD90480088B0F5803F0CDB00208D492C
:1047B000088000F06BFF95A001F0C8FF98A001F001
:1047C000C5FF00F053FF9F48006801287CD19E4838
:1047D00000789E4908709C48407848709A488078D4
:1047E00088709948C078C8709748007908719848CF
:1047F00000680A2869D17A4800782E280AD195A045
:1048000001F0A4FF05229149974802F0F1FBFCF763
:10481000FBFACAE0724800784E280AD193A001F052
:1048200095FF05228949964802F0E2FBFCF792FBCE
:10483000BBE06B48007848280CD192A001F086FFBD
:1048400005228249944802F0D3FBFCF795FDFCF762
:1048500091FAAAE06248007854280AD18FA001F0AA
:1048600075FF05227949944802F0C2FBFCF772F803
:104870009BE05B480078562808D190A001F066FFC5
:1048800005227249964802F0B3FB8EE05448007846
:1048900058280AD193A001F059FF05226B49994885
:1048A00002F0A6FBFCF7DAFB7FE04D4800785A28BF
:1048B0000CD195A001F04AFF052264499A4802F004
:1048C00097FBFCF74DF970E07FE076E04448007814
:1048D0005C280AD195A001F039FF05225B499A486E
:1048E00002F086FBFCF7B8F85FE03D4800785E28F0
:1048F00008D196A001F02AFF052254499B4802F0F6
:1049000077FB52E03648007860280AD198A001F081
:104910001DFF05224D499E4802F06AFBFCF720FC72
:1049200043E02F48007862280AD19AA001F00EFFD8
:1049300005224649A04802F05BFBFCF793F934E0FE
:1049400027480078842808D19CA001F0FFFE0522AA
:104950003E49A24802F04CFB27E021480078862817
:1049600008D19FA001F0F2FE05223849A54802F0C7
:104970003FFB1AE01A480078882808D1A2A001F06D
:10498000E5FE05223149A84802F032FB0DE014484B
:1049900000788A2809D1A5A001F0D8FE05222B496C
:1049A000AA4802F025FBFCF761FC0D480078801C4A
:1049B0000B49087000202649086025480068401C03
:1049C0002349086000201F490860054908781E49EE
:1049D000FFF768FC012001F0D5FECBE604010020C2
:1049E000AE000020B4000020426C6F636B696E67FC
:1049F0002055534152543120666F72203320736525
:104A0000636F6E64730D0A0D0A00000021212146B8
:104A10006C6173682046756C6C2121210D0A0000C1
:104A20002E2E2E4F76657277726974696E672050EC
:104A3000726576696F757320496E666F2E2E2E0D26
:104A40000A00000084000020A4000020A90000202B
:104A5000B0000020436F7079696E672050485F5046
:104A60006572696F640D0A00B6000020436F7079AB
:104A7000696E672043315F5048410D0A0000000015
:104A8000C0000020436F7079696E67204348315F32
:104A9000524D530D0A000000BB000020436F707997
:104AA000696E67205048315F4163746976655F4580
:104AB0006E657267790D0A00C5000020436F70793A
:104AC000696E67205048315F46756E64616D656E32
:104AD00074616C5F456E657267790D0A00000000B5
:104AE000CA000020436F7079696E67205048315FBB
:104AF00052656163746976655F456E657267790DAD
:104B00000A000000CF000020436F7079696E6720B3
:104B10005048315F4170706172656E745F456E65BB
:104B20007267790D0A000000D4000020436F70798D
:104B3000696E67205048315F4163746976655F50E4
:104B40006F7765720D0A0000D9000020436F7079FD
:104B5000696E67205048315F46756E64616D656EA1
:104B600074616C5F506F7765720D0A00DE00002083
:104B7000436F7079696E67205048315F5265616399
:104B8000746976655F506F7765720D0A00000000EA
:104B9000E3000020436F7079696E67205048315FF1
:104BA0004170706172656E745F524D535F506F77E4
:104BB00065720D0A00000000E8000020436F707964
:104BC000696E6720546F74616C5F416374697665C8
:104BD0005F456E657267790D0A000000ED000020E8
:104BE000436F7079696E6720546F74616C5F4675AE
:104BF0006E64616D656E74616C5F456E6572677938
:104C00000D0A0000F2000020436F7079696E672082
:104C1000546F74616C5F52656163746976655F455A
:104C20006E657267790D0A00F7000020436F707996
:104C3000696E6720546F74616C5F4170706172655A
:104C40006E745F456E657267790D0A00FC00002086
:104C50008AB0002002F0EAF92449086000BF04226B
:104C600008A92348FEF752FD22480068012839D1DF
:104C700000200690079000249DF8200044EA00647C
:104C80009DF8210044EA00449DF8220044EA0024F3
:104C90009DF823000443082206A9204601F08AFA61
:104CA00000F0F4FC9DF81F009DF81E109DF81D20DB
:104CB0009DF81C30CDE90232CDE904109DF81B00AF
:104CC0009DF81A10CDE900109DF819309DF81820B4
:104CD000214609A001F03AFD00F0C8FC002005497A
:104CE000086000BF012001F04DFDB8E70801002079
:104CF0004C0500208C00002052656164696E6720BD
:104D0000616464723A202578202C446174613A20F1
:104D100025782025782025782025782025782025BD
:104D200078202578202578200D0A0D0A0000000043
:104D300010B500BF502080F31188BFF34F8FBFF331
:104D40006F8F00BF03F0A0F818B14FF080500449F6
:104D5000086000BF002080F3118800BF10BD000074
:104D600004ED00E000B5AFB044211EA8FBF7E7FA60
:104D7000142119A8FBF7E3FA602101A8FBF7DFFA79
:104D8000FCF7E6FE2C48006820F018002A4990390C
:104D9000C1F8900014201E90012020902490002043
:104DA0002590602026900220289001211EA8C16233
:104DB000016328214163072181630221C1630164EA
:104DC000FDF744FA08B1FCF779FB0F201990032096
:104DD0001A9000201B901C901D90042119A8FDF72B
:104DE000B5F808B1FCF76AFB42F20500019000201B
:104DF00009900B904FF080601390012002900121E8
:104E00000391182104910721059102210691079130
:104E10000105089101A8FCF7AFFE08B1FCF74EFBB5
:104E20004FF40070FCF746FE08B1FCF747FBFCF7B7
:104E300099FE2FB000BD000090100240104800689D
:104E400040F470000E4908600E48006840F0010010
:104E50000C49086000208860084600680A4908403C
:104E6000084908608814C8600846006820F480205B
:104E7000086000208861C8030149803908607047D4
:104E800088ED00E000100240FFFFF6EA10B502488E
:104E9000FEF7B9F910BD0000400A002010B5026805
:104EA000184B984202D0B0F1804F03D122F070022B
:104EB0004B681A43134B984208D0B0F1804F05D08D
:104EC000114B984202D0114B984203D122F4407208
:104ED000CB681A4322F080034C6943EA0402026063
:104EE0008B68C3620B688362064B984205D0064B01
:104EF000984202D0054B984201D10B69036301230C
:104F0000436110BD002C01400040014000440140BD
:104F100090F8241001F0010139B10168496821F4C9
:104F20000031826A11430268516090F8241001F048
:104F30000201022907D10168496821F48031C26A5F
:104F400011430268516090F8241001F00401042913
:104F500007D10168496821F48021026B114302687E
:104F6000516090F8241001F00801082907D1016868
:104F7000496821F40041426B11430268516090F886
:104F8000241001F01001102907D10168896821F46B
:104F90008051826B11430268916090F8241001F0F7
:104FA0002001202907D10168896821F40051C26BD2
:104FB00011430268916090F8241001F040014029EB
:104FC00013D10168496821F48011026C1143026811
:104FD0005160016CB1F5801F07D10168496821F467
:104FE000C001426C11430268516090F8241001F036
:104FF0008001802907D10168496821F40021826C71
:10500000114302685160704738B504460020E067DC
:10501000FCF796FB05462068006800F008000828A9
:105020000CD16FF07E402B4600224FF4001100900F
:10503000204600F0B0FA08B1032038BD20680068AF
:1050400000F0040004280CD16FF07E402B460022B3
:105050004FF480010090204600F09DFA08B1032033
:10506000EBE720206067A06700BF002084F8700095
:1050700000BF00BFE1E770B50546AC6A0020A4F8A8
:105080005A00A4F852002046FEF7AAF970BD016844
:10509000096821F49071026811600168896821F043
:1050A000010102689160202181670021016670473B
:1050B00010B504462068006820F0400021680860B0
:1050C00020206067002060662046FEF729FC10BDA6
:1050D0002DE9F0410446B4F85C70A06F222824D179
:1050E0002068868C656D06EA07002880606D801C4C
:1050F0006065B4F85A00401EA4F85A00B4F85A008B
:10510000C8B92068006820F49070216808602068A1
:10511000806820F00100216888602020A0670020BE
:1051200020662046FEF764FB05E02068008B40F017
:10513000080021680883BDE8F08170B50446B4F822
:105140005C60A06F222824D12068858CF0B22840B2
:10515000616D0870606D401C6065B4F85A00401EB7
:10516000A4F85A00B4F85A00C8B92068006820F4BE
:105170009070216808602068806820F00100216834
:1051800088602020A067002020662046FEF730FBC4
:1051900005E02068008B40F008002168088370BD9E
:1051A0002DE9F84F04460027002000908146EF4982
:1051B0002068884200D100E000BF2169A068084350
:1051C00061690843E16940EA010820680068E8492C
:1051D000084040EA0800216808602068406820F420
:1051E0004050E168084321684860D4F81880DF49DE
:1051F0002068884202D0206A40EA08082068806857
:1052000020F4306040EA08002168886000BFD94976
:105210002068884216D1D848006800F0030030B1F9
:10522000012808D0022804D0032808D105E0012570
:1052300007E0022505E0042503E0082501E010252C
:1052400000BF54E0CD492068884216D1CA480068A2
:1052500000F00C0030B1042808D0082804D00C2835
:1052600008D105E0002507E0022505E0042503E05C
:10527000082501E0102500BF39E0C14920688842B7
:1052800016D1BD48006800F0300030B1102808D0B9
:10529000202804D0302808D105E0002507E00225A9
:1052A00005E0042503E0082501E0102500BF1EE00D
:1052B000AE492068884219D1AF48006800F44060C8
:1052C00048B1B0F5806F0AD0B0F5006F05D0B0F5E9
:1052D000406F08D105E0002507E0022505E0042520
:1052E00003E0082501E0102500BF00E0102500BF05
:1052F0009E49206888426ED135B1022D08D0042D18
:1053000009D0082D0ED10AE0FCF706FF81460CE01B
:10531000DFF8709209E0FCF723FF814605E04FF4C7
:10532000004902E00120009000BF00BFB9F1000F6A
:105330000AD0606800EB4000484503D8606800036D
:10534000484502D2012000900AE135B1022D1AD061
:10535000042D2AD0082D52D13EE0FCF7DDFE064692
:105360004FF48070A6FB0031D4F804E04FEA5E00F1
:1053700013EB000B41F10001724600235846FAF787
:1053800091FF07463EE0D4F804E04FEA5E000021BA
:105390007D4B10EB030B41EB010C72460B4658465C
:1053A0006146FAF77FFF07462CE0FCF7D9FE064678
:1053B0004FF48070A6FB0031D4F804E04FEA5E00A1
:1053C00013EB000B41F10001724600235846FAF737
:1053D00069FF074616E022E0D4F804E04FEA5E00D9
:1053E00000214FF4000310EB030B41EB010C72465C
:1053F0000B4658466146FAF755FF074602E0012082
:10540000009000BF00BFB7F5407F05D3B7F5801F00
:1054100002D22068C760A3E001200090A0E0E0690C
:10542000B0F5004F54D1092D3AD2DFE805F0051050
:105430001B39243939392F00FCF76EFE06467000FF
:10544000616800EB5100B0FBF1F087B22BE0FCF794
:1054500075FE06467000616800EB5100B0FBF1F08C
:1054600087B220E04949606801EB50006168B0FBF9
:10547000F1F087B217E0FCF773FE06467000616832
:1054800000EB5100B0FBF1F087B20CE04FF480313B
:10549000606801EB50006168B0FBF1F087B202E098
:1054A0000120009000BF00BF102F0ED3B7F5803F42
:1054B0000BD24FF6F07007EA000AC7F342004AEA3F
:1054C000000A2068C0F80CA04AE00120009047E0E4
:1054D000092D37D2DFE805F0050F193622363636AA
:1054E0002C00FCF719FE0646616806EB5100B0FB84
:1054F000F1F087B229E0FCF721FE0646616806EB71
:105500005100B0FBF1F087B21FE01E49606801EB6B
:1055100050006168B0FBF1F087B216E0FCF720FEA6
:105520000646616806EB5100B0FBF1F087B20CE073
:105530004FF40041606801EB50006168B0FBF1F08E
:1055400087B202E00120009000BF00BF102F05D3FA
:10555000B7F5803F02D22068C76001E001200090CB
:10556000002020666066009800F012B800800040BD
:10557000F369FFEF0038014088100240004400400A
:10558000004800400024F400000024F40048E80132
:1055900018BCBDE8E08F2DE9F04104460D461746E2
:1055A0009846069E45E0701C002842D0FCF7C8F8DB
:1055B000A0EB0800B04200D8B6B92068006820F41B
:1055C000D070216808602068806820F001002168A0
:1055D000886020206067A06700BF002084F870000A
:1055E00000BF0320BDE8F0812068006800F00400DF
:1055F000F8B12068C069C0F3C020D0B14FF400609A
:10560000216808622068006820F4D0702168086072
:105610002068806820F00100216888602020606791
:10562000A067E06700BF002084F8700000BF03207F
:10563000D8E72068C0692840A84201D1012000E0D5
:105640000020B842AFD00020CCE7000010B50248DF
:10565000FDF7C8FE10BD0000CC04002010B50248C4
:10566000FDF7C0FE10BD00004C05002010B5002263
:1056700001210548FCF75EF8002280214FF09040A0
:10568000FCF758F810BD00000004004810B50122D6
:1056900011460548FCF74EF8012280214FF090405A
:1056A000FCF748F810BD00000004004810B504469F
:1056B000002010BD0146B1F85800C0F30E00A1F85B
:1056C00058000020704710B50446012024F8400F10
:1056D00000202080A0802082403C204600F00CF872
:1056E000002010BD01464BF68072B1F84000904397
:1056F000A1F840000020704701464BF68072B1F8D7
:1057000040001043A1F840000020704702460020EE
:10571000704700BFFEE7000037B514460846064B49
:105720006A46214600F0FCF804466946002000F075
:1057300091FC20463EBD000055600008024800680C
:10574000C0F30220704700000CED00E010B5002807
:1057500004DB0A07130E054A135406E00A07140E69
:10576000034A00F00F031B1FD45410BD00E400E0F7
:1057700018ED00E002E008C8121F08C1002AFAD1A3
:1057800070477047002001E001C1121F002AFBD1C1
:10579000704700002DE9FF5F82B00021DDE9043091
:1057A000020DDDF840B0034318D044F61050A2F2C9
:1057B000FF3242431514119801281FD0A5EB0B00AE
:1057C000401C5FEA000A4FF000064E4FDFF83891A8
:1057D000B046504615D5CAF1000413E011980124D3
:1057E0004AA3012801D16FEA0B010298119AC0E97E
:1057F0000031C0E9024206B000F08EB8CBF10000E3
:10580000DFE704460021404A491842EB0450CDE945
:10581000001012E0E00707D032463B4640464946BA
:10582000FAF7ACFD8046894632463B46104619469B
:10583000FAF7A4FD06460F466410002CEAD1DDE914
:105840000401DDE90023BAF1000F06DAFAF796FD4C
:1058500042464B46FAF792FD05E0FAF704FE42464F
:105860004B46FAF700FE04460E460022284BFAF794
:10587000A7FE03D84FF0FF30014607E00022254B7A
:1058800020463146FAF746FFFAF7F3FF102409E005
:10589000002C0ADB0A220023FAF704FD039B3032B6
:1058A0001A55641E50EA0102F2D1641C039AC4F135
:1058B00011031444119A012A03D0012208430DD187
:1058C0000AE0084304D000204FF0110B119072E75A
:1058D000A3EB0B056D1E0DE05B4504DD4FF00002F0
:1058E00005F1010504E003DA4FF00002A5F101051E
:1058F000002AECD002981199C0E90231C0E90045B4
:1059000079E70000000014400000F03F3000000084
:105910000000F0430000E03F30BCBDE8C09F000045
:105920002DE9FF4F95B09B468946064600250FE2BC
:10593000252877D100242746F84A0121059400E064
:10594000044316F8013F203B01FA03F01042F7D15F
:1059500030782A2811D06FF02F033078A0F1300270
:10596000092A16D8059A44F0020402EB820203EBDE
:1059700042021044761C0590EFE759F8042B05927B
:10598000002A03DA504244F40054059044F0020423
:10599000761C30782E2816D116F8010F44F0040436
:1059A0002A280DD06FF02F023078A0F13003092B98
:1059B00009D807EB870302EB4303C718761CF3E70C
:1059C00059F8047B761C30786C280FD006DC4C2804
:1059D00017D068280DD06A2814D104E0742810D09C
:1059E0007A280FD10DE044F400140AE044F4801446
:1059F00001E044F440147278824202D104F580142C
:105A0000761C761C307866280BD013DC582877D0AB
:105A100009DC002875D04528F6D04628F4D0472860
:105A20001AD19DE118E0632835D0642879D0652823
:105A300012D195E1702873D008DC6728F1D069286D
:105A40006FD06E280DD06F2806D1B5E073282CD00A
:105A5000752875D0782874D05A46179990476D1CD0
:105A600075E1C4F30250022809D003280DD0D9F8FB
:105A7000001004280DD00D6009F1040967E1D9F880
:105A80000010EA17C1E90052F6E7D9F800100D80BE
:105A9000F2E70D70F0E719F8041B8DF800100020F4
:105AA0008DF80100EA46012003E059F804AB4FF0FD
:105AB000FF3061074FF0000102D40DE008F1010151
:105AC0008846B9420FDA8045F8DB1AF80810002939
:105AD000F4D108E008F1010188468142FADB1AF8A6
